{
  "_format": "hh-sol-artifact-1",
  "contractName": "ReentrancyTokenAttacker",
  "sourceName": "contracts/test/ReentrancyTokenAttacker.sol",
  "abi": [
    {
      "inputs": [
        {
          "internalType": "address",
          "name": "_serviceRegistryTokenUtility",
          "type": "address"
        }
      ],
      "stateMutability": "nonpayable",
      "type": "constructor"
    },
    {
      "inputs": [],
      "name": "FailedTransfer",
      "type": "error"
    },
    {
      "inputs": [],
      "name": "FailedTransferFrom",
      "type": "error"
    },
    {
      "inputs": [
        {
          "internalType": "uint256",
          "name": "",
          "type": "uint256"
        }
      ],
      "name": "agentIds",
      "outputs": [
        {
          "internalType": "uint32",
          "name": "",
          "type": "uint32"
        }
      ],
      "stateMutability": "view",
      "type": "function"
    },
    {
      "inputs": [
        {
          "internalType": "address",
          "name": "",
          "type": "address"
        },
        {
          "internalType": "address",
          "name": "",
          "type": "address"
        }
      ],
      "name": "allowance",
      "outputs": [
        {
          "internalType": "uint256",
          "name": "",
          "type": "uint256"
        }
      ],
      "stateMutability": "pure",
      "type": "function"
    },
    {
      "inputs": [],
      "name": "balance",
      "outputs": [
        {
          "internalType": "uint256",
          "name": "",
          "type": "uint256"
        }
      ],
      "stateMutability": "view",
      "type": "function"
    },
    {
      "inputs": [
        {
          "internalType": "address",
          "name": "",
          "type": "address"
        }
      ],
      "name": "balanceOf",
      "outputs": [
        {
          "internalType": "uint256",
          "name": "",
          "type": "uint256"
        }
      ],
      "stateMutability": "view",
      "type": "function"
    },
    {
      "inputs": [],
      "name": "serviceRegistryTokenUtility",
      "outputs": [
        {
          "internalType": "address",
          "name": "",
          "type": "address"
        }
      ],
      "stateMutability": "view",
      "type": "function"
    },
    {
      "inputs": [
        {
          "internalType": "enum ReentrancyTokenAttacker.AttackState",
          "name": "_state",
          "type": "uint8"
        }
      ],
      "name": "setAttackState",
      "outputs": [],
      "stateMutability": "nonpayable",
      "type": "function"
    },
    {
      "inputs": [],
      "name": "state",
      "outputs": [
        {
          "internalType": "enum ReentrancyTokenAttacker.AttackState",
          "name": "",
          "type": "uint8"
        }
      ],
      "stateMutability": "view",
      "type": "function"
    },
    {
      "inputs": [
        {
          "internalType": "address",
          "name": "",
          "type": "address"
        },
        {
          "internalType": "uint256",
          "name": "amount",
          "type": "uint256"
        }
      ],
      "name": "transfer",
      "outputs": [],
      "stateMutability": "nonpayable",
      "type": "function"
    },
    {
      "inputs": [
        {
          "internalType": "address",
          "name": "",
          "type": "address"
        },
        {
          "internalType": "address",
          "name": "",
          "type": "address"
        },
        {
          "internalType": "uint256",
          "name": "amount",
          "type": "uint256"
        }
      ],
      "name": "transferFrom",
      "outputs": [],
      "stateMutability": "nonpayable",
      "type": "function"
    }
  ],
  "bytecode": "0x60a060405234801561000f575f5ffd5b506040516109d83803806109d883398101604081905261002e9161003f565b6001600160a01b031660805261006c565b5f6020828403121561004f575f5ffd5b81516001600160a01b0381168114610065575f5ffd5b9392505050565b6080516109326100a65f395f818160bd015281816102600152818161030d01528181610427015281816104d7015261054001526109325ff3fe608060405234801561000f575f5ffd5b506004361061009f575f3560e01c8063960063b211610072578063b69ef8a811610058578063b69ef8a81461016d578063c19d93fb14610176578063dd62ed3e1461018f575f5ffd5b8063960063b214610147578063a9059cbb1461015a575f5ffd5b806323b872dd146100a357806328714051146100b857806356e76058146100fc57806370a0823114610124575b5f5ffd5b6100b66100b13660046105b5565b6101a2565b005b6100df7f000000000000000000000000000000000000000000000000000000000000000081565b6040516001600160a01b0390911681526020015b60405180910390f35b61010f61010a3660046105ef565b610362565b60405163ffffffff90911681526020016100f3565b610139610132366004610606565b5060015490565b6040519081526020016100f3565b6100b6610155366004610626565b610399565b6100b6610168366004610644565b6103bf565b61013960015481565b5f546101829060ff1681565b6040516100f39190610680565b61013961019d3660046106a6565b610591565b60045f5460ff1660098111156101ba576101ba61066c565b036101d857604051632a0f11d560e21b815260040160405180910390fd5b60015f5460ff1660098111156101f0576101f061066c565b036101fe575f600155505050565b60025f5460ff1660098111156102165761021661066c565b0361022e576102268160036106eb565b600155505050565b60055f5460ff1660098111156102465761024661066c565b036102d95760405163542db44960e01b81525f60048201527f00000000000000000000000000000000000000000000000000000000000000006001600160a01b03169063542db449906024015b6020604051808303815f875af11580156102af573d5f5f3e3d5ffd5b505050506040513d601f19601f820116820180604052508101906102d39190610702565b50505050565b60065f5460ff1660098111156102f1576102f161066c565b036103475760405163dc4f8bc560e01b81526001600160a01b037f0000000000000000000000000000000000000000000000000000000000000000169063dc4f8bc5906102939030905f90600290600401610721565b8060015f82825461035891906108d2565b9091555050505050565b60028181548110610371575f80fd5b905f5260205f209060089182820401919006600402915054906101000a900463ffffffff1681565b5f805482919060ff191660018360098111156103b7576103b761066c565b021790555050565b60035f5460ff1660098111156103d7576103d761066c565b036103f55760405163bfa871c560e01b815260040160405180910390fd5b60075f5460ff16600981111561040d5761040d61066c565b0361049f576040516325e1afc360e01b81525f60048201527f00000000000000000000000000000000000000000000000000000000000000006001600160a01b0316906325e1afc3906024015b6020604051808303815f875af1158015610476573d5f5f3e3d5ffd5b505050506040513d601f19601f8201168201806040525081019061049a91906108e5565b505050565b60085f5460ff1660098111156104b7576104b761066c565b0361050e5760405163161e984960e31b81523060048201525f60248201527f00000000000000000000000000000000000000000000000000000000000000006001600160a01b03169063b0f4c2489060440161045a565b60095f5460ff1660098111156105265761052661066c565b0361057757604051637672989960e11b81523060048201527f00000000000000000000000000000000000000000000000000000000000000006001600160a01b03169063ece531329060240161045a565b8060015f82825461058891906108d2565b90915550505050565b5f195b92915050565b80356001600160a01b03811681146105b0575f5ffd5b919050565b5f5f5f606084860312156105c7575f5ffd5b6105d08461059a565b92506105de6020850161059a565b929592945050506040919091013590565b5f602082840312156105ff575f5ffd5b5035919050565b5f60208284031215610616575f5ffd5b61061f8261059a565b9392505050565b5f60208284031215610636575f5ffd5b8135600a811061061f575f5ffd5b5f5f60408385031215610655575f5ffd5b61065e8361059a565b946020939093013593505050565b634e487b7160e01b5f52602160045260245ffd5b60208101600a83106106a057634e487b7160e01b5f52602160045260245ffd5b91905290565b5f5f604083850312156106b7575f5ffd5b6106c08361059a565b91506106ce6020840161059a565b90509250929050565b634e487b7160e01b5f52601160045260245ffd5b8082028115828204841417610594576105946106d7565b5f60208284031215610712575f5ffd5b8151801515811461061f575f5ffd5b5f606082016001600160a01b038616835284602084015260606040840152808454610750818490815260200190565b5f8781526020812094509092505b816007820110156107d657835463ffffffff8082168552602082811c821690860152604082811c821690860152606082811c821690860152608082811c82169086015260a082811c82169086015260c082811c9091169085015260e090811c908401526001909301926101009092019160080161075e565b925492818110156107f45763ffffffff841683526020909201916001015b8181101561081457602084901c63ffffffff168352602092909201916001015b818110156108335763ffffffff604085901c1683526020909201916001015b818110156108525763ffffffff606085901c1683526020909201916001015b818110156108715763ffffffff608085901c1683526020909201916001015b818110156108905763ffffffff60a085901c1683526020909201916001015b818110156108af5763ffffffff60c085901c1683526020909201916001015b818110156108c55760e084901c83526020830192505b5090979650505050505050565b80820180821115610594576105946106d7565b5f602082840312156108f5575f5ffd5b505191905056fea264697066735822122092cabdff4cc806738739d62cfdd61ecb5bf96265f435fe1d0c8c413cc4096e8064736f6c634300081c0033",
  "linkReferences": {},
  "deployedLinkReferences": {}
}