{
  "_format": "hh-sol-artifact-1",
  "contractName": "ReentrancyAttacker",
  "sourceName": "contracts/test/ReentrancyAttacker.sol",
  "abi": [
    {
      "inputs": [
        {
          "internalType": "address",
          "name": "_componentRegistry",
          "type": "address"
        },
        {
          "internalType": "address",
          "name": "_serviceRegistry",
          "type": "address"
        }
      ],
      "stateMutability": "nonpayable",
      "type": "constructor"
    },
    {
      "inputs": [
        {
          "internalType": "uint256",
          "name": "",
          "type": "uint256"
        }
      ],
      "name": "agentIds",
      "outputs": [
        {
          "internalType": "uint32",
          "name": "",
          "type": "uint32"
        }
      ],
      "stateMutability": "view",
      "type": "function"
    },
    {
      "inputs": [
        {
          "internalType": "uint256",
          "name": "",
          "type": "uint256"
        }
      ],
      "name": "agentParams",
      "outputs": [
        {
          "internalType": "uint32",
          "name": "slots",
          "type": "uint32"
        },
        {
          "internalType": "uint96",
          "name": "bond",
          "type": "uint96"
        }
      ],
      "stateMutability": "view",
      "type": "function"
    },
    {
      "inputs": [],
      "name": "attackOnCreate",
      "outputs": [
        {
          "internalType": "bool",
          "name": "",
          "type": "bool"
        }
      ],
      "stateMutability": "view",
      "type": "function"
    },
    {
      "inputs": [],
      "name": "attackOnTerminate",
      "outputs": [
        {
          "internalType": "bool",
          "name": "",
          "type": "bool"
        }
      ],
      "stateMutability": "view",
      "type": "function"
    },
    {
      "inputs": [],
      "name": "attackOnUnbond",
      "outputs": [
        {
          "internalType": "bool",
          "name": "",
          "type": "bool"
        }
      ],
      "stateMutability": "view",
      "type": "function"
    },
    {
      "inputs": [],
      "name": "badAction",
      "outputs": [
        {
          "internalType": "bool",
          "name": "",
          "type": "bool"
        }
      ],
      "stateMutability": "view",
      "type": "function"
    },
    {
      "inputs": [],
      "name": "componentRegistry",
      "outputs": [
        {
          "internalType": "address",
          "name": "",
          "type": "address"
        }
      ],
      "stateMutability": "view",
      "type": "function"
    },
    {
      "inputs": [],
      "name": "configHash",
      "outputs": [
        {
          "internalType": "bytes32",
          "name": "",
          "type": "bytes32"
        }
      ],
      "stateMutability": "view",
      "type": "function"
    },
    {
      "inputs": [
        {
          "internalType": "address[]",
          "name": "",
          "type": "address[]"
        },
        {
          "internalType": "uint256",
          "name": "",
          "type": "uint256"
        },
        {
          "internalType": "bytes",
          "name": "",
          "type": "bytes"
        }
      ],
      "name": "create",
      "outputs": [
        {
          "internalType": "address",
          "name": "",
          "type": "address"
        }
      ],
      "stateMutability": "nonpayable",
      "type": "function"
    },
    {
      "inputs": [
        {
          "internalType": "address",
          "name": "_unitOwner",
          "type": "address"
        },
        {
          "internalType": "bytes32",
          "name": "_unitHash",
          "type": "bytes32"
        },
        {
          "internalType": "uint32[]",
          "name": "_dependencies",
          "type": "uint32[]"
        }
      ],
      "name": "createBadComponent",
      "outputs": [
        {
          "internalType": "uint256",
          "name": "unitId",
          "type": "uint256"
        }
      ],
      "stateMutability": "nonpayable",
      "type": "function"
    },
    {
      "inputs": [
        {
          "internalType": "address",
          "name": "_serviceOwner",
          "type": "address"
        },
        {
          "internalType": "bytes32",
          "name": "_configHash",
          "type": "bytes32"
        },
        {
          "internalType": "uint32[]",
          "name": "_agentIds",
          "type": "uint32[]"
        },
        {
          "components": [
            {
              "internalType": "uint32",
              "name": "slots",
              "type": "uint32"
            },
            {
              "internalType": "uint96",
              "name": "bond",
              "type": "uint96"
            }
          ],
          "internalType": "struct AgentParams[]",
          "name": "_agentParams",
          "type": "tuple[]"
        },
        {
          "internalType": "uint32",
          "name": "_threshold",
          "type": "uint32"
        }
      ],
      "name": "createBadService",
      "outputs": [
        {
          "internalType": "uint256",
          "name": "serviceId",
          "type": "uint256"
        }
      ],
      "stateMutability": "nonpayable",
      "type": "function"
    },
    {
      "inputs": [
        {
          "internalType": "address",
          "name": "_serviceOwner",
          "type": "address"
        },
        {
          "internalType": "uint256",
          "name": "_serviceId",
          "type": "uint256"
        },
        {
          "internalType": "address",
          "name": "_multisigImplementation",
          "type": "address"
        },
        {
          "internalType": "bytes",
          "name": "_data",
          "type": "bytes"
        }
      ],
      "name": "deployBadMultisig",
      "outputs": [
        {
          "internalType": "address",
          "name": "",
          "type": "address"
        }
      ],
      "stateMutability": "nonpayable",
      "type": "function"
    },
    {
      "inputs": [],
      "name": "drainFromBadAddress",
      "outputs": [
        {
          "internalType": "uint256",
          "name": "",
          "type": "uint256"
        }
      ],
      "stateMutability": "nonpayable",
      "type": "function"
    },
    {
      "inputs": [
        {
          "internalType": "address",
          "name": "",
          "type": "address"
        },
        {
          "internalType": "address",
          "name": "",
          "type": "address"
        },
        {
          "internalType": "uint256",
          "name": "",
          "type": "uint256"
        },
        {
          "internalType": "bytes",
          "name": "",
          "type": "bytes"
        }
      ],
      "name": "onERC721Received",
      "outputs": [
        {
          "internalType": "bytes4",
          "name": "",
          "type": "bytes4"
        }
      ],
      "stateMutability": "nonpayable",
      "type": "function"
    },
    {
      "inputs": [],
      "name": "serviceOwner",
      "outputs": [
        {
          "internalType": "address",
          "name": "",
          "type": "address"
        }
      ],
      "stateMutability": "view",
      "type": "function"
    },
    {
      "inputs": [],
      "name": "serviceRegistry",
      "outputs": [
        {
          "internalType": "address",
          "name": "",
          "type": "address"
        }
      ],
      "stateMutability": "view",
      "type": "function"
    },
    {
      "inputs": [
        {
          "internalType": "bool",
          "name": "_attackOnCreate",
          "type": "bool"
        }
      ],
      "name": "setAttackOnCreate",
      "outputs": [],
      "stateMutability": "nonpayable",
      "type": "function"
    },
    {
      "inputs": [
        {
          "internalType": "address",
          "name": "_serviceOwner",
          "type": "address"
        },
        {
          "internalType": "uint256",
          "name": "_serviceId",
          "type": "uint256"
        }
      ],
      "name": "terminateBadRefund",
      "outputs": [
        {
          "internalType": "bool",
          "name": "",
          "type": "bool"
        },
        {
          "internalType": "uint256",
          "name": "",
          "type": "uint256"
        }
      ],
      "stateMutability": "nonpayable",
      "type": "function"
    },
    {
      "inputs": [],
      "name": "threshold",
      "outputs": [
        {
          "internalType": "uint32",
          "name": "",
          "type": "uint32"
        }
      ],
      "stateMutability": "view",
      "type": "function"
    },
    {
      "inputs": [
        {
          "internalType": "address",
          "name": "operator",
          "type": "address"
        },
        {
          "internalType": "uint256",
          "name": "serviceId",
          "type": "uint256"
        }
      ],
      "name": "unbondBadOperator",
      "outputs": [
        {
          "internalType": "bool",
          "name": "",
          "type": "bool"
        },
        {
          "internalType": "uint256",
          "name": "",
          "type": "uint256"
        }
      ],
      "stateMutability": "nonpayable",
      "type": "function"
    },
    {
      "stateMutability": "payable",
      "type": "receive"
    }
  ],
  "bytecode": "0x60c060405234801561000f575f5ffd5b506040516118cc3803806118cc83398101604081905261002e91610060565b6001600160a01b039182166080521660a052610091565b80516001600160a01b038116811461005b575f5ffd5b919050565b5f5f60408385031215610071575f5ffd5b61007a83610045565b915061008860208401610045565b90509250929050565b60805160a0516117bf61010d5f395f818161018f015281816102390152818161027201528181610587015281816106b00152818161075c0152818161085c01528181610a8701528181610bad01528181610c4a01528181610d020152610dcf01525f8181610658015281816107ba0152610b2901526117bf5ff3fe60806040526004361061015a575f3560e01c8063a4f4d379116100bb578063cf9a8bb611610071578063e86834be11610057578063e86834be14610606578063f398dba814610628578063ff0039cb14610647575f5ffd5b8063cf9a8bb6146105a9578063e1f1176d146105f1575f5ffd5b8063c4dcfe39116100a1578063c4dcfe3914610514578063c8d3cda314610538578063cbcf252a14610576575f5ffd5b8063a4f4d379146104d3578063bad68653146104f1575f5ffd5b8063600277db116101105780636ff51dd9116100f65780636ff51dd91461044c5780637b6361d6146104835780639dcc65c6146104a2575f5ffd5b8063600277db146104195780636b95d12714610438575f5ffd5b806342cde4e81161014057806342cde4e81461039c57806356e76058146103cd5780635d8643ee146103ec575f5ffd5b806313064f9914610311578063150b7a021461034c575f5ffd5b3661030d576004546601000000000000900460ff16156102085760405163ccc9305d60e01b81523060048201525f60248201527f00000000000000000000000000000000000000000000000000000000000000006001600160a01b03169063ccc9305d906044015b60408051808303815f875af11580156101dd573d5f5f3e3d5ffd5b505050506040513d601f19601f820116820180604052508101906102019190610ea4565b50506102f3565b600454670100000000000000900460ff1615610270576040516352e82ce560e11b81523060048201525f60248201527f00000000000000000000000000000000000000000000000000000000000000006001600160a01b03169063a5d059ca906044016101c2565b7f00000000000000000000000000000000000000000000000000000000000000006001600160a01b0316639890220b6040518163ffffffff1660e01b81526004016020604051808303815f875af11580156102cd573d5f5f3e3d5ffd5b505050506040513d601f19601f820116820180604052508101906102f19190610ed0565b505b6004805467ffff00ff000000001916640100000000179055005b5f5ffd5b34801561031c575f5ffd5b5061033061032b366004610efb565b61067a565b6040805192151583526020830191909152015b60405180910390f35b348015610357575f5ffd5b5061036b610366366004610fff565b610743565b6040517fffffffff000000000000000000000000000000000000000000000000000000009091168152602001610343565b3480156103a7575f5ffd5b506004546103b89063ffffffff1681565b60405163ffffffff9091168152602001610343565b3480156103d8575f5ffd5b506103b86103e7366004611067565b610905565b3480156103f7575f5ffd5b5061040b61040636600461112a565b61093c565b604051908152602001610343565b348015610424575f5ffd5b5061040b61043336600461125b565b610b10565b348015610443575f5ffd5b5061040b610baa565b348015610457575f5ffd5b5061046b6104663660046112b0565b610c31565b6040516001600160a01b039091168152602001610343565b34801561048e575f5ffd5b5061033061049d366004610efb565b610cce565b3480156104ad575f5ffd5b506004546104c390640100000000900460ff1681565b6040519015158152602001610343565b3480156104de575f5ffd5b505f5461046b906001600160a01b031681565b3480156104fc575f5ffd5b506004546104c3906601000000000000900460ff1681565b34801561051f575f5ffd5b506004546104c390670100000000000000900460ff1681565b348015610543575f5ffd5b50610574610552366004611300565b60048054911515650100000000000265ff000000000019909216919091179055565b005b348015610581575f5ffd5b5061046b7f000000000000000000000000000000000000000000000000000000000000000081565b3480156105b4575f5ffd5b506105c86105c3366004611067565b610d4b565b6040805163ffffffff90931683526bffffffffffffffffffffffff909116602083015201610343565b3480156105fc575f5ffd5b5061040b60015481565b348015610611575f5ffd5b506004546104c39065010000000000900460ff1681565b348015610633575f5ffd5b5061046b610642366004611322565b610d87565b348015610652575f5ffd5b5061046b7f000000000000000000000000000000000000000000000000000000000000000081565b6004805467ff0000000000000019166701000000000000001781556040516352e82ce560e11b81525f9182916001600160a01b037f0000000000000000000000000000000000000000000000000000000000000000169163a5d059ca916106f99188918891016001600160a01b03929092168252602082015260400190565b60408051808303815f875af1158015610714573d5f5f3e3d5ffd5b505050506040513d601f19601f820116820180604052508101906107389190610ea4565b915091509250929050565b6004545f9065010000000000900460ff16156108f4575f7f00000000000000000000000000000000000000000000000000000000000000006001600160a01b0316610842576040805160018082528183019092525f9160208083019080368337505060015460405163fbfd24bf60e01b81529293507f00000000000000000000000000000000000000000000000000000000000000006001600160a01b03169263fbfd24bf92506107fa9130918690600401611425565b6020604051808303815f875af1158015610816573d5f5f3e3d5ffd5b505050506040513d601f19601f8201168201806040525081019061083a9190610ed0565b9150506108dd565b60015460405163fbdeb3d760e01b81526001600160a01b037f0000000000000000000000000000000000000000000000000000000000000000169163fbdeb3d79161089a91309160029060039060069060040161149d565b6020604051808303815f875af11580156108b6573d5f5f3e3d5ffd5b505050506040513d601f19601f820116820180604052508101906108da9190610ed0565b90505b506004805464ff0000000019166401000000001790555b50630a85bd0160e11b949350505050565b60028181548110610914575f80fd5b905f5260205f209060089182820401919006600402915054906101000a900463ffffffff1681565b5f610948600282610e5a565b5f5b84518110156109b75760028582815181106109675761096761166b565b6020908102919091018101518254600181810185555f948552929093206008840401805463ffffffff92831660046007909616959095026101000a9485029290940219909316179091550161094a565b505f5b8351811015610a3b5760038482815181106109d7576109d761166b565b6020908102919091018101518254600181810185555f9485529383902082519101805492909301516bffffffffffffffffffffffff16640100000000026fffffffffffffffffffffffffffffffff1990921663ffffffff90911617179055016109ba565b505f80547fffffffffffffffffffffffff0000000000000000000000000000000000000000166001600160a01b0388811691909117909155600186905560405163fbdeb3d760e01b81527f00000000000000000000000000000000000000000000000000000000000000009091169063fbdeb3d790610ac6908990899089908990899060040161167f565b6020604051808303815f875af1158015610ae2573d5f5f3e3d5ffd5b505050506040513d601f19601f82011682018060405250810190610b069190610ed0565b9695505050505050565b60405163fbfd24bf60e01b81525f906001600160a01b037f0000000000000000000000000000000000000000000000000000000000000000169063fbfd24bf90610b6290879087908790600401611425565b6020604051808303815f875af1158015610b7e573d5f5f3e3d5ffd5b505050506040513d601f19601f82011682018060405250810190610ba29190610ed0565b949350505050565b5f7f00000000000000000000000000000000000000000000000000000000000000006001600160a01b0316639890220b6040518163ffffffff1660e01b81526004016020604051808303815f875af1158015610c08573d5f5f3e3d5ffd5b505050506040513d601f19601f82011682018060405250810190610c2c9190610ed0565b905090565b60405163f908bc7760e01b81525f906001600160a01b037f0000000000000000000000000000000000000000000000000000000000000000169063f908bc7790610c85908890889088908890600401611712565b6020604051808303815f875af1158015610ca1573d5f5f3e3d5ffd5b505050506040513d601f19601f82011682018060405250810190610cc5919061176e565b95945050505050565b6004805466ff0000000000001916660100000000000017815560405163ccc9305d60e01b81525f9182916001600160a01b037f0000000000000000000000000000000000000000000000000000000000000000169163ccc9305d916106f99188918891016001600160a01b03929092168252602082015260400190565b60038181548110610d5a575f80fd5b5f9182526020909120015463ffffffff8116915064010000000090046bffffffffffffffffffffffff1682565b5f805460405163f908bc7760e01b81526001600160a01b03918216600482015260248101839052306044820152608060648201526002608482015261060f60f31b60a48201527f00000000000000000000000000000000000000000000000000000000000000009091169063f908bc779060c4016020604051808303815f875af1158015610e17573d5f5f3e3d5ffd5b505050506040513d601f19601f82011682018060405250810190610e3b919061176e565b50506004805464ff000000001916640100000000179055309392505050565b5080545f825560070160089004905f5260205f2090810190610e7c9190610e7f565b50565b5b80821115610e93575f8155600101610e80565b5090565b8015158114610e7c575f5ffd5b5f5f60408385031215610eb5575f5ffd5b8251610ec081610e97565b6020939093015192949293505050565b5f60208284031215610ee0575f5ffd5b5051919050565b6001600160a01b0381168114610e7c575f5ffd5b5f5f60408385031215610f0c575f5ffd5b8235610f1781610ee7565b946020939093013593505050565b634e487b7160e01b5f52604160045260245ffd5b6040805190810167ffffffffffffffff81118282101715610f5c57610f5c610f25565b60405290565b604051601f8201601f1916810167ffffffffffffffff81118282101715610f8b57610f8b610f25565b604052919050565b5f82601f830112610fa2575f5ffd5b813567ffffffffffffffff811115610fbc57610fbc610f25565b610fcf601f8201601f1916602001610f62565b818152846020838601011115610fe3575f5ffd5b816020850160208301375f918101602001919091529392505050565b5f5f5f5f60808587031215611012575f5ffd5b843561101d81610ee7565b9350602085013561102d81610ee7565b925060408501359150606085013567ffffffffffffffff81111561104f575f5ffd5b61105b87828801610f93565b91505092959194509250565b5f60208284031215611077575f5ffd5b5035919050565b5f67ffffffffffffffff82111561109757611097610f25565b5060051b60200190565b803563ffffffff811681146110b4575f5ffd5b919050565b5f82601f8301126110c8575f5ffd5b81356110db6110d68261107e565b610f62565b8082825260208201915060208360051b8601019250858311156110fc575f5ffd5b602085015b8381101561112057611112816110a1565b835260209283019201611101565b5095945050505050565b5f5f5f5f5f60a0868803121561113e575f5ffd5b853561114981610ee7565b945060208601359350604086013567ffffffffffffffff81111561116b575f5ffd5b611177888289016110b9565b935050606086013567ffffffffffffffff811115611193575f5ffd5b8601601f810188136111a3575f5ffd5b80356111b16110d68261107e565b8082825260208201915060208360061b85010192508a8311156111d2575f5ffd5b6020840193505b8284101561123d576040848c0312156111f0575f5ffd5b6111f8610f39565b611201856110a1565b815260208501356bffffffffffffffffffffffff81168114611221575f5ffd5b80602083015250808352506020820191506040840193506111d9565b945061124f92505050608087016110a1565b90509295509295909350565b5f5f5f6060848603121561126d575f5ffd5b833561127881610ee7565b925060208401359150604084013567ffffffffffffffff81111561129a575f5ffd5b6112a6868287016110b9565b9150509250925092565b5f5f5f5f608085870312156112c3575f5ffd5b84356112ce81610ee7565b93506020850135925060408501356112e581610ee7565b9150606085013567ffffffffffffffff81111561104f575f5ffd5b5f60208284031215611310575f5ffd5b813561131b81610e97565b9392505050565b5f5f5f60608486031215611334575f5ffd5b833567ffffffffffffffff81111561134a575f5ffd5b8401601f8101861361135a575f5ffd5b80356113686110d68261107e565b8082825260208201915060208360051b850101925088831115611389575f5ffd5b6020840193505b828410156113b45783356113a381610ee7565b825260209384019390910190611390565b955050505060208401359150604084013567ffffffffffffffff8111156113d9575f5ffd5b6112a686828701610f93565b5f8151808452602084019350602083015f5b8281101561141b57815163ffffffff168652602095860195909101906001016113f7565b5093949350505050565b6001600160a01b0384168152826020820152606060408201525f610cc560608301846113e5565b5f8154808452602084019350825f5260205f205f5b8281101561141b57815463ffffffff81168752602090811c6bffffffffffffffffffffffff169087015260409095019460019182019101611461565b5f60a082016001600160a01b038816835286602084015260a060408401528086546114cc818490815260200190565b5f8981526020812094509092505b8160078201101561155257835463ffffffff8082168552602082811c821690860152604082811c821690860152606082811c821690860152608082811c82169086015260a082811c82169086015260c082811c9091169085015260e090811c90840152600190930192610100909201916008016114da565b925492818110156115705763ffffffff841683526020909201916001015b8181101561159057602084901c63ffffffff168352602092909201916001015b818110156115af5763ffffffff604085901c1683526020909201916001015b818110156115ce5763ffffffff606085901c1683526020909201916001015b818110156115ed5763ffffffff608085901c1683526020909201916001015b8181101561160c5763ffffffff60a085901c1683526020909201916001015b8181101561162b5763ffffffff60c085901c1683526020909201916001015b818110156116415760e084901c83526020830192505b50508381036060850152611655818761144c565b92505050610b06608083018463ffffffff169052565b634e487b7160e01b5f52603260045260245ffd5b6001600160a01b038616815284602082015260a060408201525f6116a660a08301866113e5565b8281036060840152845180825260208087019201905f5b818110156116fb578351805163ffffffff1684526020908101516bffffffffffffffffffffffff1681850152909301926040909201916001016116bd565b505063ffffffff851660808501529150610b069050565b6001600160a01b03851681528360208201526001600160a01b0383166040820152608060608201525f8251806080840152806020850160a085015e5f60a0828501015260a0601f19601f83011684010191505095945050505050565b5f6020828403121561177e575f5ffd5b815161131b81610ee756fea26469706673582212205b77044a887458fc081346b1d086350f49b6c3aef2c6ef32ed70173f41b5ce5364736f6c634300081c0033",
  "linkReferences": {},
  "deployedLinkReferences": {}
}