{
  "_format": "hh-sol-artifact-1",
  "contractName": "OperatorSignedHashes",
  "sourceName": "contracts/utils/OperatorSignedHashes.sol",
  "abi": [
    {
      "inputs": [
        {
          "internalType": "string",
          "name": "_name",
          "type": "string"
        },
        {
          "internalType": "string",
          "name": "_version",
          "type": "string"
        }
      ],
      "stateMutability": "nonpayable",
      "type": "constructor"
    },
    {
      "anonymous": false,
      "inputs": [
        {
          "indexed": true,
          "internalType": "address",
          "name": "operator",
          "type": "address"
        },
        {
          "indexed": false,
          "internalType": "bytes32",
          "name": "hash",
          "type": "bytes32"
        }
      ],
      "name": "OperatorHashApproved",
      "type": "event"
    },
    {
      "inputs": [],
      "name": "DOMAIN_SEPARATOR_TYPE_HASH",
      "outputs": [
        {
          "internalType": "bytes32",
          "name": "",
          "type": "bytes32"
        }
      ],
      "stateMutability": "view",
      "type": "function"
    },
    {
      "inputs": [],
      "name": "REGISTER_AGENTS_TYPE_HASH",
      "outputs": [
        {
          "internalType": "bytes32",
          "name": "",
          "type": "bytes32"
        }
      ],
      "stateMutability": "view",
      "type": "function"
    },
    {
      "inputs": [],
      "name": "UNBOND_TYPE_HASH",
      "outputs": [
        {
          "internalType": "bytes32",
          "name": "",
          "type": "bytes32"
        }
      ],
      "stateMutability": "view",
      "type": "function"
    },
    {
      "inputs": [],
      "name": "chainId",
      "outputs": [
        {
          "internalType": "uint256",
          "name": "",
          "type": "uint256"
        }
      ],
      "stateMutability": "view",
      "type": "function"
    },
    {
      "inputs": [],
      "name": "domainSeparator",
      "outputs": [
        {
          "internalType": "bytes32",
          "name": "",
          "type": "bytes32"
        }
      ],
      "stateMutability": "view",
      "type": "function"
    },
    {
      "inputs": [],
      "name": "getDomainSeparator",
      "outputs": [
        {
          "internalType": "bytes32",
          "name": "",
          "type": "bytes32"
        }
      ],
      "stateMutability": "view",
      "type": "function"
    },
    {
      "inputs": [
        {
          "internalType": "address",
          "name": "operator",
          "type": "address"
        },
        {
          "internalType": "uint256",
          "name": "serviceId",
          "type": "uint256"
        }
      ],
      "name": "getOperatorRegisterAgentsNonce",
      "outputs": [
        {
          "internalType": "uint256",
          "name": "nonce",
          "type": "uint256"
        }
      ],
      "stateMutability": "view",
      "type": "function"
    },
    {
      "inputs": [
        {
          "internalType": "address",
          "name": "operator",
          "type": "address"
        },
        {
          "internalType": "uint256",
          "name": "serviceId",
          "type": "uint256"
        }
      ],
      "name": "getOperatorUnbondNonce",
      "outputs": [
        {
          "internalType": "uint256",
          "name": "nonce",
          "type": "uint256"
        }
      ],
      "stateMutability": "view",
      "type": "function"
    },
    {
      "inputs": [
        {
          "internalType": "address",
          "name": "operator",
          "type": "address"
        },
        {
          "internalType": "address",
          "name": "serviceOwner",
          "type": "address"
        },
        {
          "internalType": "uint256",
          "name": "serviceId",
          "type": "uint256"
        },
        {
          "internalType": "address[]",
          "name": "agentInstances",
          "type": "address[]"
        },
        {
          "internalType": "uint32[]",
          "name": "agentIds",
          "type": "uint32[]"
        },
        {
          "internalType": "uint256",
          "name": "nonce",
          "type": "uint256"
        }
      ],
      "name": "getRegisterAgentsHash",
      "outputs": [
        {
          "internalType": "bytes32",
          "name": "",
          "type": "bytes32"
        }
      ],
      "stateMutability": "view",
      "type": "function"
    },
    {
      "inputs": [
        {
          "internalType": "address",
          "name": "operator",
          "type": "address"
        },
        {
          "internalType": "address",
          "name": "serviceOwner",
          "type": "address"
        },
        {
          "internalType": "uint256",
          "name": "serviceId",
          "type": "uint256"
        },
        {
          "internalType": "uint256",
          "name": "nonce",
          "type": "uint256"
        }
      ],
      "name": "getUnbondHash",
      "outputs": [
        {
          "internalType": "bytes32",
          "name": "",
          "type": "bytes32"
        }
      ],
      "stateMutability": "view",
      "type": "function"
    },
    {
      "inputs": [
        {
          "internalType": "address",
          "name": "operator",
          "type": "address"
        },
        {
          "internalType": "bytes32",
          "name": "hash",
          "type": "bytes32"
        }
      ],
      "name": "isOperatorHashApproved",
      "outputs": [
        {
          "internalType": "bool",
          "name": "",
          "type": "bool"
        }
      ],
      "stateMutability": "view",
      "type": "function"
    },
    {
      "inputs": [
        {
          "internalType": "address",
          "name": "",
          "type": "address"
        },
        {
          "internalType": "bytes32",
          "name": "",
          "type": "bytes32"
        }
      ],
      "name": "mapOperatorApprovedHashes",
      "outputs": [
        {
          "internalType": "bool",
          "name": "",
          "type": "bool"
        }
      ],
      "stateMutability": "view",
      "type": "function"
    },
    {
      "inputs": [
        {
          "internalType": "uint256",
          "name": "",
          "type": "uint256"
        }
      ],
      "name": "mapOperatorRegisterAgentsNonces",
      "outputs": [
        {
          "internalType": "uint256",
          "name": "",
          "type": "uint256"
        }
      ],
      "stateMutability": "view",
      "type": "function"
    },
    {
      "inputs": [
        {
          "internalType": "uint256",
          "name": "",
          "type": "uint256"
        }
      ],
      "name": "mapOperatorUnbondNonces",
      "outputs": [
        {
          "internalType": "uint256",
          "name": "",
          "type": "uint256"
        }
      ],
      "stateMutability": "view",
      "type": "function"
    },
    {
      "inputs": [],
      "name": "name",
      "outputs": [
        {
          "internalType": "string",
          "name": "",
          "type": "string"
        }
      ],
      "stateMutability": "view",
      "type": "function"
    },
    {
      "inputs": [],
      "name": "nameHash",
      "outputs": [
        {
          "internalType": "bytes32",
          "name": "",
          "type": "bytes32"
        }
      ],
      "stateMutability": "view",
      "type": "function"
    },
    {
      "inputs": [
        {
          "internalType": "bytes32",
          "name": "hash",
          "type": "bytes32"
        }
      ],
      "name": "operatorApproveHash",
      "outputs": [],
      "stateMutability": "nonpayable",
      "type": "function"
    },
    {
      "inputs": [],
      "name": "version",
      "outputs": [
        {
          "internalType": "string",
          "name": "",
          "type": "string"
        }
      ],
      "stateMutability": "view",
      "type": "function"
    },
    {
      "inputs": [],
      "name": "versionHash",
      "outputs": [
        {
          "internalType": "bytes32",
          "name": "",
          "type": "bytes32"
        }
      ],
      "stateMutability": "view",
      "type": "function"
    }
  ],
  "bytecode": "0x610100604052348015610010575f5ffd5b50604051610e80380380610e8083398101604081905261002f91610175565b5f61003a838261025e565b506001610047828261025e565b50815160208084019190912060c05281519082012060e0524660a0526100cd60c0805160e051604080517f8b73c3c69bb8fe3d512ecc4cf759cc79239f7b179b0ffacaa9a75d522b39400f60208201529081019290925260608201524660808201523060a08201525f910160405160208183030381529060405280519060200120905090565b608052506103189050565b634e487b7160e01b5f52604160045260245ffd5b5f82601f8301126100fb575f5ffd5b81516001600160401b03811115610114576101146100d8565b604051601f8201601f19908116603f011681016001600160401b0381118282101715610142576101426100d8565b604052818152838201602001851015610159575f5ffd5b8160208501602083015e5f918101602001919091529392505050565b5f5f60408385031215610186575f5ffd5b82516001600160401b0381111561019b575f5ffd5b6101a7858286016100ec565b602085015190935090506001600160401b038111156101c4575f5ffd5b6101d0858286016100ec565b9150509250929050565b600181811c908216806101ee57607f821691505b60208210810361020c57634e487b7160e01b5f52602260045260245ffd5b50919050565b601f82111561025957805f5260205f20601f840160051c810160208510156102375750805b601f840160051c820191505b81811015610256575f8155600101610243565b50505b505050565b81516001600160401b03811115610277576102776100d8565b61028b8161028584546101da565b84610212565b6020601f8211600181146102bd575f83156102a65750848201515b5f19600385901b1c1916600184901b178455610256565b5f84815260208120601f198516915b828110156102ec57878501518255602094850194600190920191016102cc565b508482101561030957868401515f19600387901b60f8161c191681555b50505050600190811b01905550565b60805160a05160c05160e051610b196103675f395f818161018501526106fb01525f818161037401526106d301525f81816102a5015261067f01525f81816103c201526107530152610b195ff3fe608060405234801561000f575f5ffd5b5060043610610149575f3560e01c806394887911116100c7578063e5da07531161007d578063f172a4ce11610063578063f172a4ce1461036f578063f5dcb7bb14610396578063f698da25146103bd575f5ffd5b8063e5da07531461032f578063ed24911d14610367575f5ffd5b8063a2e2ad7e116100ad578063a2e2ad7e146102c7578063a6a7187f146102f5578063dc1d952514610308575f5ffd5b806394887911146102795780639a8a0592146102a0575f5ffd5b806341b606771161011c57806354fd4d501161010257806354fd4d501461023f578063757b1156146102475780638a39fa161461025a575f5ffd5b806341b60677146101f25780635405ecb914610211575f5ffd5b806306fdde031461014d57806307a3e0a81461016b578063152b5c0f146101805780633af5d04e146101b5575b5f5ffd5b6101556103e4565b6040516101629190610775565b60405180910390f35b61017e6101793660046107aa565b61046f565b005b6101a77f000000000000000000000000000000000000000000000000000000000000000081565b604051908152602001610162565b6101e26101c33660046107dc565b600460209081525f928352604080842090915290825290205460ff1681565b6040519015158152602001610162565b6101a76102003660046107aa565b60036020525f908152604090205481565b6101a761021f3660046107dc565b60a01b6001600160a01b03909116175f9081526002602052604090205490565b6101556104c7565b6101a76102553660046108e7565b6104d4565b6101a76102683660046107aa565b60026020525f908152604090205481565b6101a77f92b2008d2a99f26809ac9d1989fe92334aa84124767331997ba0eec16050ecf481565b6101a77f000000000000000000000000000000000000000000000000000000000000000081565b6101a76102d53660046107dc565b60a01b6001600160a01b03909116175f9081526003602052604090205490565b6101a76103033660046109dd565b6105c1565b6101a77fde64b4c9fac43e1615e938b03573b078604f57b4d2e78d3a27d7b20ba017e12681565b6101e261033d3660046107dc565b6001600160a01b03919091165f908152600460209081526040808320938352929052205460ff1690565b6101a761067c565b6101a77f000000000000000000000000000000000000000000000000000000000000000081565b6101a77f8b73c3c69bb8fe3d512ecc4cf759cc79239f7b179b0ffacaa9a75d522b39400f81565b6101a77f000000000000000000000000000000000000000000000000000000000000000081565b5f80546103f090610a1c565b80601f016020809104026020016040519081016040528092919081815260200182805461041c90610a1c565b80156104675780601f1061043e57610100808354040283529160200191610467565b820191905f5260205f20905b81548152906001019060200180831161044a57829003601f168201915b505050505081565b335f818152600460209081526040808320858452825291829020805460ff1916600117905590518381527f85eb1f050732417c0566422b6004a6c5cbded9ded1a406de04060719af52a13a910160405180910390a250565b600180546103f090610a1c565b5f6104dd61067c565b7fde64b4c9fac43e1615e938b03573b078604f57b4d2e78d3a27d7b20ba017e1268888888888604051602001610514929190610a54565b60408051601f198184030181528282528051602091820120908301969096526001600160a01b0394851690820152929091166060830152608082015260a081019190915260c0810184905260e0016040516020818303038152906040528051906020012060405160200161059f92919061190160f01b81526002810192909252602282015260420190565b6040516020818303038152906040528051906020012090509695505050505050565b5f6105ca61067c565b604080517f92b2008d2a99f26809ac9d1989fe92334aa84124767331997ba0eec16050ecf460208201526001600160a01b038089169282019290925290861660608201526080810185905260a0810184905260c0016040516020818303038152906040528051906020012060405160200161065c92919061190160f01b81526002810192909252602282015260420190565b604051602081830303815290604052805190602001209050949350505050565b5f7f000000000000000000000000000000000000000000000000000000000000000046146107505761074b604080517f8b73c3c69bb8fe3d512ecc4cf759cc79239f7b179b0ffacaa9a75d522b39400f60208201527f0000000000000000000000000000000000000000000000000000000000000000918101919091527f000000000000000000000000000000000000000000000000000000000000000060608201524660808201523060a08201525f9060c00160405160208183030381529060405280519060200120905090565b905090565b507f000000000000000000000000000000000000000000000000000000000000000090565b602081525f82518060208401528060208501604085015e5f604082850101526040601f19601f83011684010191505092915050565b5f602082840312156107ba575f5ffd5b5035919050565b80356001600160a01b03811681146107d7575f5ffd5b919050565b5f5f604083850312156107ed575f5ffd5b6107f6836107c1565b946020939093013593505050565b634e487b7160e01b5f52604160045260245ffd5b604051601f8201601f1916810167ffffffffffffffff8111828210171561084157610841610804565b604052919050565b5f67ffffffffffffffff82111561086257610862610804565b5060051b60200190565b5f82601f83011261087b575f5ffd5b813561088e61088982610849565b610818565b8082825260208201915060208360051b8601019250858311156108af575f5ffd5b602085015b838110156108dd57803563ffffffff811681146108cf575f5ffd5b8352602092830192016108b4565b5095945050505050565b5f5f5f5f5f5f60c087890312156108fc575f5ffd5b610905876107c1565b9550610913602088016107c1565b945060408701359350606087013567ffffffffffffffff811115610935575f5ffd5b8701601f81018913610945575f5ffd5b803561095361088982610849565b8082825260208201915060208360051b85010192508b831115610974575f5ffd5b6020840193505b8284101561099d5761098c846107c1565b82526020938401939091019061097b565b9550505050608087013567ffffffffffffffff8111156109bb575f5ffd5b6109c789828a0161086c565b9699959850939692959460a09093013593505050565b5f5f5f5f608085870312156109f0575f5ffd5b6109f9856107c1565b9350610a07602086016107c1565b93969395505050506040820135916060013590565b600181811c90821680610a3057607f821691505b602082108103610a4e57634e487b7160e01b5f52602260045260245ffd5b50919050565b604080825283519082018190525f9060208501906060840190835b81811015610a965783516001600160a01b0316835260209384019390920191600101610a6f565b5050838103602080860191909152855180835291810192508501905f5b81811015610ad757825163ffffffff16845260209384019390920191600101610ab3565b5091969550505050505056fea2646970667358221220aadddd4d366a39eea29727d3112744c836edc6ae4a9343b4cdf3aa937128a7f464736f6c634300081c0033",
  "linkReferences": {},
  "deployedLinkReferences": {}
}