{
  "_format": "hh-sol-artifact-1",
  "contractName": "AeroAdaptor",
  "sourceName": "contracts/pool/AeroAdaptor.sol",
  "abi": [
    {
      "inputs": [
        {
          "internalType": "address",
          "name": "router_",
          "type": "address"
        },
        {
          "internalType": "address",
          "name": "tokenIn_",
          "type": "address"
        },
        {
          "internalType": "address",
          "name": "tokenOut_",
          "type": "address"
        },
        {
          "internalType": "address",
          "name": "factory_",
          "type": "address"
        }
      ],
      "stateMutability": "nonpayable",
      "type": "constructor"
    },
    {
      "inputs": [
        {
          "internalType": "address",
          "name": "token",
          "type": "address"
        }
      ],
      "name": "SafeERC20FailedOperation",
      "type": "error"
    },
    {
      "inputs": [],
      "name": "factory",
      "outputs": [
        {
          "internalType": "address",
          "name": "",
          "type": "address"
        }
      ],
      "stateMutability": "view",
      "type": "function"
    },
    {
      "inputs": [
        {
          "internalType": "uint256",
          "name": "amountIn",
          "type": "uint256"
        },
        {
          "internalType": "address[]",
          "name": "path",
          "type": "address[]"
        }
      ],
      "name": "getAmountsOut",
      "outputs": [
        {
          "internalType": "uint256[]",
          "name": "amounts",
          "type": "uint256[]"
        }
      ],
      "stateMutability": "view",
      "type": "function"
    },
    {
      "inputs": [],
      "name": "router",
      "outputs": [
        {
          "internalType": "address",
          "name": "",
          "type": "address"
        }
      ],
      "stateMutability": "view",
      "type": "function"
    },
    {
      "inputs": [
        {
          "internalType": "uint256",
          "name": "amountIn",
          "type": "uint256"
        },
        {
          "internalType": "uint256",
          "name": "amountOutMin",
          "type": "uint256"
        },
        {
          "internalType": "address[]",
          "name": "path",
          "type": "address[]"
        },
        {
          "internalType": "address",
          "name": "to",
          "type": "address"
        },
        {
          "internalType": "uint256",
          "name": "deadline",
          "type": "uint256"
        }
      ],
      "name": "swapExactTokensForTokens",
      "outputs": [
        {
          "internalType": "uint256[]",
          "name": "amounts",
          "type": "uint256[]"
        }
      ],
      "stateMutability": "nonpayable",
      "type": "function"
    },
    {
      "inputs": [],
      "name": "tokenIn",
      "outputs": [
        {
          "internalType": "address",
          "name": "",
          "type": "address"
        }
      ],
      "stateMutability": "view",
      "type": "function"
    },
    {
      "inputs": [],
      "name": "tokenOut",
      "outputs": [
        {
          "internalType": "address",
          "name": "",
          "type": "address"
        }
      ],
      "stateMutability": "view",
      "type": "function"
    }
  ],
  "bytecode": "0x608060405234801561000f575f5ffd5b50604051610a1a380380610a1a83398101604081905261002e91610226565b5f80546001600160a01b038087166001600160a01b03199283161790925560018054868416908316811790915560028054868516908416179055600380549385169390921692909217905561008590855f1961008e565b50505050610277565b604080516001600160a01b038416602482015260448082018490528251808303909101815260649091019091526020810180516001600160e01b0390811663095ea7b360e01b179091526100e6908590839061015216565b61014c57604080516001600160a01b03851660248201525f6044808301919091528251808303909101815260649091019091526020810180516001600160e01b0390811663095ea7b360e01b1790915261014291869161019b16565b61014c848261019b565b50505050565b5f5f5f5f60205f8651602088015f8a5af192503d91505f519050828015610191575081156101835780600114610191565b5f866001600160a01b03163b115b9695505050505050565b5f5f60205f8451602086015f885af1806101ba576040513d5f823e3d81fd5b50505f513d915081156101d15780600114156101de565b6001600160a01b0384163b155b1561014c57604051635274afe760e01b81526001600160a01b038516600482015260240160405180910390fd5b80516001600160a01b0381168114610221575f5ffd5b919050565b5f5f5f5f60808587031215610239575f5ffd5b6102428561020b565b93506102506020860161020b565b925061025e6040860161020b565b915061026c6060860161020b565b905092959194509250565b610796806102845f395ff3fe608060405234801561000f575f5ffd5b506004361061006f575f3560e01c8063d0202d3b1161004d578063d0202d3b146100da578063d06ca61f146100ed578063f887ea4014610100575f5ffd5b806338ed1739146100735780636daf390b1461009c578063c45a0155146100c7575b5f5ffd5b610086610081366004610495565b610112565b604051610093919061050e565b60405180910390f35b6001546100af906001600160a01b031681565b6040516001600160a01b039091168152602001610093565b6003546100af906001600160a01b031681565b6002546100af906001600160a01b031681565b6100866100fb366004610550565b61024e565b5f546100af906001600160a01b031681565b6040805160018082528183019092526060915f9190816020015b604080516080810182525f8082526020808301829052928201819052606082015282525f1990920191018161012c575050604080516080810182526001546001600160a01b039081168252600254811660208301525f9282018390526003541660608201528251929350918391906101a6576101a66105ac565b60209081029190910101526001546101c9906001600160a01b031633308b610368565b5f5460405163cac88ea960e01b81526001600160a01b039091169063cac88ea990610200908b908b9086908a908a9060040161063d565b5f604051808303815f875af115801561021b573d5f5f3e3d5ffd5b505050506040513d5f823e601f3d908101601f191682016040526102429190810190610678565b98975050505050505050565b6040805160018082528183019092526060915f9190816020015b604080516080810182525f8082526020808301829052928201819052606082015282525f19909201910181610268575050604080516080810182526001546001600160a01b039081168252600254811660208301525f9282018390526003541660608201528251929350918391906102e2576102e26105ac565b60209081029190910101525f54604051631542686b60e21b81526001600160a01b0390911690635509a1ac9061031e9088908590600401610740565b5f60405180830381865afa158015610338573d5f5f3e3d5ffd5b505050506040513d5f823e601f3d908101601f1916820160405261035f9190810190610678565b95945050505050565b604080516001600160a01b0385811660248301528416604482015260648082018490528251808303909101815260849091019091526020810180517bffffffffffffffffffffffffffffffffffffffffffffffffffffffff166323b872dd60e01b1790526103d79085906103dd565b50505050565b5f5f60205f8451602086015f885af1806103fc576040513d5f823e3d81fd5b50505f513d91508115610413578060011415610420565b6001600160a01b0384163b155b156103d757604051635274afe760e01b81526001600160a01b038516600482015260240160405180910390fd5b5f5f83601f84011261045d575f5ffd5b50813567ffffffffffffffff811115610474575f5ffd5b6020830191508360208260051b850101111561048e575f5ffd5b9250929050565b5f5f5f5f5f5f60a087890312156104aa575f5ffd5b8635955060208701359450604087013567ffffffffffffffff8111156104ce575f5ffd5b6104da89828a0161044d565b90955093505060608701356001600160a01b03811681146104f9575f5ffd5b95989497509295919493608090920135925050565b602080825282518282018190525f918401906040840190835b81811015610545578351835260209384019390920191600101610527565b509095945050505050565b5f5f5f60408486031215610562575f5ffd5b83359250602084013567ffffffffffffffff81111561057f575f5ffd5b61058b8682870161044d565b9497909650939450505050565b634e487b7160e01b5f52604160045260245ffd5b634e487b7160e01b5f52603260045260245ffd5b5f8151808452602084019350602083015f5b828110156106335781516001600160a01b0381511687526001600160a01b0360208201511660208801526040810151151560408801526001600160a01b036060820151166060880152506080860195506020820191506001810190506105d2565b5093949350505050565b85815284602082015260a060408201525f61065b60a08301866105c0565b6001600160a01b0394909416606083015250608001529392505050565b5f60208284031215610688575f5ffd5b815167ffffffffffffffff81111561069e575f5ffd5b8201601f810184136106ae575f5ffd5b805167ffffffffffffffff8111156106c8576106c8610598565b8060051b604051601f19603f830116810181811067ffffffffffffffff821117156106f5576106f5610598565b604052918252602081840181019290810187841115610712575f5ffd5b6020850194505b8385101561073557845180825260209586019590935001610719565b509695505050505050565b828152604060208201525f61075860408301846105c0565b94935050505056fea264697066735822122095adad68109acd05f447411bc3e85f0b2eec8b20dd0102523187b6902d1953e964736f6c634300081c0033",
  "linkReferences": {},
  "deployedLinkReferences": {}
}