{
  "_format": "hh-sol-artifact-1",
  "contractName": "SafeNonceLib",
  "sourceName": "contracts/test/SafeNonceLib.sol",
  "abi": [
    {
      "anonymous": false,
      "inputs": [
        {
          "indexed": false,
          "internalType": "uint256",
          "name": "nonce",
          "type": "uint256"
        }
      ],
      "name": "nonceUpdated",
      "type": "event"
    },
    {
      "inputs": [
        {
          "internalType": "uint256",
          "name": "_nonce",
          "type": "uint256"
        }
      ],
      "name": "decreaseNonce",
      "outputs": [],
      "stateMutability": "nonpayable",
      "type": "function"
    },
    {
      "inputs": [
        {
          "internalType": "uint256",
          "name": "_nonce",
          "type": "uint256"
        }
      ],
      "name": "increaseNonce",
      "outputs": [],
      "stateMutability": "nonpayable",
      "type": "function"
    }
  ],
  "bytecode": "0x6080604052348015600e575f5ffd5b5061018d8061001c5f395ff3fe608060405234801561000f575f5ffd5b5060043610610034575f3560e01c806379f7573a14610038578063fb0b1b151461004d575b5f5ffd5b61004b610046366004610100565b610060565b005b61004b61005b366004610100565b6100ad565b60055461006d828261012b565b60058190556040518181529091507fbce65ca4104364bc19a0d6944adee19fb0776e3f00db29b1012a712b1920ce84906020015b60405180910390a15050565b6005548181106100c8576100c18282610144565b90506100cb565b505f5b60058190556040518181527fbce65ca4104364bc19a0d6944adee19fb0776e3f00db29b1012a712b1920ce84906020016100a1565b5f60208284031215610110575f5ffd5b5035919050565b634e487b7160e01b5f52601160045260245ffd5b8082018082111561013e5761013e610117565b92915050565b8181038181111561013e5761013e61011756fea2646970667358221220b4fb0594dadbd9593546d27e592a82df28324227fe20130ad575face7c09a38864736f6c634300081c0033",
  "linkReferences": {},
  "deployedLinkReferences": {}
}