{
  "_format": "hh-sol-artifact-1",
  "contractName": "MockTimelock",
  "sourceName": "contracts/test/MockTimelock.sol",
  "abi": [
    {
      "inputs": [
        {
          "internalType": "address",
          "name": "target",
          "type": "address"
        },
        {
          "internalType": "uint256",
          "name": "value",
          "type": "uint256"
        },
        {
          "internalType": "bytes",
          "name": "payload",
          "type": "bytes"
        }
      ],
      "name": "ExecFailed",
      "type": "error"
    },
    {
      "inputs": [],
      "name": "WrongDataLength",
      "type": "error"
    },
    {
      "inputs": [
        {
          "internalType": "address",
          "name": "target",
          "type": "address"
        },
        {
          "internalType": "uint256",
          "name": "value",
          "type": "uint256"
        },
        {
          "internalType": "bytes",
          "name": "payload",
          "type": "bytes"
        }
      ],
      "name": "execute",
      "outputs": [],
      "stateMutability": "payable",
      "type": "function"
    },
    {
      "inputs": [
        {
          "internalType": "address[]",
          "name": "targets",
          "type": "address[]"
        },
        {
          "internalType": "uint256[]",
          "name": "values",
          "type": "uint256[]"
        },
        {
          "internalType": "bytes[]",
          "name": "payloads",
          "type": "bytes[]"
        }
      ],
      "name": "executeBatch",
      "outputs": [],
      "stateMutability": "payable",
      "type": "function"
    },
    {
      "inputs": [
        {
          "internalType": "address",
          "name": "",
          "type": "address"
        },
        {
          "internalType": "address",
          "name": "",
          "type": "address"
        },
        {
          "internalType": "uint256",
          "name": "",
          "type": "uint256"
        },
        {
          "internalType": "bytes",
          "name": "",
          "type": "bytes"
        }
      ],
      "name": "onERC721Received",
      "outputs": [
        {
          "internalType": "bytes4",
          "name": "",
          "type": "bytes4"
        }
      ],
      "stateMutability": "pure",
      "type": "function"
    },
    {
      "stateMutability": "payable",
      "type": "receive"
    }
  ],
  "bytecode": "0x6080604052348015600e575f5ffd5b506106198061001c5f395ff3fe608060405260043610610036575f3560e01c8063150b7a021461004157806347e1da2a146100a0578063b61d27f6146100b5575f5ffd5b3661003d57005b5f5ffd5b34801561004c575f5ffd5b5061006b61005b3660046102d1565b630a85bd0160e11b949350505050565b6040517fffffffff00000000000000000000000000000000000000000000000000000000909116815260200160405180910390f35b6100b36100ae3660046103f6565b6100c8565b005b6100b36100c3366004610495565b610216565b84831415806100d75750848114155b156100f5576040516366289e3960e11b815260040160405180910390fd5b5f5b8581101561020d575f87878381811061011257610112610518565b9050602002016020810190610127919061052c565b90505f86868481811061013c5761013c610518565b905060200201359050365f86868681811061015957610159610518565b905060200281019061016b919061054c565b915091505f846001600160a01b031684848460405161018b92919061058f565b5f6040518083038185875af1925050503d805f81146101c5576040519150601f19603f3d011682016040523d82523d5f602084013e6101ca565b606091505b50509050806101fd57848484846040516353df6d6d60e11b81526004016101f4949392919061059e565b60405180910390fd5b50505050508060010190506100f7565b50505050505050565b5f846001600160a01b031684848460405161023292919061058f565b5f6040518083038185875af1925050503d805f811461026c576040519150601f19603f3d011682016040523d82523d5f602084013e610271565b606091505b505090508061029b57848484846040516353df6d6d60e11b81526004016101f4949392919061059e565b5050505050565b80356001600160a01b03811681146102b8575f5ffd5b919050565b634e487b7160e01b5f52604160045260245ffd5b5f5f5f5f608085870312156102e4575f5ffd5b6102ed856102a2565b93506102fb602086016102a2565b925060408501359150606085013567ffffffffffffffff81111561031d575f5ffd5b8501601f8101871361032d575f5ffd5b803567ffffffffffffffff811115610347576103476102bd565b604051601f8201601f19908116603f0116810167ffffffffffffffff81118282101715610376576103766102bd565b60405281815282820160200189101561038d575f5ffd5b816020840160208301375f6020838301015280935050505092959194509250565b5f5f83601f8401126103be575f5ffd5b50813567ffffffffffffffff8111156103d5575f5ffd5b6020830191508360208260051b85010111156103ef575f5ffd5b9250929050565b5f5f5f5f5f5f6060878903121561040b575f5ffd5b863567ffffffffffffffff811115610421575f5ffd5b61042d89828a016103ae565b909750955050602087013567ffffffffffffffff81111561044c575f5ffd5b61045889828a016103ae565b909550935050604087013567ffffffffffffffff811115610477575f5ffd5b61048389828a016103ae565b979a9699509497509295939492505050565b5f5f5f5f606085870312156104a8575f5ffd5b6104b1856102a2565b935060208501359250604085013567ffffffffffffffff8111156104d3575f5ffd5b8501601f810187136104e3575f5ffd5b803567ffffffffffffffff8111156104f9575f5ffd5b87602082840101111561050a575f5ffd5b949793965060200194505050565b634e487b7160e01b5f52603260045260245ffd5b5f6020828403121561053c575f5ffd5b610545826102a2565b9392505050565b5f5f8335601e19843603018112610561575f5ffd5b83018035915067ffffffffffffffff82111561057b575f5ffd5b6020019150368190038213156103ef575f5ffd5b818382375f9101908152919050565b6001600160a01b038516815283602082015260606040820152816060820152818360808301375f818301608090810191909152601f909201601f19160101939250505056fea264697066735822122095737cf0447e3a4d6933bcde9bb006f11046cb824e1eb10f24f9f2b9efce4d0164736f6c634300081c0033",
  "linkReferences": {},
  "deployedLinkReferences": {}
}