{
  "_format": "hh-sol-artifact-1",
  "contractName": "AgentRegistryProxy",
  "sourceName": "contracts/flatten/AgentRegistry-flatten.sol",
  "abi": [
    {
      "inputs": [],
      "stateMutability": "nonpayable",
      "type": "constructor"
    },
    {
      "inputs": [
        {
          "internalType": "uint32[]",
          "name": "unitIds",
          "type": "uint32[]"
        }
      ],
      "name": "calculateSubComponents",
      "outputs": [
        {
          "internalType": "uint32[]",
          "name": "subComponentIds",
          "type": "uint32[]"
        }
      ],
      "stateMutability": "view",
      "type": "function"
    },
    {
      "inputs": [],
      "name": "iAgentRegistryF",
      "outputs": [
        {
          "internalType": "contract AgentRegistryF",
          "name": "",
          "type": "address"
        }
      ],
      "stateMutability": "view",
      "type": "function"
    },
    {
      "inputs": [],
      "name": "iComponentRegistryFF",
      "outputs": [
        {
          "internalType": "contract ComponentRegistryFF",
          "name": "",
          "type": "address"
        }
      ],
      "stateMutability": "view",
      "type": "function"
    }
  ],
  "bytecode": "0x608060405234801561000f575f5ffd5b5060405161001c9061019d565b60608082526010908201526f6167656e7420636f6d706f6e656e747360801b608082015260a0602082018190526008908201526704d454348434f4d560c41b60c082015260e060408201819052601c908201527f68747470733a2f2f6c6f63616c686f73742f636f6d706f6e656e742f0000000061010082015261012001604051809103905ff0801580156100b3573d5f5f3e3d5ffd5b50600180546001600160a01b0319166001600160a01b039290921691821790556040516100df906101aa565b6080808252600590820152641859d95b9d60da1b60a082015260c0602082018190526004908201526309a8a86960e31b60e0820152610100604082018190526018908201527f68747470733a2f2f6c6f63616c686f73742f6167656e742f00000000000000006101208201526001600160a01b03909116606082015261014001604051809103905ff080158015610178573d5f5f3e3d5ffd5b505f80546001600160a01b0319166001600160a01b03929092169190911790556101b7565b612dc58061050d83390190565b6130f4806132d283390190565b610349806101c45f395ff3fe608060405234801561000f575f5ffd5b506004361061003f575f3560e01c806309b3b87e146100435780631151ec761461006c5780632f1d2a2f14610096575b5f5ffd5b61005661005136600461019c565b6100a9565b604051610063919061023b565b60405180910390f35b5f5461007e906001600160a01b031681565b6040516001600160a01b039091168152602001610063565b60015461007e906001600160a01b031681565b5f546040516304d9dc3f60e11b81526060916001600160a01b0316906309b3b87e906100d990859060040161023b565b5f60405180830381865afa1580156100f3573d5f5f3e3d5ffd5b505050506040513d5f823e601f3d908101601f1916820160405261011a9190810190610283565b92915050565b634e487b7160e01b5f52604160045260245ffd5b604051601f8201601f1916810167ffffffffffffffff8111828210171561015d5761015d610120565b604052919050565b5f67ffffffffffffffff82111561017e5761017e610120565b5060051b60200190565b63ffffffff81168114610199575f5ffd5b50565b5f602082840312156101ac575f5ffd5b813567ffffffffffffffff8111156101c2575f5ffd5b8201601f810184136101d2575f5ffd5b80356101e56101e082610165565b610134565b8082825260208201915060208360051b850101925086831115610206575f5ffd5b6020840193505b8284101561023157833561022081610188565b82526020938401939091019061020d565b9695505050505050565b602080825282518282018190525f918401906040840190835b8181101561027857835163ffffffff16835260209384019390920191600101610254565b509095945050505050565b5f60208284031215610293575f5ffd5b815167ffffffffffffffff8111156102a9575f5ffd5b8201601f810184136102b9575f5ffd5b80516102c76101e082610165565b8082825260208201915060208360051b8501019250868311156102e8575f5ffd5b6020840193505b8284101561023157835161030281610188565b8252602093840193909101906102ef56fea26469706673582212200778b00e8212beb00e45f3e48add13dfdf3550a8553710ebd099d9542e38b74464736f6c634300081c003360a06040526001600a55348015610014575f5ffd5b50604051612dc5380380612dc583398101604081905261003391610141565b5f8383826100418382610254565b50600161004e8282610254565b5050508060018111156100635761006361030e565b60808160018111156100775761007761030e565b905250600890506100888282610254565b5050600680546001600160a01b03191633179055506103229050565b634e487b7160e01b5f52604160045260245ffd5b5f82601f8301126100c7575f5ffd5b81516001600160401b038111156100e0576100e06100a4565b604051601f8201601f19908116603f011681016001600160401b038111828210171561010e5761010e6100a4565b604052818152838201602001851015610125575f5ffd5b8160208501602083015e5f918101602001919091529392505050565b5f5f5f60608486031215610153575f5ffd5b83516001600160401b03811115610168575f5ffd5b610174868287016100b8565b602086015190945090506001600160401b03811115610191575f5ffd5b61019d868287016100b8565b604086015190935090506001600160401b038111156101ba575f5ffd5b6101c6868287016100b8565b9150509250925092565b600181811c908216806101e457607f821691505b60208210810361020257634e487b7160e01b5f52602260045260245ffd5b50919050565b601f82111561024f57805f5260205f20601f840160051c8101602085101561022d5750805b601f840160051c820191505b8181101561024c575f8155600101610239565b50505b505050565b81516001600160401b0381111561026d5761026d6100a4565b6102818161027b84546101d0565b84610208565b6020601f8211600181146102b3575f831561029c5750848201515b5f19600385901b1c1916600184901b17845561024c565b5f84815260208120601f198516915b828110156102e257878501518255602094850194600190920191016102c2565b50848210156102ff57868401515f19600387901b60f8161c191681555b50505050600190811b01905550565b634e487b7160e01b5f52602160045260245ffd5b608051612a6f6103565f395f818161043001528181610b3501528181610c150152818161148901526115e20152612a6f5ff3fe608060405234801561000f575f5ffd5b506004361061021b575f3560e01c806370a0823111610123578063a3fbbaae116100b8578063c152bdfe11610088578063e985e9c51161006e578063e985e9c51461052e578063fbfd24bf1461055b578063ffa1ad741461056e575f5ffd5b8063c152bdfe14610508578063c87b56dd1461051b575f5ffd5b8063a3fbbaae146104ae578063a6f9dae1146104c1578063b88d4fde146104d4578063bf733f6b146104e7575f5ffd5b80638da5cb5b116100f35780638da5cb5b1461045f57806395d89b4114610472578063a22cb4651461047a578063a25e29d31461048d575f5ffd5b806370a08231146103c8578063716be0e0146103db5780637c5e63e01461040357806385ad4f901461042b575f5ffd5b8063481c6a75116101b35780634fa706d7116101835780636352211e116101695780636352211e1461038c578063661a0d0b1461039f5780636c0360eb146103c0575f5ffd5b80634fa706d71461035a57806355f804b314610379575f5ffd5b8063481c6a751461030e578063482c5c3c146103215780634f558e79146103345780634f6ccce714610347575f5ffd5b80631655bfbe116101ee5780631655bfbe146102b157806318160ddd146102d157806323b872dd146102e857806342842e0e146102fb575f5ffd5b806301ffc9a71461021f57806306fdde0314610247578063081812fc1461025c578063095ea7b31461029c575b5f5ffd5b61023261022d3660046121d2565b610592565b60405190151581526020015b60405180910390f35b61024f6105e3565b60405161023e91906121f4565b61028461026a366004612229565b60046020525f90815260409020546001600160a01b031681565b6040516001600160a01b03909116815260200161023e565b6102af6102aa366004612256565b61066e565b005b6102c46102bf366004612229565b610752565b60405161023e919061227e565b6102da60095481565b60405190815260200161023e565b6102af6102f63660046122de565b610809565b6102af6103093660046122de565b6109de565b600754610284906001600160a01b031681565b61023261032f366004612318565b610acf565b610232610342366004612229565b610c4b565b6102da610355366004612229565b610c6c565b6102da610368366004612229565b600d6020525f908152604090205481565b6102af61038736600461238d565b610cb0565b61028461039a366004612229565b610d58565b6103b26103ad366004612229565b610dbc565b60405161023e929190612461565b61024f610e77565b6102da6103d6366004612481565b610e84565b6103ee6103e936600461249a565b610ef6565b60405163ffffffff909116815260200161023e565b61024f6040518060400160405280600981526020016806630313730313232360bc1b81525081565b6104527f000000000000000000000000000000000000000000000000000000000000000081565b60405161023e91906124ee565b600654610284906001600160a01b031681565b61024f610f3a565b6102af6104883660046124fc565b610f47565b6104a061049b366004612229565b610fb2565b60405161023e929190612535565b6102af6104bc366004612481565b61103f565b6102af6104cf366004612481565b6110ef565b6102af6104e2366004612556565b61119f565b6104fa6104f5366004612229565b611281565b60405161023e9291906125eb565b6102da61051636600461249a565b6112e2565b61024f610529366004612229565b61130d565b61023261053c366004612638565b600560209081525f928352604080842090915290825290205460ff1681565b6102da610569366004612669565b611383565b61024f604051806040016040528060058152602001640312e302e360dc1b81525081565b5f6301ffc9a760e01b6001600160e01b0319831614806105c257506380ac58cd60e01b6001600160e01b03198316145b806105dd5750635b5e139f60e01b6001600160e01b03198316145b92915050565b5f80546105ef90612740565b80601f016020809104026020016040519081016040528092919081815260200182805461061b90612740565b80156106665780601f1061063d57610100808354040283529160200191610666565b820191905f5260205f20905b81548152906001019060200180831161064957829003601f168201915b505050505081565b5f818152600260205260409020546001600160a01b0316338114806106b557506001600160a01b0381165f90815260056020908152604080832033845290915290205460ff165b6106f75760405162461bcd60e51b815260206004820152600e60248201526d1393d517d055551213d49256915160921b60448201526064015b60405180910390fd5b5f8281526004602052604080822080546001600160a01b0319166001600160a01b0387811691821790925591518593918516917f8c5be1e5ebec7d5bd14f71427d1e84f3dd0314c0f7b2291e5b200ac8c7c3b92591a4505050565b604080518082019091525f8152606060208201525f828152600d60209081526040918290208251808401845281548152600182018054855181860281018601909652808652919492938581019392908301828280156107f957602002820191905f5260205f20905f905b82829054906101000a900463ffffffff1663ffffffff16815260200190600401906020826003010492830192600103820291508084116107bc5790505b5050505050815250509050919050565b5f818152600260205260409020546001600160a01b038481169116146108715760405162461bcd60e51b815260206004820152600a60248201527f57524f4e475f46524f4d0000000000000000000000000000000000000000000060448201526064016106ee565b6001600160a01b0382166108bb5760405162461bcd60e51b81526020600482015260116024820152701253959053125117d49150d25412515395607a1b60448201526064016106ee565b336001600160a01b03841614806108f457506001600160a01b0383165f90815260056020908152604080832033845290915290205460ff165b8061091457505f818152600460205260409020546001600160a01b031633145b6109515760405162461bcd60e51b815260206004820152600e60248201526d1393d517d055551213d49256915160921b60448201526064016106ee565b6001600160a01b038084165f81815260036020908152604080832080545f19019055938616808352848320805460010190558583526002825284832080546001600160a01b03199081168317909155600490925284832080549092169091559251849392917fddf252ad1be2c89b69c2b068fc378daa952ba7f163c4a11628f55a4df523b3ef91a4505050565b6109e9838383610809565b6001600160a01b0382163b15610aca57604051630a85bd0160e11b8082523360048301526001600160a01b03858116602484015260448301849052608060648401525f608484015290919084169063150b7a029060a4016020604051808303815f875af1158015610a5c573d5f5f3e3d5ffd5b505050506040513d601f19601f82011682018060405250810190610a809190612778565b6001600160e01b03191614610aca5760405162461bcd60e51b815260206004820152601060248201526f155394d0519157d49150d2541251539560821b60448201526064016106ee565b505050565b6007545f906001600160a01b03163314610b115760075460405163312d21ff60e11b81523360048201526001600160a01b0390911660248201526044016106ee565b836001600160a01b0316610b2484610d58565b6001600160a01b031614610ba2575f7f00000000000000000000000000000000000000000000000000000000000000006001811115610b6557610b656124ba565b03610b8657604051634915061960e11b8152600481018490526024016106ee565b604051630ede975960e01b8152600481018490526024016106ee565b5f829003610bc357604051637c946ed760e01b815260040160405180910390fd5b505f828152600b6020908152604080832080546001818101835591855292909320909101839055517fdef878acc6b6cc4320a973cf2022bf4ccad90375867c044d23b4e22e9c3b1bda90610c3c9085907f0000000000000000000000000000000000000000000000000000000000000000908690612793565b60405180910390a19392505050565b5f5f821180156105dd5750600954610c649060016127c9565b821092915050565b5f610c788260016127c9565b9050600954811115610cab57600954604051637ae5968560e01b81526106ee918391600401918252602082015260400190565b919050565b6006546001600160a01b03163314610cf05760065460405163521eb56d60e11b81523360048201526001600160a01b0390911660248201526044016106ee565b80515f03610d1157604051637c946ed760e01b815260040160405180910390fd5b6008610d1d8282612820565b507f5411e8ebf1636d9e83d5fc4900bf80cbac82e8790da2a4c94db4895e889eedf681604051610d4d91906121f4565b60405180910390a150565b5f818152600260205260409020546001600160a01b031680610cab5760405162461bcd60e51b815260206004820152600a60248201527f4e4f545f4d494e5445440000000000000000000000000000000000000000000060448201526064016106ee565b5f60605f600d5f8581526020019081526020015f206040518060400160405290815f820154815260200160018201805480602002602001604051908101604052809291908181526020018280548015610e5d57602002820191905f5260205f20905f905b82829054906101000a900463ffffffff1663ffffffff1681526020019060040190602082600301049283019260010382029150808411610e205790505b505050919092525050506020015180519590945092505050565b600880546105ef90612740565b5f6001600160a01b038216610edb5760405162461bcd60e51b815260206004820152600c60248201527f5a45524f5f41444452455353000000000000000000000000000000000000000060448201526064016106ee565b506001600160a01b03165f9081526003602052604090205490565b600c602052815f5260405f208181548110610f0f575f80fd5b905f5260205f209060089182820401919006600402915091509054906101000a900463ffffffff1681565b600180546105ef90612740565b335f8181526005602090815260408083206001600160a01b03871680855290835292819020805460ff191686151590811790915590519081529192917f17307eab39ab6107e8899845ad3d59bd9653f200f220920489ca2b5937696c31910160405180910390a35050565b5f818152600c6020908152604080832080548251818502810185019093528083526060949383018282801561102f57602002820191905f5260205f20905f905b82829054906101000a900463ffffffff1663ffffffff1681526020019060040190602082600301049283019260010382029150808411610ff25790505b5050505050915081519050915091565b6006546001600160a01b0316331461107f5760065460405163521eb56d60e11b81523360048201526001600160a01b0390911660248201526044016106ee565b6001600160a01b0381166110a65760405163d92e233d60e01b815260040160405180910390fd5b600780546001600160a01b0319166001600160a01b0383169081179091556040517f2c1c11af44aa5608f1dca38c00275c30ea091e02417d36e70e9a1538689c433d905f90a250565b6006546001600160a01b0316331461112f5760065460405163521eb56d60e11b81523360048201526001600160a01b0390911660248201526044016106ee565b6001600160a01b0381166111565760405163d92e233d60e01b815260040160405180910390fd5b600680546001600160a01b0319166001600160a01b0383169081179091556040517f4ffd725fc4a22075e9ec71c59edf9c38cdeb588a91b24fc5b61388c5be41282b905f90a250565b6111aa858585610809565b6001600160a01b0384163b1561127a57604051630a85bd0160e11b808252906001600160a01b0386169063150b7a02906111f09033908a908990899089906004016128db565b6020604051808303815f875af115801561120c573d5f5f3e3d5ffd5b505050506040513d601f19601f820116820180604052508101906112309190612778565b6001600160e01b0319161461127a5760405162461bcd60e51b815260206004820152601060248201526f155394d0519157d49150d2541251539560821b60448201526064016106ee565b5050505050565b5f818152600b6020908152604080832080548251818502810185019093528083526060938301828280156112d257602002820191905f5260205f20905b8154815260200190600101908083116112be575b5050505050905080519150915091565b600b602052815f5260405f2081815481106112fb575f80fd5b905f5260205f20015f91509150505481565b5f818152600d60205260408120546060915060086040518060400160405280600981526020016806630313730313232360bc1b81525061134c83611627565b611359608085901b611627565b60405160200161136c9493929190612930565b604051602081830303815290604052915050919050565b5f6001600a5411156113a8576040516345f5ce8b60e11b815260040160405180910390fd5b6002600a556007546001600160a01b031633146113ed5760075460405163312d21ff60e11b81523360048201526001600160a01b0390911660248201526044016106ee565b6001600160a01b0384166114145760405163d92e233d60e01b815260040160405180910390fd5b5f83900361143557604051637c946ed760e01b815260040160405180910390fd5b5060095461144382826117f7565b8061144d816129b6565b5f818152600d60209081526040909120868155855192945092506114789160018401918601906120fa565b505f6114845f856118d6565b90505f7f000000000000000000000000000000000000000000000000000000000000000060018111156114b9576114b96124ba565b036115905780515f6114cc8260016127c9565b67ffffffffffffffff8111156114e4576114e4612348565b60405190808252806020026020018201604052801561150d578160200160208202803683370190505b5090505f5b828110156115635783818151811061152c5761152c6129ce565b6020026020010151828281518110611546576115466129ce565b63ffffffff90921660209283029190910190910152600101611512565b5084818381518110611577576115776129ce565b63ffffffff909216602092830291909101909101529150505b5f838152600c6020908152604090912082516115ae928401906120fa565b5060098390556115be8684611e64565b7f97587a61bb0b1b9b24e5325039519ae27f44ca15ef278df10f4ab0195205c29c837f00000000000000000000000000000000000000000000000000000000000000008760405161161193929190612793565b60405180910390a150506001600a559392505050565b7aff00000000000000ff00000000000000ff00000000000000ff00006bffffffff0000000000000000604083901c9081167bffffffff00000000000000000000000000000000000000000000000084161760201c6fffffffff000000000000000000000000919091166001600160e01b031984161717601081901c9182167eff00000000000000ff00000000000000ff00000000000000ff000000000000821617600890811c7bff00000000000000ff00000000000000ff00000000000000ff000000939093167fff00000000000000ff00000000000000ff00000000000000ff000000000000009290921691909117919091179081901c7e0f000f000f000f000f000f000f000f000f000f000f000f000f000f000f000f167f0f000f000f000f000f000f000f000f000f000f000f000f000f000f000f000f00600492831c161790611793827f06060606060606060606060606060606060606060606060606060606060606066127c9565b901c7f0f0f0f0f0f0f0f0f0f0f0f0f0f0f0f0f0f0f0f0f0f0f0f0f0f0f0f0f0f0f0f0f1660276117c391906129e2565b6117ed827f30303030303030303030303030303030303030303030303030303030303030306127c9565b6105dd91906127c9565b5f805b83518110156118d05761180e8260016129f9565b63ffffffff16848281518110611826576118266129ce565b602002602001015163ffffffff16108061186457508263ffffffff16848281518110611854576118546129ce565b602002602001015163ffffffff16115b156118a95783818151811061187b5761187b6129ce565b6020026020010151604051634915061960e11b81526004016106ee919063ffffffff91909116815260200190565b8381815181106118bb576118bb6129ce565b602002602001015191508060010190506117fa565b50505050565b80516060905f63ffffffff821667ffffffffffffffff8111156118fb576118fb612348565b604051908082528060200260200182016040528015611924578160200160208202803683370190505b5090505f8263ffffffff1667ffffffffffffffff81111561194757611947612348565b60405190808252806020026020018201604052801561197a57816020015b60608152602001906001900390816119655790505b5090505f805b8463ffffffff168163ffffffff161015611a5e576119bd88888363ffffffff16815181106119b0576119b06129ce565b6020026020010151611f50565b838263ffffffff16815181106119d5576119d56129ce565b6020026020010181905250828163ffffffff16815181106119f8576119f86129ce565b602002602001015151848263ffffffff1681518110611a1957611a196129ce565b63ffffffff9283166020918202929092010152845185918316908110611a4157611a416129ce565b602002602001015182611a5491906129f9565b9150600101611980565b505f8163ffffffff1667ffffffffffffffff811115611a7f57611a7f612348565b604051908082528060200260200182016040528015611aa8578160200160208202803683370190505b5090505f8563ffffffff1667ffffffffffffffff811115611acb57611acb612348565b604051908082528060200260200182016040528015611af4578160200160208202803683370190505b5090505f805b8463ffffffff168163ffffffff161015611d9f575f8063ffffffff815b8b63ffffffff168163ffffffff161015611d15575b8a8163ffffffff1681518110611b4457611b446129ce565b602002602001015163ffffffff16878263ffffffff1681518110611b6a57611b6a6129ce565b602002602001015163ffffffff161015611d0d57898163ffffffff1681518110611b9657611b966129ce565b6020026020010151878263ffffffff1681518110611bb657611bb66129ce565b602002602001015163ffffffff1681518110611bd457611bd46129ce565b602002602001015163ffffffff168663ffffffff161015611cd6578163ffffffff168a8263ffffffff1681518110611c0e57611c0e6129ce565b6020026020010151888363ffffffff1681518110611c2e57611c2e6129ce565b602002602001015163ffffffff1681518110611c4c57611c4c6129ce565b602002602001015163ffffffff161015611cc457898163ffffffff1681518110611c7857611c786129ce565b6020026020010151878263ffffffff1681518110611c9857611c986129ce565b602002602001015163ffffffff1681518110611cb657611cb66129ce565b602002602001015191508093505b82611cce81612a15565b935050611d0d565b868163ffffffff1681518110611cee57611cee6129ce565b602002602001018051611d0090612a15565b63ffffffff169052611b2c565b600101611b17565b5093508363ffffffff821615611d895784878563ffffffff1681518110611d3e57611d3e6129ce565b63ffffffff9283166020918202929092010152865187918516908110611d6657611d666129ce565b602002602001018051809190611d7b90612a15565b63ffffffff16905250611d91565b505050611d9f565b505050806001019050611afa565b8063ffffffff1667ffffffffffffffff811115611dbe57611dbe612348565b604051908082528060200260200182016040528015611de7578160200160208202803683370190505b5098505f5b8163ffffffff168163ffffffff161015611e5557848163ffffffff1681518110611e1857611e186129ce565b60200260200101518a8263ffffffff1681518110611e3857611e386129ce565b63ffffffff90921660209283029190910190910152600101611dec565b50505050505050505092915050565b611e6e8282611fe2565b6001600160a01b0382163b15611f4c57604051630a85bd0160e11b8082523360048301525f6024830181905260448301849052608060648401526084830152906001600160a01b0384169063150b7a029060a4016020604051808303815f875af1158015611ede573d5f5f3e3d5ffd5b505050506040513d601f19601f82011682018060405250810190611f029190612778565b6001600160e01b03191614611f4c5760405162461bcd60e51b815260206004820152601060248201526f155394d0519157d49150d2541251539560821b60448201526064016106ee565b5050565b63ffffffff81165f908152600c6020908152604091829020805483518184028101840190945280845260609392830182828015611fd557602002820191905f5260205f20905f905b82829054906101000a900463ffffffff1663ffffffff1681526020019060040190602082600301049283019260010382029150808411611f985790505b5050505050905092915050565b6001600160a01b03821661202c5760405162461bcd60e51b81526020600482015260116024820152701253959053125117d49150d25412515395607a1b60448201526064016106ee565b5f818152600260205260409020546001600160a01b0316156120905760405162461bcd60e51b815260206004820152600e60248201527f414c52454144595f4d494e54454400000000000000000000000000000000000060448201526064016106ee565b6001600160a01b0382165f81815260036020908152604080832080546001019055848352600290915280822080546001600160a01b0319168417905551839291907fddf252ad1be2c89b69c2b068fc378daa952ba7f163c4a11628f55a4df523b3ef908290a45050565b828054828255905f5260205f2090600701600890048101928215612196579160200282015f5b8382111561216457835183826101000a81548163ffffffff021916908363ffffffff1602179055509260200192600401602081600301049283019260010302612120565b80156121945782816101000a81549063ffffffff0219169055600401602081600301049283019260010302612164565b505b506121a29291506121a6565b5090565b5b808211156121a2575f81556001016121a7565b6001600160e01b0319811681146121cf575f5ffd5b50565b5f602082840312156121e2575f5ffd5b81356121ed816121ba565b9392505050565b602081525f82518060208401528060208501604085015e5f604082850101526040601f19601f83011684010191505092915050565b5f60208284031215612239575f5ffd5b5035919050565b80356001600160a01b0381168114610cab575f5ffd5b5f5f60408385031215612267575f5ffd5b61227083612240565b946020939093013593505050565b6020808252825182820152828101516040808401528051606084018190525f929190910190829060808501905b808310156122d45763ffffffff84511682526020820191506020840193506001830192506122ab565b5095945050505050565b5f5f5f606084860312156122f0575f5ffd5b6122f984612240565b925061230760208501612240565b929592945050506040919091013590565b5f5f5f6060848603121561232a575f5ffd5b61233384612240565b95602085013595506040909401359392505050565b634e487b7160e01b5f52604160045260245ffd5b604051601f8201601f1916810167ffffffffffffffff8111828210171561238557612385612348565b604052919050565b5f6020828403121561239d575f5ffd5b813567ffffffffffffffff8111156123b3575f5ffd5b8201601f810184136123c3575f5ffd5b803567ffffffffffffffff8111156123dd576123dd612348565b6123f0601f8201601f191660200161235c565b818152856020838501011115612404575f5ffd5b816020840160208301375f91810160200191909152949350505050565b5f8151808452602084019350602083015f5b8281101561245757815163ffffffff16865260209586019590910190600101612433565b5093949350505050565b828152604060208201525f6124796040830184612421565b949350505050565b5f60208284031215612491575f5ffd5b6121ed82612240565b5f5f604083850312156124ab575f5ffd5b50508035926020909101359150565b634e487b7160e01b5f52602160045260245ffd5b600281106124ea57634e487b7160e01b5f52602160045260245ffd5b9052565b602081016105dd82846124ce565b5f5f6040838503121561250d575f5ffd5b61251683612240565b91506020830135801515811461252a575f5ffd5b809150509250929050565b604081525f6125476040830185612421565b90508260208301529392505050565b5f5f5f5f5f6080868803121561256a575f5ffd5b61257386612240565b945061258160208701612240565b935060408601359250606086013567ffffffffffffffff8111156125a3575f5ffd5b8601601f810188136125b3575f5ffd5b803567ffffffffffffffff8111156125c9575f5ffd5b8860208284010111156125da575f5ffd5b959894975092955050506020019190565b5f60408201848352604060208401528084518083526060850191506020860192505f5b8181101561262c57835183526020938401939092019160010161260e565b50909695505050505050565b5f5f60408385031215612649575f5ffd5b61265283612240565b915061266060208401612240565b90509250929050565b5f5f5f6060848603121561267b575f5ffd5b61268484612240565b925060208401359150604084013567ffffffffffffffff8111156126a6575f5ffd5b8401601f810186136126b6575f5ffd5b803567ffffffffffffffff8111156126d0576126d0612348565b8060051b6126e06020820161235c565b918252602081840181019290810190898411156126fb575f5ffd5b6020850194505b83851015612731578435925063ffffffff8316831461271f575f5ffd5b82825260209485019490910190612702565b80955050505050509250925092565b600181811c9082168061275457607f821691505b60208210810361277257634e487b7160e01b5f52602260045260245ffd5b50919050565b5f60208284031215612788575f5ffd5b81516121ed816121ba565b838152606081016127a760208301856124ce565b826040830152949350505050565b634e487b7160e01b5f52601160045260245ffd5b808201808211156105dd576105dd6127b5565b601f821115610aca57805f5260205f20601f840160051c810160208510156128015750805b601f840160051c820191505b8181101561127a575f815560010161280d565b815167ffffffffffffffff81111561283a5761283a612348565b61284e816128488454612740565b846127dc565b6020601f821160018114612880575f83156128695750848201515b5f19600385901b1c1916600184901b17845561127a565b5f84815260208120601f198516915b828110156128af578785015182556020948501946001909201910161288f565b50848210156128cc57868401515f19600387901b60f8161c191681555b50505050600190811b01905550565b6001600160a01b03861681526001600160a01b038516602082015283604082015260806060820152816080820152818360a08301375f81830160a090810191909152601f909201601f19160101949350505050565b5f5f865461293d81612740565b600182168015612954576001811461296957612996565b60ff1983168652811515820286019350612996565b895f5260205f205f5b8381101561298e57815488820152600190910190602001612972565b505081860193505b50505085518060208801835e019384525050602082015260400192915050565b5f600182016129c7576129c76127b5565b5060010190565b634e487b7160e01b5f52603260045260245ffd5b80820281158282048414176105dd576105dd6127b5565b63ffffffff81811683821601908111156105dd576105dd6127b5565b5f63ffffffff821663ffffffff8103612a3057612a306127b5565b6001019291505056fea2646970667358221220649584e1ecab79a5f20975893dd92dbe540d556d55594b73755ef99f9cdb63a164736f6c634300081c003360c06040526001600a55348015610014575f5ffd5b506040516130f43803806130f48339810160408190526100339161014d565b600184845f6100428382610280565b50600161004f8282610280565b5050508060018111156100645761006461033a565b60808160018111156100785761007861033a565b905250600890506100898382610280565b506001600160a01b031660a0525050600680546001600160a01b031916331790555061034e565b634e487b7160e01b5f52604160045260245ffd5b5f82601f8301126100d3575f5ffd5b81516001600160401b038111156100ec576100ec6100b0565b604051601f8201601f19908116603f011681016001600160401b038111828210171561011a5761011a6100b0565b604052818152838201602001851015610131575f5ffd5b8160208501602083015e5f918101602001919091529392505050565b5f5f5f5f60808587031215610160575f5ffd5b84516001600160401b03811115610175575f5ffd5b610181878288016100c4565b602087015190955090506001600160401b0381111561019e575f5ffd5b6101aa878288016100c4565b604087015190945090506001600160401b038111156101c7575f5ffd5b6101d3878288016100c4565b606087015190935090506001600160a01b03811681146101f1575f5ffd5b939692955090935050565b600181811c9082168061021057607f821691505b60208210810361022e57634e487b7160e01b5f52602260045260245ffd5b50919050565b601f82111561027b57805f5260205f20601f840160051c810160208510156102595750805b601f840160051c820191505b81811015610278575f8155600101610265565b50505b505050565b81516001600160401b03811115610299576102996100b0565b6102ad816102a784546101fc565b84610234565b6020601f8211600181146102df575f83156102c85750848201515b5f19600385901b1c1916600184901b178455610278565b5f84815260208120601f198516915b8281101561030e57878501518255602094850194600190920191016102ee565b508482101561032b57868401515f19600387901b60f8161c191681555b50505050600190811b01905550565b634e487b7160e01b5f52602160045260245ffd5b60805160a051612d5b6103995f395f81816105c701528181611e3101526120ab01525f818161048401528181610bbd01528181610c9d01528181611511015261166a0152612d5b5ff3fe608060405234801561000f575f5ffd5b506004361061024f575f3560e01c806370a082311161013d578063a6f9dae1116100b8578063c87b56dd11610088578063fbfd24bf1161006e578063fbfd24bf146105af578063ff0039cb146105c2578063ffa1ad74146105e9575f5ffd5b8063c87b56dd1461056f578063e985e9c514610582575f5ffd5b8063a6f9dae114610515578063b88d4fde14610528578063bf733f6b1461053b578063c152bdfe1461055c575f5ffd5b80638da5cb5b1161010d578063a22cb465116100f3578063a22cb465146104ce578063a25e29d3146104e1578063a3fbbaae14610502575f5ffd5b80638da5cb5b146104b357806395d89b41146104c6575f5ffd5b806370a082311461041c578063716be0e01461042f5780637c5e63e01461045757806385ad4f901461047f575f5ffd5b8063481c6a75116101cd5780634fa706d71161019d5780636352211e116101835780636352211e146103e0578063661a0d0b146103f35780636c0360eb14610414575f5ffd5b80634fa706d7146103ae57806355f804b3146103cd575f5ffd5b8063481c6a7514610362578063482c5c3c146103755780634f558e79146103885780634f6ccce71461039b575f5ffd5b806309b3b87e1161022257806318160ddd1161020857806318160ddd1461032557806323b872dd1461033c57806342842e0e1461034f575f5ffd5b806309b3b87e146102e55780631655bfbe14610305575f5ffd5b806301ffc9a71461025357806306fdde031461027b578063081812fc14610290578063095ea7b3146102d0575b5f5ffd5b6102666102613660046123a6565b61060d565b60405190151581526020015b60405180910390f35b61028361065e565b60405161027291906123c8565b6102b861029e3660046123fd565b60046020525f90815260409020546001600160a01b031681565b6040516001600160a01b039091168152602001610272565b6102e36102de36600461242a565b6106e9565b005b6102f86102f336600461253e565b6107cd565b60405161027291906125b8565b6103186103133660046123fd565b6107da565b60405161027291906125ca565b61032e60095481565b604051908152602001610272565b6102e361034a366004612620565b610891565b6102e361035d366004612620565b610a66565b6007546102b8906001600160a01b031681565b61026661038336600461265a565b610b57565b6102666103963660046123fd565b610cd3565b61032e6103a93660046123fd565b610cf4565b61032e6103bc3660046123fd565b600d6020525f908152604090205481565b6102e36103db36600461268a565b610d38565b6102b86103ee3660046123fd565b610de0565b6104066104013660046123fd565b610e44565b60405161027292919061271e565b610283610eff565b61032e61042a366004612736565b610f0c565b61044261043d36600461274f565b610f7e565b60405163ffffffff9091168152602001610272565b6102836040518060400160405280600981526020016806630313730313232360bc1b81525081565b6104a67f000000000000000000000000000000000000000000000000000000000000000081565b60405161027291906127a3565b6006546102b8906001600160a01b031681565b610283610fc2565b6102e36104dc3660046127b1565b610fcf565b6104f46104ef3660046123fd565b61103a565b6040516102729291906127ea565b6102e3610510366004612736565b6110c7565b6102e3610523366004612736565b611177565b6102e361053636600461280b565b611227565b61054e6105493660046123fd565b611309565b6040516102729291906128a0565b61032e61056a36600461274f565b61136a565b61028361057d3660046123fd565b611395565b6102666105903660046128ed565b600560209081525f928352604080842090915290825290205460ff1681565b61032e6105bd36600461291e565b61140b565b6102b87f000000000000000000000000000000000000000000000000000000000000000081565b610283604051806040016040528060058152602001640312e302e360dc1b81525081565b5f6301ffc9a760e01b6001600160e01b03198316148061063d57506380ac58cd60e01b6001600160e01b03198316145b806106585750635b5e139f60e01b6001600160e01b03198316145b92915050565b5f805461066a90612971565b80601f016020809104026020016040519081016040528092919081815260200182805461069690612971565b80156106e15780601f106106b8576101008083540402835291602001916106e1565b820191905f5260205f20905b8154815290600101906020018083116106c457829003601f168201915b505050505081565b5f818152600260205260409020546001600160a01b03163381148061073057506001600160a01b0381165f90815260056020908152604080832033845290915290205460ff165b6107725760405162461bcd60e51b815260206004820152600e60248201526d1393d517d055551213d49256915160921b60448201526064015b60405180910390fd5b5f8281526004602052604080822080546001600160a01b0319166001600160a01b0387811691821790925591518593918516917f8c5be1e5ebec7d5bd14f71427d1e84f3dd0314c0f7b2291e5b200ac8c7c3b92591a4505050565b60606106586001836116af565b604080518082019091525f8152606060208201525f828152600d602090815260409182902082518084018452815481526001820180548551818602810186019096528086529194929385810193929083018282801561088157602002820191905f5260205f20905f905b82829054906101000a900463ffffffff1663ffffffff16815260200190600401906020826003010492830192600103820291508084116108445790505b5050505050815250509050919050565b5f818152600260205260409020546001600160a01b038481169116146108f95760405162461bcd60e51b815260206004820152600a60248201527f57524f4e475f46524f4d000000000000000000000000000000000000000000006044820152606401610769565b6001600160a01b0382166109435760405162461bcd60e51b81526020600482015260116024820152701253959053125117d49150d25412515395607a1b6044820152606401610769565b336001600160a01b038416148061097c57506001600160a01b0383165f90815260056020908152604080832033845290915290205460ff165b8061099c57505f818152600460205260409020546001600160a01b031633145b6109d95760405162461bcd60e51b815260206004820152600e60248201526d1393d517d055551213d49256915160921b6044820152606401610769565b6001600160a01b038084165f81815260036020908152604080832080545f19019055938616808352848320805460010190558583526002825284832080546001600160a01b03199081168317909155600490925284832080549092169091559251849392917fddf252ad1be2c89b69c2b068fc378daa952ba7f163c4a11628f55a4df523b3ef91a4505050565b610a71838383610891565b6001600160a01b0382163b15610b5257604051630a85bd0160e11b8082523360048301526001600160a01b03858116602484015260448301849052608060648401525f608484015290919084169063150b7a029060a4016020604051808303815f875af1158015610ae4573d5f5f3e3d5ffd5b505050506040513d601f19601f82011682018060405250810190610b0891906129a9565b6001600160e01b03191614610b525760405162461bcd60e51b815260206004820152601060248201526f155394d0519157d49150d2541251539560821b6044820152606401610769565b505050565b6007545f906001600160a01b03163314610b995760075460405163312d21ff60e11b81523360048201526001600160a01b039091166024820152604401610769565b836001600160a01b0316610bac84610de0565b6001600160a01b031614610c2a575f7f00000000000000000000000000000000000000000000000000000000000000006001811115610bed57610bed61276f565b03610c0e57604051634915061960e11b815260048101849052602401610769565b604051630ede975960e01b815260048101849052602401610769565b5f829003610c4b57604051637c946ed760e01b815260040160405180910390fd5b505f828152600b6020908152604080832080546001818101835591855292909320909101839055517fdef878acc6b6cc4320a973cf2022bf4ccad90375867c044d23b4e22e9c3b1bda90610cc49085907f00000000000000000000000000000000000000000000000000000000000000009086906129c4565b60405180910390a19392505050565b5f5f821180156106585750600954610cec9060016129fa565b821092915050565b5f610d008260016129fa565b9050600954811115610d3357600954604051637ae5968560e01b8152610769918391600401918252602082015260400190565b919050565b6006546001600160a01b03163314610d785760065460405163521eb56d60e11b81523360048201526001600160a01b039091166024820152604401610769565b80515f03610d9957604051637c946ed760e01b815260040160405180910390fd5b6008610da58282612a51565b507f5411e8ebf1636d9e83d5fc4900bf80cbac82e8790da2a4c94db4895e889eedf681604051610dd591906123c8565b60405180910390a150565b5f818152600260205260409020546001600160a01b031680610d335760405162461bcd60e51b815260206004820152600a60248201527f4e4f545f4d494e544544000000000000000000000000000000000000000000006044820152606401610769565b5f60605f600d5f8581526020019081526020015f206040518060400160405290815f820154815260200160018201805480602002602001604051908101604052809291908181526020018280548015610ee557602002820191905f5260205f20905f905b82829054906101000a900463ffffffff1663ffffffff1681526020019060040190602082600301049283019260010382029150808411610ea85790505b505050919092525050506020015180519590945092505050565b6008805461066a90612971565b5f6001600160a01b038216610f635760405162461bcd60e51b815260206004820152600c60248201527f5a45524f5f4144445245535300000000000000000000000000000000000000006044820152606401610769565b506001600160a01b03165f9081526003602052604090205490565b600c602052815f5260405f208181548110610f97575f80fd5b905f5260205f209060089182820401919006600402915091509054906101000a900463ffffffff1681565b6001805461066a90612971565b335f8181526005602090815260408083206001600160a01b03871680855290835292819020805460ff191686151590811790915590519081529192917f17307eab39ab6107e8899845ad3d59bd9653f200f220920489ca2b5937696c31910160405180910390a35050565b5f818152600c602090815260408083208054825181850281018501909352808352606094938301828280156110b757602002820191905f5260205f20905f905b82829054906101000a900463ffffffff1663ffffffff168152602001906004019060208260030104928301926001038202915080841161107a5790505b5050505050915081519050915091565b6006546001600160a01b031633146111075760065460405163521eb56d60e11b81523360048201526001600160a01b039091166024820152604401610769565b6001600160a01b03811661112e5760405163d92e233d60e01b815260040160405180910390fd5b600780546001600160a01b0319166001600160a01b0383169081179091556040517f2c1c11af44aa5608f1dca38c00275c30ea091e02417d36e70e9a1538689c433d905f90a250565b6006546001600160a01b031633146111b75760065460405163521eb56d60e11b81523360048201526001600160a01b039091166024820152604401610769565b6001600160a01b0381166111de5760405163d92e233d60e01b815260040160405180910390fd5b600680546001600160a01b0319166001600160a01b0383169081179091556040517f4ffd725fc4a22075e9ec71c59edf9c38cdeb588a91b24fc5b61388c5be41282b905f90a250565b611232858585610891565b6001600160a01b0384163b1561130257604051630a85bd0160e11b808252906001600160a01b0386169063150b7a02906112789033908a90899089908990600401612b0c565b6020604051808303815f875af1158015611294573d5f5f3e3d5ffd5b505050506040513d601f19601f820116820180604052508101906112b891906129a9565b6001600160e01b031916146113025760405162461bcd60e51b815260206004820152601060248201526f155394d0519157d49150d2541251539560821b6044820152606401610769565b5050505050565b5f818152600b60209081526040808320805482518185028101850190935280835260609383018282801561135a57602002820191905f5260205f20905b815481526020019060010190808311611346575b5050505050905080519150915091565b600b602052815f5260405f208181548110611383575f80fd5b905f5260205f20015f91509150505481565b5f818152600d60205260408120546060915060086040518060400160405280600981526020016806630313730313232360bc1b8152506113d483611c3d565b6113e1608085901b611c3d565b6040516020016113f49493929190612b61565b604051602081830303815290604052915050919050565b5f6001600a541115611430576040516345f5ce8b60e11b815260040160405180910390fd5b6002600a556007546001600160a01b031633146114755760075460405163312d21ff60e11b81523360048201526001600160a01b039091166024820152604401610769565b6001600160a01b03841661149c5760405163d92e233d60e01b815260040160405180910390fd5b5f8390036114bd57604051637c946ed760e01b815260040160405180910390fd5b506009546114cb8282611e0d565b806114d581612be7565b5f818152600d60209081526040909120868155855192945092506115009160018401918601906122ce565b505f61150c5f856116af565b90505f7f000000000000000000000000000000000000000000000000000000000000000060018111156115415761154161276f565b036116185780515f6115548260016129fa565b67ffffffffffffffff81111561156c5761156c612452565b604051908082528060200260200182016040528015611595578160200160208202803683370190505b5090505f5b828110156115eb578381815181106115b4576115b4612bff565b60200260200101518282815181106115ce576115ce612bff565b63ffffffff9092166020928302919091019091015260010161159a565b50848183815181106115ff576115ff612bff565b63ffffffff909216602092830291909101909101529150505b5f838152600c602090815260409091208251611636928401906122ce565b5060098390556116468684611f8a565b7f97587a61bb0b1b9b24e5325039519ae27f44ca15ef278df10f4ab0195205c29c837f000000000000000000000000000000000000000000000000000000000000000087604051611699939291906129c4565b60405180910390a150506001600a559392505050565b80516060905f63ffffffff821667ffffffffffffffff8111156116d4576116d4612452565b6040519080825280602002602001820160405280156116fd578160200160208202803683370190505b5090505f8263ffffffff1667ffffffffffffffff81111561172057611720612452565b60405190808252806020026020018201604052801561175357816020015b606081526020019060019003908161173e5790505b5090505f805b8463ffffffff168163ffffffff1610156118375761179688888363ffffffff168151811061178957611789612bff565b6020026020010151612076565b838263ffffffff16815181106117ae576117ae612bff565b6020026020010181905250828163ffffffff16815181106117d1576117d1612bff565b602002602001015151848263ffffffff16815181106117f2576117f2612bff565b63ffffffff928316602091820292909201015284518591831690811061181a5761181a612bff565b60200260200101518261182d9190612c13565b9150600101611759565b505f8163ffffffff1667ffffffffffffffff81111561185857611858612452565b604051908082528060200260200182016040528015611881578160200160208202803683370190505b5090505f8563ffffffff1667ffffffffffffffff8111156118a4576118a4612452565b6040519080825280602002602001820160405280156118cd578160200160208202803683370190505b5090505f805b8463ffffffff168163ffffffff161015611b78575f8063ffffffff815b8b63ffffffff168163ffffffff161015611aee575b8a8163ffffffff168151811061191d5761191d612bff565b602002602001015163ffffffff16878263ffffffff168151811061194357611943612bff565b602002602001015163ffffffff161015611ae657898163ffffffff168151811061196f5761196f612bff565b6020026020010151878263ffffffff168151811061198f5761198f612bff565b602002602001015163ffffffff16815181106119ad576119ad612bff565b602002602001015163ffffffff168663ffffffff161015611aaf578163ffffffff168a8263ffffffff16815181106119e7576119e7612bff565b6020026020010151888363ffffffff1681518110611a0757611a07612bff565b602002602001015163ffffffff1681518110611a2557611a25612bff565b602002602001015163ffffffff161015611a9d57898163ffffffff1681518110611a5157611a51612bff565b6020026020010151878263ffffffff1681518110611a7157611a71612bff565b602002602001015163ffffffff1681518110611a8f57611a8f612bff565b602002602001015191508093505b82611aa781612c2f565b935050611ae6565b868163ffffffff1681518110611ac757611ac7612bff565b602002602001018051611ad990612c2f565b63ffffffff169052611905565b6001016118f0565b5093508363ffffffff821615611b625784878563ffffffff1681518110611b1757611b17612bff565b63ffffffff9283166020918202929092010152865187918516908110611b3f57611b3f612bff565b602002602001018051809190611b5490612c2f565b63ffffffff16905250611b6a565b505050611b78565b5050508060010190506118d3565b8063ffffffff1667ffffffffffffffff811115611b9757611b97612452565b604051908082528060200260200182016040528015611bc0578160200160208202803683370190505b5098505f5b8163ffffffff168163ffffffff161015611c2e57848163ffffffff1681518110611bf157611bf1612bff565b60200260200101518a8263ffffffff1681518110611c1157611c11612bff565b63ffffffff90921660209283029190910190910152600101611bc5565b50505050505050505092915050565b7aff00000000000000ff00000000000000ff00000000000000ff00006bffffffff0000000000000000604083901c9081167bffffffff00000000000000000000000000000000000000000000000084161760201c6fffffffff000000000000000000000000919091166001600160e01b031984161717601081901c9182167eff00000000000000ff00000000000000ff00000000000000ff000000000000821617600890811c7bff00000000000000ff00000000000000ff00000000000000ff000000939093167fff00000000000000ff00000000000000ff00000000000000ff000000000000009290921691909117919091179081901c7e0f000f000f000f000f000f000f000f000f000f000f000f000f000f000f000f167f0f000f000f000f000f000f000f000f000f000f000f000f000f000f000f000f00600492831c161790611da9827f06060606060606060606060606060606060606060606060606060606060606066129fa565b901c7f0f0f0f0f0f0f0f0f0f0f0f0f0f0f0f0f0f0f0f0f0f0f0f0f0f0f0f0f0f0f0f0f166027611dd99190612c53565b611e03827f30303030303030303030303030303030303030303030303030303030303030306129fa565b61065891906129fa565b81515f03611e2e57604051637c946ed760e01b815260040160405180910390fd5b5f7f00000000000000000000000000000000000000000000000000000000000000006001600160a01b03166318160ddd6040518163ffffffff1660e01b8152600401602060405180830381865afa158015611e8b573d5f5f3e3d5ffd5b505050506040513d601f19601f82011682018060405250810190611eaf9190612c6a565b90505f805b845181101561130257611ec8826001612c13565b63ffffffff16858281518110611ee057611ee0612bff565b602002602001015163ffffffff161080611f1e57508263ffffffff16858281518110611f0e57611f0e612bff565b602002602001015163ffffffff16115b15611f6357848181518110611f3557611f35612bff565b6020026020010151604051634915061960e11b8152600401610769919063ffffffff91909116815260200190565b848181518110611f7557611f75612bff565b60200260200101519150806001019050611eb4565b611f9482826121b6565b6001600160a01b0382163b1561207257604051630a85bd0160e11b8082523360048301525f6024830181905260448301849052608060648401526084830152906001600160a01b0384169063150b7a029060a4016020604051808303815f875af1158015612004573d5f5f3e3d5ffd5b505050506040513d601f19601f8201168201806040525081019061202891906129a9565b6001600160e01b031916146120725760405162461bcd60e51b815260206004820152601060248201526f155394d0519157d49150d2541251539560821b6044820152606401610769565b5050565b60605f83600181111561208b5761208b61276f565b036121265760405163a25e29d360e01b815263ffffffff831660048201527f00000000000000000000000000000000000000000000000000000000000000006001600160a01b03169063a25e29d3906024015f60405180830381865afa1580156120f7573d5f5f3e3d5ffd5b505050506040513d5f823e601f3d908101601f1916820160405261211e9190810190612c81565b509050610658565b63ffffffff82165f908152600c6020908152604091829020805483518184028101840190945280845290918301828280156121a957602002820191905f5260205f20905f905b82829054906101000a900463ffffffff1663ffffffff168152602001906004019060208260030104928301926001038202915080841161216c5790505b5050505050905092915050565b6001600160a01b0382166122005760405162461bcd60e51b81526020600482015260116024820152701253959053125117d49150d25412515395607a1b6044820152606401610769565b5f818152600260205260409020546001600160a01b0316156122645760405162461bcd60e51b815260206004820152600e60248201527f414c52454144595f4d494e5445440000000000000000000000000000000000006044820152606401610769565b6001600160a01b0382165f81815260036020908152604080832080546001019055848352600290915280822080546001600160a01b0319168417905551839291907fddf252ad1be2c89b69c2b068fc378daa952ba7f163c4a11628f55a4df523b3ef908290a45050565b828054828255905f5260205f209060070160089004810192821561236a579160200282015f5b8382111561233857835183826101000a81548163ffffffff021916908363ffffffff16021790555092602001926004016020816003010492830192600103026122f4565b80156123685782816101000a81549063ffffffff0219169055600401602081600301049283019260010302612338565b505b5061237692915061237a565b5090565b5b80821115612376575f815560010161237b565b6001600160e01b0319811681146123a3575f5ffd5b50565b5f602082840312156123b6575f5ffd5b81356123c18161238e565b9392505050565b602081525f82518060208401528060208501604085015e5f604082850101526040601f19601f83011684010191505092915050565b5f6020828403121561240d575f5ffd5b5035919050565b80356001600160a01b0381168114610d33575f5ffd5b5f5f6040838503121561243b575f5ffd5b61244483612414565b946020939093013593505050565b634e487b7160e01b5f52604160045260245ffd5b604051601f8201601f1916810167ffffffffffffffff8111828210171561248f5761248f612452565b604052919050565b5f67ffffffffffffffff8211156124b0576124b0612452565b5060051b60200190565b63ffffffff811681146123a3575f5ffd5b5f82601f8301126124da575f5ffd5b81356124ed6124e882612497565b612466565b8082825260208201915060208360051b86010192508583111561250e575f5ffd5b602085015b83811015612534578035612526816124ba565b835260209283019201612513565b5095945050505050565b5f6020828403121561254e575f5ffd5b813567ffffffffffffffff811115612564575f5ffd5b612570848285016124cb565b949350505050565b5f8151808452602084019350602083015f5b828110156125ae57815163ffffffff1686526020958601959091019060010161258a565b5093949350505050565b602081525f6123c16020830184612578565b6020808252825182820152828101516040808401528051606084018190525f929190910190829060808501905b808310156125345763ffffffff84511682526020820191506020840193506001830192506125f7565b5f5f5f60608486031215612632575f5ffd5b61263b84612414565b925061264960208501612414565b929592945050506040919091013590565b5f5f5f6060848603121561266c575f5ffd5b61267584612414565b95602085013595506040909401359392505050565b5f6020828403121561269a575f5ffd5b813567ffffffffffffffff8111156126b0575f5ffd5b8201601f810184136126c0575f5ffd5b803567ffffffffffffffff8111156126da576126da612452565b6126ed601f8201601f1916602001612466565b818152856020838501011115612701575f5ffd5b816020840160208301375f91810160200191909152949350505050565b828152604060208201525f6125706040830184612578565b5f60208284031215612746575f5ffd5b6123c182612414565b5f5f60408385031215612760575f5ffd5b50508035926020909101359150565b634e487b7160e01b5f52602160045260245ffd5b6002811061279f57634e487b7160e01b5f52602160045260245ffd5b9052565b602081016106588284612783565b5f5f604083850312156127c2575f5ffd5b6127cb83612414565b9150602083013580151581146127df575f5ffd5b809150509250929050565b604081525f6127fc6040830185612578565b90508260208301529392505050565b5f5f5f5f5f6080868803121561281f575f5ffd5b61282886612414565b945061283660208701612414565b935060408601359250606086013567ffffffffffffffff811115612858575f5ffd5b8601601f81018813612868575f5ffd5b803567ffffffffffffffff81111561287e575f5ffd5b88602082840101111561288f575f5ffd5b959894975092955050506020019190565b5f60408201848352604060208401528084518083526060850191506020860192505f5b818110156128e15783518352602093840193909201916001016128c3565b50909695505050505050565b5f5f604083850312156128fe575f5ffd5b61290783612414565b915061291560208401612414565b90509250929050565b5f5f5f60608486031215612930575f5ffd5b61293984612414565b925060208401359150604084013567ffffffffffffffff81111561295b575f5ffd5b612967868287016124cb565b9150509250925092565b600181811c9082168061298557607f821691505b6020821081036129a357634e487b7160e01b5f52602260045260245ffd5b50919050565b5f602082840312156129b9575f5ffd5b81516123c18161238e565b838152606081016129d86020830185612783565b826040830152949350505050565b634e487b7160e01b5f52601160045260245ffd5b80820180821115610658576106586129e6565b601f821115610b5257805f5260205f20601f840160051c81016020851015612a325750805b601f840160051c820191505b81811015611302575f8155600101612a3e565b815167ffffffffffffffff811115612a6b57612a6b612452565b612a7f81612a798454612971565b84612a0d565b6020601f821160018114612ab1575f8315612a9a5750848201515b5f19600385901b1c1916600184901b178455611302565b5f84815260208120601f198516915b82811015612ae05787850151825560209485019460019092019101612ac0565b5084821015612afd57868401515f19600387901b60f8161c191681555b50505050600190811b01905550565b6001600160a01b03861681526001600160a01b038516602082015283604082015260806060820152816080820152818360a08301375f81830160a090810191909152601f909201601f19160101949350505050565b5f5f8654612b6e81612971565b600182168015612b855760018114612b9a57612bc7565b60ff1983168652811515820286019350612bc7565b895f5260205f205f5b83811015612bbf57815488820152600190910190602001612ba3565b505081860193505b50505085518060208801835e019384525050602082015260400192915050565b5f60018201612bf857612bf86129e6565b5060010190565b634e487b7160e01b5f52603260045260245ffd5b63ffffffff8181168382160190811115610658576106586129e6565b5f63ffffffff821663ffffffff8103612c4a57612c4a6129e6565b60010192915050565b8082028115828204841417610658576106586129e6565b5f60208284031215612c7a575f5ffd5b5051919050565b5f5f60408385031215612c92575f5ffd5b825167ffffffffffffffff811115612ca8575f5ffd5b8301601f81018513612cb8575f5ffd5b8051612cc66124e882612497565b8082825260208201915060208360051b850101925087831115612ce7575f5ffd5b6020840193505b82841015612d12578351612d01816124ba565b825260209384019390910190612cee565b602096909601519597959650505050505056fea26469706673582212201a54f503f0d7ea0a6f206fc3ef9f2f160206c262adda97195f19fd9eade9124e64736f6c634300081c0033",
  "linkReferences": {},
  "deployedLinkReferences": {}
}