{
  "_format": "hh-sol-artifact-1",
  "contractName": "ServiceRegistryProxyGeneric",
  "sourceName": "contracts/flatten/ServiceRegistry-flatten-generic.sol",
  "abi": [
    {
      "inputs": [],
      "stateMutability": "nonpayable",
      "type": "constructor"
    },
    {
      "inputs": [
        {
          "internalType": "address",
          "name": "serviceOwner",
          "type": "address"
        },
        {
          "internalType": "uint256",
          "name": "serviceId",
          "type": "uint256"
        }
      ],
      "name": "activateRegistration",
      "outputs": [
        {
          "internalType": "bool",
          "name": "success",
          "type": "bool"
        }
      ],
      "stateMutability": "payable",
      "type": "function"
    },
    {
      "inputs": [
        {
          "internalType": "address",
          "name": "newDrainer",
          "type": "address"
        }
      ],
      "name": "changeDrainer",
      "outputs": [],
      "stateMutability": "nonpayable",
      "type": "function"
    },
    {
      "inputs": [
        {
          "internalType": "address",
          "name": "newManager",
          "type": "address"
        }
      ],
      "name": "changeManager",
      "outputs": [],
      "stateMutability": "nonpayable",
      "type": "function"
    },
    {
      "inputs": [
        {
          "internalType": "address",
          "name": "multisig",
          "type": "address"
        },
        {
          "internalType": "bool",
          "name": "permission",
          "type": "bool"
        }
      ],
      "name": "changeMultisigPermission",
      "outputs": [
        {
          "internalType": "bool",
          "name": "success",
          "type": "bool"
        }
      ],
      "stateMutability": "nonpayable",
      "type": "function"
    },
    {
      "inputs": [
        {
          "internalType": "address",
          "name": "newOwner",
          "type": "address"
        }
      ],
      "name": "changeOwner",
      "outputs": [],
      "stateMutability": "nonpayable",
      "type": "function"
    },
    {
      "inputs": [
        {
          "internalType": "address",
          "name": "serviceOwner",
          "type": "address"
        },
        {
          "internalType": "bytes32",
          "name": "configHash",
          "type": "bytes32"
        },
        {
          "internalType": "uint32[]",
          "name": "agentIds",
          "type": "uint32[]"
        },
        {
          "components": [
            {
              "internalType": "uint32",
              "name": "slots",
              "type": "uint32"
            },
            {
              "internalType": "uint96",
              "name": "bond",
              "type": "uint96"
            }
          ],
          "internalType": "struct AgentParams[]",
          "name": "agentParams",
          "type": "tuple[]"
        },
        {
          "internalType": "uint32",
          "name": "threshold",
          "type": "uint32"
        }
      ],
      "name": "create",
      "outputs": [
        {
          "internalType": "uint256",
          "name": "serviceId",
          "type": "uint256"
        }
      ],
      "stateMutability": "nonpayable",
      "type": "function"
    },
    {
      "inputs": [
        {
          "internalType": "address",
          "name": "serviceOwner",
          "type": "address"
        },
        {
          "internalType": "uint256",
          "name": "serviceId",
          "type": "uint256"
        },
        {
          "internalType": "address",
          "name": "multisigImplementation",
          "type": "address"
        },
        {
          "internalType": "bytes",
          "name": "data",
          "type": "bytes"
        }
      ],
      "name": "deploy",
      "outputs": [
        {
          "internalType": "address",
          "name": "multisig",
          "type": "address"
        }
      ],
      "stateMutability": "nonpayable",
      "type": "function"
    },
    {
      "inputs": [],
      "name": "drain",
      "outputs": [
        {
          "internalType": "uint256",
          "name": "amount",
          "type": "uint256"
        }
      ],
      "stateMutability": "nonpayable",
      "type": "function"
    },
    {
      "inputs": [
        {
          "internalType": "uint256",
          "name": "serviceId",
          "type": "uint256"
        }
      ],
      "name": "getAgentInstances",
      "outputs": [
        {
          "internalType": "uint256",
          "name": "numAgentInstances",
          "type": "uint256"
        },
        {
          "internalType": "address[]",
          "name": "agentInstances",
          "type": "address[]"
        }
      ],
      "stateMutability": "view",
      "type": "function"
    },
    {
      "inputs": [
        {
          "internalType": "uint256",
          "name": "serviceId",
          "type": "uint256"
        }
      ],
      "name": "getAgentParams",
      "outputs": [
        {
          "internalType": "uint256",
          "name": "numAgentIds",
          "type": "uint256"
        },
        {
          "components": [
            {
              "internalType": "uint32",
              "name": "slots",
              "type": "uint32"
            },
            {
              "internalType": "uint96",
              "name": "bond",
              "type": "uint96"
            }
          ],
          "internalType": "struct AgentParams[]",
          "name": "agentParams",
          "type": "tuple[]"
        }
      ],
      "stateMutability": "view",
      "type": "function"
    },
    {
      "inputs": [
        {
          "internalType": "uint256",
          "name": "serviceId",
          "type": "uint256"
        },
        {
          "internalType": "uint256",
          "name": "agentId",
          "type": "uint256"
        }
      ],
      "name": "getInstancesForAgentId",
      "outputs": [
        {
          "internalType": "uint256",
          "name": "numAgentInstances",
          "type": "uint256"
        },
        {
          "internalType": "address[]",
          "name": "agentInstances",
          "type": "address[]"
        }
      ],
      "stateMutability": "view",
      "type": "function"
    },
    {
      "inputs": [
        {
          "internalType": "address",
          "name": "operator",
          "type": "address"
        },
        {
          "internalType": "uint256",
          "name": "serviceId",
          "type": "uint256"
        }
      ],
      "name": "getOperatorBalance",
      "outputs": [
        {
          "internalType": "uint256",
          "name": "balance",
          "type": "uint256"
        }
      ],
      "stateMutability": "view",
      "type": "function"
    },
    {
      "inputs": [
        {
          "internalType": "uint256",
          "name": "serviceId",
          "type": "uint256"
        }
      ],
      "name": "getPreviousHashes",
      "outputs": [
        {
          "internalType": "uint256",
          "name": "numHashes",
          "type": "uint256"
        },
        {
          "internalType": "bytes32[]",
          "name": "configHashes",
          "type": "bytes32[]"
        }
      ],
      "stateMutability": "view",
      "type": "function"
    },
    {
      "inputs": [
        {
          "internalType": "uint256",
          "name": "serviceId",
          "type": "uint256"
        }
      ],
      "name": "getService",
      "outputs": [
        {
          "components": [
            {
              "internalType": "uint96",
              "name": "securityDeposit",
              "type": "uint96"
            },
            {
              "internalType": "address",
              "name": "multisig",
              "type": "address"
            },
            {
              "internalType": "bytes32",
              "name": "configHash",
              "type": "bytes32"
            },
            {
              "internalType": "uint32",
              "name": "threshold",
              "type": "uint32"
            },
            {
              "internalType": "uint32",
              "name": "maxNumAgentInstances",
              "type": "uint32"
            },
            {
              "internalType": "uint32",
              "name": "numAgentInstances",
              "type": "uint32"
            },
            {
              "internalType": "enum ServiceRegistryF.ServiceState",
              "name": "state",
              "type": "uint8"
            },
            {
              "internalType": "uint32[]",
              "name": "agentIds",
              "type": "uint32[]"
            }
          ],
          "internalType": "struct ServiceRegistryF.Service",
          "name": "service",
          "type": "tuple"
        }
      ],
      "stateMutability": "view",
      "type": "function"
    },
    {
      "inputs": [
        {
          "internalType": "enum IRegistry.UnitType",
          "name": "unitType",
          "type": "uint8"
        },
        {
          "internalType": "uint256",
          "name": "serviceId",
          "type": "uint256"
        }
      ],
      "name": "getUnitIdsOfService",
      "outputs": [
        {
          "internalType": "uint256",
          "name": "numUnitIds",
          "type": "uint256"
        },
        {
          "internalType": "uint32[]",
          "name": "unitIds",
          "type": "uint32[]"
        }
      ],
      "stateMutability": "view",
      "type": "function"
    },
    {
      "inputs": [],
      "name": "iAgentRegistryF",
      "outputs": [
        {
          "internalType": "contract AgentRegistryFS",
          "name": "",
          "type": "address"
        }
      ],
      "stateMutability": "view",
      "type": "function"
    },
    {
      "inputs": [],
      "name": "iComponentRegistryFF",
      "outputs": [
        {
          "internalType": "contract ComponentRegistryFFS",
          "name": "",
          "type": "address"
        }
      ],
      "stateMutability": "view",
      "type": "function"
    },
    {
      "inputs": [],
      "name": "iServiceRegistryF",
      "outputs": [
        {
          "internalType": "contract ServiceRegistryF",
          "name": "",
          "type": "address"
        }
      ],
      "stateMutability": "view",
      "type": "function"
    },
    {
      "inputs": [
        {
          "internalType": "address",
          "name": "operator",
          "type": "address"
        },
        {
          "internalType": "uint256",
          "name": "serviceId",
          "type": "uint256"
        },
        {
          "internalType": "address[]",
          "name": "agentInstances",
          "type": "address[]"
        },
        {
          "internalType": "uint32[]",
          "name": "agentIds",
          "type": "uint32[]"
        }
      ],
      "name": "registerAgents",
      "outputs": [
        {
          "internalType": "bool",
          "name": "success",
          "type": "bool"
        }
      ],
      "stateMutability": "payable",
      "type": "function"
    },
    {
      "inputs": [
        {
          "internalType": "address[]",
          "name": "agentInstances",
          "type": "address[]"
        },
        {
          "internalType": "uint96[]",
          "name": "amounts",
          "type": "uint96[]"
        },
        {
          "internalType": "uint256",
          "name": "serviceId",
          "type": "uint256"
        }
      ],
      "name": "slash",
      "outputs": [
        {
          "internalType": "bool",
          "name": "success",
          "type": "bool"
        }
      ],
      "stateMutability": "nonpayable",
      "type": "function"
    },
    {
      "inputs": [
        {
          "internalType": "address",
          "name": "serviceOwner",
          "type": "address"
        },
        {
          "internalType": "uint256",
          "name": "serviceId",
          "type": "uint256"
        }
      ],
      "name": "terminate",
      "outputs": [
        {
          "internalType": "bool",
          "name": "success",
          "type": "bool"
        },
        {
          "internalType": "uint256",
          "name": "refund",
          "type": "uint256"
        }
      ],
      "stateMutability": "nonpayable",
      "type": "function"
    },
    {
      "inputs": [
        {
          "internalType": "address",
          "name": "operator",
          "type": "address"
        },
        {
          "internalType": "uint256",
          "name": "serviceId",
          "type": "uint256"
        }
      ],
      "name": "unbond",
      "outputs": [
        {
          "internalType": "bool",
          "name": "success",
          "type": "bool"
        },
        {
          "internalType": "uint256",
          "name": "refund",
          "type": "uint256"
        }
      ],
      "stateMutability": "nonpayable",
      "type": "function"
    },
    {
      "inputs": [
        {
          "internalType": "address",
          "name": "serviceOwner",
          "type": "address"
        },
        {
          "internalType": "bytes32",
          "name": "configHash",
          "type": "bytes32"
        },
        {
          "internalType": "uint32[]",
          "name": "agentIds",
          "type": "uint32[]"
        },
        {
          "components": [
            {
              "internalType": "uint32",
              "name": "slots",
              "type": "uint32"
            },
            {
              "internalType": "uint96",
              "name": "bond",
              "type": "uint96"
            }
          ],
          "internalType": "struct AgentParams[]",
          "name": "agentParams",
          "type": "tuple[]"
        },
        {
          "internalType": "uint32",
          "name": "threshold",
          "type": "uint32"
        },
        {
          "internalType": "uint256",
          "name": "serviceId",
          "type": "uint256"
        }
      ],
      "name": "update",
      "outputs": [
        {
          "internalType": "bool",
          "name": "success",
          "type": "bool"
        }
      ],
      "stateMutability": "nonpayable",
      "type": "function"
    }
  ],
  "bytecode": "0x608060405234801561000f575f5ffd5b5060405161001c90610270565b60608082526010908201526f6167656e7420636f6d706f6e656e747360801b608082015260a0602082018190526008908201526704d454348434f4d560c41b60c082015260e060408201819052601c908201527f68747470733a2f2f6c6f63616c686f73742f636f6d706f6e656e742f0000000061010082015261012001604051809103905ff0801580156100b3573d5f5f3e3d5ffd5b505f80546001600160a01b0319166001600160a01b039290921691821790556040516100de9061027d565b6080808252600590820152641859d95b9d60da1b60a082015260c0602082018190526004908201526309a8a86960e31b60e0820152610100604082018190526018908201527f68747470733a2f2f6c6f63616c686f73742f6167656e742f00000000000000006101208201526001600160a01b03909116606082015261014001604051809103905ff080158015610177573d5f5f3e3d5ffd5b50600180546001600160a01b0319166001600160a01b039290921691821790556040516101a39061028a565b60808082526010908201526f7365727669636520726567697374727960801b60a082015260c060208201819052600790820152665345525649434560c81b60e082015261010060408201819052601a908201527f68747470733a2f2f6c6f63616c686f73742f736572766963652f0000000000006101208201526001600160a01b03909116606082015261014001604051809103905ff08015801561024a573d5f5f3e3d5ffd5b50600280546001600160a01b0319166001600160a01b0392909216919091179055610297565b612dc580611f1583390190565b6130f480614cda83390190565b61609b80617dce83390190565b611c71806102a45f395ff3fe608060405260043610610178575f3560e01c80639890220b116100d1578063ccc9305d1161007c578063ef0e239b11610057578063ef0e239b14610450578063f908bc771461047c578063fbdeb3d71461049b575f5ffd5b8063ccc9305d1461040b578063dff767241461042a578063e23f6fb41461043d575f5ffd5b8063a60e4c3c116100ac578063a60e4c3c146103a0578063a6f9dae1146103cd578063cbf994f8146103ec575f5ffd5b80639890220b14610337578063a3fbbaae1461034b578063a5d059ca1461036a575f5ffd5b806345a0c8701161013157806382694b1d1161010c57806382694b1d146102be5780638a2bd86f146102dd57806392080b231461030a575f5ffd5b806345a0c870146102515780634d486f851461027057806373b8b6a21461028f575f5ffd5b80631de286ba116101615780631de286ba146101d957806321e4f7bb146102065780632f1d2a2f14610233575f5ffd5b806310c6aa191461017c5780631151ec761461019d575b5f5ffd5b348015610187575f5ffd5b5061019b610196366004610dad565b6104ba565b005b3480156101a8575f5ffd5b506001546101bc906001600160a01b031681565b6040516001600160a01b0390911681526020015b60405180910390f35b3480156101e4575f5ffd5b506101f86101f3366004610dc8565b610518565b6040516101d0929190610e39565b348015610211575f5ffd5b50610225610220366004610e51565b610593565b6040516101d0929190610eaa565b34801561023e575f5ffd5b505f546101bc906001600160a01b031681565b34801561025c575f5ffd5b506002546101bc906001600160a01b031681565b34801561027b575f5ffd5b5061022561028a366004610dc8565b610617565b34801561029a575f5ffd5b506102ae6102a9366004611003565b610689565b60405190151581526020016101d0565b3480156102c9575f5ffd5b506102ae6102d83660046110de565b610705565b3480156102e8575f5ffd5b506102fc6102f7366004611115565b610781565b6040519081526020016101d0565b348015610315575f5ffd5b5061032961032436600461113f565b6107f4565b6040516101d0929190611194565b348015610342575f5ffd5b506102fc61086c565b348015610356575f5ffd5b5061019b610365366004610dad565b6108dd565b348015610375575f5ffd5b50610389610384366004611115565b61090f565b6040805192151583526020830191909152016101d0565b3480156103ab575f5ffd5b506103bf6103ba366004610dc8565b610986565b6040516101d09291906111ac565b3480156103d8575f5ffd5b5061019b6103e7366004610dad565b6109f8565b3480156103f7575f5ffd5b506102ae610406366004611304565b610a2a565b348015610416575f5ffd5b50610389610425366004611115565b610aaf565b6102ae6104383660046113a0565b610aeb565b6102ae61044b366004611115565b610b6d565b34801561045b575f5ffd5b5061046f61046a366004610dc8565b610be4565b6040516101d09190611448565b348015610487575f5ffd5b506101bc6104963660046114e8565b610c9e565b3480156104a6575f5ffd5b506102fc6104b53660046115aa565b610d14565b6002546040516310c6aa1960e01b81526001600160a01b038381166004830152909116906310c6aa19906024015b5f604051808303815f87803b1580156104ff575f5ffd5b505af1158015610511573d5f5f3e3d5ffd5b5050505050565b600254604051630ef1435d60e11b8152600481018390525f916060916001600160a01b0390911690631de286ba906024015f60405180830381865afa158015610563573d5f5f3e3d5ffd5b505050506040513d5f823e601f3d908101601f1916820160405261058a9190810190611659565b91509150915091565b6002546040516321e4f7bb60e01b815260048101849052602481018390525f916060916001600160a01b03909116906321e4f7bb906044015f60405180830381865afa1580156105e5573d5f5f3e3d5ffd5b505050506040513d5f823e601f3d908101601f1916820160405261060c919081019061173d565b915091509250929050565b600254604051634d486f8560e01b8152600481018390525f916060916001600160a01b0390911690634d486f85906024015f60405180830381865afa158015610662573d5f5f3e3d5ffd5b505050506040513d5f823e601f3d908101601f1916820160405261058a919081019061173d565b6002546040516339dc5b5160e11b81525f916001600160a01b0316906373b8b6a2906106bd908790879087906004016117d6565b6020604051808303815f875af11580156106d9573d5f5f3e3d5ffd5b505050506040513d601f19601f820116820180604052508101906106fd9190611844565b949350505050565b6002546040516382694b1d60e01b81526001600160a01b03848116600483015283151560248301525f9216906382694b1d906044016020604051808303815f875af1158015610756573d5f5f3e3d5ffd5b505050506040513d601f19601f8201168201806040525081019061077a9190611844565b9392505050565b600254604051638a2bd86f60e01b81526001600160a01b038481166004830152602482018490525f921690638a2bd86f90604401602060405180830381865afa1580156107d0573d5f5f3e3d5ffd5b505050506040513d601f19601f8201168201806040525081019061077a919061185f565b6002546040516392080b2360e01b81525f916060916001600160a01b03909116906392080b239061082b9087908790600401611876565b5f60405180830381865afa158015610845573d5f5f3e3d5ffd5b505050506040513d5f823e601f3d908101601f1916820160405261060c91908101906118f8565b60025460408051639890220b60e01b815290515f926001600160a01b031691639890220b916004808301926020929190829003018187875af11580156108b4573d5f5f3e3d5ffd5b505050506040513d601f19601f820116820180604052508101906108d8919061185f565b905090565b6002546040516351fddd5760e11b81526001600160a01b0383811660048301529091169063a3fbbaae906024016104e8565b6002546040516352e82ce560e11b81526001600160a01b038481166004830152602482018490525f92839291169063a5d059ca906044015b60408051808303815f875af1158015610962573d5f5f3e3d5ffd5b505050506040513d601f19601f8201168201806040525081019061060c919061193d565b600254604051632983930f60e21b8152600481018390525f916060916001600160a01b039091169063a60e4c3c906024015f60405180830381865afa1580156109d1573d5f5f3e3d5ffd5b505050506040513d5f823e601f3d908101601f1916820160405261058a9190810190611969565b60025460405163a6f9dae160e01b81526001600160a01b0383811660048301529091169063a6f9dae1906024016104e8565b60025460405163197f329f60e31b81525f916001600160a01b03169063cbf994f890610a64908a908a908a908a908a908a906004016119f9565b6020604051808303815f875af1158015610a80573d5f5f3e3d5ffd5b505050506040513d601f19601f82011682018060405250810190610aa49190611844565b979650505050505050565b60025460405163ccc9305d60e01b81526001600160a01b038481166004830152602482018490525f92839291169063ccc9305d90604401610947565b6002546040516337fdd9c960e21b81525f916001600160a01b03169063dff76724903490610b23908990899089908990600401611a4e565b60206040518083038185885af1158015610b3f573d5f5f3e3d5ffd5b50505050506040513d601f19601f82011682018060405250810190610b649190611844565b95945050505050565b60025460405163388fdbed60e21b81526001600160a01b038481166004830152602482018490525f92169063e23f6fb490349060440160206040518083038185885af1158015610bbf573d5f5f3e3d5ffd5b50505050506040513d601f19601f8201168201806040525081019061077a9190611844565b610c2b60408051610100810182525f80825260208201819052918101829052606081018290526080810182905260a081018290529060c08201908152602001606081525090565b60025460405163ef0e239b60e01b8152600481018490526001600160a01b039091169063ef0e239b906024015f60405180830381865afa158015610c71573d5f5f3e3d5ffd5b505050506040513d5f823e601f3d908101601f19168201604052610c989190810190611a95565b92915050565b60025460405163f908bc7760e01b81525f916001600160a01b03169063f908bc7790610cd4908890889088908890600401611b72565b6020604051808303815f875af1158015610cf0573d5f5f3e3d5ffd5b505050506040513d601f19601f82011682018060405250810190610b649190611bce565b60025460405163fbdeb3d760e01b81525f916001600160a01b03169063fbdeb3d790610d4c9089908990899089908990600401611be9565b6020604051808303815f875af1158015610d68573d5f5f3e3d5ffd5b505050506040513d601f19601f82011682018060405250810190610d8c919061185f565b9695505050505050565b6001600160a01b0381168114610daa575f5ffd5b50565b5f60208284031215610dbd575f5ffd5b813561077a81610d96565b5f60208284031215610dd8575f5ffd5b5035919050565b5f8151808452602084019350602083015f5b82811015610e2f578151805163ffffffff1687526020908101516bffffffffffffffffffffffff168188015260409096019590910190600101610df1565b5093949350505050565b828152604060208201525f6106fd6040830184610ddf565b5f5f60408385031215610e62575f5ffd5b50508035926020909101359150565b5f8151808452602084019350602083015f5b82811015610e2f5781516001600160a01b0316865260209586019590910190600101610e83565b828152604060208201525f6106fd6040830184610e71565b634e487b7160e01b5f52604160045260245ffd5b6040805190810167ffffffffffffffff81118282101715610ef957610ef9610ec2565b60405290565b604051610100810167ffffffffffffffff81118282101715610ef957610ef9610ec2565b604051601f8201601f1916810167ffffffffffffffff81118282101715610f4c57610f4c610ec2565b604052919050565b5f67ffffffffffffffff821115610f6d57610f6d610ec2565b5060051b60200190565b5f82601f830112610f86575f5ffd5b8135610f99610f9482610f54565b610f23565b8082825260208201915060208360051b860101925085831115610fba575f5ffd5b602085015b83811015610fe0578035610fd281610d96565b835260209283019201610fbf565b5095945050505050565b6bffffffffffffffffffffffff81168114610daa575f5ffd5b5f5f5f60608486031215611015575f5ffd5b833567ffffffffffffffff81111561102b575f5ffd5b61103786828701610f77565b935050602084013567ffffffffffffffff811115611053575f5ffd5b8401601f81018613611063575f5ffd5b8035611071610f9482610f54565b8082825260208201915060208360051b850101925088831115611092575f5ffd5b6020840193505b828410156110bd5783356110ac81610fea565b825260209384019390910190611099565b959895975050505060409390930135925050565b8015158114610daa575f5ffd5b5f5f604083850312156110ef575f5ffd5b82356110fa81610d96565b9150602083013561110a816110d1565b809150509250929050565b5f5f60408385031215611126575f5ffd5b823561113181610d96565b946020939093013593505050565b5f5f60408385031215611150575f5ffd5b823560028110611131575f5ffd5b5f8151808452602084019350602083015f5b82811015610e2f57815163ffffffff16865260209586019590910190600101611170565b828152604060208201525f6106fd604083018461115e565b5f60408201848352604060208401528084518083526060850191506020860192505f5b818110156111ed5783518352602093840193909201916001016111cf565b50909695505050505050565b63ffffffff81168114610daa575f5ffd5b5f82601f830112611219575f5ffd5b8135611227610f9482610f54565b8082825260208201915060208360051b860101925085831115611248575f5ffd5b602085015b83811015610fe0578035611260816111f9565b83526020928301920161124d565b5f82601f83011261127d575f5ffd5b813561128b610f9482610f54565b8082825260208201915060208360061b8601019250858311156112ac575f5ffd5b602085015b83811015610fe057604081880312156112c8575f5ffd5b6112d0610ed6565b81356112db816111f9565b815260208201356112eb81610fea565b60208281019190915290845292909201916040016112b1565b5f5f5f5f5f5f60c08789031215611319575f5ffd5b863561132481610d96565b955060208701359450604087013567ffffffffffffffff811115611346575f5ffd5b61135289828a0161120a565b945050606087013567ffffffffffffffff81111561136e575f5ffd5b61137a89828a0161126e565b935050608087013561138b816111f9565b9598949750929591949360a090920135925050565b5f5f5f5f608085870312156113b3575f5ffd5b84356113be81610d96565b935060208501359250604085013567ffffffffffffffff8111156113e0575f5ffd5b6113ec87828801610f77565b925050606085013567ffffffffffffffff811115611408575f5ffd5b6114148782880161120a565b91505092959194509250565b634e487b7160e01b5f52602160045260245ffd5b6006811061144457611444611420565b9052565b602081526bffffffffffffffffffffffff82511660208201526001600160a01b036020830151166040820152604082015160608201525f6060830151611496608084018263ffffffff169052565b50608083015163ffffffff811660a08401525060a083015163ffffffff811660c08401525060c08301516114cd60e0840182611434565b5060e0830151610100808401526106fd61012084018261115e565b5f5f5f5f608085870312156114fb575f5ffd5b843561150681610d96565b935060208501359250604085013561151d81610d96565b9150606085013567ffffffffffffffff811115611538575f5ffd5b8501601f81018713611548575f5ffd5b803567ffffffffffffffff81111561156257611562610ec2565b611575601f8201601f1916602001610f23565b818152886020838501011115611589575f5ffd5b816020840160208301375f6020838301015280935050505092959194509250565b5f5f5f5f5f60a086880312156115be575f5ffd5b85356115c981610d96565b945060208601359350604086013567ffffffffffffffff8111156115eb575f5ffd5b6115f78882890161120a565b935050606086013567ffffffffffffffff811115611613575f5ffd5b61161f8882890161126e565b9250506080860135611630816111f9565b809150509295509295909350565b8051611649816111f9565b919050565b805161164981610fea565b5f5f6040838503121561166a575f5ffd5b8251602084015190925067ffffffffffffffff811115611688575f5ffd5b8301601f81018513611698575f5ffd5b80516116a6610f9482610f54565b8082825260208201915060208360061b8501019250878311156116c7575f5ffd5b6020840193505b8284101561172457604084890312156116e5575f5ffd5b6116ed610ed6565b84516116f8816111f9565b8152602085015161170881610fea565b80602083015250808352506020820191506040840193506116ce565b809450505050509250929050565b805161164981610d96565b5f5f6040838503121561174e575f5ffd5b8251602084015190925067ffffffffffffffff81111561176c575f5ffd5b8301601f8101851361177c575f5ffd5b805161178a610f9482610f54565b8082825260208201915060208360051b8501019250878311156117ab575f5ffd5b6020840193505b828410156117245783516117c581610d96565b8252602093840193909101906117b2565b606081525f6117e86060830186610e71565b82810360208401528085518083526020830191506020870192505f5b818110156118305783516bffffffffffffffffffffffff16835260209384019390920191600101611804565b505060409390930193909352509392505050565b5f60208284031215611854575f5ffd5b815161077a816110d1565b5f6020828403121561186f575f5ffd5b5051919050565b604081016002841061188a5761188a611420565b9281526020015290565b5f82601f8301126118a3575f5ffd5b81516118b1610f9482610f54565b8082825260208201915060208360051b8601019250858311156118d2575f5ffd5b602085015b83811015610fe05780516118ea816111f9565b8352602092830192016118d7565b5f5f60408385031215611909575f5ffd5b8251602084015190925067ffffffffffffffff811115611927575f5ffd5b61193385828601611894565b9150509250929050565b5f5f6040838503121561194e575f5ffd5b8251611959816110d1565b6020939093015192949293505050565b5f5f6040838503121561197a575f5ffd5b8251602084015190925067ffffffffffffffff811115611998575f5ffd5b8301601f810185136119a8575f5ffd5b80516119b6610f9482610f54565b8082825260208201915060208360051b8501019250878311156119d7575f5ffd5b6020840193505b828410156117245783518252602093840193909101906119de565b6001600160a01b038716815285602082015260c060408201525f611a2060c083018761115e565b8281036060840152611a328187610ddf565b63ffffffff959095166080840152505060a00152949350505050565b6001600160a01b0385168152836020820152608060408201525f611a756080830185610e71565b8281036060840152610aa4818561115e565b805160068110611649575f5ffd5b5f60208284031215611aa5575f5ffd5b815167ffffffffffffffff811115611abb575f5ffd5b82016101008185031215611acd575f5ffd5b611ad5610eff565b611ade8261164e565b8152611aec60208301611732565b602082015260408281015190820152611b076060830161163e565b6060820152611b186080830161163e565b6080820152611b2960a0830161163e565b60a0820152611b3a60c08301611a87565b60c082015260e082015167ffffffffffffffff811115611b58575f5ffd5b611b6486828501611894565b60e083015250949350505050565b6001600160a01b03851681528360208201526001600160a01b0383166040820152608060608201525f8251806080840152806020850160a085015e5f60a0828501015260a0601f19601f83011684010191505095945050505050565b5f60208284031215611bde575f5ffd5b815161077a81610d96565b6001600160a01b038616815284602082015260a060408201525f611c1060a083018661115e565b8281036060840152611c228186610ddf565b91505063ffffffff83166080830152969550505050505056fea2646970667358221220685a4cbc7351a338f7a41f82f5a4628a122521cecb825a62e552c6178482536a64736f6c634300081c003360a06040526001600a55348015610014575f5ffd5b50604051612dc5380380612dc583398101604081905261003391610141565b5f8383826100418382610254565b50600161004e8282610254565b5050508060018111156100635761006361030e565b60808160018111156100775761007761030e565b905250600890506100888282610254565b5050600680546001600160a01b03191633179055506103229050565b634e487b7160e01b5f52604160045260245ffd5b5f82601f8301126100c7575f5ffd5b81516001600160401b038111156100e0576100e06100a4565b604051601f8201601f19908116603f011681016001600160401b038111828210171561010e5761010e6100a4565b604052818152838201602001851015610125575f5ffd5b8160208501602083015e5f918101602001919091529392505050565b5f5f5f60608486031215610153575f5ffd5b83516001600160401b03811115610168575f5ffd5b610174868287016100b8565b602086015190945090506001600160401b03811115610191575f5ffd5b61019d868287016100b8565b604086015190935090506001600160401b038111156101ba575f5ffd5b6101c6868287016100b8565b9150509250925092565b600181811c908216806101e457607f821691505b60208210810361020257634e487b7160e01b5f52602260045260245ffd5b50919050565b601f82111561024f57805f5260205f20601f840160051c8101602085101561022d5750805b601f840160051c820191505b8181101561024c575f8155600101610239565b50505b505050565b81516001600160401b0381111561026d5761026d6100a4565b6102818161027b84546101d0565b84610208565b6020601f8211600181146102b3575f831561029c5750848201515b5f19600385901b1c1916600184901b17845561024c565b5f84815260208120601f198516915b828110156102e257878501518255602094850194600190920191016102c2565b50848210156102ff57868401515f19600387901b60f8161c191681555b50505050600190811b01905550565b634e487b7160e01b5f52602160045260245ffd5b608051612a6f6103565f395f818161043001528181610b3501528181610c150152818161148901526115e20152612a6f5ff3fe608060405234801561000f575f5ffd5b506004361061021b575f3560e01c806370a0823111610123578063a3fbbaae116100b8578063c152bdfe11610088578063e985e9c51161006e578063e985e9c51461052e578063fbfd24bf1461055b578063ffa1ad741461056e575f5ffd5b8063c152bdfe14610508578063c87b56dd1461051b575f5ffd5b8063a3fbbaae146104ae578063a6f9dae1146104c1578063b88d4fde146104d4578063bf733f6b146104e7575f5ffd5b80638da5cb5b116100f35780638da5cb5b1461045f57806395d89b4114610472578063a22cb4651461047a578063a25e29d31461048d575f5ffd5b806370a08231146103c8578063716be0e0146103db5780637c5e63e01461040357806385ad4f901461042b575f5ffd5b8063481c6a75116101b35780634fa706d7116101835780636352211e116101695780636352211e1461038c578063661a0d0b1461039f5780636c0360eb146103c0575f5ffd5b80634fa706d71461035a57806355f804b314610379575f5ffd5b8063481c6a751461030e578063482c5c3c146103215780634f558e79146103345780634f6ccce714610347575f5ffd5b80631655bfbe116101ee5780631655bfbe146102b157806318160ddd146102d157806323b872dd146102e857806342842e0e146102fb575f5ffd5b806301ffc9a71461021f57806306fdde0314610247578063081812fc1461025c578063095ea7b31461029c575b5f5ffd5b61023261022d3660046121d2565b610592565b60405190151581526020015b60405180910390f35b61024f6105e3565b60405161023e91906121f4565b61028461026a366004612229565b60046020525f90815260409020546001600160a01b031681565b6040516001600160a01b03909116815260200161023e565b6102af6102aa366004612256565b61066e565b005b6102c46102bf366004612229565b610752565b60405161023e919061227e565b6102da60095481565b60405190815260200161023e565b6102af6102f63660046122de565b610809565b6102af6103093660046122de565b6109de565b600754610284906001600160a01b031681565b61023261032f366004612318565b610acf565b610232610342366004612229565b610c4b565b6102da610355366004612229565b610c6c565b6102da610368366004612229565b600d6020525f908152604090205481565b6102af61038736600461238d565b610cb0565b61028461039a366004612229565b610d58565b6103b26103ad366004612229565b610dbc565b60405161023e929190612461565b61024f610e77565b6102da6103d6366004612481565b610e84565b6103ee6103e936600461249a565b610ef6565b60405163ffffffff909116815260200161023e565b61024f6040518060400160405280600981526020016806630313730313232360bc1b81525081565b6104527f000000000000000000000000000000000000000000000000000000000000000081565b60405161023e91906124ee565b600654610284906001600160a01b031681565b61024f610f3a565b6102af6104883660046124fc565b610f47565b6104a061049b366004612229565b610fb2565b60405161023e929190612535565b6102af6104bc366004612481565b61103f565b6102af6104cf366004612481565b6110ef565b6102af6104e2366004612556565b61119f565b6104fa6104f5366004612229565b611281565b60405161023e9291906125eb565b6102da61051636600461249a565b6112e2565b61024f610529366004612229565b61130d565b61023261053c366004612638565b600560209081525f928352604080842090915290825290205460ff1681565b6102da610569366004612669565b611383565b61024f604051806040016040528060058152602001640312e302e360dc1b81525081565b5f6301ffc9a760e01b6001600160e01b0319831614806105c257506380ac58cd60e01b6001600160e01b03198316145b806105dd5750635b5e139f60e01b6001600160e01b03198316145b92915050565b5f80546105ef90612740565b80601f016020809104026020016040519081016040528092919081815260200182805461061b90612740565b80156106665780601f1061063d57610100808354040283529160200191610666565b820191905f5260205f20905b81548152906001019060200180831161064957829003601f168201915b505050505081565b5f818152600260205260409020546001600160a01b0316338114806106b557506001600160a01b0381165f90815260056020908152604080832033845290915290205460ff165b6106f75760405162461bcd60e51b815260206004820152600e60248201526d1393d517d055551213d49256915160921b60448201526064015b60405180910390fd5b5f8281526004602052604080822080546001600160a01b0319166001600160a01b0387811691821790925591518593918516917f8c5be1e5ebec7d5bd14f71427d1e84f3dd0314c0f7b2291e5b200ac8c7c3b92591a4505050565b604080518082019091525f8152606060208201525f828152600d60209081526040918290208251808401845281548152600182018054855181860281018601909652808652919492938581019392908301828280156107f957602002820191905f5260205f20905f905b82829054906101000a900463ffffffff1663ffffffff16815260200190600401906020826003010492830192600103820291508084116107bc5790505b5050505050815250509050919050565b5f818152600260205260409020546001600160a01b038481169116146108715760405162461bcd60e51b815260206004820152600a60248201527f57524f4e475f46524f4d0000000000000000000000000000000000000000000060448201526064016106ee565b6001600160a01b0382166108bb5760405162461bcd60e51b81526020600482015260116024820152701253959053125117d49150d25412515395607a1b60448201526064016106ee565b336001600160a01b03841614806108f457506001600160a01b0383165f90815260056020908152604080832033845290915290205460ff165b8061091457505f818152600460205260409020546001600160a01b031633145b6109515760405162461bcd60e51b815260206004820152600e60248201526d1393d517d055551213d49256915160921b60448201526064016106ee565b6001600160a01b038084165f81815260036020908152604080832080545f19019055938616808352848320805460010190558583526002825284832080546001600160a01b03199081168317909155600490925284832080549092169091559251849392917fddf252ad1be2c89b69c2b068fc378daa952ba7f163c4a11628f55a4df523b3ef91a4505050565b6109e9838383610809565b6001600160a01b0382163b15610aca57604051630a85bd0160e11b8082523360048301526001600160a01b03858116602484015260448301849052608060648401525f608484015290919084169063150b7a029060a4016020604051808303815f875af1158015610a5c573d5f5f3e3d5ffd5b505050506040513d601f19601f82011682018060405250810190610a809190612778565b6001600160e01b03191614610aca5760405162461bcd60e51b815260206004820152601060248201526f155394d0519157d49150d2541251539560821b60448201526064016106ee565b505050565b6007545f906001600160a01b03163314610b115760075460405163312d21ff60e11b81523360048201526001600160a01b0390911660248201526044016106ee565b836001600160a01b0316610b2484610d58565b6001600160a01b031614610ba2575f7f00000000000000000000000000000000000000000000000000000000000000006001811115610b6557610b656124ba565b03610b8657604051634915061960e11b8152600481018490526024016106ee565b604051630ede975960e01b8152600481018490526024016106ee565b5f829003610bc357604051637c946ed760e01b815260040160405180910390fd5b505f828152600b6020908152604080832080546001818101835591855292909320909101839055517fdef878acc6b6cc4320a973cf2022bf4ccad90375867c044d23b4e22e9c3b1bda90610c3c9085907f0000000000000000000000000000000000000000000000000000000000000000908690612793565b60405180910390a19392505050565b5f5f821180156105dd5750600954610c649060016127c9565b821092915050565b5f610c788260016127c9565b9050600954811115610cab57600954604051637ae5968560e01b81526106ee918391600401918252602082015260400190565b919050565b6006546001600160a01b03163314610cf05760065460405163521eb56d60e11b81523360048201526001600160a01b0390911660248201526044016106ee565b80515f03610d1157604051637c946ed760e01b815260040160405180910390fd5b6008610d1d8282612820565b507f5411e8ebf1636d9e83d5fc4900bf80cbac82e8790da2a4c94db4895e889eedf681604051610d4d91906121f4565b60405180910390a150565b5f818152600260205260409020546001600160a01b031680610cab5760405162461bcd60e51b815260206004820152600a60248201527f4e4f545f4d494e5445440000000000000000000000000000000000000000000060448201526064016106ee565b5f60605f600d5f8581526020019081526020015f206040518060400160405290815f820154815260200160018201805480602002602001604051908101604052809291908181526020018280548015610e5d57602002820191905f5260205f20905f905b82829054906101000a900463ffffffff1663ffffffff1681526020019060040190602082600301049283019260010382029150808411610e205790505b505050919092525050506020015180519590945092505050565b600880546105ef90612740565b5f6001600160a01b038216610edb5760405162461bcd60e51b815260206004820152600c60248201527f5a45524f5f41444452455353000000000000000000000000000000000000000060448201526064016106ee565b506001600160a01b03165f9081526003602052604090205490565b600c602052815f5260405f208181548110610f0f575f80fd5b905f5260205f209060089182820401919006600402915091509054906101000a900463ffffffff1681565b600180546105ef90612740565b335f8181526005602090815260408083206001600160a01b03871680855290835292819020805460ff191686151590811790915590519081529192917f17307eab39ab6107e8899845ad3d59bd9653f200f220920489ca2b5937696c31910160405180910390a35050565b5f818152600c6020908152604080832080548251818502810185019093528083526060949383018282801561102f57602002820191905f5260205f20905f905b82829054906101000a900463ffffffff1663ffffffff1681526020019060040190602082600301049283019260010382029150808411610ff25790505b5050505050915081519050915091565b6006546001600160a01b0316331461107f5760065460405163521eb56d60e11b81523360048201526001600160a01b0390911660248201526044016106ee565b6001600160a01b0381166110a65760405163d92e233d60e01b815260040160405180910390fd5b600780546001600160a01b0319166001600160a01b0383169081179091556040517f2c1c11af44aa5608f1dca38c00275c30ea091e02417d36e70e9a1538689c433d905f90a250565b6006546001600160a01b0316331461112f5760065460405163521eb56d60e11b81523360048201526001600160a01b0390911660248201526044016106ee565b6001600160a01b0381166111565760405163d92e233d60e01b815260040160405180910390fd5b600680546001600160a01b0319166001600160a01b0383169081179091556040517f4ffd725fc4a22075e9ec71c59edf9c38cdeb588a91b24fc5b61388c5be41282b905f90a250565b6111aa858585610809565b6001600160a01b0384163b1561127a57604051630a85bd0160e11b808252906001600160a01b0386169063150b7a02906111f09033908a908990899089906004016128db565b6020604051808303815f875af115801561120c573d5f5f3e3d5ffd5b505050506040513d601f19601f820116820180604052508101906112309190612778565b6001600160e01b0319161461127a5760405162461bcd60e51b815260206004820152601060248201526f155394d0519157d49150d2541251539560821b60448201526064016106ee565b5050505050565b5f818152600b6020908152604080832080548251818502810185019093528083526060938301828280156112d257602002820191905f5260205f20905b8154815260200190600101908083116112be575b5050505050905080519150915091565b600b602052815f5260405f2081815481106112fb575f80fd5b905f5260205f20015f91509150505481565b5f818152600d60205260408120546060915060086040518060400160405280600981526020016806630313730313232360bc1b81525061134c83611627565b611359608085901b611627565b60405160200161136c9493929190612930565b604051602081830303815290604052915050919050565b5f6001600a5411156113a8576040516345f5ce8b60e11b815260040160405180910390fd5b6002600a556007546001600160a01b031633146113ed5760075460405163312d21ff60e11b81523360048201526001600160a01b0390911660248201526044016106ee565b6001600160a01b0384166114145760405163d92e233d60e01b815260040160405180910390fd5b5f83900361143557604051637c946ed760e01b815260040160405180910390fd5b5060095461144382826117f7565b8061144d816129b6565b5f818152600d60209081526040909120868155855192945092506114789160018401918601906120fa565b505f6114845f856118d6565b90505f7f000000000000000000000000000000000000000000000000000000000000000060018111156114b9576114b96124ba565b036115905780515f6114cc8260016127c9565b67ffffffffffffffff8111156114e4576114e4612348565b60405190808252806020026020018201604052801561150d578160200160208202803683370190505b5090505f5b828110156115635783818151811061152c5761152c6129ce565b6020026020010151828281518110611546576115466129ce565b63ffffffff90921660209283029190910190910152600101611512565b5084818381518110611577576115776129ce565b63ffffffff909216602092830291909101909101529150505b5f838152600c6020908152604090912082516115ae928401906120fa565b5060098390556115be8684611e64565b7f97587a61bb0b1b9b24e5325039519ae27f44ca15ef278df10f4ab0195205c29c837f00000000000000000000000000000000000000000000000000000000000000008760405161161193929190612793565b60405180910390a150506001600a559392505050565b7aff00000000000000ff00000000000000ff00000000000000ff00006bffffffff0000000000000000604083901c9081167bffffffff00000000000000000000000000000000000000000000000084161760201c6fffffffff000000000000000000000000919091166001600160e01b031984161717601081901c9182167eff00000000000000ff00000000000000ff00000000000000ff000000000000821617600890811c7bff00000000000000ff00000000000000ff00000000000000ff000000939093167fff00000000000000ff00000000000000ff00000000000000ff000000000000009290921691909117919091179081901c7e0f000f000f000f000f000f000f000f000f000f000f000f000f000f000f000f167f0f000f000f000f000f000f000f000f000f000f000f000f000f000f000f000f00600492831c161790611793827f06060606060606060606060606060606060606060606060606060606060606066127c9565b901c7f0f0f0f0f0f0f0f0f0f0f0f0f0f0f0f0f0f0f0f0f0f0f0f0f0f0f0f0f0f0f0f0f1660276117c391906129e2565b6117ed827f30303030303030303030303030303030303030303030303030303030303030306127c9565b6105dd91906127c9565b5f805b83518110156118d05761180e8260016129f9565b63ffffffff16848281518110611826576118266129ce565b602002602001015163ffffffff16108061186457508263ffffffff16848281518110611854576118546129ce565b602002602001015163ffffffff16115b156118a95783818151811061187b5761187b6129ce565b6020026020010151604051634915061960e11b81526004016106ee919063ffffffff91909116815260200190565b8381815181106118bb576118bb6129ce565b602002602001015191508060010190506117fa565b50505050565b80516060905f63ffffffff821667ffffffffffffffff8111156118fb576118fb612348565b604051908082528060200260200182016040528015611924578160200160208202803683370190505b5090505f8263ffffffff1667ffffffffffffffff81111561194757611947612348565b60405190808252806020026020018201604052801561197a57816020015b60608152602001906001900390816119655790505b5090505f805b8463ffffffff168163ffffffff161015611a5e576119bd88888363ffffffff16815181106119b0576119b06129ce565b6020026020010151611f50565b838263ffffffff16815181106119d5576119d56129ce565b6020026020010181905250828163ffffffff16815181106119f8576119f86129ce565b602002602001015151848263ffffffff1681518110611a1957611a196129ce565b63ffffffff9283166020918202929092010152845185918316908110611a4157611a416129ce565b602002602001015182611a5491906129f9565b9150600101611980565b505f8163ffffffff1667ffffffffffffffff811115611a7f57611a7f612348565b604051908082528060200260200182016040528015611aa8578160200160208202803683370190505b5090505f8563ffffffff1667ffffffffffffffff811115611acb57611acb612348565b604051908082528060200260200182016040528015611af4578160200160208202803683370190505b5090505f805b8463ffffffff168163ffffffff161015611d9f575f8063ffffffff815b8b63ffffffff168163ffffffff161015611d15575b8a8163ffffffff1681518110611b4457611b446129ce565b602002602001015163ffffffff16878263ffffffff1681518110611b6a57611b6a6129ce565b602002602001015163ffffffff161015611d0d57898163ffffffff1681518110611b9657611b966129ce565b6020026020010151878263ffffffff1681518110611bb657611bb66129ce565b602002602001015163ffffffff1681518110611bd457611bd46129ce565b602002602001015163ffffffff168663ffffffff161015611cd6578163ffffffff168a8263ffffffff1681518110611c0e57611c0e6129ce565b6020026020010151888363ffffffff1681518110611c2e57611c2e6129ce565b602002602001015163ffffffff1681518110611c4c57611c4c6129ce565b602002602001015163ffffffff161015611cc457898163ffffffff1681518110611c7857611c786129ce565b6020026020010151878263ffffffff1681518110611c9857611c986129ce565b602002602001015163ffffffff1681518110611cb657611cb66129ce565b602002602001015191508093505b82611cce81612a15565b935050611d0d565b868163ffffffff1681518110611cee57611cee6129ce565b602002602001018051611d0090612a15565b63ffffffff169052611b2c565b600101611b17565b5093508363ffffffff821615611d895784878563ffffffff1681518110611d3e57611d3e6129ce565b63ffffffff9283166020918202929092010152865187918516908110611d6657611d666129ce565b602002602001018051809190611d7b90612a15565b63ffffffff16905250611d91565b505050611d9f565b505050806001019050611afa565b8063ffffffff1667ffffffffffffffff811115611dbe57611dbe612348565b604051908082528060200260200182016040528015611de7578160200160208202803683370190505b5098505f5b8163ffffffff168163ffffffff161015611e5557848163ffffffff1681518110611e1857611e186129ce565b60200260200101518a8263ffffffff1681518110611e3857611e386129ce565b63ffffffff90921660209283029190910190910152600101611dec565b50505050505050505092915050565b611e6e8282611fe2565b6001600160a01b0382163b15611f4c57604051630a85bd0160e11b8082523360048301525f6024830181905260448301849052608060648401526084830152906001600160a01b0384169063150b7a029060a4016020604051808303815f875af1158015611ede573d5f5f3e3d5ffd5b505050506040513d601f19601f82011682018060405250810190611f029190612778565b6001600160e01b03191614611f4c5760405162461bcd60e51b815260206004820152601060248201526f155394d0519157d49150d2541251539560821b60448201526064016106ee565b5050565b63ffffffff81165f908152600c6020908152604091829020805483518184028101840190945280845260609392830182828015611fd557602002820191905f5260205f20905f905b82829054906101000a900463ffffffff1663ffffffff1681526020019060040190602082600301049283019260010382029150808411611f985790505b5050505050905092915050565b6001600160a01b03821661202c5760405162461bcd60e51b81526020600482015260116024820152701253959053125117d49150d25412515395607a1b60448201526064016106ee565b5f818152600260205260409020546001600160a01b0316156120905760405162461bcd60e51b815260206004820152600e60248201527f414c52454144595f4d494e54454400000000000000000000000000000000000060448201526064016106ee565b6001600160a01b0382165f81815260036020908152604080832080546001019055848352600290915280822080546001600160a01b0319168417905551839291907fddf252ad1be2c89b69c2b068fc378daa952ba7f163c4a11628f55a4df523b3ef908290a45050565b828054828255905f5260205f2090600701600890048101928215612196579160200282015f5b8382111561216457835183826101000a81548163ffffffff021916908363ffffffff1602179055509260200192600401602081600301049283019260010302612120565b80156121945782816101000a81549063ffffffff0219169055600401602081600301049283019260010302612164565b505b506121a29291506121a6565b5090565b5b808211156121a2575f81556001016121a7565b6001600160e01b0319811681146121cf575f5ffd5b50565b5f602082840312156121e2575f5ffd5b81356121ed816121ba565b9392505050565b602081525f82518060208401528060208501604085015e5f604082850101526040601f19601f83011684010191505092915050565b5f60208284031215612239575f5ffd5b5035919050565b80356001600160a01b0381168114610cab575f5ffd5b5f5f60408385031215612267575f5ffd5b61227083612240565b946020939093013593505050565b6020808252825182820152828101516040808401528051606084018190525f929190910190829060808501905b808310156122d45763ffffffff84511682526020820191506020840193506001830192506122ab565b5095945050505050565b5f5f5f606084860312156122f0575f5ffd5b6122f984612240565b925061230760208501612240565b929592945050506040919091013590565b5f5f5f6060848603121561232a575f5ffd5b61233384612240565b95602085013595506040909401359392505050565b634e487b7160e01b5f52604160045260245ffd5b604051601f8201601f1916810167ffffffffffffffff8111828210171561238557612385612348565b604052919050565b5f6020828403121561239d575f5ffd5b813567ffffffffffffffff8111156123b3575f5ffd5b8201601f810184136123c3575f5ffd5b803567ffffffffffffffff8111156123dd576123dd612348565b6123f0601f8201601f191660200161235c565b818152856020838501011115612404575f5ffd5b816020840160208301375f91810160200191909152949350505050565b5f8151808452602084019350602083015f5b8281101561245757815163ffffffff16865260209586019590910190600101612433565b5093949350505050565b828152604060208201525f6124796040830184612421565b949350505050565b5f60208284031215612491575f5ffd5b6121ed82612240565b5f5f604083850312156124ab575f5ffd5b50508035926020909101359150565b634e487b7160e01b5f52602160045260245ffd5b600281106124ea57634e487b7160e01b5f52602160045260245ffd5b9052565b602081016105dd82846124ce565b5f5f6040838503121561250d575f5ffd5b61251683612240565b91506020830135801515811461252a575f5ffd5b809150509250929050565b604081525f6125476040830185612421565b90508260208301529392505050565b5f5f5f5f5f6080868803121561256a575f5ffd5b61257386612240565b945061258160208701612240565b935060408601359250606086013567ffffffffffffffff8111156125a3575f5ffd5b8601601f810188136125b3575f5ffd5b803567ffffffffffffffff8111156125c9575f5ffd5b8860208284010111156125da575f5ffd5b959894975092955050506020019190565b5f60408201848352604060208401528084518083526060850191506020860192505f5b8181101561262c57835183526020938401939092019160010161260e565b50909695505050505050565b5f5f60408385031215612649575f5ffd5b61265283612240565b915061266060208401612240565b90509250929050565b5f5f5f6060848603121561267b575f5ffd5b61268484612240565b925060208401359150604084013567ffffffffffffffff8111156126a6575f5ffd5b8401601f810186136126b6575f5ffd5b803567ffffffffffffffff8111156126d0576126d0612348565b8060051b6126e06020820161235c565b918252602081840181019290810190898411156126fb575f5ffd5b6020850194505b83851015612731578435925063ffffffff8316831461271f575f5ffd5b82825260209485019490910190612702565b80955050505050509250925092565b600181811c9082168061275457607f821691505b60208210810361277257634e487b7160e01b5f52602260045260245ffd5b50919050565b5f60208284031215612788575f5ffd5b81516121ed816121ba565b838152606081016127a760208301856124ce565b826040830152949350505050565b634e487b7160e01b5f52601160045260245ffd5b808201808211156105dd576105dd6127b5565b601f821115610aca57805f5260205f20601f840160051c810160208510156128015750805b601f840160051c820191505b8181101561127a575f815560010161280d565b815167ffffffffffffffff81111561283a5761283a612348565b61284e816128488454612740565b846127dc565b6020601f821160018114612880575f83156128695750848201515b5f19600385901b1c1916600184901b17845561127a565b5f84815260208120601f198516915b828110156128af578785015182556020948501946001909201910161288f565b50848210156128cc57868401515f19600387901b60f8161c191681555b50505050600190811b01905550565b6001600160a01b03861681526001600160a01b038516602082015283604082015260806060820152816080820152818360a08301375f81830160a090810191909152601f909201601f19160101949350505050565b5f5f865461293d81612740565b600182168015612954576001811461296957612996565b60ff1983168652811515820286019350612996565b895f5260205f205f5b8381101561298e57815488820152600190910190602001612972565b505081860193505b50505085518060208801835e019384525050602082015260400192915050565b5f600182016129c7576129c76127b5565b5060010190565b634e487b7160e01b5f52603260045260245ffd5b80820281158282048414176105dd576105dd6127b5565b63ffffffff81811683821601908111156105dd576105dd6127b5565b5f63ffffffff821663ffffffff8103612a3057612a306127b5565b6001019291505056fea26469706673582212207a140da3c3c911e67023915f4f82b38726439679069227830b83bc65bd8a24d864736f6c634300081c003360c06040526001600a55348015610014575f5ffd5b506040516130f43803806130f48339810160408190526100339161014d565b600184845f6100428382610280565b50600161004f8282610280565b5050508060018111156100645761006461033a565b60808160018111156100785761007861033a565b905250600890506100898382610280565b506001600160a01b031660a0525050600680546001600160a01b031916331790555061034e565b634e487b7160e01b5f52604160045260245ffd5b5f82601f8301126100d3575f5ffd5b81516001600160401b038111156100ec576100ec6100b0565b604051601f8201601f19908116603f011681016001600160401b038111828210171561011a5761011a6100b0565b604052818152838201602001851015610131575f5ffd5b8160208501602083015e5f918101602001919091529392505050565b5f5f5f5f60808587031215610160575f5ffd5b84516001600160401b03811115610175575f5ffd5b610181878288016100c4565b602087015190955090506001600160401b0381111561019e575f5ffd5b6101aa878288016100c4565b604087015190945090506001600160401b038111156101c7575f5ffd5b6101d3878288016100c4565b606087015190935090506001600160a01b03811681146101f1575f5ffd5b939692955090935050565b600181811c9082168061021057607f821691505b60208210810361022e57634e487b7160e01b5f52602260045260245ffd5b50919050565b601f82111561027b57805f5260205f20601f840160051c810160208510156102595750805b601f840160051c820191505b81811015610278575f8155600101610265565b50505b505050565b81516001600160401b03811115610299576102996100b0565b6102ad816102a784546101fc565b84610234565b6020601f8211600181146102df575f83156102c85750848201515b5f19600385901b1c1916600184901b178455610278565b5f84815260208120601f198516915b8281101561030e57878501518255602094850194600190920191016102ee565b508482101561032b57868401515f19600387901b60f8161c191681555b50505050600190811b01905550565b634e487b7160e01b5f52602160045260245ffd5b60805160a051612d5b6103995f395f81816105c701528181611e3101526120ab01525f818161048401528181610bbd01528181610c9d01528181611511015261166a0152612d5b5ff3fe608060405234801561000f575f5ffd5b506004361061024f575f3560e01c806370a082311161013d578063a6f9dae1116100b8578063c87b56dd11610088578063fbfd24bf1161006e578063fbfd24bf146105af578063ff0039cb146105c2578063ffa1ad74146105e9575f5ffd5b8063c87b56dd1461056f578063e985e9c514610582575f5ffd5b8063a6f9dae114610515578063b88d4fde14610528578063bf733f6b1461053b578063c152bdfe1461055c575f5ffd5b80638da5cb5b1161010d578063a22cb465116100f3578063a22cb465146104ce578063a25e29d3146104e1578063a3fbbaae14610502575f5ffd5b80638da5cb5b146104b357806395d89b41146104c6575f5ffd5b806370a082311461041c578063716be0e01461042f5780637c5e63e01461045757806385ad4f901461047f575f5ffd5b8063481c6a75116101cd5780634fa706d71161019d5780636352211e116101835780636352211e146103e0578063661a0d0b146103f35780636c0360eb14610414575f5ffd5b80634fa706d7146103ae57806355f804b3146103cd575f5ffd5b8063481c6a7514610362578063482c5c3c146103755780634f558e79146103885780634f6ccce71461039b575f5ffd5b806309b3b87e1161022257806318160ddd1161020857806318160ddd1461032557806323b872dd1461033c57806342842e0e1461034f575f5ffd5b806309b3b87e146102e55780631655bfbe14610305575f5ffd5b806301ffc9a71461025357806306fdde031461027b578063081812fc14610290578063095ea7b3146102d0575b5f5ffd5b6102666102613660046123a6565b61060d565b60405190151581526020015b60405180910390f35b61028361065e565b60405161027291906123c8565b6102b861029e3660046123fd565b60046020525f90815260409020546001600160a01b031681565b6040516001600160a01b039091168152602001610272565b6102e36102de36600461242a565b6106e9565b005b6102f86102f336600461253e565b6107cd565b60405161027291906125b8565b6103186103133660046123fd565b6107da565b60405161027291906125ca565b61032e60095481565b604051908152602001610272565b6102e361034a366004612620565b610891565b6102e361035d366004612620565b610a66565b6007546102b8906001600160a01b031681565b61026661038336600461265a565b610b57565b6102666103963660046123fd565b610cd3565b61032e6103a93660046123fd565b610cf4565b61032e6103bc3660046123fd565b600d6020525f908152604090205481565b6102e36103db36600461268a565b610d38565b6102b86103ee3660046123fd565b610de0565b6104066104013660046123fd565b610e44565b60405161027292919061271e565b610283610eff565b61032e61042a366004612736565b610f0c565b61044261043d36600461274f565b610f7e565b60405163ffffffff9091168152602001610272565b6102836040518060400160405280600981526020016806630313730313232360bc1b81525081565b6104a67f000000000000000000000000000000000000000000000000000000000000000081565b60405161027291906127a3565b6006546102b8906001600160a01b031681565b610283610fc2565b6102e36104dc3660046127b1565b610fcf565b6104f46104ef3660046123fd565b61103a565b6040516102729291906127ea565b6102e3610510366004612736565b6110c7565b6102e3610523366004612736565b611177565b6102e361053636600461280b565b611227565b61054e6105493660046123fd565b611309565b6040516102729291906128a0565b61032e61056a36600461274f565b61136a565b61028361057d3660046123fd565b611395565b6102666105903660046128ed565b600560209081525f928352604080842090915290825290205460ff1681565b61032e6105bd36600461291e565b61140b565b6102b87f000000000000000000000000000000000000000000000000000000000000000081565b610283604051806040016040528060058152602001640312e302e360dc1b81525081565b5f6301ffc9a760e01b6001600160e01b03198316148061063d57506380ac58cd60e01b6001600160e01b03198316145b806106585750635b5e139f60e01b6001600160e01b03198316145b92915050565b5f805461066a90612971565b80601f016020809104026020016040519081016040528092919081815260200182805461069690612971565b80156106e15780601f106106b8576101008083540402835291602001916106e1565b820191905f5260205f20905b8154815290600101906020018083116106c457829003601f168201915b505050505081565b5f818152600260205260409020546001600160a01b03163381148061073057506001600160a01b0381165f90815260056020908152604080832033845290915290205460ff165b6107725760405162461bcd60e51b815260206004820152600e60248201526d1393d517d055551213d49256915160921b60448201526064015b60405180910390fd5b5f8281526004602052604080822080546001600160a01b0319166001600160a01b0387811691821790925591518593918516917f8c5be1e5ebec7d5bd14f71427d1e84f3dd0314c0f7b2291e5b200ac8c7c3b92591a4505050565b60606106586001836116af565b604080518082019091525f8152606060208201525f828152600d602090815260409182902082518084018452815481526001820180548551818602810186019096528086529194929385810193929083018282801561088157602002820191905f5260205f20905f905b82829054906101000a900463ffffffff1663ffffffff16815260200190600401906020826003010492830192600103820291508084116108445790505b5050505050815250509050919050565b5f818152600260205260409020546001600160a01b038481169116146108f95760405162461bcd60e51b815260206004820152600a60248201527f57524f4e475f46524f4d000000000000000000000000000000000000000000006044820152606401610769565b6001600160a01b0382166109435760405162461bcd60e51b81526020600482015260116024820152701253959053125117d49150d25412515395607a1b6044820152606401610769565b336001600160a01b038416148061097c57506001600160a01b0383165f90815260056020908152604080832033845290915290205460ff165b8061099c57505f818152600460205260409020546001600160a01b031633145b6109d95760405162461bcd60e51b815260206004820152600e60248201526d1393d517d055551213d49256915160921b6044820152606401610769565b6001600160a01b038084165f81815260036020908152604080832080545f19019055938616808352848320805460010190558583526002825284832080546001600160a01b03199081168317909155600490925284832080549092169091559251849392917fddf252ad1be2c89b69c2b068fc378daa952ba7f163c4a11628f55a4df523b3ef91a4505050565b610a71838383610891565b6001600160a01b0382163b15610b5257604051630a85bd0160e11b8082523360048301526001600160a01b03858116602484015260448301849052608060648401525f608484015290919084169063150b7a029060a4016020604051808303815f875af1158015610ae4573d5f5f3e3d5ffd5b505050506040513d601f19601f82011682018060405250810190610b0891906129a9565b6001600160e01b03191614610b525760405162461bcd60e51b815260206004820152601060248201526f155394d0519157d49150d2541251539560821b6044820152606401610769565b505050565b6007545f906001600160a01b03163314610b995760075460405163312d21ff60e11b81523360048201526001600160a01b039091166024820152604401610769565b836001600160a01b0316610bac84610de0565b6001600160a01b031614610c2a575f7f00000000000000000000000000000000000000000000000000000000000000006001811115610bed57610bed61276f565b03610c0e57604051634915061960e11b815260048101849052602401610769565b604051630ede975960e01b815260048101849052602401610769565b5f829003610c4b57604051637c946ed760e01b815260040160405180910390fd5b505f828152600b6020908152604080832080546001818101835591855292909320909101839055517fdef878acc6b6cc4320a973cf2022bf4ccad90375867c044d23b4e22e9c3b1bda90610cc49085907f00000000000000000000000000000000000000000000000000000000000000009086906129c4565b60405180910390a19392505050565b5f5f821180156106585750600954610cec9060016129fa565b821092915050565b5f610d008260016129fa565b9050600954811115610d3357600954604051637ae5968560e01b8152610769918391600401918252602082015260400190565b919050565b6006546001600160a01b03163314610d785760065460405163521eb56d60e11b81523360048201526001600160a01b039091166024820152604401610769565b80515f03610d9957604051637c946ed760e01b815260040160405180910390fd5b6008610da58282612a51565b507f5411e8ebf1636d9e83d5fc4900bf80cbac82e8790da2a4c94db4895e889eedf681604051610dd591906123c8565b60405180910390a150565b5f818152600260205260409020546001600160a01b031680610d335760405162461bcd60e51b815260206004820152600a60248201527f4e4f545f4d494e544544000000000000000000000000000000000000000000006044820152606401610769565b5f60605f600d5f8581526020019081526020015f206040518060400160405290815f820154815260200160018201805480602002602001604051908101604052809291908181526020018280548015610ee557602002820191905f5260205f20905f905b82829054906101000a900463ffffffff1663ffffffff1681526020019060040190602082600301049283019260010382029150808411610ea85790505b505050919092525050506020015180519590945092505050565b6008805461066a90612971565b5f6001600160a01b038216610f635760405162461bcd60e51b815260206004820152600c60248201527f5a45524f5f4144445245535300000000000000000000000000000000000000006044820152606401610769565b506001600160a01b03165f9081526003602052604090205490565b600c602052815f5260405f208181548110610f97575f80fd5b905f5260205f209060089182820401919006600402915091509054906101000a900463ffffffff1681565b6001805461066a90612971565b335f8181526005602090815260408083206001600160a01b03871680855290835292819020805460ff191686151590811790915590519081529192917f17307eab39ab6107e8899845ad3d59bd9653f200f220920489ca2b5937696c31910160405180910390a35050565b5f818152600c602090815260408083208054825181850281018501909352808352606094938301828280156110b757602002820191905f5260205f20905f905b82829054906101000a900463ffffffff1663ffffffff168152602001906004019060208260030104928301926001038202915080841161107a5790505b5050505050915081519050915091565b6006546001600160a01b031633146111075760065460405163521eb56d60e11b81523360048201526001600160a01b039091166024820152604401610769565b6001600160a01b03811661112e5760405163d92e233d60e01b815260040160405180910390fd5b600780546001600160a01b0319166001600160a01b0383169081179091556040517f2c1c11af44aa5608f1dca38c00275c30ea091e02417d36e70e9a1538689c433d905f90a250565b6006546001600160a01b031633146111b75760065460405163521eb56d60e11b81523360048201526001600160a01b039091166024820152604401610769565b6001600160a01b0381166111de5760405163d92e233d60e01b815260040160405180910390fd5b600680546001600160a01b0319166001600160a01b0383169081179091556040517f4ffd725fc4a22075e9ec71c59edf9c38cdeb588a91b24fc5b61388c5be41282b905f90a250565b611232858585610891565b6001600160a01b0384163b1561130257604051630a85bd0160e11b808252906001600160a01b0386169063150b7a02906112789033908a90899089908990600401612b0c565b6020604051808303815f875af1158015611294573d5f5f3e3d5ffd5b505050506040513d601f19601f820116820180604052508101906112b891906129a9565b6001600160e01b031916146113025760405162461bcd60e51b815260206004820152601060248201526f155394d0519157d49150d2541251539560821b6044820152606401610769565b5050505050565b5f818152600b60209081526040808320805482518185028101850190935280835260609383018282801561135a57602002820191905f5260205f20905b815481526020019060010190808311611346575b5050505050905080519150915091565b600b602052815f5260405f208181548110611383575f80fd5b905f5260205f20015f91509150505481565b5f818152600d60205260408120546060915060086040518060400160405280600981526020016806630313730313232360bc1b8152506113d483611c3d565b6113e1608085901b611c3d565b6040516020016113f49493929190612b61565b604051602081830303815290604052915050919050565b5f6001600a541115611430576040516345f5ce8b60e11b815260040160405180910390fd5b6002600a556007546001600160a01b031633146114755760075460405163312d21ff60e11b81523360048201526001600160a01b039091166024820152604401610769565b6001600160a01b03841661149c5760405163d92e233d60e01b815260040160405180910390fd5b5f8390036114bd57604051637c946ed760e01b815260040160405180910390fd5b506009546114cb8282611e0d565b806114d581612be7565b5f818152600d60209081526040909120868155855192945092506115009160018401918601906122ce565b505f61150c5f856116af565b90505f7f000000000000000000000000000000000000000000000000000000000000000060018111156115415761154161276f565b036116185780515f6115548260016129fa565b67ffffffffffffffff81111561156c5761156c612452565b604051908082528060200260200182016040528015611595578160200160208202803683370190505b5090505f5b828110156115eb578381815181106115b4576115b4612bff565b60200260200101518282815181106115ce576115ce612bff565b63ffffffff9092166020928302919091019091015260010161159a565b50848183815181106115ff576115ff612bff565b63ffffffff909216602092830291909101909101529150505b5f838152600c602090815260409091208251611636928401906122ce565b5060098390556116468684611f8a565b7f97587a61bb0b1b9b24e5325039519ae27f44ca15ef278df10f4ab0195205c29c837f000000000000000000000000000000000000000000000000000000000000000087604051611699939291906129c4565b60405180910390a150506001600a559392505050565b80516060905f63ffffffff821667ffffffffffffffff8111156116d4576116d4612452565b6040519080825280602002602001820160405280156116fd578160200160208202803683370190505b5090505f8263ffffffff1667ffffffffffffffff81111561172057611720612452565b60405190808252806020026020018201604052801561175357816020015b606081526020019060019003908161173e5790505b5090505f805b8463ffffffff168163ffffffff1610156118375761179688888363ffffffff168151811061178957611789612bff565b6020026020010151612076565b838263ffffffff16815181106117ae576117ae612bff565b6020026020010181905250828163ffffffff16815181106117d1576117d1612bff565b602002602001015151848263ffffffff16815181106117f2576117f2612bff565b63ffffffff928316602091820292909201015284518591831690811061181a5761181a612bff565b60200260200101518261182d9190612c13565b9150600101611759565b505f8163ffffffff1667ffffffffffffffff81111561185857611858612452565b604051908082528060200260200182016040528015611881578160200160208202803683370190505b5090505f8563ffffffff1667ffffffffffffffff8111156118a4576118a4612452565b6040519080825280602002602001820160405280156118cd578160200160208202803683370190505b5090505f805b8463ffffffff168163ffffffff161015611b78575f8063ffffffff815b8b63ffffffff168163ffffffff161015611aee575b8a8163ffffffff168151811061191d5761191d612bff565b602002602001015163ffffffff16878263ffffffff168151811061194357611943612bff565b602002602001015163ffffffff161015611ae657898163ffffffff168151811061196f5761196f612bff565b6020026020010151878263ffffffff168151811061198f5761198f612bff565b602002602001015163ffffffff16815181106119ad576119ad612bff565b602002602001015163ffffffff168663ffffffff161015611aaf578163ffffffff168a8263ffffffff16815181106119e7576119e7612bff565b6020026020010151888363ffffffff1681518110611a0757611a07612bff565b602002602001015163ffffffff1681518110611a2557611a25612bff565b602002602001015163ffffffff161015611a9d57898163ffffffff1681518110611a5157611a51612bff565b6020026020010151878263ffffffff1681518110611a7157611a71612bff565b602002602001015163ffffffff1681518110611a8f57611a8f612bff565b602002602001015191508093505b82611aa781612c2f565b935050611ae6565b868163ffffffff1681518110611ac757611ac7612bff565b602002602001018051611ad990612c2f565b63ffffffff169052611905565b6001016118f0565b5093508363ffffffff821615611b625784878563ffffffff1681518110611b1757611b17612bff565b63ffffffff9283166020918202929092010152865187918516908110611b3f57611b3f612bff565b602002602001018051809190611b5490612c2f565b63ffffffff16905250611b6a565b505050611b78565b5050508060010190506118d3565b8063ffffffff1667ffffffffffffffff811115611b9757611b97612452565b604051908082528060200260200182016040528015611bc0578160200160208202803683370190505b5098505f5b8163ffffffff168163ffffffff161015611c2e57848163ffffffff1681518110611bf157611bf1612bff565b60200260200101518a8263ffffffff1681518110611c1157611c11612bff565b63ffffffff90921660209283029190910190910152600101611bc5565b50505050505050505092915050565b7aff00000000000000ff00000000000000ff00000000000000ff00006bffffffff0000000000000000604083901c9081167bffffffff00000000000000000000000000000000000000000000000084161760201c6fffffffff000000000000000000000000919091166001600160e01b031984161717601081901c9182167eff00000000000000ff00000000000000ff00000000000000ff000000000000821617600890811c7bff00000000000000ff00000000000000ff00000000000000ff000000939093167fff00000000000000ff00000000000000ff00000000000000ff000000000000009290921691909117919091179081901c7e0f000f000f000f000f000f000f000f000f000f000f000f000f000f000f000f167f0f000f000f000f000f000f000f000f000f000f000f000f000f000f000f000f00600492831c161790611da9827f06060606060606060606060606060606060606060606060606060606060606066129fa565b901c7f0f0f0f0f0f0f0f0f0f0f0f0f0f0f0f0f0f0f0f0f0f0f0f0f0f0f0f0f0f0f0f0f166027611dd99190612c53565b611e03827f30303030303030303030303030303030303030303030303030303030303030306129fa565b61065891906129fa565b81515f03611e2e57604051637c946ed760e01b815260040160405180910390fd5b5f7f00000000000000000000000000000000000000000000000000000000000000006001600160a01b03166318160ddd6040518163ffffffff1660e01b8152600401602060405180830381865afa158015611e8b573d5f5f3e3d5ffd5b505050506040513d601f19601f82011682018060405250810190611eaf9190612c6a565b90505f805b845181101561130257611ec8826001612c13565b63ffffffff16858281518110611ee057611ee0612bff565b602002602001015163ffffffff161080611f1e57508263ffffffff16858281518110611f0e57611f0e612bff565b602002602001015163ffffffff16115b15611f6357848181518110611f3557611f35612bff565b6020026020010151604051634915061960e11b8152600401610769919063ffffffff91909116815260200190565b848181518110611f7557611f75612bff565b60200260200101519150806001019050611eb4565b611f9482826121b6565b6001600160a01b0382163b1561207257604051630a85bd0160e11b8082523360048301525f6024830181905260448301849052608060648401526084830152906001600160a01b0384169063150b7a029060a4016020604051808303815f875af1158015612004573d5f5f3e3d5ffd5b505050506040513d601f19601f8201168201806040525081019061202891906129a9565b6001600160e01b031916146120725760405162461bcd60e51b815260206004820152601060248201526f155394d0519157d49150d2541251539560821b6044820152606401610769565b5050565b60605f83600181111561208b5761208b61276f565b036121265760405163a25e29d360e01b815263ffffffff831660048201527f00000000000000000000000000000000000000000000000000000000000000006001600160a01b03169063a25e29d3906024015f60405180830381865afa1580156120f7573d5f5f3e3d5ffd5b505050506040513d5f823e601f3d908101601f1916820160405261211e9190810190612c81565b509050610658565b63ffffffff82165f908152600c6020908152604091829020805483518184028101840190945280845290918301828280156121a957602002820191905f5260205f20905f905b82829054906101000a900463ffffffff1663ffffffff168152602001906004019060208260030104928301926001038202915080841161216c5790505b5050505050905092915050565b6001600160a01b0382166122005760405162461bcd60e51b81526020600482015260116024820152701253959053125117d49150d25412515395607a1b6044820152606401610769565b5f818152600260205260409020546001600160a01b0316156122645760405162461bcd60e51b815260206004820152600e60248201527f414c52454144595f4d494e5445440000000000000000000000000000000000006044820152606401610769565b6001600160a01b0382165f81815260036020908152604080832080546001019055848352600290915280822080546001600160a01b0319168417905551839291907fddf252ad1be2c89b69c2b068fc378daa952ba7f163c4a11628f55a4df523b3ef908290a45050565b828054828255905f5260205f209060070160089004810192821561236a579160200282015f5b8382111561233857835183826101000a81548163ffffffff021916908363ffffffff16021790555092602001926004016020816003010492830192600103026122f4565b80156123685782816101000a81549063ffffffff0219169055600401602081600301049283019260010302612338565b505b5061237692915061237a565b5090565b5b80821115612376575f815560010161237b565b6001600160e01b0319811681146123a3575f5ffd5b50565b5f602082840312156123b6575f5ffd5b81356123c18161238e565b9392505050565b602081525f82518060208401528060208501604085015e5f604082850101526040601f19601f83011684010191505092915050565b5f6020828403121561240d575f5ffd5b5035919050565b80356001600160a01b0381168114610d33575f5ffd5b5f5f6040838503121561243b575f5ffd5b61244483612414565b946020939093013593505050565b634e487b7160e01b5f52604160045260245ffd5b604051601f8201601f1916810167ffffffffffffffff8111828210171561248f5761248f612452565b604052919050565b5f67ffffffffffffffff8211156124b0576124b0612452565b5060051b60200190565b63ffffffff811681146123a3575f5ffd5b5f82601f8301126124da575f5ffd5b81356124ed6124e882612497565b612466565b8082825260208201915060208360051b86010192508583111561250e575f5ffd5b602085015b83811015612534578035612526816124ba565b835260209283019201612513565b5095945050505050565b5f6020828403121561254e575f5ffd5b813567ffffffffffffffff811115612564575f5ffd5b612570848285016124cb565b949350505050565b5f8151808452602084019350602083015f5b828110156125ae57815163ffffffff1686526020958601959091019060010161258a565b5093949350505050565b602081525f6123c16020830184612578565b6020808252825182820152828101516040808401528051606084018190525f929190910190829060808501905b808310156125345763ffffffff84511682526020820191506020840193506001830192506125f7565b5f5f5f60608486031215612632575f5ffd5b61263b84612414565b925061264960208501612414565b929592945050506040919091013590565b5f5f5f6060848603121561266c575f5ffd5b61267584612414565b95602085013595506040909401359392505050565b5f6020828403121561269a575f5ffd5b813567ffffffffffffffff8111156126b0575f5ffd5b8201601f810184136126c0575f5ffd5b803567ffffffffffffffff8111156126da576126da612452565b6126ed601f8201601f1916602001612466565b818152856020838501011115612701575f5ffd5b816020840160208301375f91810160200191909152949350505050565b828152604060208201525f6125706040830184612578565b5f60208284031215612746575f5ffd5b6123c182612414565b5f5f60408385031215612760575f5ffd5b50508035926020909101359150565b634e487b7160e01b5f52602160045260245ffd5b6002811061279f57634e487b7160e01b5f52602160045260245ffd5b9052565b602081016106588284612783565b5f5f604083850312156127c2575f5ffd5b6127cb83612414565b9150602083013580151581146127df575f5ffd5b809150509250929050565b604081525f6127fc6040830185612578565b90508260208301529392505050565b5f5f5f5f5f6080868803121561281f575f5ffd5b61282886612414565b945061283660208701612414565b935060408601359250606086013567ffffffffffffffff811115612858575f5ffd5b8601601f81018813612868575f5ffd5b803567ffffffffffffffff81111561287e575f5ffd5b88602082840101111561288f575f5ffd5b959894975092955050506020019190565b5f60408201848352604060208401528084518083526060850191506020860192505f5b818110156128e15783518352602093840193909201916001016128c3565b50909695505050505050565b5f5f604083850312156128fe575f5ffd5b61290783612414565b915061291560208401612414565b90509250929050565b5f5f5f60608486031215612930575f5ffd5b61293984612414565b925060208401359150604084013567ffffffffffffffff81111561295b575f5ffd5b612967868287016124cb565b9150509250925092565b600181811c9082168061298557607f821691505b6020821081036129a357634e487b7160e01b5f52602260045260245ffd5b50919050565b5f602082840312156129b9575f5ffd5b81516123c18161238e565b838152606081016129d86020830185612783565b826040830152949350505050565b634e487b7160e01b5f52601160045260245ffd5b80820180821115610658576106586129e6565b601f821115610b5257805f5260205f20601f840160051c81016020851015612a325750805b601f840160051c820191505b81811015611302575f8155600101612a3e565b815167ffffffffffffffff811115612a6b57612a6b612452565b612a7f81612a798454612971565b84612a0d565b6020601f821160018114612ab1575f8315612a9a5750848201515b5f19600385901b1c1916600184901b178455611302565b5f84815260208120601f198516915b82811015612ae05787850151825560209485019460019092019101612ac0565b5084821015612afd57868401515f19600387901b60f8161c191681555b50505050600190811b01905550565b6001600160a01b03861681526001600160a01b038516602082015283604082015260806060820152816080820152818360a08301375f81830160a090810191909152601f909201601f19160101949350505050565b5f5f8654612b6e81612971565b600182168015612b855760018114612b9a57612bc7565b60ff1983168652811515820286019350612bc7565b895f5260205f205f5b83811015612bbf57815488820152600190910190602001612ba3565b505081860193505b50505085518060208801835e019384525050602082015260400192915050565b5f60018201612bf857612bf86129e6565b5060010190565b634e487b7160e01b5f52603260045260245ffd5b63ffffffff8181168382160190811115610658576106586129e6565b5f63ffffffff821663ffffffff8103612c4a57612c4a6129e6565b60010192915050565b8082028115828204841417610658576106586129e6565b5f60208284031215612c7a575f5ffd5b5051919050565b5f5f60408385031215612c92575f5ffd5b825167ffffffffffffffff811115612ca8575f5ffd5b8301601f81018513612cb8575f5ffd5b8051612cc66124e882612497565b8082825260208201915060208360051b850101925087831115612ce7575f5ffd5b6020840193505b82841015612d12578351612d01816124ba565b825260209384019390910190612cee565b602096909601519597959650505050505056fea264697066735822122070c29120763dbcf45849e6020f8bdccf9d9d0d5ae09e7d94e323c6c94f9e4c7764736f6c634300081c003360a06040526001600a55348015610014575f5ffd5b5060405161609b38038061609b83398101604081905261003391610122565b83835f6100408382610255565b50600161004d8282610255565b506008915061005e90508382610255565b506001600160a01b03166080525050600680546001600160a01b031916331790555061030f565b634e487b7160e01b5f52604160045260245ffd5b5f82601f8301126100a8575f5ffd5b81516001600160401b038111156100c1576100c1610085565b604051601f8201601f19908116603f011681016001600160401b03811182821017156100ef576100ef610085565b604052818152838201602001851015610106575f5ffd5b8160208501602083015e5f918101602001919091529392505050565b5f5f5f5f60808587031215610135575f5ffd5b84516001600160401b0381111561014a575f5ffd5b61015687828801610099565b602087015190955090506001600160401b03811115610173575f5ffd5b61017f87828801610099565b604087015190945090506001600160401b0381111561019c575f5ffd5b6101a887828801610099565b606087015190935090506001600160a01b03811681146101c6575f5ffd5b939692955090935050565b600181811c908216806101e557607f821691505b60208210810361020357634e487b7160e01b5f52602260045260245ffd5b50919050565b601f82111561025057805f5260205f20601f840160051c8101602085101561022e5750805b601f840160051c820191505b8181101561024d575f815560010161023a565b50505b505050565b81516001600160401b0381111561026e5761026e610085565b6102828161027c84546101d1565b84610209565b6020601f8211600181146102b4575f831561029d5750848201515b5f19600385901b1c1916600184901b17845561024d565b5f84815260208120601f198516915b828110156102e357878501518255602094850194600190920191016102c3565b508482101561030057868401515f19600387901b60f8161c191681555b50505050600190811b01905550565b608051615d666103355f395f818161042701528181613d5001526144d90152615d665ff3fe608060405260043610610350575f3560e01c80636f99f15c116101bd578063a5d059ca116100f2578063dff7672411610092578063ef0e239b1161006d578063ef0e239b14610b90578063f908bc7714610bbc578063fbdeb3d714610bdb578063ffa1ad7414610bfa575f5ffd5b8063dff7672414610b31578063e23f6fb414610b44578063e985e9c514610b57575f5ffd5b8063b88d4fde116100cd578063b88d4fde14610ab5578063c87b56dd14610ad4578063cbf994f814610af3578063ccc9305d14610b12575f5ffd5b8063a5d059ca14610a33578063a60e4c3c14610a69578063a6f9dae114610a96575f5ffd5b80638a2bd86f1161015d57806395d89b411161013857806395d89b41146109cd5780639890220b146109e1578063a22cb465146109f5578063a3fbbaae14610a14575f5ffd5b80638a2bd86f1461093e5780638da5cb5b1461098157806392080b23146109a0575f5ffd5b806373b8b6a21161019857806373b8b6a2146108ad5780637c5e63e0146108cc57806382694b1d1461090057806386a2bdd41461091f575f5ffd5b80636f99f15c1461082c57806370a082311461084b578063718934d81461086a575f5ffd5b806342144854116102935780634f6ccce7116102335780635e4507fa1161020e5780635e4507fa146107725780636352211e1461079157806363dd7615146107b05780636c0360eb14610818575f5ffd5b80634f6ccce71461070e57806355f804b31461072d57806357838e851461074c575f5ffd5b8063481c6a751161026e578063481c6a751461067d5780634d486f851461069c5780634eb780da146106bb5780634f558e79146106ef575f5ffd5b806342144854146105855780634236aff8146105d157806342842e0e1461065e575f5ffd5b806317351f7e116102fe57806321e4f7bb116102d957806321e4f7bb146104e657806323b872dd14610513578063323e010714610532578063406f14ad14610566575f5ffd5b806317351f7e1461046857806318160ddd146104965780631de286ba146104b9575f5ffd5b8063095ea7b31161032e578063095ea7b3146103f55780630d1cfcae1461041657806310c6aa1914610449575f5ffd5b806301ffc9a71461035457806306fdde0314610388578063081812fc146103a9575b5f5ffd5b34801561035f575f5ffd5b5061037361036e366004614c89565b610c2a565b60405190151581526020015b60405180910390f35b348015610393575f5ffd5b5061039c610c7b565b60405161037f9190614cd9565b3480156103b4575f5ffd5b506103dd6103c3366004614ceb565b60046020525f90815260409020546001600160a01b031681565b6040516001600160a01b03909116815260200161037f565b348015610400575f5ffd5b5061041461040f366004614d16565b610d06565b005b348015610421575f5ffd5b506103dd7f000000000000000000000000000000000000000000000000000000000000000081565b348015610454575f5ffd5b50610414610463366004614d40565b610dea565b348015610473575f5ffd5b50610373610482366004614d40565b60146020525f908152604090205460ff1681565b3480156104a1575f5ffd5b506104ab60095481565b60405190815260200161037f565b3480156104c4575f5ffd5b506104d86104d3366004614ceb565b610ea2565b60405161037f929190614d5b565b3480156104f1575f5ffd5b50610505610500366004614dc3565b6110e7565b60405161037f929190614e26565b34801561051e575f5ffd5b5061041461052d366004614e46565b6111c5565b34801561053d575f5ffd5b5061055161054c366004614dc3565b61139a565b60405163ffffffff909116815260200161037f565b348015610571575f5ffd5b50610551610580366004614dc3565b6113de565b348015610590575f5ffd5b506105b961059f366004614ceb565b60106020525f90815260409020546001600160601b031681565b6040516001600160601b03909116815260200161037f565b3480156105dc575f5ffd5b5061064b6105eb366004614ceb565b60156020525f90815260409020805460018201546002909201546001600160601b03821692600160601b928390046001600160a01b031692909163ffffffff808216926401000000008304821692600160401b8104909216910460ff1687565b60405161037f9796959493929190614eb8565b348015610669575f5ffd5b50610414610678366004614e46565b6113f7565b348015610688575f5ffd5b506007546103dd906001600160a01b031681565b3480156106a7575f5ffd5b506105056106b6366004614ceb565b6114e8565b3480156106c6575f5ffd5b506103dd6106d5366004614d40565b60116020525f90815260409020546001600160a01b031681565b3480156106fa575f5ffd5b50610373610709366004614ceb565b611636565b348015610719575f5ffd5b506104ab610728366004614ceb565b611657565b348015610738575f5ffd5b50610414610747366004614fda565b61169b565b348015610757575f5ffd5b50600b546103dd90600160601b90046001600160a01b031681565b34801561077d575f5ffd5b506103dd61078c366004614dc3565b611743565b34801561079c575f5ffd5b506103dd6107ab366004614ceb565b611777565b3480156107bb575f5ffd5b506107f46107ca366004614ceb565b600e6020525f908152604090205463ffffffff81169064010000000090046001600160601b031682565b6040805163ffffffff90931683526001600160601b0390911660208301520161037f565b348015610823575f5ffd5b5061039c6117db565b348015610837575f5ffd5b50600b546105b9906001600160601b031681565b348015610856575f5ffd5b506104ab610865366004614d40565b6117e8565b348015610875575f5ffd5b50610889610884366004614dc3565b61185a565b604080516001600160a01b03909316835263ffffffff90911660208301520161037f565b3480156108b8575f5ffd5b506103736108c73660046150cb565b61189c565b3480156108d7575f5ffd5b5061039c6040518060400160405280600981526020016806630313730313232360bc1b81525081565b34801561090b575f5ffd5b5061037361091a366004615197565b611cdf565b34801561092a575f5ffd5b506104ab610939366004614dc3565b611d76565b348015610949575f5ffd5b506104ab610958366004614d16565b60a01b6001600160a01b03909116175f908152601060205260409020546001600160601b031690565b34801561098c575f5ffd5b506006546103dd906001600160a01b031681565b3480156109ab575f5ffd5b506109bf6109ba3660046151d2565b611da1565b60405161037f929190615227565b3480156109d8575f5ffd5b5061039c611ed3565b3480156109ec575f5ffd5b506104ab611ee0565b348015610a00575f5ffd5b50610414610a0f366004615197565b612039565b348015610a1f575f5ffd5b50610414610a2e366004614d40565b6120a4565b348015610a3e575f5ffd5b50610a52610a4d366004614d16565b612154565b60408051921515835260208301919091520161037f565b348015610a74575f5ffd5b50610a88610a83366004614ceb565b6125d4565b60405161037f92919061523f565b348015610aa1575f5ffd5b50610414610ab0366004614d40565b612635565b348015610ac0575f5ffd5b50610414610acf366004615280565b6126e5565b348015610adf575f5ffd5b5061039c610aee366004614ceb565b6127c7565b348015610afe575f5ffd5b50610373610b0d366004615423565b612840565b348015610b1d575f5ffd5b50610a52610b2c366004614d16565b612db4565b610373610b3f3660046154bf565b61312b565b610373610b52366004614d16565b613708565b348015610b62575f5ffd5b50610373610b7136600461553f565b600560209081525f928352604080842090915290825290205460ff1681565b348015610b9b575f5ffd5b50610baf610baa366004614ceb565b613883565b60405161037f919061556b565b348015610bc7575f5ffd5b506103dd610bd6366004615606565b6139fe565b348015610be6575f5ffd5b506104ab610bf5366004615675565b613e91565b348015610c05575f5ffd5b5061039c604051806040016040528060058152602001640312e302e360dc1b81525081565b5f6301ffc9a760e01b6001600160e01b031983161480610c5a57506380ac58cd60e01b6001600160e01b03198316145b80610c755750635b5e139f60e01b6001600160e01b03198316145b92915050565b5f8054610c8790615709565b80601f0160208091040260200160405190810160405280929190818152602001828054610cb390615709565b8015610cfe5780601f10610cd557610100808354040283529160200191610cfe565b820191905f5260205f20905b815481529060010190602001808311610ce157829003601f168201915b505050505081565b5f818152600260205260409020546001600160a01b031633811480610d4d57506001600160a01b0381165f90815260056020908152604080832033845290915290205460ff165b610d8f5760405162461bcd60e51b815260206004820152600e60248201526d1393d517d055551213d49256915160921b60448201526064015b60405180910390fd5b5f8281526004602052604080822080546001600160a01b0319166001600160a01b0387811691821790925591518593918516917f8c5be1e5ebec7d5bd14f71427d1e84f3dd0314c0f7b2291e5b200ac8c7c3b92591a4505050565b6006546001600160a01b03163314610e2a5760065460405163521eb56d60e11b81523360048201526001600160a01b039091166024820152604401610d86565b6001600160a01b038116610e515760405163d92e233d60e01b815260040160405180910390fd5b600b80546001600160601b0316600160601b6001600160a01b038416908102919091179091556040517f8d1e8547016120917daad7f81c42b48f7fee379badc48f1889f0f43bb6194725905f90a250565b5f81815260156020908152604080832081516101008101835281546001600160601b03811682526001600160a01b03600160601b918290041694820194909452600182015492810192909252600281015463ffffffff808216606085810191909152640100000000830482166080860152600160401b830490911660a0850152938593929160c084019160ff9104166005811115610f4257610f42614e84565b6005811115610f5357610f53614e84565b815260200160038201805480602002602001604051908101604052809291908181526020018280548015610fcf57602002820191905f5260205f20905f905b82829054906101000a900463ffffffff1663ffffffff1681526020019060040190602082600301049283019260010382029150808411610f925790505b50505050508152505090508060e001515192508267ffffffffffffffff811115610ffb57610ffb614f13565b60405190808252806020026020018201604052801561103f57816020015b604080518082019091525f80825260208201528152602001906001900390816110195790505b5091505f5b838110156110e0575f85905060208360e00151838151811061106857611068615741565b60209081029190910181015163ffffffff90811690921b929092175f818152600e845260409081902081518083019092525492831681526401000000009092046001600160601b03169282019290925284518590849081106110cc576110cc615741565b602090810291909101015250600101611044565b5050915091565b602081811b83175f818152600f909252604090912054906060908267ffffffffffffffff81111561111a5761111a614f13565b604051908082528060200260200182016040528015611143578160200160208202803683370190505b5091505f5b838110156111bc575f828152600f6020526040902080548290811061116f5761116f615741565b905f5260205f20015f9054906101000a90046001600160a01b031683828151811061119c5761119c615741565b6001600160a01b0390921660209283029190910190910152600101611148565b50509250929050565b5f818152600260205260409020546001600160a01b0384811691161461122d5760405162461bcd60e51b815260206004820152600a60248201527f57524f4e475f46524f4d000000000000000000000000000000000000000000006044820152606401610d86565b6001600160a01b0382166112775760405162461bcd60e51b81526020600482015260116024820152701253959053125117d49150d25412515395607a1b6044820152606401610d86565b336001600160a01b03841614806112b057506001600160a01b0383165f90815260056020908152604080832033845290915290205460ff165b806112d057505f818152600460205260409020546001600160a01b031633145b61130d5760405162461bcd60e51b815260206004820152600e60248201526d1393d517d055551213d49256915160921b6044820152606401610d86565b6001600160a01b038084165f81815260036020908152604080832080545f19019055938616808352848320805460010190558583526002825284832080546001600160a01b03199081168317909155600490925284832080549092169091559251849392917fddf252ad1be2c89b69c2b068fc378daa952ba7f163c4a11628f55a4df523b3ef91a4505050565b6012602052815f5260405f2081815481106113b3575f80fd5b905f5260205f209060089182820401919006600402915091509054906101000a900463ffffffff1681565b6013602052815f5260405f2081815481106113b3575f80fd5b6114028383836111c5565b6001600160a01b0382163b156114e357604051630a85bd0160e11b8082523360048301526001600160a01b03858116602484015260448301849052608060648401525f608484015290919084169063150b7a029060a4016020604051808303815f875af1158015611475573d5f5f3e3d5ffd5b505050506040513d601f19601f820116820180604052508101906114999190615755565b6001600160e01b031916146114e35760405162461bcd60e51b815260206004820152601060248201526f155394d0519157d49150d2541251539560821b6044820152606401610d86565b505050565b5f81815260156020908152604080832081516101008101835281546001600160601b03811682526001600160a01b03600160601b918290041694820194909452600182015492810192909252600281015463ffffffff808216606085810191909152640100000000830482166080860152600160401b830490911660a0850152938593929160c084019160ff910416600581111561158857611588614e84565b600581111561159957611599614e84565b81526020016003820180548060200260200160405190810160405280929190818152602001828054801561161557602002820191905f5260205f20905f905b82829054906101000a900463ffffffff1663ffffffff16815260200190600401906020826003010492830192600103820291508084116115d85790505b505050505081525050905061162a8185614177565b91508151925050915091565b5f5f82118015610c75575060095461164f906001615784565b821092915050565b5f611663826001615784565b905060095481111561169657600954604051637ae5968560e01b8152610d86918391600401918252602082015260400190565b919050565b6006546001600160a01b031633146116db5760065460405163521eb56d60e11b81523360048201526001600160a01b039091166024820152604401610d86565b80515f036116fc57604051637c946ed760e01b815260040160405180910390fd5b600861170882826157db565b507f5411e8ebf1636d9e83d5fc4900bf80cbac82e8790da2a4c94db4895e889eedf6816040516117389190614cd9565b60405180910390a150565b600f602052815f5260405f20818154811061175c575f80fd5b5f918252602090912001546001600160a01b03169150829050565b5f818152600260205260409020546001600160a01b0316806116965760405162461bcd60e51b815260206004820152600a60248201527f4e4f545f4d494e544544000000000000000000000000000000000000000000006044820152606401610d86565b60088054610c8790615709565b5f6001600160a01b03821661183f5760405162461bcd60e51b815260206004820152600c60248201527f5a45524f5f4144445245535300000000000000000000000000000000000000006044820152606401610d86565b506001600160a01b03165f9081526003602052604090205490565b600d602052815f5260405f208181548110611873575f80fd5b5f918252602090912001546001600160a01b0381169250600160a01b900463ffffffff16905082565b5f81815260156020908152604080832081516101008101835281546001600160601b0381168252600160601b908190046001600160a01b031694820194909452600182015492810192909252600281015463ffffffff8082166060850152640100000000820481166080850152600160401b82041660a0840152849360c08401910460ff16600581111561193257611932614e84565b600581111561194357611943614e84565b8152602001600382018054806020026020016040519081016040528092919081815260200182805480156119bf57602002820191905f5260205f20905f905b82829054906101000a900463ffffffff1663ffffffff16815260200190600401906020826003010492830192600103820291508084116119825790505b5050505050815250509050600460058111156119dd576119dd614e84565b8160c0015160058111156119f3576119f3614e84565b14611a32578060c001516005811115611a0e57611a0e614e84565b604051633c053f9d60e21b8152600481019190915260248101849052604401610d86565b8351855114611a6157845184516040516308151c1160e41b815260048101929092526024820152604401610d86565b80602001516001600160a01b0316336001600160a01b031614611ab55760208101516040516379f91cd360e01b81523360048201526001600160a01b03909116602482015260448101849052606401610d86565b84515f5b81811015611cd2575f60115f898481518110611ad757611ad7615741565b6020908102919091018101516001600160a01b0390811683528282019390935260409182015f9081205490931660a08a901b81178085526010909252919092205489519193506001600160601b03169081908a9086908110611b3b57611b3b615741565b60200260200101516001611b4f9190615896565b6001600160601b03161115611ba757600b80548291905f90611b7b9084906001600160601b0316615896565b92506101000a8154816001600160601b0302191690836001600160601b031602179055505f9050611c2a565b888481518110611bb957611bb9615741565b6020908102919091010151600b80545f90611bde9084906001600160601b0316615896565b92506101000a8154816001600160601b0302191690836001600160601b03160217905550888481518110611c1457611c14615741565b602002602001015181611c2791906158b5565b90505b5f82815260106020526040902080546bffffffffffffffffffffffff19166001600160601b038316179055885188906001600160a01b038516907fa2e524bd0f71903485fbb3d6d50cb305f61005ceea2047c3ac92aa7e0d104306908c9088908110611c9857611c98615741565b6020026020010151604051611cbc91906001600160601b0391909116815260200190565b60405180910390a3505050806001019050611ab9565b5060019695505050505050565b6006545f906001600160a01b03163314611d215760065460405163521eb56d60e11b81523360048201526001600160a01b039091166024820152604401610d86565b6001600160a01b038316611d485760405163d92e233d60e01b815260040160405180910390fd5b506001600160a01b03919091165f908152601460205260409020805460ff1916911515919091179055600190565b600c602052815f5260405f208181548110611d8f575f80fd5b905f5260205f20015f91509150505481565b5f606081846001811115611db757611db7614e84565b03611e44575f8381526012602090815260409182902080548351818402810184019094528084529091830182828015611e3857602002820191905f5260205f20905f905b82829054906101000a900463ffffffff1663ffffffff1681526020019060040190602082600301049283019260010382029150808411611dfb5790505b50505050509050611ec8565b5f8381526013602090815260409182902080548351818402810184019094528084529091830182828015611ec057602002820191905f5260205f20905f905b82829054906101000a900463ffffffff1663ffffffff1681526020019060040190602082600301049283019260010382029150808411611e835790505b505050505090505b805191509250929050565b60018054610c8790615709565b5f6001600a541115611f05576040516345f5ce8b60e11b815260040160405180910390fd5b6002600a55600b54600160601b90046001600160a01b03163314611f5757600b5460405163312d21ff60e11b8152336004820152600160601b9091046001600160a01b03166024820152604401610d86565b50600b546001600160601b0316801561203157600b80546bffffffffffffffffffffffff191690556040515f90339083908381818185875af1925050503d805f8114611fbe576040519150601f19603f3d011682016040523d82523d5f602084013e611fc3565b606091505b5050905080611ffa5760405163cd3f165960e01b81525f600482015230602482015233604482015260648101839052608401610d86565b60405182815233907ff36f4d6622e16a536bbb049064af779cdd483a0b388d347d3752a65f1058bf5b9060200160405180910390a2505b6001600a5590565b335f8181526005602090815260408083206001600160a01b03871680855290835292819020805460ff191686151590811790915590519081529192917f17307eab39ab6107e8899845ad3d59bd9653f200f220920489ca2b5937696c31910160405180910390a35050565b6006546001600160a01b031633146120e45760065460405163521eb56d60e11b81523360048201526001600160a01b039091166024820152604401610d86565b6001600160a01b03811661210b5760405163d92e233d60e01b815260040160405180910390fd5b600780546001600160a01b0319166001600160a01b0383169081179091556040517f2c1c11af44aa5608f1dca38c00275c30ea091e02417d36e70e9a1538689c433d905f90a250565b5f5f6001600a54111561217a576040516345f5ce8b60e11b815260040160405180910390fd5b6002600a556007546001600160a01b031633146121bf5760075460405163312d21ff60e11b81523360048201526001600160a01b039091166024820152604401610d86565b6001600160a01b0384166121e65760405163d92e233d60e01b815260040160405180910390fd5b5f83815260156020526040902060056002820154600160601b900460ff16600581111561221557612215614e84565b1461225e576002810154600160601b900460ff16600581111561223a5761223a614e84565b604051633c053f9d60e21b8152600481019190915260248101859052604401610d86565b60a084901b6001600160a01b038616175f818152600d6020908152604080832080548251818502810185019093528083529192909190849084015b828210156122e4575f84815260209081902060408051808201909152908401546001600160a01b0381168252600160a01b900463ffffffff1681830152825260019092019101612299565b5050825192935050505f8190036123205760405163df2ddd7360e01b81526001600160a01b038916600482015260248101889052604401610d86565b808460020160088282829054906101000a900463ffffffff1661234391906158d4565b92506101000a81548163ffffffff021916908363ffffffff1602179055508360020160089054906101000a900463ffffffff1663ffffffff165f036123985760028401805460ff60601b1916600160601b1790555b5f5b81811015612451575f88905060208483815181106123ba576123ba615741565b60209081029190910181015181015163ffffffff1690911b919091175f818152600e9092526040909120546124009064010000000090046001600160601b031688615784565b965060115f85848151811061241757612417615741565b602090810291909101810151516001600160a01b031682528101919091526040015f2080546001600160a01b03191690555060010161239a565b505f838152600d6020526040812061246891614adf565b5f838152601060205260409020546001600160601b03168086111561249457806001600160601b031695505b8515612589575f8481526010602052604080822080546bffffffffffffffffffffffff19169055516001600160a01b038b169088908381818185875af1925050503d805f81146124ff576040519150601f19603f3d011682016040523d82523d5f602084013e612504565b606091505b50509050806125445760405163cd3f165960e01b81525f60048201523060248201526001600160a01b038b16604482015260648101889052608401610d86565b896001600160a01b03167fbb28353e4598c3b9199101a66e0989549b659a59a54d2c27fbb183f1932c8e6d8860405161257f91815260200190565b60405180910390a2505b60405188906001600160a01b038b16907f5ebf7fe30be09f0f03b9195632508d95c8b67bf010c93abda67f70d5d9599d1e905f90a350506001600a8190559793965092945050505050565b5f818152600c60209081526040808320805482518185028101850190935280835260609383018282801561262557602002820191905f5260205f20905b815481526020019060010190808311612611575b5050505050905080519150915091565b6006546001600160a01b031633146126755760065460405163521eb56d60e11b81523360048201526001600160a01b039091166024820152604401610d86565b6001600160a01b03811661269c5760405163d92e233d60e01b815260040160405180910390fd5b600680546001600160a01b0319166001600160a01b0383169081179091556040517f4ffd725fc4a22075e9ec71c59edf9c38cdeb588a91b24fc5b61388c5be41282b905f90a250565b6126f08585856111c5565b6001600160a01b0384163b156127c057604051630a85bd0160e11b808252906001600160a01b0386169063150b7a02906127369033908a908990899089906004016158f0565b6020604051808303815f875af1158015612752573d5f5f3e3d5ffd5b505050506040513d601f19601f820116820180604052508101906127769190615755565b6001600160e01b031916146127c05760405162461bcd60e51b815260206004820152601060248201526f155394d0519157d49150d2541251539560821b6044820152606401610d86565b5050505050565b5f818152601560205260408120600101546060915060086040518060400160405280600981526020016806630313730313232360bc1b815250612809836142aa565b612816608085901b6142aa565b6040516020016128299493929190615945565b604051602081830303815290604052915050919050565b6007545f906001600160a01b031633146128825760075460405163312d21ff60e11b81523360048201526001600160a01b039091166024820152604401610d86565b5f61288c83611777565b9050876001600160a01b0316816001600160a01b0316146128d35760405163521eb56d60e11b81526001600160a01b03808a16600483015282166024820152604401610d86565b5f83815260156020908152604080832081516101008101835281546001600160601b03811682526001600160a01b03600160601b918290041694820194909452600182015492810192909252600281015463ffffffff8082166060850152640100000000820481166080850152600160401b82041660a08401529192909160c084019160ff910416600581111561296c5761296c614e84565b600581111561297d5761297d614e84565b8152602001600382018054806020026020016040519081016040528092919081815260200182805480156129f957602002820191905f5260205f20905f905b82829054906101000a900463ffffffff1663ffffffff16815260200190600401906020826003010492830192600103820291508084116129bc5790505b505050505081525050905060016005811115612a1757612a17614e84565b8160c001516005811115612a2d57612a2d614e84565b14612a48578060c00151600581111561223a5761223a614e84565b612a5388888861447a565b63ffffffff851660608201525f60808201819052875167ffffffffffffffff811115612a8157612a81614f13565b604051908082528060200260200182016040528015612aaa578160200160208202803683370190505b5090505f885167ffffffffffffffff811115612ac857612ac8614f13565b604051908082528060200260200182016040528015612b0c57816020015b604080518082019091525f8082526020820152815260200190600190039081612ae65790505b5090505f805b8a51811015612c3257898181518110612b2d57612b2d615741565b60200260200101515f015163ffffffff165f03612b9e575f88905060208c8381518110612b5c57612b5c615741565b60209081029190910181015163ffffffff1690911b919091175f908152600e9091526040902080546fffffffffffffffffffffffffffffffff19169055612c2a565b8a8181518110612bb057612bb0615741565b6020026020010151848381518110612bca57612bca615741565b602002602001019063ffffffff16908163ffffffff1681525050898181518110612bf657612bf6615741565b6020026020010151838381518110612c1057612c10615741565b60200260200101819052508180612c26906159cb565b9250505b600101612b12565b5060408401518b8114612c68575f888152600c602090815260408083208054600181018255908452919092200182905585018c90525b612c75858585858c614634565b5f888152601560209081526040918290208751918801516001600160a01b0316600160601b9081026001600160601b03909316929092178155918701516001830155606087015160028301805460808a015160a08b015163ffffffff908116600160401b026bffffffff0000000000000000199282166401000000000267ffffffffffffffff199094169190951617919091179081168317825560c08a01518a9594909360ff60601b19166cffffffffff0000000000000000199092169190911790836005811115612d4957612d49614e84565b021790555060e08201518051612d69916003840191602090910190614afd565b50506040518d81528991507fff312ce131c4d73ac90ece91266be7090486c5e15f78b7ea2b108c36dfd475299060200160405180910390a25060019c9b505050505050505050505050565b5f5f6001600a541115612dda576040516345f5ce8b60e11b815260040160405180910390fd5b6002600a556007546001600160a01b03163314612e1f5760075460405163312d21ff60e11b81523360048201526001600160a01b039091166024820152604401610d86565b5f612e2984611777565b9050846001600160a01b0316816001600160a01b031614612e705760405163521eb56d60e11b81526001600160a01b03808716600483015282166024820152604401610d86565b5f84815260156020526040902060016002820154600160601b900460ff166005811115612e9f57612e9f614e84565b1480612eca575060056002820154600160601b900460ff166005811115612ec857612ec8614e84565b145b15612f13576002810154600160601b900460ff166005811115612eef57612eef614e84565b604051633c053f9d60e21b8152600481019190915260248101869052604401610d86565b6002810154600160401b900463ffffffff1615612f4d5760028101805460ff60601b19166c05000000000000000000000000179055612f63565b60028101805460ff60601b1916600160601b1790555b5f858152601260205260408120612f7991614ba9565b5f858152601360205260408120612f8f91614ba9565b5f5b600382015481101561300d575f8690506020836003018381548110612fb857612fb8615741565b905f5260205f2090600891828204019190066004029054906101000a900463ffffffff1663ffffffff16901b81179050600f5f8281526020019081526020015f205f6130049190614bcb565b50600101612f91565b5080546040516001600160601b0390911693505f906001600160a01b0388169085908381818185875af1925050503d805f8114613065576040519150601f19603f3d011682016040523d82523d5f602084013e61306a565b606091505b50509050806130aa5760405163cd3f165960e01b81525f60048201523060248201526001600160a01b038816604482015260648101859052608401610d86565b866001600160a01b03167fbb28353e4598c3b9199101a66e0989549b659a59a54d2c27fbb183f1932c8e6d856040516130e591815260200190565b60405180910390a260405186907fe45f5b9540df4f71b7e044809fa318806328c1ea2388a70c7373d97ccf8a0faa905f90a250506001600a819055959194509092505050565b6007545f906001600160a01b0316331461316d5760075460405163312d21ff60e11b81523360048201526001600160a01b039091166024820152604401610d86565b815183511461319c57825182516040516308151c1160e41b815260048101929092526024820152604401610d86565b5f848152601560205260409020600280820154600160601b900460ff1660058111156131ca576131ca614e84565b146131ef576002810154600160601b900460ff166005811115612eef57612eef614e84565b83515f805b828110156132db575f889050602087838151811061321457613214615741565b60209081029190910181015163ffffffff90811690921b929092175f818152600e845260408082208151808301909252549384168082526401000000009094046001600160601b03169481019490945290929190036132b45787838151811061327f5761327f615741565b60200260200101518a6040516332832be560e21b8152600401610d8692919063ffffffff929092168252602082015260400190565b60208101516132cc906001600160601b031685615784565b935050508060010190506131f4565b5080341461330c57604051637ebbcab960e11b81523460048201526024810182905260448101889052606401610d86565b6001600160a01b038881165f908152601160205260409020541615613347576040516322ddebd960e21b815260048101889052602401610d86565b60a087901b6001600160a01b038916175f5b8381101561362a575f88828151811061337457613374615741565b602002602001015190505f88838151811061339157613391615741565b60200260200101519050816001600160a01b03168c6001600160a01b0316036133d0576040516322ddebd960e21b8152600481018c9052602401610d86565b6001600160a01b038281165f908152601160205260409020541615613425576001600160a01b038281165f908152601160205260409081902054905163631695bd60e01b815291166004820152602401610d86565b5f8b905060208a858151811061343d5761343d615741565b60209081029190910181015163ffffffff90811690921b929092175f818152600e8452604080822054600f90955290205490929091169003613495576040516304ad100760e21b8152600481018d9052602401610d86565b5f818152600f602090815260408083208054600181810183559185528385200180546001600160a01b03808a166001600160a01b031990921682179092558a8652600d8552838620845180860190955290845263ffffffff8089168587019081528254948501835591875294909520925192909101805494518416600160a01b0277ffffffffffffffffffffffffffffffffffffffffffffffff19909516929091169190911792909217909155600289018054600160401b900490911690600861355e836159e3565b91906101000a81548163ffffffff021916908363ffffffff160217905550508c60115f856001600160a01b03166001600160a01b031681526020019081526020015f205f6101000a8154816001600160a01b0302191690836001600160a01b03160217905550826001600160a01b03168c8e6001600160a01b03167f6835389a6da5341647f18cbe0a89c56f473f4c17bfaee6e6d07d61f1928e0b7c85604051613614919063ffffffff91909116815260200190565b60405180910390a4505050806001019050613359565b50600284015463ffffffff64010000000082048116600160401b909204160361366c5760028401805460ff60601b19166c030000000000000000000000001790555b5f81815260106020526040812080543492906136929084906001600160601b0316615896565b92506101000a8154816001600160601b0302191690836001600160601b03160217905550886001600160a01b03167fe1fffcc4923d04b559f4d29a8bfc6cda04eb5b0d3c460751c2402c5c5cc9109c346040516136f191815260200190565b60405180910390a250600198975050505050505050565b6007545f906001600160a01b0316331461374a5760075460405163312d21ff60e11b81523360048201526001600160a01b039091166024820152604401610d86565b5f61375483611777565b9050836001600160a01b0316816001600160a01b03161461379b5760405163521eb56d60e11b81526001600160a01b03808616600483015282166024820152604401610d86565b5f83815260156020526040902060016002820154600160601b900460ff1660058111156137ca576137ca614e84565b146137eb57604051635960d22f60e11b815260048101859052602401610d86565b80546001600160601b03163414613830578054604051631c30abbb60e31b81523460048201526001600160601b03909116602482015260448101859052606401610d86565b60028101805460ff60601b19166c0200000000000000000000000017905560405184907fa48b531f972c0e4aca57afcc5c099c52a7bd21bc5e2a1b733eec3be9e88da97a905f90a2506001949350505050565b6138ca60408051610100810182525f80825260208201819052918101829052606081018290526080810182905260a081018290529060c08201908152602001606081525090565b5f8281526015602090815260409182902082516101008101845281546001600160601b0381168252600160601b908190046001600160a01b031693820193909352600182015493810193909352600281015463ffffffff8082166060860152640100000000820481166080860152600160401b82041660a0850152909160c08401910460ff16600581111561396157613961614e84565b600581111561397257613972614e84565b8152602001600382018054806020026020016040519081016040528092919081815260200182805480156139ee57602002820191905f5260205f20905f905b82829054906101000a900463ffffffff1663ffffffff16815260200190600401906020826003010492830192600103820291508084116139b15790505b5050505050815250509050919050565b5f6001600a541115613a23576040516345f5ce8b60e11b815260040160405180910390fd5b6002600a556007546001600160a01b03163314613a685760075460405163312d21ff60e11b81523360048201526001600160a01b039091166024820152604401610d86565b5f613a7285611777565b9050856001600160a01b0316816001600160a01b031614613ab95760405163521eb56d60e11b81526001600160a01b03808816600483015282166024820152604401610d86565b6001600160a01b0384165f9081526014602052604090205460ff16613afb5760405162a2307960e51b81526001600160a01b0385166004820152602401610d86565b5f85815260156020526040902060036002820154600160601b900460ff166005811115613b2a57613b2a614e84565b14613b73576002810154600160601b900460ff166005811115613b4f57613b4f614e84565b604051633c053f9d60e21b8152600481019190915260248101879052604401610d86565b604080516101008101825282546001600160601b0381168252600160601b908190046001600160a01b03166020830152600184015492820192909252600283015463ffffffff8082166060840152640100000000820481166080840152600160401b82041660a08301525f92613c9c9291859160c08401910460ff166005811115613c0057613c00614e84565b6005811115613c1157613c11614e84565b815260200160038201805480602002602001604051908101604052809291908181526020018280548015613c8d57602002820191905f5260205f20905f905b82829054906101000a900463ffffffff1663ffffffff1681526020019060040190602082600301049283019260010382029150808411613c505790505b50505050508152505088614177565b6002830154604051631e731b7560e31b81529192506001600160a01b0388169163f398dba891613cd991859163ffffffff16908a90600401615a07565b6020604051808303815f875af1158015613cf5573d5f5f3e3d5ffd5b505050506040513d601f19601f82011682018060405250810190613d199190615a41565b5f888152601360205260409020600384018054929650613d3892614be6565b506040516304d9dc3f60e11b81526001600160a01b037f000000000000000000000000000000000000000000000000000000000000000016906309b3b87e90613d88906003860190600401615a5c565b5f60405180830381865afa158015613da2573d5f5f3e3d5ffd5b505050506040513d5f823e601f3d908101601f19168201604052613dc99190810190615bf6565b5f8881526012602090815260409091208251613deb9391929190910190614afd565b5081546001600160601b0316600160601b6001600160a01b03861690810291909117835560028301805460ff60601b19166c0400000000000000000000000017905560405188907f2d53f895cd5faf3cddba94a25c2ced2105885b5b37450ff430ffa3cbdf332c74905f90a360405187907fa133ed72c03a7d008deaae618a61613c4fd41c67bba1cad1a6bc0a1c5a9c156e905f90a250506001600a5550949350505050565b5f6001600a541115613eb6576040516345f5ce8b60e11b815260040160405180910390fd5b6002600a556007546001600160a01b03163314613efb5760075460405163312d21ff60e11b81523360048201526001600160a01b039091166024820152604401610d86565b6001600160a01b038616613f225760405163d92e233d60e01b815260040160405180910390fd5b613f2d85858561447a565b5f5b8451811015613fb357838181518110613f4a57613f4a615741565b60200260200101515f015163ffffffff165f1480613f8d5750838181518110613f7557613f75615741565b6020026020010151602001516001600160601b03165f145b15613fab57604051637c946ed760e01b815260040160405180910390fd5b600101613f2f565b505060095480613fc2816159cb565b91505061400c60408051610100810182525f80825260208201819052918101829052606081018290526080810182905260a081018290529060c08201908152602001606081525090565b63ffffffff8316606082015260408101869052600160c082018181525050614038818686885186614634565b5f828152601560209081526040918290208351918401516001600160a01b0316600160601b9081026001600160601b039093169290921781559183015160018301556060830151600283018054608086015160a087015163ffffffff908116600160401b026bffffffff0000000000000000199282166401000000000267ffffffffffffffff199094169190951617919091179081168317825560c0860151869594909360ff60601b19166cffffffffff000000000000000019909216919091179083600581111561410c5761410c614e84565b021790555060e0820151805161412c916003840191602090910190614afd565b505050600982905561413e87836148db565b60405182907f9169d45eacd63571e315a0504da919b7c89de505493e7b34051802dd0816a069905f90a2506001600a5595945050505050565b60608260a0015163ffffffff1667ffffffffffffffff81111561419c5761419c614f13565b6040519080825280602002602001820160405280156141c5578160200160208202803683370190505b5090505f805b8460e00151518110156142a2575f84905060208660e0015183815181106141f4576141f4615741565b602090810291909101015163ffffffff16901b175f5b5f828152600f6020526040902054811015614298575f828152600f6020526040902080548290811061423e5761423e615741565b905f5260205f20015f9054906101000a90046001600160a01b031685858151811061426b5761426b615741565b6001600160a01b03909216602092830291909101909101528361428d816159cb565b94505060010161420a565b50506001016141cb565b505092915050565b7aff00000000000000ff00000000000000ff00000000000000ff00006bffffffff0000000000000000604083901c9081167bffffffff00000000000000000000000000000000000000000000000084161760201c6fffffffff000000000000000000000000919091166001600160e01b031984161717601081901c9182167eff00000000000000ff00000000000000ff00000000000000ff000000000000821617600890811c7bff00000000000000ff00000000000000ff00000000000000ff000000939093167fff00000000000000ff00000000000000ff00000000000000ff000000000000009290921691909117919091179081901c7e0f000f000f000f000f000f000f000f000f000f000f000f000f000f000f000f167f0f000f000f000f000f000f000f000f000f000f000f000f000f000f000f000f00600492831c161790614416827f0606060606060606060606060606060606060606060606060606060606060606615784565b901c7f0f0f0f0f0f0f0f0f0f0f0f0f0f0f0f0f0f0f0f0f0f0f0f0f0f0f0f0f0f0f0f0f1660276144469190615c86565b614470827f3030303030303030303030303030303030303030303030303030303030303030615784565b610c759190615784565b5f83900361449b57604051637c946ed760e01b815260040160405180910390fd5b815115806144ab57508051825114155b156144d657815181516040516308151c1160e41b815260048101929092526024820152604401610d86565b5f7f00000000000000000000000000000000000000000000000000000000000000006001600160a01b03166318160ddd6040518163ffffffff1660e01b8152600401602060405180830381865afa158015614533573d5f5f3e3d5ffd5b505050506040513d601f19601f820116820180604052508101906145579190615c9d565b90505f805b845181101561462c57614570826001615784565b85828151811061458257614582615741565b602002602001015163ffffffff1610806145ba5750828582815181106145aa576145aa615741565b602002602001015163ffffffff16115b156145ff578481815181106145d1576145d1615741565b6020026020010151604051632ab10b0b60e21b8152600401610d86919063ffffffff91909116815260200190565b84818151811061461157614611615741565b602090810291909101015163ffffffff16915060010161455c565b505050505050565b5f8267ffffffffffffffff81111561464e5761464e614f13565b604051908082528060200260200182016040528015614677578160200160208202803683370190505b5060e08701525f5b838110156147fa5785818151811061469957614699615741565b60200260200101518760e0015182815181106146b7576146b7615741565b63ffffffff90921660209283029190910182015286518491908890849081106146e2576146e2615741565b602002602001015163ffffffff16901b8117905085828151811061470857614708615741565b6020908102919091018101515f838152600e8352604090208151815492909301516001600160601b0316640100000000026fffffffffffffffffffffffffffffffff1990921663ffffffff90931692909217179055855186908390811061477157614771615741565b60200260200101515f01518860800181815161478d9190615cb4565b63ffffffff1690525085516001600160601b038416908790849081106147b5576147b5615741565b6020026020010151602001516001600160601b031611156147f1578582815181106147e2576147e2615741565b60200260200101516020015192505b5060010161467f565b506001600160601b038116865260808601515f90614819906002615cd0565b614824906001615cb4565b63ffffffff169050614837600382615d0a565b5f0361484f57614848600382615d1d565b9050614868565b61485a600382615d1d565b614865906001615784565b90505b80876060015163ffffffff1610806148935750866080015163ffffffff16876060015163ffffffff16115b156148d2576060870151608088015160405163eb3a8ba360e01b815263ffffffff92831660048201526024810184905291166044820152606401610d86565b50505050505050565b6148e582826149c7565b6001600160a01b0382163b156149c357604051630a85bd0160e11b8082523360048301525f6024830181905260448301849052608060648401526084830152906001600160a01b0384169063150b7a029060a4016020604051808303815f875af1158015614955573d5f5f3e3d5ffd5b505050506040513d601f19601f820116820180604052508101906149799190615755565b6001600160e01b031916146149c35760405162461bcd60e51b815260206004820152601060248201526f155394d0519157d49150d2541251539560821b6044820152606401610d86565b5050565b6001600160a01b038216614a115760405162461bcd60e51b81526020600482015260116024820152701253959053125117d49150d25412515395607a1b6044820152606401610d86565b5f818152600260205260409020546001600160a01b031615614a755760405162461bcd60e51b815260206004820152600e60248201527f414c52454144595f4d494e5445440000000000000000000000000000000000006044820152606401610d86565b6001600160a01b0382165f81815260036020908152604080832080546001019055848352600290915280822080546001600160a01b0319168417905551839291907fddf252ad1be2c89b69c2b068fc378daa952ba7f163c4a11628f55a4df523b3ef908290a45050565b5080545f8255905f5260205f2090810190614afa9190614c30565b50565b828054828255905f5260205f2090600701600890048101928215614b99579160200282015f5b83821115614b6757835183826101000a81548163ffffffff021916908363ffffffff1602179055509260200192600401602081600301049283019260010302614b23565b8015614b975782816101000a81549063ffffffff0219169055600401602081600301049283019260010302614b67565b505b50614ba5929150614c60565b5090565b5080545f825560070160089004905f5260205f2090810190614afa9190614c60565b5080545f8255905f5260205f2090810190614afa9190614c60565b828054828255905f5260205f2090600701600890048101928215614b99575f5260205f20916007016008900482015b82811115614b99578254825591600101919060010190614c15565b5b80821115614ba557805477ffffffffffffffffffffffffffffffffffffffffffffffff19168155600101614c31565b5b80821115614ba5575f8155600101614c61565b6001600160e01b031981168114614afa575f5ffd5b5f60208284031215614c99575f5ffd5b8135614ca481614c74565b9392505050565b5f81518084528060208401602086015e5f602082860101526020601f19601f83011685010191505092915050565b602081525f614ca46020830184614cab565b5f60208284031215614cfb575f5ffd5b5035919050565b6001600160a01b0381168114614afa575f5ffd5b5f5f60408385031215614d27575f5ffd5b8235614d3281614d02565b946020939093013593505050565b5f60208284031215614d50575f5ffd5b8135614ca481614d02565b5f60408201848352604060208401528084518083526060850191506020860192505f5b81811015614db7578351805163ffffffff1684526020908101516001600160601b03168185015290930192604090920191600101614d7e565b50909695505050505050565b5f5f60408385031215614dd4575f5ffd5b50508035926020909101359150565b5f8151808452602084019350602083015f5b82811015614e1c5781516001600160a01b0316865260209586019590910190600101614df5565b5093949350505050565b828152604060208201525f614e3e6040830184614de3565b949350505050565b5f5f5f60608486031215614e58575f5ffd5b8335614e6381614d02565b92506020840135614e7381614d02565b929592945050506040919091013590565b634e487b7160e01b5f52602160045260245ffd5b60068110614eb457634e487b7160e01b5f52602160045260245ffd5b9052565b6001600160601b03881681526001600160a01b03871660208201526040810186905263ffffffff85811660608301528481166080830152831660a082015260e08101614f0760c0830184614e98565b98975050505050505050565b634e487b7160e01b5f52604160045260245ffd5b6040805190810167ffffffffffffffff81118282101715614f4a57614f4a614f13565b60405290565b604051601f8201601f1916810167ffffffffffffffff81118282101715614f7957614f79614f13565b604052919050565b5f5f67ffffffffffffffff841115614f9b57614f9b614f13565b50601f8301601f1916602001614fb081614f50565b915050828152838383011115614fc4575f5ffd5b828260208301375f602084830101529392505050565b5f60208284031215614fea575f5ffd5b813567ffffffffffffffff811115615000575f5ffd5b8201601f81018413615010575f5ffd5b614e3e84823560208401614f81565b5f67ffffffffffffffff82111561503857615038614f13565b5060051b60200190565b5f82601f830112615051575f5ffd5b813561506461505f8261501f565b614f50565b8082825260208201915060208360051b860101925085831115615085575f5ffd5b602085015b838110156150ab57803561509d81614d02565b83526020928301920161508a565b5095945050505050565b80356001600160601b0381168114611696575f5ffd5b5f5f5f606084860312156150dd575f5ffd5b833567ffffffffffffffff8111156150f3575f5ffd5b6150ff86828701615042565b935050602084013567ffffffffffffffff81111561511b575f5ffd5b8401601f8101861361512b575f5ffd5b803561513961505f8261501f565b8082825260208201915060208360051b85010192508883111561515a575f5ffd5b6020840193505b8284101561518357615172846150b5565b825260209384019390910190615161565b959895975050505060409390930135925050565b5f5f604083850312156151a8575f5ffd5b82356151b381614d02565b9150602083013580151581146151c7575f5ffd5b809150509250929050565b5f5f604083850312156151e3575f5ffd5b823560028110614d32575f5ffd5b5f8151808452602084019350602083015f5b82811015614e1c57815163ffffffff16865260209586019590910190600101615203565b828152604060208201525f614e3e60408301846151f1565b5f60408201848352604060208401528084518083526060850191506020860192505f5b81811015614db7578351835260209384019390920191600101615262565b5f5f5f5f5f60808688031215615294575f5ffd5b853561529f81614d02565b945060208601356152af81614d02565b935060408601359250606086013567ffffffffffffffff8111156152d1575f5ffd5b8601601f810188136152e1575f5ffd5b803567ffffffffffffffff8111156152f7575f5ffd5b886020828401011115615308575f5ffd5b959894975092955050506020019190565b63ffffffff81168114614afa575f5ffd5b5f82601f830112615339575f5ffd5b813561534761505f8261501f565b8082825260208201915060208360051b860101925085831115615368575f5ffd5b602085015b838110156150ab57803561538081615319565b83526020928301920161536d565b5f82601f83011261539d575f5ffd5b81356153ab61505f8261501f565b8082825260208201915060208360061b8601019250858311156153cc575f5ffd5b602085015b838110156150ab57604081880312156153e8575f5ffd5b6153f0614f27565b81356153fb81615319565b8152615409602083016150b5565b6020820152808452506020830192506040810190506153d1565b5f5f5f5f5f5f60c08789031215615438575f5ffd5b863561544381614d02565b955060208701359450604087013567ffffffffffffffff811115615465575f5ffd5b61547189828a0161532a565b945050606087013567ffffffffffffffff81111561548d575f5ffd5b61549989828a0161538e565b93505060808701356154aa81615319565b9598949750929591949360a090920135925050565b5f5f5f5f608085870312156154d2575f5ffd5b84356154dd81614d02565b935060208501359250604085013567ffffffffffffffff8111156154ff575f5ffd5b61550b87828801615042565b925050606085013567ffffffffffffffff811115615527575f5ffd5b6155338782880161532a565b91505092959194509250565b5f5f60408385031215615550575f5ffd5b823561555b81614d02565b915060208301356151c781614d02565b602081526001600160601b0382511660208201526001600160a01b036020830151166040820152604082015160608201525f60608301516155b4608084018263ffffffff169052565b50608083015163ffffffff811660a08401525060a083015163ffffffff811660c08401525060c08301516155eb60e0840182614e98565b5060e083015161010080840152614e3e6101208401826151f1565b5f5f5f5f60808587031215615619575f5ffd5b843561562481614d02565b935060208501359250604085013561563b81614d02565b9150606085013567ffffffffffffffff811115615656575f5ffd5b8501601f81018713615666575f5ffd5b61553387823560208401614f81565b5f5f5f5f5f60a08688031215615689575f5ffd5b853561569481614d02565b945060208601359350604086013567ffffffffffffffff8111156156b6575f5ffd5b6156c28882890161532a565b935050606086013567ffffffffffffffff8111156156de575f5ffd5b6156ea8882890161538e565b92505060808601356156fb81615319565b809150509295509295909350565b600181811c9082168061571d57607f821691505b60208210810361573b57634e487b7160e01b5f52602260045260245ffd5b50919050565b634e487b7160e01b5f52603260045260245ffd5b5f60208284031215615765575f5ffd5b8151614ca481614c74565b634e487b7160e01b5f52601160045260245ffd5b80820180821115610c7557610c75615770565b601f8211156114e357805f5260205f20601f840160051c810160208510156157bc5750805b601f840160051c820191505b818110156127c0575f81556001016157c8565b815167ffffffffffffffff8111156157f5576157f5614f13565b615809816158038454615709565b84615797565b6020601f82116001811461583b575f83156158245750848201515b5f19600385901b1c1916600184901b1784556127c0565b5f84815260208120601f198516915b8281101561586a578785015182556020948501946001909201910161584a565b508482101561588757868401515f19600387901b60f8161c191681555b50505050600190811b01905550565b6001600160601b038181168382160190811115610c7557610c75615770565b6001600160601b038281168282160390811115610c7557610c75615770565b63ffffffff8281168282160390811115610c7557610c75615770565b6001600160a01b03861681526001600160a01b038516602082015283604082015260806060820152816080820152818360a08301375f81830160a090810191909152601f909201601f19160101949350505050565b5f5f865461595281615709565b600182168015615969576001811461597e576159ab565b60ff19831686528115158202860193506159ab565b895f5260205f205f5b838110156159a357815488820152600190910190602001615987565b505081860193505b50505085518060208801835e019384525050602082015260400192915050565b5f600182016159dc576159dc615770565b5060010190565b5f63ffffffff821663ffffffff81036159fe576159fe615770565b60010192915050565b606081525f615a196060830186614de3565b63ffffffff851660208401528281036040840152615a378185614cab565b9695505050505050565b5f60208284031215615a51575f5ffd5b8151614ca481614d02565b5f6020820160208352808454615a76818490815260200190565b5f8781526020812094509092505b81600782011015615afc57835463ffffffff8082168552602082811c821690860152604082811c821690860152606082811c821690860152608082811c82169086015260a082811c82169086015260c082811c9091169085015260e090811c9084015260019093019261010090920191600801615a84565b92549281811015615b1a5763ffffffff841683526020909201916001015b81811015615b3a57602084901c63ffffffff168352602092909201916001015b81811015615b595763ffffffff604085901c1683526020909201916001015b81811015615b785763ffffffff606085901c1683526020909201916001015b81811015615b975763ffffffff608085901c1683526020909201916001015b81811015615bb65763ffffffff60a085901c1683526020909201916001015b81811015615bd55763ffffffff60c085901c1683526020909201916001015b81811015615beb5760e084901c83526020830192505b509095945050505050565b5f60208284031215615c06575f5ffd5b815167ffffffffffffffff811115615c1c575f5ffd5b8201601f81018413615c2c575f5ffd5b8051615c3a61505f8261501f565b8082825260208201915060208360051b850101925086831115615c5b575f5ffd5b6020840193505b82841015615a37578351615c7581615319565b825260209384019390910190615c62565b8082028115828204841417610c7557610c75615770565b5f60208284031215615cad575f5ffd5b5051919050565b63ffffffff8181168382160190811115610c7557610c75615770565b63ffffffff8181168382160290811690818114615cef57615cef615770565b5092915050565b634e487b7160e01b5f52601260045260245ffd5b5f82615d1857615d18615cf6565b500690565b5f82615d2b57615d2b615cf6565b50049056fea2646970667358221220422f81c14d0654271b0b0411ad72b43efc08a7dbf14903ce9278d5d4dac14ea364736f6c634300081c0033",
  "linkReferences": {},
  "deployedLinkReferences": {}
}