{
  "_format": "hh-sol-artifact-1",
  "contractName": "ComponentRegistryFFS",
  "sourceName": "contracts/flatten/ServiceRegistry-flatten.sol",
  "abi": [
    {
      "inputs": [
        {
          "internalType": "string",
          "name": "_name",
          "type": "string"
        },
        {
          "internalType": "string",
          "name": "_symbol",
          "type": "string"
        },
        {
          "internalType": "string",
          "name": "_baseURI",
          "type": "string"
        }
      ],
      "stateMutability": "nonpayable",
      "type": "constructor"
    },
    {
      "inputs": [
        {
          "internalType": "address",
          "name": "operator",
          "type": "address"
        }
      ],
      "name": "AgentInstanceRegistered",
      "type": "error"
    },
    {
      "inputs": [
        {
          "internalType": "uint256",
          "name": "serviceId",
          "type": "uint256"
        }
      ],
      "name": "AgentInstancesSlotsFilled",
      "type": "error"
    },
    {
      "inputs": [
        {
          "internalType": "uint256",
          "name": "agentId",
          "type": "uint256"
        }
      ],
      "name": "AgentNotFound",
      "type": "error"
    },
    {
      "inputs": [
        {
          "internalType": "uint256",
          "name": "agentId",
          "type": "uint256"
        },
        {
          "internalType": "uint256",
          "name": "serviceId",
          "type": "uint256"
        }
      ],
      "name": "AgentNotInService",
      "type": "error"
    },
    {
      "inputs": [
        {
          "internalType": "uint256",
          "name": "componentId",
          "type": "uint256"
        }
      ],
      "name": "ComponentNotFound",
      "type": "error"
    },
    {
      "inputs": [],
      "name": "HashExists",
      "type": "error"
    },
    {
      "inputs": [
        {
          "internalType": "uint256",
          "name": "sent",
          "type": "uint256"
        },
        {
          "internalType": "uint256",
          "name": "expected",
          "type": "uint256"
        },
        {
          "internalType": "uint256",
          "name": "serviceId",
          "type": "uint256"
        }
      ],
      "name": "IncorrectAgentBondingValue",
      "type": "error"
    },
    {
      "inputs": [
        {
          "internalType": "uint256",
          "name": "sent",
          "type": "uint256"
        },
        {
          "internalType": "uint256",
          "name": "expected",
          "type": "uint256"
        },
        {
          "internalType": "uint256",
          "name": "serviceId",
          "type": "uint256"
        }
      ],
      "name": "IncorrectRegistrationDepositValue",
      "type": "error"
    },
    {
      "inputs": [
        {
          "internalType": "address",
          "name": "sender",
          "type": "address"
        },
        {
          "internalType": "address",
          "name": "manager",
          "type": "address"
        }
      ],
      "name": "ManagerOnly",
      "type": "error"
    },
    {
      "inputs": [
        {
          "internalType": "address",
          "name": "provided",
          "type": "address"
        },
        {
          "internalType": "address",
          "name": "expected",
          "type": "address"
        },
        {
          "internalType": "uint256",
          "name": "serviceId",
          "type": "uint256"
        }
      ],
      "name": "OnlyOwnServiceMultisig",
      "type": "error"
    },
    {
      "inputs": [
        {
          "internalType": "address",
          "name": "operator",
          "type": "address"
        },
        {
          "internalType": "uint256",
          "name": "serviceId",
          "type": "uint256"
        }
      ],
      "name": "OperatorHasNoInstances",
      "type": "error"
    },
    {
      "inputs": [
        {
          "internalType": "uint256",
          "name": "provided",
          "type": "uint256"
        },
        {
          "internalType": "uint256",
          "name": "max",
          "type": "uint256"
        }
      ],
      "name": "Overflow",
      "type": "error"
    },
    {
      "inputs": [
        {
          "internalType": "address",
          "name": "sender",
          "type": "address"
        },
        {
          "internalType": "address",
          "name": "owner",
          "type": "address"
        }
      ],
      "name": "OwnerOnly",
      "type": "error"
    },
    {
      "inputs": [],
      "name": "Paused",
      "type": "error"
    },
    {
      "inputs": [],
      "name": "ReentrancyGuard",
      "type": "error"
    },
    {
      "inputs": [
        {
          "internalType": "uint256",
          "name": "serviceId",
          "type": "uint256"
        }
      ],
      "name": "ServiceMustBeInactive",
      "type": "error"
    },
    {
      "inputs": [
        {
          "internalType": "address",
          "name": "token",
          "type": "address"
        },
        {
          "internalType": "address",
          "name": "from",
          "type": "address"
        },
        {
          "internalType": "address",
          "name": "to",
          "type": "address"
        },
        {
          "internalType": "uint256",
          "name": "value",
          "type": "uint256"
        }
      ],
      "name": "TransferFailed",
      "type": "error"
    },
    {
      "inputs": [
        {
          "internalType": "address",
          "name": "multisig",
          "type": "address"
        }
      ],
      "name": "UnauthorizedMultisig",
      "type": "error"
    },
    {
      "inputs": [
        {
          "internalType": "uint256",
          "name": "agentId",
          "type": "uint256"
        }
      ],
      "name": "WrongAgentId",
      "type": "error"
    },
    {
      "inputs": [
        {
          "internalType": "uint256",
          "name": "numValues1",
          "type": "uint256"
        },
        {
          "internalType": "uint256",
          "name": "numValues2",
          "type": "uint256"
        }
      ],
      "name": "WrongArrayLength",
      "type": "error"
    },
    {
      "inputs": [
        {
          "internalType": "uint256",
          "name": "serviceId",
          "type": "uint256"
        }
      ],
      "name": "WrongOperator",
      "type": "error"
    },
    {
      "inputs": [
        {
          "internalType": "uint256",
          "name": "state",
          "type": "uint256"
        },
        {
          "internalType": "uint256",
          "name": "serviceId",
          "type": "uint256"
        }
      ],
      "name": "WrongServiceState",
      "type": "error"
    },
    {
      "inputs": [
        {
          "internalType": "uint256",
          "name": "currentThreshold",
          "type": "uint256"
        },
        {
          "internalType": "uint256",
          "name": "minThreshold",
          "type": "uint256"
        },
        {
          "internalType": "uint256",
          "name": "maxThreshold",
          "type": "uint256"
        }
      ],
      "name": "WrongThreshold",
      "type": "error"
    },
    {
      "inputs": [],
      "name": "ZeroAddress",
      "type": "error"
    },
    {
      "inputs": [],
      "name": "ZeroValue",
      "type": "error"
    },
    {
      "anonymous": false,
      "inputs": [
        {
          "indexed": true,
          "internalType": "address",
          "name": "owner",
          "type": "address"
        },
        {
          "indexed": true,
          "internalType": "address",
          "name": "spender",
          "type": "address"
        },
        {
          "indexed": true,
          "internalType": "uint256",
          "name": "id",
          "type": "uint256"
        }
      ],
      "name": "Approval",
      "type": "event"
    },
    {
      "anonymous": false,
      "inputs": [
        {
          "indexed": true,
          "internalType": "address",
          "name": "owner",
          "type": "address"
        },
        {
          "indexed": true,
          "internalType": "address",
          "name": "operator",
          "type": "address"
        },
        {
          "indexed": false,
          "internalType": "bool",
          "name": "approved",
          "type": "bool"
        }
      ],
      "name": "ApprovalForAll",
      "type": "event"
    },
    {
      "anonymous": false,
      "inputs": [
        {
          "indexed": false,
          "internalType": "string",
          "name": "baseURI",
          "type": "string"
        }
      ],
      "name": "BaseURIChanged",
      "type": "event"
    },
    {
      "anonymous": false,
      "inputs": [
        {
          "indexed": false,
          "internalType": "uint256",
          "name": "unitId",
          "type": "uint256"
        },
        {
          "indexed": false,
          "internalType": "enum UnitRegistry.UnitType",
          "name": "uType",
          "type": "uint8"
        },
        {
          "indexed": false,
          "internalType": "bytes32",
          "name": "unitHash",
          "type": "bytes32"
        }
      ],
      "name": "CreateUnit",
      "type": "event"
    },
    {
      "anonymous": false,
      "inputs": [
        {
          "indexed": true,
          "internalType": "address",
          "name": "manager",
          "type": "address"
        }
      ],
      "name": "ManagerUpdated",
      "type": "event"
    },
    {
      "anonymous": false,
      "inputs": [
        {
          "indexed": true,
          "internalType": "address",
          "name": "owner",
          "type": "address"
        }
      ],
      "name": "OwnerUpdated",
      "type": "event"
    },
    {
      "anonymous": false,
      "inputs": [
        {
          "indexed": true,
          "internalType": "address",
          "name": "from",
          "type": "address"
        },
        {
          "indexed": true,
          "internalType": "address",
          "name": "to",
          "type": "address"
        },
        {
          "indexed": true,
          "internalType": "uint256",
          "name": "id",
          "type": "uint256"
        }
      ],
      "name": "Transfer",
      "type": "event"
    },
    {
      "anonymous": false,
      "inputs": [
        {
          "indexed": false,
          "internalType": "uint256",
          "name": "unitId",
          "type": "uint256"
        },
        {
          "indexed": false,
          "internalType": "enum UnitRegistry.UnitType",
          "name": "uType",
          "type": "uint8"
        },
        {
          "indexed": false,
          "internalType": "bytes32",
          "name": "unitHash",
          "type": "bytes32"
        }
      ],
      "name": "UpdateUnitHash",
      "type": "event"
    },
    {
      "inputs": [],
      "name": "CID_PREFIX",
      "outputs": [
        {
          "internalType": "string",
          "name": "",
          "type": "string"
        }
      ],
      "stateMutability": "view",
      "type": "function"
    },
    {
      "inputs": [],
      "name": "VERSION",
      "outputs": [
        {
          "internalType": "string",
          "name": "",
          "type": "string"
        }
      ],
      "stateMutability": "view",
      "type": "function"
    },
    {
      "inputs": [
        {
          "internalType": "address",
          "name": "spender",
          "type": "address"
        },
        {
          "internalType": "uint256",
          "name": "id",
          "type": "uint256"
        }
      ],
      "name": "approve",
      "outputs": [],
      "stateMutability": "nonpayable",
      "type": "function"
    },
    {
      "inputs": [
        {
          "internalType": "address",
          "name": "owner",
          "type": "address"
        }
      ],
      "name": "balanceOf",
      "outputs": [
        {
          "internalType": "uint256",
          "name": "",
          "type": "uint256"
        }
      ],
      "stateMutability": "view",
      "type": "function"
    },
    {
      "inputs": [],
      "name": "baseURI",
      "outputs": [
        {
          "internalType": "string",
          "name": "",
          "type": "string"
        }
      ],
      "stateMutability": "view",
      "type": "function"
    },
    {
      "inputs": [
        {
          "internalType": "address",
          "name": "newManager",
          "type": "address"
        }
      ],
      "name": "changeManager",
      "outputs": [],
      "stateMutability": "nonpayable",
      "type": "function"
    },
    {
      "inputs": [
        {
          "internalType": "address",
          "name": "newOwner",
          "type": "address"
        }
      ],
      "name": "changeOwner",
      "outputs": [],
      "stateMutability": "nonpayable",
      "type": "function"
    },
    {
      "inputs": [
        {
          "internalType": "address",
          "name": "unitOwner",
          "type": "address"
        },
        {
          "internalType": "bytes32",
          "name": "unitHash",
          "type": "bytes32"
        },
        {
          "internalType": "uint32[]",
          "name": "dependencies",
          "type": "uint32[]"
        }
      ],
      "name": "create",
      "outputs": [
        {
          "internalType": "uint256",
          "name": "unitId",
          "type": "uint256"
        }
      ],
      "stateMutability": "nonpayable",
      "type": "function"
    },
    {
      "inputs": [
        {
          "internalType": "uint256",
          "name": "unitId",
          "type": "uint256"
        }
      ],
      "name": "exists",
      "outputs": [
        {
          "internalType": "bool",
          "name": "",
          "type": "bool"
        }
      ],
      "stateMutability": "view",
      "type": "function"
    },
    {
      "inputs": [
        {
          "internalType": "uint256",
          "name": "",
          "type": "uint256"
        }
      ],
      "name": "getApproved",
      "outputs": [
        {
          "internalType": "address",
          "name": "",
          "type": "address"
        }
      ],
      "stateMutability": "view",
      "type": "function"
    },
    {
      "inputs": [
        {
          "internalType": "uint256",
          "name": "unitId",
          "type": "uint256"
        }
      ],
      "name": "getDependencies",
      "outputs": [
        {
          "internalType": "uint256",
          "name": "numDependencies",
          "type": "uint256"
        },
        {
          "internalType": "uint32[]",
          "name": "dependencies",
          "type": "uint32[]"
        }
      ],
      "stateMutability": "view",
      "type": "function"
    },
    {
      "inputs": [
        {
          "internalType": "uint256",
          "name": "unitId",
          "type": "uint256"
        }
      ],
      "name": "getLocalSubComponents",
      "outputs": [
        {
          "internalType": "uint32[]",
          "name": "subComponentIds",
          "type": "uint32[]"
        },
        {
          "internalType": "uint256",
          "name": "numSubComponents",
          "type": "uint256"
        }
      ],
      "stateMutability": "view",
      "type": "function"
    },
    {
      "inputs": [
        {
          "internalType": "uint256",
          "name": "unitId",
          "type": "uint256"
        }
      ],
      "name": "getUnit",
      "outputs": [
        {
          "components": [
            {
              "internalType": "bytes32",
              "name": "unitHash",
              "type": "bytes32"
            },
            {
              "internalType": "uint32[]",
              "name": "dependencies",
              "type": "uint32[]"
            }
          ],
          "internalType": "struct UnitRegistry.Unit",
          "name": "unit",
          "type": "tuple"
        }
      ],
      "stateMutability": "view",
      "type": "function"
    },
    {
      "inputs": [
        {
          "internalType": "uint256",
          "name": "unitId",
          "type": "uint256"
        }
      ],
      "name": "getUpdatedHashes",
      "outputs": [
        {
          "internalType": "uint256",
          "name": "numHashes",
          "type": "uint256"
        },
        {
          "internalType": "bytes32[]",
          "name": "unitHashes",
          "type": "bytes32[]"
        }
      ],
      "stateMutability": "view",
      "type": "function"
    },
    {
      "inputs": [
        {
          "internalType": "address",
          "name": "",
          "type": "address"
        },
        {
          "internalType": "address",
          "name": "",
          "type": "address"
        }
      ],
      "name": "isApprovedForAll",
      "outputs": [
        {
          "internalType": "bool",
          "name": "",
          "type": "bool"
        }
      ],
      "stateMutability": "view",
      "type": "function"
    },
    {
      "inputs": [],
      "name": "manager",
      "outputs": [
        {
          "internalType": "address",
          "name": "",
          "type": "address"
        }
      ],
      "stateMutability": "view",
      "type": "function"
    },
    {
      "inputs": [
        {
          "internalType": "uint256",
          "name": "",
          "type": "uint256"
        },
        {
          "internalType": "uint256",
          "name": "",
          "type": "uint256"
        }
      ],
      "name": "mapSubComponents",
      "outputs": [
        {
          "internalType": "uint32",
          "name": "",
          "type": "uint32"
        }
      ],
      "stateMutability": "view",
      "type": "function"
    },
    {
      "inputs": [
        {
          "internalType": "uint256",
          "name": "",
          "type": "uint256"
        },
        {
          "internalType": "uint256",
          "name": "",
          "type": "uint256"
        }
      ],
      "name": "mapUnitIdHashes",
      "outputs": [
        {
          "internalType": "bytes32",
          "name": "",
          "type": "bytes32"
        }
      ],
      "stateMutability": "view",
      "type": "function"
    },
    {
      "inputs": [
        {
          "internalType": "uint256",
          "name": "",
          "type": "uint256"
        }
      ],
      "name": "mapUnits",
      "outputs": [
        {
          "internalType": "bytes32",
          "name": "unitHash",
          "type": "bytes32"
        }
      ],
      "stateMutability": "view",
      "type": "function"
    },
    {
      "inputs": [],
      "name": "name",
      "outputs": [
        {
          "internalType": "string",
          "name": "",
          "type": "string"
        }
      ],
      "stateMutability": "view",
      "type": "function"
    },
    {
      "inputs": [],
      "name": "owner",
      "outputs": [
        {
          "internalType": "address",
          "name": "",
          "type": "address"
        }
      ],
      "stateMutability": "view",
      "type": "function"
    },
    {
      "inputs": [
        {
          "internalType": "uint256",
          "name": "id",
          "type": "uint256"
        }
      ],
      "name": "ownerOf",
      "outputs": [
        {
          "internalType": "address",
          "name": "owner",
          "type": "address"
        }
      ],
      "stateMutability": "view",
      "type": "function"
    },
    {
      "inputs": [
        {
          "internalType": "address",
          "name": "from",
          "type": "address"
        },
        {
          "internalType": "address",
          "name": "to",
          "type": "address"
        },
        {
          "internalType": "uint256",
          "name": "id",
          "type": "uint256"
        }
      ],
      "name": "safeTransferFrom",
      "outputs": [],
      "stateMutability": "nonpayable",
      "type": "function"
    },
    {
      "inputs": [
        {
          "internalType": "address",
          "name": "from",
          "type": "address"
        },
        {
          "internalType": "address",
          "name": "to",
          "type": "address"
        },
        {
          "internalType": "uint256",
          "name": "id",
          "type": "uint256"
        },
        {
          "internalType": "bytes",
          "name": "data",
          "type": "bytes"
        }
      ],
      "name": "safeTransferFrom",
      "outputs": [],
      "stateMutability": "nonpayable",
      "type": "function"
    },
    {
      "inputs": [
        {
          "internalType": "address",
          "name": "operator",
          "type": "address"
        },
        {
          "internalType": "bool",
          "name": "approved",
          "type": "bool"
        }
      ],
      "name": "setApprovalForAll",
      "outputs": [],
      "stateMutability": "nonpayable",
      "type": "function"
    },
    {
      "inputs": [
        {
          "internalType": "string",
          "name": "bURI",
          "type": "string"
        }
      ],
      "name": "setBaseURI",
      "outputs": [],
      "stateMutability": "nonpayable",
      "type": "function"
    },
    {
      "inputs": [
        {
          "internalType": "bytes4",
          "name": "interfaceId",
          "type": "bytes4"
        }
      ],
      "name": "supportsInterface",
      "outputs": [
        {
          "internalType": "bool",
          "name": "",
          "type": "bool"
        }
      ],
      "stateMutability": "view",
      "type": "function"
    },
    {
      "inputs": [],
      "name": "symbol",
      "outputs": [
        {
          "internalType": "string",
          "name": "",
          "type": "string"
        }
      ],
      "stateMutability": "view",
      "type": "function"
    },
    {
      "inputs": [
        {
          "internalType": "uint256",
          "name": "id",
          "type": "uint256"
        }
      ],
      "name": "tokenByIndex",
      "outputs": [
        {
          "internalType": "uint256",
          "name": "unitId",
          "type": "uint256"
        }
      ],
      "stateMutability": "view",
      "type": "function"
    },
    {
      "inputs": [
        {
          "internalType": "uint256",
          "name": "unitId",
          "type": "uint256"
        }
      ],
      "name": "tokenURI",
      "outputs": [
        {
          "internalType": "string",
          "name": "",
          "type": "string"
        }
      ],
      "stateMutability": "view",
      "type": "function"
    },
    {
      "inputs": [],
      "name": "totalSupply",
      "outputs": [
        {
          "internalType": "uint256",
          "name": "",
          "type": "uint256"
        }
      ],
      "stateMutability": "view",
      "type": "function"
    },
    {
      "inputs": [
        {
          "internalType": "address",
          "name": "from",
          "type": "address"
        },
        {
          "internalType": "address",
          "name": "to",
          "type": "address"
        },
        {
          "internalType": "uint256",
          "name": "id",
          "type": "uint256"
        }
      ],
      "name": "transferFrom",
      "outputs": [],
      "stateMutability": "nonpayable",
      "type": "function"
    },
    {
      "inputs": [],
      "name": "unitType",
      "outputs": [
        {
          "internalType": "enum UnitRegistry.UnitType",
          "name": "",
          "type": "uint8"
        }
      ],
      "stateMutability": "view",
      "type": "function"
    },
    {
      "inputs": [
        {
          "internalType": "address",
          "name": "unitOwner",
          "type": "address"
        },
        {
          "internalType": "uint256",
          "name": "unitId",
          "type": "uint256"
        },
        {
          "internalType": "bytes32",
          "name": "unitHash",
          "type": "bytes32"
        }
      ],
      "name": "updateHash",
      "outputs": [
        {
          "internalType": "bool",
          "name": "success",
          "type": "bool"
        }
      ],
      "stateMutability": "nonpayable",
      "type": "function"
    }
  ],
  "bytecode": "0x60a06040526001600a55348015610014575f5ffd5b50604051612dc5380380612dc583398101604081905261003391610141565b5f8383826100418382610254565b50600161004e8282610254565b5050508060018111156100635761006361030e565b60808160018111156100775761007761030e565b905250600890506100888282610254565b5050600680546001600160a01b03191633179055506103229050565b634e487b7160e01b5f52604160045260245ffd5b5f82601f8301126100c7575f5ffd5b81516001600160401b038111156100e0576100e06100a4565b604051601f8201601f19908116603f011681016001600160401b038111828210171561010e5761010e6100a4565b604052818152838201602001851015610125575f5ffd5b8160208501602083015e5f918101602001919091529392505050565b5f5f5f60608486031215610153575f5ffd5b83516001600160401b03811115610168575f5ffd5b610174868287016100b8565b602086015190945090506001600160401b03811115610191575f5ffd5b61019d868287016100b8565b604086015190935090506001600160401b038111156101ba575f5ffd5b6101c6868287016100b8565b9150509250925092565b600181811c908216806101e457607f821691505b60208210810361020257634e487b7160e01b5f52602260045260245ffd5b50919050565b601f82111561024f57805f5260205f20601f840160051c8101602085101561022d5750805b601f840160051c820191505b8181101561024c575f8155600101610239565b50505b505050565b81516001600160401b0381111561026d5761026d6100a4565b6102818161027b84546101d0565b84610208565b6020601f8211600181146102b3575f831561029c5750848201515b5f19600385901b1c1916600184901b17845561024c565b5f84815260208120601f198516915b828110156102e257878501518255602094850194600190920191016102c2565b50848210156102ff57868401515f19600387901b60f8161c191681555b50505050600190811b01905550565b634e487b7160e01b5f52602160045260245ffd5b608051612a6f6103565f395f818161043001528181610b3501528181610c150152818161148901526115e20152612a6f5ff3fe608060405234801561000f575f5ffd5b506004361061021b575f3560e01c806370a0823111610123578063a3fbbaae116100b8578063c152bdfe11610088578063e985e9c51161006e578063e985e9c51461052e578063fbfd24bf1461055b578063ffa1ad741461056e575f5ffd5b8063c152bdfe14610508578063c87b56dd1461051b575f5ffd5b8063a3fbbaae146104ae578063a6f9dae1146104c1578063b88d4fde146104d4578063bf733f6b146104e7575f5ffd5b80638da5cb5b116100f35780638da5cb5b1461045f57806395d89b4114610472578063a22cb4651461047a578063a25e29d31461048d575f5ffd5b806370a08231146103c8578063716be0e0146103db5780637c5e63e01461040357806385ad4f901461042b575f5ffd5b8063481c6a75116101b35780634fa706d7116101835780636352211e116101695780636352211e1461038c578063661a0d0b1461039f5780636c0360eb146103c0575f5ffd5b80634fa706d71461035a57806355f804b314610379575f5ffd5b8063481c6a751461030e578063482c5c3c146103215780634f558e79146103345780634f6ccce714610347575f5ffd5b80631655bfbe116101ee5780631655bfbe146102b157806318160ddd146102d157806323b872dd146102e857806342842e0e146102fb575f5ffd5b806301ffc9a71461021f57806306fdde0314610247578063081812fc1461025c578063095ea7b31461029c575b5f5ffd5b61023261022d3660046121d2565b610592565b60405190151581526020015b60405180910390f35b61024f6105e3565b60405161023e91906121f4565b61028461026a366004612229565b60046020525f90815260409020546001600160a01b031681565b6040516001600160a01b03909116815260200161023e565b6102af6102aa366004612256565b61066e565b005b6102c46102bf366004612229565b610752565b60405161023e919061227e565b6102da60095481565b60405190815260200161023e565b6102af6102f63660046122de565b610809565b6102af6103093660046122de565b6109de565b600754610284906001600160a01b031681565b61023261032f366004612318565b610acf565b610232610342366004612229565b610c4b565b6102da610355366004612229565b610c6c565b6102da610368366004612229565b600d6020525f908152604090205481565b6102af61038736600461238d565b610cb0565b61028461039a366004612229565b610d58565b6103b26103ad366004612229565b610dbc565b60405161023e929190612461565b61024f610e77565b6102da6103d6366004612481565b610e84565b6103ee6103e936600461249a565b610ef6565b60405163ffffffff909116815260200161023e565b61024f6040518060400160405280600981526020016806630313730313232360bc1b81525081565b6104527f000000000000000000000000000000000000000000000000000000000000000081565b60405161023e91906124ee565b600654610284906001600160a01b031681565b61024f610f3a565b6102af6104883660046124fc565b610f47565b6104a061049b366004612229565b610fb2565b60405161023e929190612535565b6102af6104bc366004612481565b61103f565b6102af6104cf366004612481565b6110ef565b6102af6104e2366004612556565b61119f565b6104fa6104f5366004612229565b611281565b60405161023e9291906125eb565b6102da61051636600461249a565b6112e2565b61024f610529366004612229565b61130d565b61023261053c366004612638565b600560209081525f928352604080842090915290825290205460ff1681565b6102da610569366004612669565b611383565b61024f604051806040016040528060058152602001640312e302e360dc1b81525081565b5f6301ffc9a760e01b6001600160e01b0319831614806105c257506380ac58cd60e01b6001600160e01b03198316145b806105dd5750635b5e139f60e01b6001600160e01b03198316145b92915050565b5f80546105ef90612740565b80601f016020809104026020016040519081016040528092919081815260200182805461061b90612740565b80156106665780601f1061063d57610100808354040283529160200191610666565b820191905f5260205f20905b81548152906001019060200180831161064957829003601f168201915b505050505081565b5f818152600260205260409020546001600160a01b0316338114806106b557506001600160a01b0381165f90815260056020908152604080832033845290915290205460ff165b6106f75760405162461bcd60e51b815260206004820152600e60248201526d1393d517d055551213d49256915160921b60448201526064015b60405180910390fd5b5f8281526004602052604080822080546001600160a01b0319166001600160a01b0387811691821790925591518593918516917f8c5be1e5ebec7d5bd14f71427d1e84f3dd0314c0f7b2291e5b200ac8c7c3b92591a4505050565b604080518082019091525f8152606060208201525f828152600d60209081526040918290208251808401845281548152600182018054855181860281018601909652808652919492938581019392908301828280156107f957602002820191905f5260205f20905f905b82829054906101000a900463ffffffff1663ffffffff16815260200190600401906020826003010492830192600103820291508084116107bc5790505b5050505050815250509050919050565b5f818152600260205260409020546001600160a01b038481169116146108715760405162461bcd60e51b815260206004820152600a60248201527f57524f4e475f46524f4d0000000000000000000000000000000000000000000060448201526064016106ee565b6001600160a01b0382166108bb5760405162461bcd60e51b81526020600482015260116024820152701253959053125117d49150d25412515395607a1b60448201526064016106ee565b336001600160a01b03841614806108f457506001600160a01b0383165f90815260056020908152604080832033845290915290205460ff165b8061091457505f818152600460205260409020546001600160a01b031633145b6109515760405162461bcd60e51b815260206004820152600e60248201526d1393d517d055551213d49256915160921b60448201526064016106ee565b6001600160a01b038084165f81815260036020908152604080832080545f19019055938616808352848320805460010190558583526002825284832080546001600160a01b03199081168317909155600490925284832080549092169091559251849392917fddf252ad1be2c89b69c2b068fc378daa952ba7f163c4a11628f55a4df523b3ef91a4505050565b6109e9838383610809565b6001600160a01b0382163b15610aca57604051630a85bd0160e11b8082523360048301526001600160a01b03858116602484015260448301849052608060648401525f608484015290919084169063150b7a029060a4016020604051808303815f875af1158015610a5c573d5f5f3e3d5ffd5b505050506040513d601f19601f82011682018060405250810190610a809190612778565b6001600160e01b03191614610aca5760405162461bcd60e51b815260206004820152601060248201526f155394d0519157d49150d2541251539560821b60448201526064016106ee565b505050565b6007545f906001600160a01b03163314610b115760075460405163312d21ff60e11b81523360048201526001600160a01b0390911660248201526044016106ee565b836001600160a01b0316610b2484610d58565b6001600160a01b031614610ba2575f7f00000000000000000000000000000000000000000000000000000000000000006001811115610b6557610b656124ba565b03610b8657604051634915061960e11b8152600481018490526024016106ee565b604051630ede975960e01b8152600481018490526024016106ee565b5f829003610bc357604051637c946ed760e01b815260040160405180910390fd5b505f828152600b6020908152604080832080546001818101835591855292909320909101839055517fdef878acc6b6cc4320a973cf2022bf4ccad90375867c044d23b4e22e9c3b1bda90610c3c9085907f0000000000000000000000000000000000000000000000000000000000000000908690612793565b60405180910390a19392505050565b5f5f821180156105dd5750600954610c649060016127c9565b821092915050565b5f610c788260016127c9565b9050600954811115610cab57600954604051637ae5968560e01b81526106ee918391600401918252602082015260400190565b919050565b6006546001600160a01b03163314610cf05760065460405163521eb56d60e11b81523360048201526001600160a01b0390911660248201526044016106ee565b80515f03610d1157604051637c946ed760e01b815260040160405180910390fd5b6008610d1d8282612820565b507f5411e8ebf1636d9e83d5fc4900bf80cbac82e8790da2a4c94db4895e889eedf681604051610d4d91906121f4565b60405180910390a150565b5f818152600260205260409020546001600160a01b031680610cab5760405162461bcd60e51b815260206004820152600a60248201527f4e4f545f4d494e5445440000000000000000000000000000000000000000000060448201526064016106ee565b5f60605f600d5f8581526020019081526020015f206040518060400160405290815f820154815260200160018201805480602002602001604051908101604052809291908181526020018280548015610e5d57602002820191905f5260205f20905f905b82829054906101000a900463ffffffff1663ffffffff1681526020019060040190602082600301049283019260010382029150808411610e205790505b505050919092525050506020015180519590945092505050565b600880546105ef90612740565b5f6001600160a01b038216610edb5760405162461bcd60e51b815260206004820152600c60248201527f5a45524f5f41444452455353000000000000000000000000000000000000000060448201526064016106ee565b506001600160a01b03165f9081526003602052604090205490565b600c602052815f5260405f208181548110610f0f575f80fd5b905f5260205f209060089182820401919006600402915091509054906101000a900463ffffffff1681565b600180546105ef90612740565b335f8181526005602090815260408083206001600160a01b03871680855290835292819020805460ff191686151590811790915590519081529192917f17307eab39ab6107e8899845ad3d59bd9653f200f220920489ca2b5937696c31910160405180910390a35050565b5f818152600c6020908152604080832080548251818502810185019093528083526060949383018282801561102f57602002820191905f5260205f20905f905b82829054906101000a900463ffffffff1663ffffffff1681526020019060040190602082600301049283019260010382029150808411610ff25790505b5050505050915081519050915091565b6006546001600160a01b0316331461107f5760065460405163521eb56d60e11b81523360048201526001600160a01b0390911660248201526044016106ee565b6001600160a01b0381166110a65760405163d92e233d60e01b815260040160405180910390fd5b600780546001600160a01b0319166001600160a01b0383169081179091556040517f2c1c11af44aa5608f1dca38c00275c30ea091e02417d36e70e9a1538689c433d905f90a250565b6006546001600160a01b0316331461112f5760065460405163521eb56d60e11b81523360048201526001600160a01b0390911660248201526044016106ee565b6001600160a01b0381166111565760405163d92e233d60e01b815260040160405180910390fd5b600680546001600160a01b0319166001600160a01b0383169081179091556040517f4ffd725fc4a22075e9ec71c59edf9c38cdeb588a91b24fc5b61388c5be41282b905f90a250565b6111aa858585610809565b6001600160a01b0384163b1561127a57604051630a85bd0160e11b808252906001600160a01b0386169063150b7a02906111f09033908a908990899089906004016128db565b6020604051808303815f875af115801561120c573d5f5f3e3d5ffd5b505050506040513d601f19601f820116820180604052508101906112309190612778565b6001600160e01b0319161461127a5760405162461bcd60e51b815260206004820152601060248201526f155394d0519157d49150d2541251539560821b60448201526064016106ee565b5050505050565b5f818152600b6020908152604080832080548251818502810185019093528083526060938301828280156112d257602002820191905f5260205f20905b8154815260200190600101908083116112be575b5050505050905080519150915091565b600b602052815f5260405f2081815481106112fb575f80fd5b905f5260205f20015f91509150505481565b5f818152600d60205260408120546060915060086040518060400160405280600981526020016806630313730313232360bc1b81525061134c83611627565b611359608085901b611627565b60405160200161136c9493929190612930565b604051602081830303815290604052915050919050565b5f6001600a5411156113a8576040516345f5ce8b60e11b815260040160405180910390fd5b6002600a556007546001600160a01b031633146113ed5760075460405163312d21ff60e11b81523360048201526001600160a01b0390911660248201526044016106ee565b6001600160a01b0384166114145760405163d92e233d60e01b815260040160405180910390fd5b5f83900361143557604051637c946ed760e01b815260040160405180910390fd5b5060095461144382826117f7565b8061144d816129b6565b5f818152600d60209081526040909120868155855192945092506114789160018401918601906120fa565b505f6114845f856118d6565b90505f7f000000000000000000000000000000000000000000000000000000000000000060018111156114b9576114b96124ba565b036115905780515f6114cc8260016127c9565b67ffffffffffffffff8111156114e4576114e4612348565b60405190808252806020026020018201604052801561150d578160200160208202803683370190505b5090505f5b828110156115635783818151811061152c5761152c6129ce565b6020026020010151828281518110611546576115466129ce565b63ffffffff90921660209283029190910190910152600101611512565b5084818381518110611577576115776129ce565b63ffffffff909216602092830291909101909101529150505b5f838152600c6020908152604090912082516115ae928401906120fa565b5060098390556115be8684611e64565b7f97587a61bb0b1b9b24e5325039519ae27f44ca15ef278df10f4ab0195205c29c837f00000000000000000000000000000000000000000000000000000000000000008760405161161193929190612793565b60405180910390a150506001600a559392505050565b7aff00000000000000ff00000000000000ff00000000000000ff00006bffffffff0000000000000000604083901c9081167bffffffff00000000000000000000000000000000000000000000000084161760201c6fffffffff000000000000000000000000919091166001600160e01b031984161717601081901c9182167eff00000000000000ff00000000000000ff00000000000000ff000000000000821617600890811c7bff00000000000000ff00000000000000ff00000000000000ff000000939093167fff00000000000000ff00000000000000ff00000000000000ff000000000000009290921691909117919091179081901c7e0f000f000f000f000f000f000f000f000f000f000f000f000f000f000f000f167f0f000f000f000f000f000f000f000f000f000f000f000f000f000f000f000f00600492831c161790611793827f06060606060606060606060606060606060606060606060606060606060606066127c9565b901c7f0f0f0f0f0f0f0f0f0f0f0f0f0f0f0f0f0f0f0f0f0f0f0f0f0f0f0f0f0f0f0f0f1660276117c391906129e2565b6117ed827f30303030303030303030303030303030303030303030303030303030303030306127c9565b6105dd91906127c9565b5f805b83518110156118d05761180e8260016129f9565b63ffffffff16848281518110611826576118266129ce565b602002602001015163ffffffff16108061186457508263ffffffff16848281518110611854576118546129ce565b602002602001015163ffffffff16115b156118a95783818151811061187b5761187b6129ce565b6020026020010151604051634915061960e11b81526004016106ee919063ffffffff91909116815260200190565b8381815181106118bb576118bb6129ce565b602002602001015191508060010190506117fa565b50505050565b80516060905f63ffffffff821667ffffffffffffffff8111156118fb576118fb612348565b604051908082528060200260200182016040528015611924578160200160208202803683370190505b5090505f8263ffffffff1667ffffffffffffffff81111561194757611947612348565b60405190808252806020026020018201604052801561197a57816020015b60608152602001906001900390816119655790505b5090505f805b8463ffffffff168163ffffffff161015611a5e576119bd88888363ffffffff16815181106119b0576119b06129ce565b6020026020010151611f50565b838263ffffffff16815181106119d5576119d56129ce565b6020026020010181905250828163ffffffff16815181106119f8576119f86129ce565b602002602001015151848263ffffffff1681518110611a1957611a196129ce565b63ffffffff9283166020918202929092010152845185918316908110611a4157611a416129ce565b602002602001015182611a5491906129f9565b9150600101611980565b505f8163ffffffff1667ffffffffffffffff811115611a7f57611a7f612348565b604051908082528060200260200182016040528015611aa8578160200160208202803683370190505b5090505f8563ffffffff1667ffffffffffffffff811115611acb57611acb612348565b604051908082528060200260200182016040528015611af4578160200160208202803683370190505b5090505f805b8463ffffffff168163ffffffff161015611d9f575f8063ffffffff815b8b63ffffffff168163ffffffff161015611d15575b8a8163ffffffff1681518110611b4457611b446129ce565b602002602001015163ffffffff16878263ffffffff1681518110611b6a57611b6a6129ce565b602002602001015163ffffffff161015611d0d57898163ffffffff1681518110611b9657611b966129ce565b6020026020010151878263ffffffff1681518110611bb657611bb66129ce565b602002602001015163ffffffff1681518110611bd457611bd46129ce565b602002602001015163ffffffff168663ffffffff161015611cd6578163ffffffff168a8263ffffffff1681518110611c0e57611c0e6129ce565b6020026020010151888363ffffffff1681518110611c2e57611c2e6129ce565b602002602001015163ffffffff1681518110611c4c57611c4c6129ce565b602002602001015163ffffffff161015611cc457898163ffffffff1681518110611c7857611c786129ce565b6020026020010151878263ffffffff1681518110611c9857611c986129ce565b602002602001015163ffffffff1681518110611cb657611cb66129ce565b602002602001015191508093505b82611cce81612a15565b935050611d0d565b868163ffffffff1681518110611cee57611cee6129ce565b602002602001018051611d0090612a15565b63ffffffff169052611b2c565b600101611b17565b5093508363ffffffff821615611d895784878563ffffffff1681518110611d3e57611d3e6129ce565b63ffffffff9283166020918202929092010152865187918516908110611d6657611d666129ce565b602002602001018051809190611d7b90612a15565b63ffffffff16905250611d91565b505050611d9f565b505050806001019050611afa565b8063ffffffff1667ffffffffffffffff811115611dbe57611dbe612348565b604051908082528060200260200182016040528015611de7578160200160208202803683370190505b5098505f5b8163ffffffff168163ffffffff161015611e5557848163ffffffff1681518110611e1857611e186129ce565b60200260200101518a8263ffffffff1681518110611e3857611e386129ce565b63ffffffff90921660209283029190910190910152600101611dec565b50505050505050505092915050565b611e6e8282611fe2565b6001600160a01b0382163b15611f4c57604051630a85bd0160e11b8082523360048301525f6024830181905260448301849052608060648401526084830152906001600160a01b0384169063150b7a029060a4016020604051808303815f875af1158015611ede573d5f5f3e3d5ffd5b505050506040513d601f19601f82011682018060405250810190611f029190612778565b6001600160e01b03191614611f4c5760405162461bcd60e51b815260206004820152601060248201526f155394d0519157d49150d2541251539560821b60448201526064016106ee565b5050565b63ffffffff81165f908152600c6020908152604091829020805483518184028101840190945280845260609392830182828015611fd557602002820191905f5260205f20905f905b82829054906101000a900463ffffffff1663ffffffff1681526020019060040190602082600301049283019260010382029150808411611f985790505b5050505050905092915050565b6001600160a01b03821661202c5760405162461bcd60e51b81526020600482015260116024820152701253959053125117d49150d25412515395607a1b60448201526064016106ee565b5f818152600260205260409020546001600160a01b0316156120905760405162461bcd60e51b815260206004820152600e60248201527f414c52454144595f4d494e54454400000000000000000000000000000000000060448201526064016106ee565b6001600160a01b0382165f81815260036020908152604080832080546001019055848352600290915280822080546001600160a01b0319168417905551839291907fddf252ad1be2c89b69c2b068fc378daa952ba7f163c4a11628f55a4df523b3ef908290a45050565b828054828255905f5260205f2090600701600890048101928215612196579160200282015f5b8382111561216457835183826101000a81548163ffffffff021916908363ffffffff1602179055509260200192600401602081600301049283019260010302612120565b80156121945782816101000a81549063ffffffff0219169055600401602081600301049283019260010302612164565b505b506121a29291506121a6565b5090565b5b808211156121a2575f81556001016121a7565b6001600160e01b0319811681146121cf575f5ffd5b50565b5f602082840312156121e2575f5ffd5b81356121ed816121ba565b9392505050565b602081525f82518060208401528060208501604085015e5f604082850101526040601f19601f83011684010191505092915050565b5f60208284031215612239575f5ffd5b5035919050565b80356001600160a01b0381168114610cab575f5ffd5b5f5f60408385031215612267575f5ffd5b61227083612240565b946020939093013593505050565b6020808252825182820152828101516040808401528051606084018190525f929190910190829060808501905b808310156122d45763ffffffff84511682526020820191506020840193506001830192506122ab565b5095945050505050565b5f5f5f606084860312156122f0575f5ffd5b6122f984612240565b925061230760208501612240565b929592945050506040919091013590565b5f5f5f6060848603121561232a575f5ffd5b61233384612240565b95602085013595506040909401359392505050565b634e487b7160e01b5f52604160045260245ffd5b604051601f8201601f1916810167ffffffffffffffff8111828210171561238557612385612348565b604052919050565b5f6020828403121561239d575f5ffd5b813567ffffffffffffffff8111156123b3575f5ffd5b8201601f810184136123c3575f5ffd5b803567ffffffffffffffff8111156123dd576123dd612348565b6123f0601f8201601f191660200161235c565b818152856020838501011115612404575f5ffd5b816020840160208301375f91810160200191909152949350505050565b5f8151808452602084019350602083015f5b8281101561245757815163ffffffff16865260209586019590910190600101612433565b5093949350505050565b828152604060208201525f6124796040830184612421565b949350505050565b5f60208284031215612491575f5ffd5b6121ed82612240565b5f5f604083850312156124ab575f5ffd5b50508035926020909101359150565b634e487b7160e01b5f52602160045260245ffd5b600281106124ea57634e487b7160e01b5f52602160045260245ffd5b9052565b602081016105dd82846124ce565b5f5f6040838503121561250d575f5ffd5b61251683612240565b91506020830135801515811461252a575f5ffd5b809150509250929050565b604081525f6125476040830185612421565b90508260208301529392505050565b5f5f5f5f5f6080868803121561256a575f5ffd5b61257386612240565b945061258160208701612240565b935060408601359250606086013567ffffffffffffffff8111156125a3575f5ffd5b8601601f810188136125b3575f5ffd5b803567ffffffffffffffff8111156125c9575f5ffd5b8860208284010111156125da575f5ffd5b959894975092955050506020019190565b5f60408201848352604060208401528084518083526060850191506020860192505f5b8181101561262c57835183526020938401939092019160010161260e565b50909695505050505050565b5f5f60408385031215612649575f5ffd5b61265283612240565b915061266060208401612240565b90509250929050565b5f5f5f6060848603121561267b575f5ffd5b61268484612240565b925060208401359150604084013567ffffffffffffffff8111156126a6575f5ffd5b8401601f810186136126b6575f5ffd5b803567ffffffffffffffff8111156126d0576126d0612348565b8060051b6126e06020820161235c565b918252602081840181019290810190898411156126fb575f5ffd5b6020850194505b83851015612731578435925063ffffffff8316831461271f575f5ffd5b82825260209485019490910190612702565b80955050505050509250925092565b600181811c9082168061275457607f821691505b60208210810361277257634e487b7160e01b5f52602260045260245ffd5b50919050565b5f60208284031215612788575f5ffd5b81516121ed816121ba565b838152606081016127a760208301856124ce565b826040830152949350505050565b634e487b7160e01b5f52601160045260245ffd5b808201808211156105dd576105dd6127b5565b601f821115610aca57805f5260205f20601f840160051c810160208510156128015750805b601f840160051c820191505b8181101561127a575f815560010161280d565b815167ffffffffffffffff81111561283a5761283a612348565b61284e816128488454612740565b846127dc565b6020601f821160018114612880575f83156128695750848201515b5f19600385901b1c1916600184901b17845561127a565b5f84815260208120601f198516915b828110156128af578785015182556020948501946001909201910161288f565b50848210156128cc57868401515f19600387901b60f8161c191681555b50505050600190811b01905550565b6001600160a01b03861681526001600160a01b038516602082015283604082015260806060820152816080820152818360a08301375f81830160a090810191909152601f909201601f19160101949350505050565b5f5f865461293d81612740565b600182168015612954576001811461296957612996565b60ff1983168652811515820286019350612996565b895f5260205f205f5b8381101561298e57815488820152600190910190602001612972565b505081860193505b50505085518060208801835e019384525050602082015260400192915050565b5f600182016129c7576129c76127b5565b5060010190565b634e487b7160e01b5f52603260045260245ffd5b80820281158282048414176105dd576105dd6127b5565b63ffffffff81811683821601908111156105dd576105dd6127b5565b5f63ffffffff821663ffffffff8103612a3057612a306127b5565b6001019291505056fea26469706673582212202ce9d757fc8ab7e4084414dfcc071b5da5515f6f4bb944aa26ed0fae24cc248264736f6c634300081c0033",
  "linkReferences": {},
  "deployedLinkReferences": {}
}