{
  "_format": "hh-sol-artifact-1",
  "contractName": "ServiceRegistryProxy",
  "sourceName": "contracts/flatten/ServiceRegistry-flatten.sol",
  "abi": [
    {
      "inputs": [],
      "stateMutability": "nonpayable",
      "type": "constructor"
    },
    {
      "inputs": [
        {
          "internalType": "address",
          "name": "serviceOwner",
          "type": "address"
        },
        {
          "internalType": "uint256",
          "name": "serviceId",
          "type": "uint256"
        }
      ],
      "name": "activateRegistration",
      "outputs": [
        {
          "internalType": "bool",
          "name": "success",
          "type": "bool"
        }
      ],
      "stateMutability": "payable",
      "type": "function"
    },
    {
      "inputs": [
        {
          "internalType": "address",
          "name": "newDrainer",
          "type": "address"
        }
      ],
      "name": "changeDrainer",
      "outputs": [],
      "stateMutability": "nonpayable",
      "type": "function"
    },
    {
      "inputs": [
        {
          "internalType": "address",
          "name": "newManager",
          "type": "address"
        }
      ],
      "name": "changeManager",
      "outputs": [],
      "stateMutability": "nonpayable",
      "type": "function"
    },
    {
      "inputs": [
        {
          "internalType": "address",
          "name": "multisig",
          "type": "address"
        },
        {
          "internalType": "bool",
          "name": "permission",
          "type": "bool"
        }
      ],
      "name": "changeMultisigPermission",
      "outputs": [
        {
          "internalType": "bool",
          "name": "success",
          "type": "bool"
        }
      ],
      "stateMutability": "nonpayable",
      "type": "function"
    },
    {
      "inputs": [
        {
          "internalType": "address",
          "name": "newOwner",
          "type": "address"
        }
      ],
      "name": "changeOwner",
      "outputs": [],
      "stateMutability": "nonpayable",
      "type": "function"
    },
    {
      "inputs": [
        {
          "internalType": "address",
          "name": "serviceOwner",
          "type": "address"
        },
        {
          "internalType": "bytes32",
          "name": "configHash",
          "type": "bytes32"
        },
        {
          "internalType": "uint32[]",
          "name": "agentIds",
          "type": "uint32[]"
        },
        {
          "components": [
            {
              "internalType": "uint32",
              "name": "slots",
              "type": "uint32"
            },
            {
              "internalType": "uint96",
              "name": "bond",
              "type": "uint96"
            }
          ],
          "internalType": "struct AgentParams[]",
          "name": "agentParams",
          "type": "tuple[]"
        },
        {
          "internalType": "uint32",
          "name": "threshold",
          "type": "uint32"
        }
      ],
      "name": "create",
      "outputs": [
        {
          "internalType": "uint256",
          "name": "serviceId",
          "type": "uint256"
        }
      ],
      "stateMutability": "nonpayable",
      "type": "function"
    },
    {
      "inputs": [
        {
          "internalType": "address",
          "name": "serviceOwner",
          "type": "address"
        },
        {
          "internalType": "uint256",
          "name": "serviceId",
          "type": "uint256"
        },
        {
          "internalType": "address",
          "name": "",
          "type": "address"
        },
        {
          "internalType": "bytes",
          "name": "data",
          "type": "bytes"
        }
      ],
      "name": "deploy",
      "outputs": [
        {
          "internalType": "address",
          "name": "multisig",
          "type": "address"
        }
      ],
      "stateMutability": "nonpayable",
      "type": "function"
    },
    {
      "inputs": [],
      "name": "drain",
      "outputs": [
        {
          "internalType": "uint256",
          "name": "amount",
          "type": "uint256"
        }
      ],
      "stateMutability": "nonpayable",
      "type": "function"
    },
    {
      "inputs": [
        {
          "internalType": "uint256",
          "name": "serviceId",
          "type": "uint256"
        }
      ],
      "name": "getAgentInstances",
      "outputs": [
        {
          "internalType": "uint256",
          "name": "numAgentInstances",
          "type": "uint256"
        },
        {
          "internalType": "address[]",
          "name": "agentInstances",
          "type": "address[]"
        }
      ],
      "stateMutability": "view",
      "type": "function"
    },
    {
      "inputs": [
        {
          "internalType": "uint256",
          "name": "serviceId",
          "type": "uint256"
        }
      ],
      "name": "getAgentParams",
      "outputs": [
        {
          "internalType": "uint256",
          "name": "numAgentIds",
          "type": "uint256"
        },
        {
          "components": [
            {
              "internalType": "uint32",
              "name": "slots",
              "type": "uint32"
            },
            {
              "internalType": "uint96",
              "name": "bond",
              "type": "uint96"
            }
          ],
          "internalType": "struct AgentParams[]",
          "name": "agentParams",
          "type": "tuple[]"
        }
      ],
      "stateMutability": "view",
      "type": "function"
    },
    {
      "inputs": [
        {
          "internalType": "uint256",
          "name": "serviceId",
          "type": "uint256"
        },
        {
          "internalType": "uint256",
          "name": "agentId",
          "type": "uint256"
        }
      ],
      "name": "getInstancesForAgentId",
      "outputs": [
        {
          "internalType": "uint256",
          "name": "numAgentInstances",
          "type": "uint256"
        },
        {
          "internalType": "address[]",
          "name": "agentInstances",
          "type": "address[]"
        }
      ],
      "stateMutability": "view",
      "type": "function"
    },
    {
      "inputs": [
        {
          "internalType": "address",
          "name": "operator",
          "type": "address"
        },
        {
          "internalType": "uint256",
          "name": "serviceId",
          "type": "uint256"
        }
      ],
      "name": "getOperatorBalance",
      "outputs": [
        {
          "internalType": "uint256",
          "name": "balance",
          "type": "uint256"
        }
      ],
      "stateMutability": "view",
      "type": "function"
    },
    {
      "inputs": [
        {
          "internalType": "uint256",
          "name": "serviceId",
          "type": "uint256"
        }
      ],
      "name": "getPreviousHashes",
      "outputs": [
        {
          "internalType": "uint256",
          "name": "numHashes",
          "type": "uint256"
        },
        {
          "internalType": "bytes32[]",
          "name": "configHashes",
          "type": "bytes32[]"
        }
      ],
      "stateMutability": "view",
      "type": "function"
    },
    {
      "inputs": [
        {
          "internalType": "uint256",
          "name": "serviceId",
          "type": "uint256"
        }
      ],
      "name": "getService",
      "outputs": [
        {
          "components": [
            {
              "internalType": "uint96",
              "name": "securityDeposit",
              "type": "uint96"
            },
            {
              "internalType": "address",
              "name": "multisig",
              "type": "address"
            },
            {
              "internalType": "bytes32",
              "name": "configHash",
              "type": "bytes32"
            },
            {
              "internalType": "uint32",
              "name": "threshold",
              "type": "uint32"
            },
            {
              "internalType": "uint32",
              "name": "maxNumAgentInstances",
              "type": "uint32"
            },
            {
              "internalType": "uint32",
              "name": "numAgentInstances",
              "type": "uint32"
            },
            {
              "internalType": "enum ServiceRegistryF.ServiceState",
              "name": "state",
              "type": "uint8"
            },
            {
              "internalType": "uint32[]",
              "name": "agentIds",
              "type": "uint32[]"
            }
          ],
          "internalType": "struct ServiceRegistryF.Service",
          "name": "service",
          "type": "tuple"
        }
      ],
      "stateMutability": "view",
      "type": "function"
    },
    {
      "inputs": [
        {
          "internalType": "enum IRegistry.UnitType",
          "name": "unitType",
          "type": "uint8"
        },
        {
          "internalType": "uint256",
          "name": "serviceId",
          "type": "uint256"
        }
      ],
      "name": "getUnitIdsOfService",
      "outputs": [
        {
          "internalType": "uint256",
          "name": "numUnitIds",
          "type": "uint256"
        },
        {
          "internalType": "uint32[]",
          "name": "unitIds",
          "type": "uint32[]"
        }
      ],
      "stateMutability": "view",
      "type": "function"
    },
    {
      "inputs": [],
      "name": "iAgentRegistryF",
      "outputs": [
        {
          "internalType": "contract AgentRegistryFS",
          "name": "",
          "type": "address"
        }
      ],
      "stateMutability": "view",
      "type": "function"
    },
    {
      "inputs": [],
      "name": "iComponentRegistryFF",
      "outputs": [
        {
          "internalType": "contract ComponentRegistryFFS",
          "name": "",
          "type": "address"
        }
      ],
      "stateMutability": "view",
      "type": "function"
    },
    {
      "inputs": [],
      "name": "iServiceRegistryF",
      "outputs": [
        {
          "internalType": "contract ServiceRegistryF",
          "name": "",
          "type": "address"
        }
      ],
      "stateMutability": "view",
      "type": "function"
    },
    {
      "inputs": [
        {
          "internalType": "address",
          "name": "operator",
          "type": "address"
        },
        {
          "internalType": "uint256",
          "name": "serviceId",
          "type": "uint256"
        },
        {
          "internalType": "address[]",
          "name": "agentInstances",
          "type": "address[]"
        },
        {
          "internalType": "uint32[]",
          "name": "agentIds",
          "type": "uint32[]"
        }
      ],
      "name": "registerAgents",
      "outputs": [
        {
          "internalType": "bool",
          "name": "success",
          "type": "bool"
        }
      ],
      "stateMutability": "payable",
      "type": "function"
    },
    {
      "inputs": [
        {
          "internalType": "address[]",
          "name": "agentInstances",
          "type": "address[]"
        },
        {
          "internalType": "uint96[]",
          "name": "amounts",
          "type": "uint96[]"
        },
        {
          "internalType": "uint256",
          "name": "serviceId",
          "type": "uint256"
        }
      ],
      "name": "slash",
      "outputs": [
        {
          "internalType": "bool",
          "name": "success",
          "type": "bool"
        }
      ],
      "stateMutability": "nonpayable",
      "type": "function"
    },
    {
      "inputs": [
        {
          "internalType": "address",
          "name": "serviceOwner",
          "type": "address"
        },
        {
          "internalType": "uint256",
          "name": "serviceId",
          "type": "uint256"
        }
      ],
      "name": "terminate",
      "outputs": [
        {
          "internalType": "bool",
          "name": "success",
          "type": "bool"
        },
        {
          "internalType": "uint256",
          "name": "refund",
          "type": "uint256"
        }
      ],
      "stateMutability": "nonpayable",
      "type": "function"
    },
    {
      "inputs": [
        {
          "internalType": "address",
          "name": "operator",
          "type": "address"
        },
        {
          "internalType": "uint256",
          "name": "serviceId",
          "type": "uint256"
        }
      ],
      "name": "unbond",
      "outputs": [
        {
          "internalType": "bool",
          "name": "success",
          "type": "bool"
        },
        {
          "internalType": "uint256",
          "name": "refund",
          "type": "uint256"
        }
      ],
      "stateMutability": "nonpayable",
      "type": "function"
    },
    {
      "inputs": [
        {
          "internalType": "address",
          "name": "serviceOwner",
          "type": "address"
        },
        {
          "internalType": "bytes32",
          "name": "configHash",
          "type": "bytes32"
        },
        {
          "internalType": "uint32[]",
          "name": "agentIds",
          "type": "uint32[]"
        },
        {
          "components": [
            {
              "internalType": "uint32",
              "name": "slots",
              "type": "uint32"
            },
            {
              "internalType": "uint96",
              "name": "bond",
              "type": "uint96"
            }
          ],
          "internalType": "struct AgentParams[]",
          "name": "agentParams",
          "type": "tuple[]"
        },
        {
          "internalType": "uint32",
          "name": "threshold",
          "type": "uint32"
        },
        {
          "internalType": "uint256",
          "name": "serviceId",
          "type": "uint256"
        }
      ],
      "name": "update",
      "outputs": [
        {
          "internalType": "bool",
          "name": "success",
          "type": "bool"
        }
      ],
      "stateMutability": "nonpayable",
      "type": "function"
    }
  ],
  "bytecode": "0x6080604052348015600e575f5ffd5b505f80546001600160a01b0319908116731dc4c1cefef38a777b15aa20260a54e584b16c4817909155600180548216731d7022f5b17d2f8b695918fb48fa1089c9f8540117905560028054909116731e2f9e10d02a6b8f8f69fcbf515e75039d2ea30d179055611c85806100815f395ff3fe608060405260043610610178575f3560e01c80639890220b116100d1578063ccc9305d1161007c578063ef0e239b11610057578063ef0e239b14610450578063f908bc771461047c578063fbdeb3d71461049b575f5ffd5b8063ccc9305d1461040b578063dff767241461042a578063e23f6fb41461043d575f5ffd5b8063a60e4c3c116100ac578063a60e4c3c146103a0578063a6f9dae1146103cd578063cbf994f8146103ec575f5ffd5b80639890220b14610337578063a3fbbaae1461034b578063a5d059ca1461036a575f5ffd5b806345a0c8701161013157806382694b1d1161010c57806382694b1d146102be5780638a2bd86f146102dd57806392080b231461030a575f5ffd5b806345a0c870146102515780634d486f851461027057806373b8b6a21461028f575f5ffd5b80631de286ba116101615780631de286ba146101d957806321e4f7bb146102065780632f1d2a2f14610233575f5ffd5b806310c6aa191461017c5780631151ec761461019d575b5f5ffd5b348015610187575f5ffd5b5061019b610196366004610dc1565b6104ba565b005b3480156101a8575f5ffd5b506001546101bc906001600160a01b031681565b6040516001600160a01b0390911681526020015b60405180910390f35b3480156101e4575f5ffd5b506101f86101f3366004610ddc565b610518565b6040516101d0929190610e4d565b348015610211575f5ffd5b50610225610220366004610e65565b610593565b6040516101d0929190610ebe565b34801561023e575f5ffd5b505f546101bc906001600160a01b031681565b34801561025c575f5ffd5b506002546101bc906001600160a01b031681565b34801561027b575f5ffd5b5061022561028a366004610ddc565b610617565b34801561029a575f5ffd5b506102ae6102a9366004611017565b610689565b60405190151581526020016101d0565b3480156102c9575f5ffd5b506102ae6102d83660046110f2565b610705565b3480156102e8575f5ffd5b506102fc6102f7366004611129565b610781565b6040519081526020016101d0565b348015610315575f5ffd5b50610329610324366004611153565b6107f4565b6040516101d09291906111a8565b348015610342575f5ffd5b506102fc61086c565b348015610356575f5ffd5b5061019b610365366004610dc1565b6108dd565b348015610375575f5ffd5b50610389610384366004611129565b61090f565b6040805192151583526020830191909152016101d0565b3480156103ab575f5ffd5b506103bf6103ba366004610ddc565b610986565b6040516101d09291906111c0565b3480156103d8575f5ffd5b5061019b6103e7366004610dc1565b6109f8565b3480156103f7575f5ffd5b506102ae610406366004611318565b610a2a565b348015610416575f5ffd5b50610389610425366004611129565b610aaf565b6102ae6104383660046113b4565b610aeb565b6102ae61044b366004611129565b610b6d565b34801561045b575f5ffd5b5061046f61046a366004610ddc565b610be4565b6040516101d0919061145c565b348015610487575f5ffd5b506101bc6104963660046114fc565b610c9e565b3480156104a6575f5ffd5b506102fc6104b53660046115be565b610d28565b6002546040516310c6aa1960e01b81526001600160a01b038381166004830152909116906310c6aa19906024015b5f604051808303815f87803b1580156104ff575f5ffd5b505af1158015610511573d5f5f3e3d5ffd5b5050505050565b600254604051630ef1435d60e11b8152600481018390525f916060916001600160a01b0390911690631de286ba906024015f60405180830381865afa158015610563573d5f5f3e3d5ffd5b505050506040513d5f823e601f3d908101601f1916820160405261058a919081019061166d565b91509150915091565b6002546040516321e4f7bb60e01b815260048101849052602481018390525f916060916001600160a01b03909116906321e4f7bb906044015f60405180830381865afa1580156105e5573d5f5f3e3d5ffd5b505050506040513d5f823e601f3d908101601f1916820160405261060c9190810190611751565b915091509250929050565b600254604051634d486f8560e01b8152600481018390525f916060916001600160a01b0390911690634d486f85906024015f60405180830381865afa158015610662573d5f5f3e3d5ffd5b505050506040513d5f823e601f3d908101601f1916820160405261058a9190810190611751565b6002546040516339dc5b5160e11b81525f916001600160a01b0316906373b8b6a2906106bd908790879087906004016117ea565b6020604051808303815f875af11580156106d9573d5f5f3e3d5ffd5b505050506040513d601f19601f820116820180604052508101906106fd9190611858565b949350505050565b6002546040516382694b1d60e01b81526001600160a01b03848116600483015283151560248301525f9216906382694b1d906044016020604051808303815f875af1158015610756573d5f5f3e3d5ffd5b505050506040513d601f19601f8201168201806040525081019061077a9190611858565b9392505050565b600254604051638a2bd86f60e01b81526001600160a01b038481166004830152602482018490525f921690638a2bd86f90604401602060405180830381865afa1580156107d0573d5f5f3e3d5ffd5b505050506040513d601f19601f8201168201806040525081019061077a9190611873565b6002546040516392080b2360e01b81525f916060916001600160a01b03909116906392080b239061082b908790879060040161188a565b5f60405180830381865afa158015610845573d5f5f3e3d5ffd5b505050506040513d5f823e601f3d908101601f1916820160405261060c919081019061190c565b60025460408051639890220b60e01b815290515f926001600160a01b031691639890220b916004808301926020929190829003018187875af11580156108b4573d5f5f3e3d5ffd5b505050506040513d601f19601f820116820180604052508101906108d89190611873565b905090565b6002546040516351fddd5760e11b81526001600160a01b0383811660048301529091169063a3fbbaae906024016104e8565b6002546040516352e82ce560e11b81526001600160a01b038481166004830152602482018490525f92839291169063a5d059ca906044015b60408051808303815f875af1158015610962573d5f5f3e3d5ffd5b505050506040513d601f19601f8201168201806040525081019061060c9190611951565b600254604051632983930f60e21b8152600481018390525f916060916001600160a01b039091169063a60e4c3c906024015f60405180830381865afa1580156109d1573d5f5f3e3d5ffd5b505050506040513d5f823e601f3d908101601f1916820160405261058a919081019061197d565b60025460405163a6f9dae160e01b81526001600160a01b0383811660048301529091169063a6f9dae1906024016104e8565b60025460405163197f329f60e31b81525f916001600160a01b03169063cbf994f890610a64908a908a908a908a908a908a90600401611a0d565b6020604051808303815f875af1158015610a80573d5f5f3e3d5ffd5b505050506040513d601f19601f82011682018060405250810190610aa49190611858565b979650505050505050565b60025460405163ccc9305d60e01b81526001600160a01b038481166004830152602482018490525f92839291169063ccc9305d90604401610947565b6002546040516337fdd9c960e21b81525f916001600160a01b03169063dff76724903490610b23908990899089908990600401611a62565b60206040518083038185885af1158015610b3f573d5f5f3e3d5ffd5b50505050506040513d601f19601f82011682018060405250810190610b649190611858565b95945050505050565b60025460405163388fdbed60e21b81526001600160a01b038481166004830152602482018490525f92169063e23f6fb490349060440160206040518083038185885af1158015610bbf573d5f5f3e3d5ffd5b50505050506040513d601f19601f8201168201806040525081019061077a9190611858565b610c2b60408051610100810182525f80825260208201819052918101829052606081018290526080810182905260a081018290529060c08201908152602001606081525090565b60025460405163ef0e239b60e01b8152600481018490526001600160a01b039091169063ef0e239b906024015f60405180830381865afa158015610c71573d5f5f3e3d5ffd5b505050506040513d5f823e601f3d908101601f19168201604052610c989190810190611aa9565b92915050565b60025460405163f908bc7760e01b81525f916001600160a01b03169063f908bc7790610ce890889088907348bacb9266a570d521063ef5dd96e61686dbe788908890600401611b86565b6020604051808303815f875af1158015610d04573d5f5f3e3d5ffd5b505050506040513d601f19601f82011682018060405250810190610b649190611be2565b60025460405163fbdeb3d760e01b81525f916001600160a01b03169063fbdeb3d790610d609089908990899089908990600401611bfd565b6020604051808303815f875af1158015610d7c573d5f5f3e3d5ffd5b505050506040513d601f19601f82011682018060405250810190610da09190611873565b9695505050505050565b6001600160a01b0381168114610dbe575f5ffd5b50565b5f60208284031215610dd1575f5ffd5b813561077a81610daa565b5f60208284031215610dec575f5ffd5b5035919050565b5f8151808452602084019350602083015f5b82811015610e43578151805163ffffffff1687526020908101516bffffffffffffffffffffffff168188015260409096019590910190600101610e05565b5093949350505050565b828152604060208201525f6106fd6040830184610df3565b5f5f60408385031215610e76575f5ffd5b50508035926020909101359150565b5f8151808452602084019350602083015f5b82811015610e435781516001600160a01b0316865260209586019590910190600101610e97565b828152604060208201525f6106fd6040830184610e85565b634e487b7160e01b5f52604160045260245ffd5b6040805190810167ffffffffffffffff81118282101715610f0d57610f0d610ed6565b60405290565b604051610100810167ffffffffffffffff81118282101715610f0d57610f0d610ed6565b604051601f8201601f1916810167ffffffffffffffff81118282101715610f6057610f60610ed6565b604052919050565b5f67ffffffffffffffff821115610f8157610f81610ed6565b5060051b60200190565b5f82601f830112610f9a575f5ffd5b8135610fad610fa882610f68565b610f37565b8082825260208201915060208360051b860101925085831115610fce575f5ffd5b602085015b83811015610ff4578035610fe681610daa565b835260209283019201610fd3565b5095945050505050565b6bffffffffffffffffffffffff81168114610dbe575f5ffd5b5f5f5f60608486031215611029575f5ffd5b833567ffffffffffffffff81111561103f575f5ffd5b61104b86828701610f8b565b935050602084013567ffffffffffffffff811115611067575f5ffd5b8401601f81018613611077575f5ffd5b8035611085610fa882610f68565b8082825260208201915060208360051b8501019250888311156110a6575f5ffd5b6020840193505b828410156110d15783356110c081610ffe565b8252602093840193909101906110ad565b959895975050505060409390930135925050565b8015158114610dbe575f5ffd5b5f5f60408385031215611103575f5ffd5b823561110e81610daa565b9150602083013561111e816110e5565b809150509250929050565b5f5f6040838503121561113a575f5ffd5b823561114581610daa565b946020939093013593505050565b5f5f60408385031215611164575f5ffd5b823560028110611145575f5ffd5b5f8151808452602084019350602083015f5b82811015610e4357815163ffffffff16865260209586019590910190600101611184565b828152604060208201525f6106fd6040830184611172565b5f60408201848352604060208401528084518083526060850191506020860192505f5b818110156112015783518352602093840193909201916001016111e3565b50909695505050505050565b63ffffffff81168114610dbe575f5ffd5b5f82601f83011261122d575f5ffd5b813561123b610fa882610f68565b8082825260208201915060208360051b86010192508583111561125c575f5ffd5b602085015b83811015610ff45780356112748161120d565b835260209283019201611261565b5f82601f830112611291575f5ffd5b813561129f610fa882610f68565b8082825260208201915060208360061b8601019250858311156112c0575f5ffd5b602085015b83811015610ff457604081880312156112dc575f5ffd5b6112e4610eea565b81356112ef8161120d565b815260208201356112ff81610ffe565b60208281019190915290845292909201916040016112c5565b5f5f5f5f5f5f60c0878903121561132d575f5ffd5b863561133881610daa565b955060208701359450604087013567ffffffffffffffff81111561135a575f5ffd5b61136689828a0161121e565b945050606087013567ffffffffffffffff811115611382575f5ffd5b61138e89828a01611282565b935050608087013561139f8161120d565b9598949750929591949360a090920135925050565b5f5f5f5f608085870312156113c7575f5ffd5b84356113d281610daa565b935060208501359250604085013567ffffffffffffffff8111156113f4575f5ffd5b61140087828801610f8b565b925050606085013567ffffffffffffffff81111561141c575f5ffd5b6114288782880161121e565b91505092959194509250565b634e487b7160e01b5f52602160045260245ffd5b6006811061145857611458611434565b9052565b602081526bffffffffffffffffffffffff82511660208201526001600160a01b036020830151166040820152604082015160608201525f60608301516114aa608084018263ffffffff169052565b50608083015163ffffffff811660a08401525060a083015163ffffffff811660c08401525060c08301516114e160e0840182611448565b5060e0830151610100808401526106fd610120840182611172565b5f5f5f5f6080858703121561150f575f5ffd5b843561151a81610daa565b935060208501359250604085013561153181610daa565b9150606085013567ffffffffffffffff81111561154c575f5ffd5b8501601f8101871361155c575f5ffd5b803567ffffffffffffffff81111561157657611576610ed6565b611589601f8201601f1916602001610f37565b81815288602083850101111561159d575f5ffd5b816020840160208301375f6020838301015280935050505092959194509250565b5f5f5f5f5f60a086880312156115d2575f5ffd5b85356115dd81610daa565b945060208601359350604086013567ffffffffffffffff8111156115ff575f5ffd5b61160b8882890161121e565b935050606086013567ffffffffffffffff811115611627575f5ffd5b61163388828901611282565b92505060808601356116448161120d565b809150509295509295909350565b805161165d8161120d565b919050565b805161165d81610ffe565b5f5f6040838503121561167e575f5ffd5b8251602084015190925067ffffffffffffffff81111561169c575f5ffd5b8301601f810185136116ac575f5ffd5b80516116ba610fa882610f68565b8082825260208201915060208360061b8501019250878311156116db575f5ffd5b6020840193505b8284101561173857604084890312156116f9575f5ffd5b611701610eea565b845161170c8161120d565b8152602085015161171c81610ffe565b80602083015250808352506020820191506040840193506116e2565b809450505050509250929050565b805161165d81610daa565b5f5f60408385031215611762575f5ffd5b8251602084015190925067ffffffffffffffff811115611780575f5ffd5b8301601f81018513611790575f5ffd5b805161179e610fa882610f68565b8082825260208201915060208360051b8501019250878311156117bf575f5ffd5b6020840193505b828410156117385783516117d981610daa565b8252602093840193909101906117c6565b606081525f6117fc6060830186610e85565b82810360208401528085518083526020830191506020870192505f5b818110156118445783516bffffffffffffffffffffffff16835260209384019390920191600101611818565b505060409390930193909352509392505050565b5f60208284031215611868575f5ffd5b815161077a816110e5565b5f60208284031215611883575f5ffd5b5051919050565b604081016002841061189e5761189e611434565b9281526020015290565b5f82601f8301126118b7575f5ffd5b81516118c5610fa882610f68565b8082825260208201915060208360051b8601019250858311156118e6575f5ffd5b602085015b83811015610ff45780516118fe8161120d565b8352602092830192016118eb565b5f5f6040838503121561191d575f5ffd5b8251602084015190925067ffffffffffffffff81111561193b575f5ffd5b611947858286016118a8565b9150509250929050565b5f5f60408385031215611962575f5ffd5b825161196d816110e5565b6020939093015192949293505050565b5f5f6040838503121561198e575f5ffd5b8251602084015190925067ffffffffffffffff8111156119ac575f5ffd5b8301601f810185136119bc575f5ffd5b80516119ca610fa882610f68565b8082825260208201915060208360051b8501019250878311156119eb575f5ffd5b6020840193505b828410156117385783518252602093840193909101906119f2565b6001600160a01b038716815285602082015260c060408201525f611a3460c0830187611172565b8281036060840152611a468187610df3565b63ffffffff959095166080840152505060a00152949350505050565b6001600160a01b0385168152836020820152608060408201525f611a896080830185610e85565b8281036060840152610aa48185611172565b80516006811061165d575f5ffd5b5f60208284031215611ab9575f5ffd5b815167ffffffffffffffff811115611acf575f5ffd5b82016101008185031215611ae1575f5ffd5b611ae9610f13565b611af282611662565b8152611b0060208301611746565b602082015260408281015190820152611b1b60608301611652565b6060820152611b2c60808301611652565b6080820152611b3d60a08301611652565b60a0820152611b4e60c08301611a9b565b60c082015260e082015167ffffffffffffffff811115611b6c575f5ffd5b611b78868285016118a8565b60e083015250949350505050565b6001600160a01b03851681528360208201526001600160a01b0383166040820152608060608201525f8251806080840152806020850160a085015e5f60a0828501015260a0601f19601f83011684010191505095945050505050565b5f60208284031215611bf2575f5ffd5b815161077a81610daa565b6001600160a01b038616815284602082015260a060408201525f611c2460a0830186611172565b8281036060840152611c368186610df3565b91505063ffffffff83166080830152969550505050505056fea264697066735822122012bcd2f36a2db0e3835d760a4077f3b07c0e4401827b38248fd4ed38f51e77e364736f6c634300081c0033",
  "linkReferences": {},
  "deployedLinkReferences": {}
}