{
  "_format": "hh-sol-artifact-1",
  "contractName": "ModuleManager",
  "sourceName": "@gnosis.pm/safe-contracts/contracts/base/ModuleManager.sol",
  "abi": [
    {
      "anonymous": false,
      "inputs": [
        {
          "indexed": false,
          "internalType": "address",
          "name": "module",
          "type": "address"
        }
      ],
      "name": "DisabledModule",
      "type": "event"
    },
    {
      "anonymous": false,
      "inputs": [
        {
          "indexed": false,
          "internalType": "address",
          "name": "module",
          "type": "address"
        }
      ],
      "name": "EnabledModule",
      "type": "event"
    },
    {
      "anonymous": false,
      "inputs": [
        {
          "indexed": true,
          "internalType": "address",
          "name": "module",
          "type": "address"
        }
      ],
      "name": "ExecutionFromModuleFailure",
      "type": "event"
    },
    {
      "anonymous": false,
      "inputs": [
        {
          "indexed": true,
          "internalType": "address",
          "name": "module",
          "type": "address"
        }
      ],
      "name": "ExecutionFromModuleSuccess",
      "type": "event"
    },
    {
      "inputs": [
        {
          "internalType": "address",
          "name": "prevModule",
          "type": "address"
        },
        {
          "internalType": "address",
          "name": "module",
          "type": "address"
        }
      ],
      "name": "disableModule",
      "outputs": [],
      "stateMutability": "nonpayable",
      "type": "function"
    },
    {
      "inputs": [
        {
          "internalType": "address",
          "name": "module",
          "type": "address"
        }
      ],
      "name": "enableModule",
      "outputs": [],
      "stateMutability": "nonpayable",
      "type": "function"
    },
    {
      "inputs": [
        {
          "internalType": "address",
          "name": "to",
          "type": "address"
        },
        {
          "internalType": "uint256",
          "name": "value",
          "type": "uint256"
        },
        {
          "internalType": "bytes",
          "name": "data",
          "type": "bytes"
        },
        {
          "internalType": "enum Enum.Operation",
          "name": "operation",
          "type": "uint8"
        }
      ],
      "name": "execTransactionFromModule",
      "outputs": [
        {
          "internalType": "bool",
          "name": "success",
          "type": "bool"
        }
      ],
      "stateMutability": "nonpayable",
      "type": "function"
    },
    {
      "inputs": [
        {
          "internalType": "address",
          "name": "to",
          "type": "address"
        },
        {
          "internalType": "uint256",
          "name": "value",
          "type": "uint256"
        },
        {
          "internalType": "bytes",
          "name": "data",
          "type": "bytes"
        },
        {
          "internalType": "enum Enum.Operation",
          "name": "operation",
          "type": "uint8"
        }
      ],
      "name": "execTransactionFromModuleReturnData",
      "outputs": [
        {
          "internalType": "bool",
          "name": "success",
          "type": "bool"
        },
        {
          "internalType": "bytes",
          "name": "returnData",
          "type": "bytes"
        }
      ],
      "stateMutability": "nonpayable",
      "type": "function"
    },
    {
      "inputs": [
        {
          "internalType": "address",
          "name": "start",
          "type": "address"
        },
        {
          "internalType": "uint256",
          "name": "pageSize",
          "type": "uint256"
        }
      ],
      "name": "getModulesPaginated",
      "outputs": [
        {
          "internalType": "address[]",
          "name": "array",
          "type": "address[]"
        },
        {
          "internalType": "address",
          "name": "next",
          "type": "address"
        }
      ],
      "stateMutability": "view",
      "type": "function"
    },
    {
      "inputs": [
        {
          "internalType": "address",
          "name": "module",
          "type": "address"
        }
      ],
      "name": "isModuleEnabled",
      "outputs": [
        {
          "internalType": "bool",
          "name": "",
          "type": "bool"
        }
      ],
      "stateMutability": "view",
      "type": "function"
    }
  ],
  "bytecode": "0x6080604052348015600e575f5ffd5b506109048061001c5f395ff3fe608060405234801561000f575f5ffd5b506004361061006f575f3560e01c8063610b59251161004d578063610b5925146100cf578063cc2f8452146100e4578063e009cfde14610105575f5ffd5b80632d9ad53d14610073578063468721a71461009b5780635229073f146100ae575b5f5ffd5b61008661008136600461066d565b610118565b60405190151581526020015b60405180910390f35b6100866100a93660046106af565b610151565b6100c16100bc3660046106af565b610229565b60405161009292919061078c565b6100e26100dd36600461066d565b61025d565b005b6100f76100f23660046107ca565b6103a8565b6040516100929291906107f2565b6100e2610113366004610851565b61049e565b5f60016001600160a01b0383161480159061014b57506001600160a01b038281165f908152602081905260409020541615155b92915050565b5f336001148015906101795750335f908152602081905260409020546001600160a01b031615155b6101b25760405162461bcd60e51b815260206004820152600560248201526411d4cc4c0d60da1b60448201526064015b60405180910390fd5b6101bf858585855a6105d5565b905080156101f65760405133907f6895c13664aa4f67288b25d7a21d7aaa34916e355fb9b6fae0a139a9085becb8905f90a2610221565b60405133907facd2c8702804128fdb0db2bb49f6d127dd0181c13fd45dbfe16de0930e2bd375905f90a25b949350505050565b5f606061023886868686610151565b915060405160203d0181016040523d81523d5f602083013e8091505094509492505050565b610265610619565b6001600160a01b0381161580159061028757506001600160a01b038116600114155b6102bb5760405162461bcd60e51b8152602060048201526005602482015264475331303160d81b60448201526064016101a9565b6001600160a01b038181165f90815260208190526040902054161561030a5760405162461bcd60e51b815260206004820152600560248201526423a998981960d91b60448201526064016101a9565b5f60208181527fada5013122d395ba3c54772283fb069b10426056ef8ca54750cb9bb552a59e7d80546001600160a01b03858116808652604080872080549390941673ffffffffffffffffffffffffffffffffffffffff199384161790935560019095528254168417909155519182527fecdf3a3effea5783a3c4c2140e677577666428d44ed9d474a0b3a4c9943f8440910160405180910390a150565b60605f8267ffffffffffffffff8111156103c4576103c461068d565b6040519080825280602002602001820160405280156103ed578160200160208202803683370190505b506001600160a01b038086165f9081526020819052604081205492945091165b6001600160a01b0381161580159061042f57506001600160a01b038116600114155b801561043a57508482105b15610490578084838151811061045257610452610882565b6001600160a01b039283166020918202929092018101919091529181165f90815291829052604090912054168161048881610896565b92505061040d565b908352919491935090915050565b6104a6610619565b6001600160a01b038116158015906104c857506001600160a01b038116600114155b6104fc5760405162461bcd60e51b8152602060048201526005602482015264475331303160d81b60448201526064016101a9565b6001600160a01b038281165f9081526020819052604090205481169082161461054f5760405162461bcd60e51b8152602060048201526005602482015264475331303360d81b60448201526064016101a9565b6001600160a01b038181165f818152602081815260408083208054888716855282852080549190971673ffffffffffffffffffffffffffffffffffffffff199182161790965592849052825490941690915591519081527faab4fa2b463f581b2b32cb3b7e3b704b9ce37cc209b5fb4d77e593ace4054276910160405180910390a15050565b5f60018360018111156105ea576105ea6108ba565b03610601575f5f8551602087018986f49050610610565b5f5f855160208701888a87f190505b95945050505050565b3330146106505760405162461bcd60e51b8152602060048201526005602482015264475330333160d81b60448201526064016101a9565b565b80356001600160a01b0381168114610668575f5ffd5b919050565b5f6020828403121561067d575f5ffd5b61068682610652565b9392505050565b634e487b7160e01b5f52604160045260245ffd5b803560028110610668575f5ffd5b5f5f5f5f608085870312156106c2575f5ffd5b6106cb85610652565b935060208501359250604085013567ffffffffffffffff8111156106ed575f5ffd5b8501601f810187136106fd575f5ffd5b803567ffffffffffffffff8111156107175761071761068d565b604051601f8201601f19908116603f0116810167ffffffffffffffff811182821017156107465761074661068d565b60405281815282820160200189101561075d575f5ffd5b816020840160208301375f60208383010152809450505050610781606086016106a1565b905092959194509250565b8215158152604060208201525f82518060408401528060208501606085015e5f606082850101526060601f19601f8301168401019150509392505050565b5f5f604083850312156107db575f5ffd5b6107e483610652565b946020939093013593505050565b604080825283519082018190525f9060208501906060840190835b818110156108345783516001600160a01b031683526020938401939092019160010161080d565b505080925050506001600160a01b03831660208301529392505050565b5f5f60408385031215610862575f5ffd5b61086b83610652565b915061087960208401610652565b90509250929050565b634e487b7160e01b5f52603260045260245ffd5b5f600182016108b357634e487b7160e01b5f52601160045260245ffd5b5060010190565b634e487b7160e01b5f52602160045260245ffdfea26469706673582212203220634329e03cf214c200dc99762d8319cf5cddc4d578037324c11aa26e5eb464736f6c634300081c0033",
  "linkReferences": {},
  "deployedLinkReferences": {}
}