{
  "_format": "hh-sol-artifact-1",
  "contractName": "ReentrancyStakingAttacker",
  "sourceName": "contracts/test/ReentrancyStakingAttacker.sol",
  "abi": [
    {
      "inputs": [
        {
          "internalType": "address",
          "name": "_serviceStaking",
          "type": "address"
        },
        {
          "internalType": "address",
          "name": "_serviceRegistry",
          "type": "address"
        }
      ],
      "stateMutability": "nonpayable",
      "type": "constructor"
    },
    {
      "inputs": [],
      "name": "attack",
      "outputs": [
        {
          "internalType": "bool",
          "name": "",
          "type": "bool"
        }
      ],
      "stateMutability": "view",
      "type": "function"
    },
    {
      "inputs": [
        {
          "internalType": "uint256",
          "name": "serviceId",
          "type": "uint256"
        }
      ],
      "name": "checkpointAndClaim",
      "outputs": [],
      "stateMutability": "nonpayable",
      "type": "function"
    },
    {
      "inputs": [],
      "name": "getOwners",
      "outputs": [
        {
          "internalType": "address[]",
          "name": "",
          "type": "address[]"
        }
      ],
      "stateMutability": "view",
      "type": "function"
    },
    {
      "inputs": [],
      "name": "getThreshold",
      "outputs": [
        {
          "internalType": "uint256",
          "name": "",
          "type": "uint256"
        }
      ],
      "stateMutability": "view",
      "type": "function"
    },
    {
      "inputs": [],
      "name": "inceraseNonce",
      "outputs": [],
      "stateMutability": "nonpayable",
      "type": "function"
    },
    {
      "inputs": [],
      "name": "localServiceId",
      "outputs": [
        {
          "internalType": "uint256",
          "name": "",
          "type": "uint256"
        }
      ],
      "stateMutability": "view",
      "type": "function"
    },
    {
      "inputs": [],
      "name": "nonce",
      "outputs": [
        {
          "internalType": "uint256",
          "name": "",
          "type": "uint256"
        }
      ],
      "stateMutability": "view",
      "type": "function"
    },
    {
      "inputs": [
        {
          "internalType": "address",
          "name": "",
          "type": "address"
        },
        {
          "internalType": "address",
          "name": "",
          "type": "address"
        },
        {
          "internalType": "uint256",
          "name": "serviceId",
          "type": "uint256"
        },
        {
          "internalType": "bytes",
          "name": "",
          "type": "bytes"
        }
      ],
      "name": "onERC721Received",
      "outputs": [
        {
          "internalType": "bytes4",
          "name": "",
          "type": "bytes4"
        }
      ],
      "stateMutability": "nonpayable",
      "type": "function"
    },
    {
      "inputs": [
        {
          "internalType": "uint256",
          "name": "",
          "type": "uint256"
        }
      ],
      "name": "owners",
      "outputs": [
        {
          "internalType": "address",
          "name": "",
          "type": "address"
        }
      ],
      "stateMutability": "view",
      "type": "function"
    },
    {
      "inputs": [],
      "name": "serviceRegistry",
      "outputs": [
        {
          "internalType": "address",
          "name": "",
          "type": "address"
        }
      ],
      "stateMutability": "view",
      "type": "function"
    },
    {
      "inputs": [],
      "name": "serviceStaking",
      "outputs": [
        {
          "internalType": "address",
          "name": "",
          "type": "address"
        }
      ],
      "stateMutability": "view",
      "type": "function"
    },
    {
      "inputs": [
        {
          "internalType": "bool",
          "name": "status",
          "type": "bool"
        }
      ],
      "name": "setAttack",
      "outputs": [],
      "stateMutability": "nonpayable",
      "type": "function"
    },
    {
      "inputs": [
        {
          "internalType": "address",
          "name": "owner",
          "type": "address"
        }
      ],
      "name": "setOwner",
      "outputs": [],
      "stateMutability": "nonpayable",
      "type": "function"
    },
    {
      "inputs": [
        {
          "internalType": "uint256",
          "name": "serviceId",
          "type": "uint256"
        }
      ],
      "name": "stake",
      "outputs": [],
      "stateMutability": "nonpayable",
      "type": "function"
    },
    {
      "inputs": [
        {
          "internalType": "uint256",
          "name": "serviceId",
          "type": "uint256"
        }
      ],
      "name": "stakeAndCheckpoint",
      "outputs": [],
      "stateMutability": "nonpayable",
      "type": "function"
    },
    {
      "inputs": [
        {
          "internalType": "uint256",
          "name": "serviceId",
          "type": "uint256"
        }
      ],
      "name": "unstake",
      "outputs": [],
      "stateMutability": "nonpayable",
      "type": "function"
    },
    {
      "stateMutability": "payable",
      "type": "receive"
    }
  ],
  "bytecode": "0x60c06040525f805460ff1916600117905534801561001b575f5ffd5b50604051610d9e380380610d9e83398101604081905261003a9161006c565b6001600160a01b039182166080521660a05261009d565b80516001600160a01b0381168114610067575f5ffd5b919050565b5f5f6040838503121561007d575f5ffd5b61008683610051565b915061009460208401610051565b90509250929050565b60805160a051610c9361010b5f395f8181610403015281816106c501526107da01525f818161011b01528181610340015281816104a10152818161053c015281816105ce0152818161069601528181610730015281816107ab0152818161084501526108a80152610c935ff3fe6080604052600436106100f2575f3560e01c80638215fed111610087578063affed0e011610057578063affed0e0146103de578063cbcf252a146103f2578063d69eed8b14610425578063e75235b814610444575f5ffd5b80638215fed1146103625780639e5faafc14610376578063a0e67e2b1461039e578063a694fc3a146103bf575f5ffd5b80633c0376f5116100c25780633c0376f5146102c157806353016f9d146102ed578063546af2e0146103105780635f4dbb161461032f575f5ffd5b8063025e7c271461019357806313af4035146101cf578063150b7a02146102525780632e17de78146102a2575f5ffd5b3661018f575f5460ff161561018f576003546040516302a3579760e51b815260048101919091527f00000000000000000000000000000000000000000000000000000000000000006001600160a01b03169063546af2e0906024016020604051808303815f875af1158015610169573d5f5f3e3d5ffd5b505050506040513d601f19601f8201168201806040525081019061018d9190610929565b005b5f5ffd5b34801561019e575f5ffd5b506101b26101ad366004610940565b610458565b6040516001600160a01b0390911681526020015b60405180910390f35b3480156101da575f5ffd5b5061018d6101e9366004610972565b600280546001810182555f919091527f405787fa12a823e0f2b7631cc41b3ba8828b3321ca811111fa75cd3aa3bb5ace0180547fffffffffffffffffffffffff0000000000000000000000000000000000000000166001600160a01b0392909216919091179055565b34801561025d575f5ffd5b5061027161026c3660046109d7565b610480565b6040517fffffffff0000000000000000000000000000000000000000000000000000000090911681526020016101c6565b3480156102ad575f5ffd5b5061018d6102bc366004610940565b610526565b3480156102cc575f5ffd5b5061018d6102db366004610a95565b5f805460ff1916911515919091179055565b3480156102f8575f5ffd5b5061030260035481565b6040519081526020016101c6565b34801561031b575f5ffd5b5061018d61032a366004610940565b6105b3565b34801561033a575f5ffd5b506101b27f000000000000000000000000000000000000000000000000000000000000000081565b34801561036d575f5ffd5b5061018d610605565b348015610381575f5ffd5b505f5461038e9060ff1681565b60405190151581526020016101c6565b3480156103a9575f5ffd5b506103b261061f565b6040516101c69190610ab4565b3480156103ca575f5ffd5b5061018d6103d9366004610940565b61067f565b3480156103e9575f5ffd5b50600154610302565b3480156103fd575f5ffd5b506101b27f000000000000000000000000000000000000000000000000000000000000000081565b348015610430575f5ffd5b5061018d61043f366004610940565b610794565b34801561044f575f5ffd5b50600254610302565b60028181548110610467575f80fd5b5f918252602090912001546001600160a01b0316905081565b5f805460ff1615610515576040516305c2fbcf60e31b8152600481018490527f00000000000000000000000000000000000000000000000000000000000000006001600160a01b031690632e17de78906024016020604051808303815f875af11580156104ef573d5f5f3e3d5ffd5b505050506040513d601f19601f820116820180604052508101906105139190610929565b505b50630a85bd0160e11b949350505050565b6040516305c2fbcf60e31b8152600481018290527f00000000000000000000000000000000000000000000000000000000000000006001600160a01b031690632e17de78906024015b6020604051808303815f875af115801561058b573d5f5f3e3d5ffd5b505050506040513d601f19601f820116820180604052508101906105af9190610929565b5050565b60038190556040516302a3579760e51b8152600481018290527f00000000000000000000000000000000000000000000000000000000000000006001600160a01b03169063546af2e09060240161056f565b6103e860015f8282546106189190610aff565b9091555050565b6060600280548060200260200160405190810160405280929190818152602001828054801561067557602002820191905f5260205f20905b81546001600160a01b03168152600190910190602001808311610657575b5050505050905090565b60405163095ea7b360e01b81526001600160a01b037f000000000000000000000000000000000000000000000000000000000000000081166004830152602482018390527f0000000000000000000000000000000000000000000000000000000000000000169063095ea7b3906044015f604051808303815f87803b158015610706575f5ffd5b505af1158015610718573d5f5f3e3d5ffd5b505060405163534a7e1d60e11b8152600481018490527f00000000000000000000000000000000000000000000000000000000000000006001600160a01b0316925063a694fc3a91506024015f604051808303815f87803b15801561077b575f5ffd5b505af115801561078d573d5f5f3e3d5ffd5b5050505050565b60405163095ea7b360e01b81526001600160a01b037f000000000000000000000000000000000000000000000000000000000000000081166004830152602482018390527f0000000000000000000000000000000000000000000000000000000000000000169063095ea7b3906044015f604051808303815f87803b15801561081b575f5ffd5b505af115801561082d573d5f5f3e3d5ffd5b505060405163534a7e1d60e11b8152600481018490527f00000000000000000000000000000000000000000000000000000000000000006001600160a01b0316925063a694fc3a91506024015f604051808303815f87803b158015610890575f5ffd5b505af11580156108a2573d5f5f3e3d5ffd5b505050507f00000000000000000000000000000000000000000000000000000000000000006001600160a01b031663c2c4c5c16040518163ffffffff1660e01b81526004015f604051808303815f875af1158015610902573d5f5f3e3d5ffd5b505050506040513d5f823e601f3d908101601f1916820160405261078d9190810190610ba4565b5f60208284031215610939575f5ffd5b5051919050565b5f60208284031215610950575f5ffd5b5035919050565b80356001600160a01b038116811461096d575f5ffd5b919050565b5f60208284031215610982575f5ffd5b61098b82610957565b9392505050565b634e487b7160e01b5f52604160045260245ffd5b604051601f8201601f1916810167ffffffffffffffff811182821017156109cf576109cf610992565b604052919050565b5f5f5f5f608085870312156109ea575f5ffd5b6109f385610957565b9350610a0160208601610957565b925060408501359150606085013567ffffffffffffffff811115610a23575f5ffd5b8501601f81018713610a33575f5ffd5b803567ffffffffffffffff811115610a4d57610a4d610992565b610a60601f8201601f19166020016109a6565b818152886020838501011115610a74575f5ffd5b816020840160208301375f6020838301015280935050505092959194509250565b5f60208284031215610aa5575f5ffd5b8135801515811461098b575f5ffd5b602080825282518282018190525f918401906040840190835b81811015610af45783516001600160a01b0316835260209384019390920191600101610acd565b509095945050505050565b80820180821115610b1e57634e487b7160e01b5f52601160045260245ffd5b92915050565b5f82601f830112610b33575f5ffd5b815167ffffffffffffffff811115610b4d57610b4d610992565b8060051b610b5d602082016109a6565b91825260208185018101929081019086841115610b78575f5ffd5b6020860192505b83831015610b9a578251825260209283019290910190610b7f565b9695505050505050565b5f5f5f5f60808587031215610bb7575f5ffd5b845167ffffffffffffffff811115610bcd575f5ffd5b610bd987828801610b24565b945050602085015167ffffffffffffffff811115610bf5575f5ffd5b610c0187828801610b24565b935050604085015167ffffffffffffffff811115610c1d575f5ffd5b610c2987828801610b24565b925050606085015167ffffffffffffffff811115610c45575f5ffd5b610c5187828801610b24565b9150509295919450925056fea264697066735822122066f4713d45ff202e8949a276f737a34fb1b485dc6aeb5c231ce8154ade8dab8b64736f6c634300081c0033",
  "linkReferences": {},
  "deployedLinkReferences": {}
}