{
  "_format": "hh-sol-artifact-1",
  "contractName": "GuardManager",
  "sourceName": "@gnosis.pm/safe-contracts/contracts/base/GuardManager.sol",
  "abi": [
    {
      "anonymous": false,
      "inputs": [
        {
          "indexed": false,
          "internalType": "address",
          "name": "guard",
          "type": "address"
        }
      ],
      "name": "ChangedGuard",
      "type": "event"
    },
    {
      "inputs": [
        {
          "internalType": "address",
          "name": "guard",
          "type": "address"
        }
      ],
      "name": "setGuard",
      "outputs": [],
      "stateMutability": "nonpayable",
      "type": "function"
    }
  ],
  "bytecode": "0x6080604052348015600e575f5ffd5b506101688061001c5f395ff3fe608060405234801561000f575f5ffd5b5060043610610029575f3560e01c8063e19a9dd91461002d575b5f5ffd5b61004061003b3660046100f8565b610042565b005b61004a6100bb565b7f4a204f620c8c5ccdca3fd54d003badd85ba500436a431f0cbda4f558c93c34c881815560405173ffffffffffffffffffffffffffffffffffffffff831681527f1151116914515bc0891ff9047a6cb32cf902546f83066499bcf8ba33d2353fa29060200160405180910390a15050565b3330146100f65760405162461bcd60e51b8152602060048201526005602482015264475330333160d81b604482015260640160405180910390fd5b565b5f60208284031215610108575f5ffd5b813573ffffffffffffffffffffffffffffffffffffffff8116811461012b575f5ffd5b939250505056fea26469706673582212209a177c090d812b74581d48aaa87af666032688f002300cf1ce58b910c414e79b64736f6c634300081c0033",
  "linkReferences": {},
  "deployedLinkReferences": {}
}