{
  "_format": "hh-sol-artifact-1",
  "contractName": "FallbackManager",
  "sourceName": "@gnosis.pm/safe-contracts/contracts/base/FallbackManager.sol",
  "abi": [
    {
      "anonymous": false,
      "inputs": [
        {
          "indexed": false,
          "internalType": "address",
          "name": "handler",
          "type": "address"
        }
      ],
      "name": "ChangedFallbackHandler",
      "type": "event"
    },
    {
      "stateMutability": "nonpayable",
      "type": "fallback"
    },
    {
      "inputs": [
        {
          "internalType": "address",
          "name": "handler",
          "type": "address"
        }
      ],
      "name": "setFallbackHandler",
      "outputs": [],
      "stateMutability": "nonpayable",
      "type": "function"
    }
  ],
  "bytecode": "0x6080604052348015600e575f5ffd5b506101ba8061001c5f395ff3fe608060405234801561000f575f5ffd5b5060043610610029575f3560e01c8063f08a03231461007c575b7f6c9a6c4a39284e37ed1cf53d337577d14212a4870fb976a4366c693b939918d580548061005357005b365f5f373360601b36525f5f601436015f5f855af190503d5f5f3e80610077573d5ffd5b503d5ff35b61008f61008a36600461014a565b610091565b005b61009961010d565b6100c1817f6c9a6c4a39284e37ed1cf53d337577d14212a4870fb976a4366c693b939918d555565b60405173ffffffffffffffffffffffffffffffffffffffff821681527f5ac6c46c93c8d0e53714ba3b53db3e7c046da994313d7ed0d192028bc7c228b09060200160405180910390a150565b3330146101485760405162461bcd60e51b8152602060048201526005602482015264475330333160d81b604482015260640160405180910390fd5b565b5f6020828403121561015a575f5ffd5b813573ffffffffffffffffffffffffffffffffffffffff8116811461017d575f5ffd5b939250505056fea264697066735822122081f91c450de721526fe21784a747268455f562cb1c77150e0dde04e8a477161c64736f6c634300081c0033",
  "linkReferences": {},
  "deployedLinkReferences": {}
}