{
  "_format": "hh-sol-artifact-1",
  "contractName": "ServiceRegistry",
  "sourceName": "contracts/ServiceRegistry.sol",
  "abi": [
    {
      "inputs": [
        {
          "internalType": "string",
          "name": "_name",
          "type": "string"
        },
        {
          "internalType": "string",
          "name": "_symbol",
          "type": "string"
        },
        {
          "internalType": "string",
          "name": "_baseURI",
          "type": "string"
        },
        {
          "internalType": "address",
          "name": "_agentRegistry",
          "type": "address"
        }
      ],
      "stateMutability": "nonpayable",
      "type": "constructor"
    },
    {
      "inputs": [
        {
          "internalType": "address",
          "name": "operator",
          "type": "address"
        }
      ],
      "name": "AgentInstanceRegistered",
      "type": "error"
    },
    {
      "inputs": [
        {
          "internalType": "uint256",
          "name": "serviceId",
          "type": "uint256"
        }
      ],
      "name": "AgentInstancesSlotsFilled",
      "type": "error"
    },
    {
      "inputs": [
        {
          "internalType": "uint256",
          "name": "agentId",
          "type": "uint256"
        }
      ],
      "name": "AgentNotFound",
      "type": "error"
    },
    {
      "inputs": [
        {
          "internalType": "uint256",
          "name": "agentId",
          "type": "uint256"
        },
        {
          "internalType": "uint256",
          "name": "serviceId",
          "type": "uint256"
        }
      ],
      "name": "AgentNotInService",
      "type": "error"
    },
    {
      "inputs": [
        {
          "internalType": "uint256",
          "name": "componentId",
          "type": "uint256"
        }
      ],
      "name": "ComponentNotFound",
      "type": "error"
    },
    {
      "inputs": [],
      "name": "HashExists",
      "type": "error"
    },
    {
      "inputs": [
        {
          "internalType": "uint256",
          "name": "sent",
          "type": "uint256"
        },
        {
          "internalType": "uint256",
          "name": "expected",
          "type": "uint256"
        },
        {
          "internalType": "uint256",
          "name": "serviceId",
          "type": "uint256"
        }
      ],
      "name": "IncorrectAgentBondingValue",
      "type": "error"
    },
    {
      "inputs": [
        {
          "internalType": "uint256",
          "name": "sent",
          "type": "uint256"
        },
        {
          "internalType": "uint256",
          "name": "expected",
          "type": "uint256"
        },
        {
          "internalType": "uint256",
          "name": "serviceId",
          "type": "uint256"
        }
      ],
      "name": "IncorrectRegistrationDepositValue",
      "type": "error"
    },
    {
      "inputs": [
        {
          "internalType": "address",
          "name": "sender",
          "type": "address"
        },
        {
          "internalType": "address",
          "name": "manager",
          "type": "address"
        }
      ],
      "name": "ManagerOnly",
      "type": "error"
    },
    {
      "inputs": [
        {
          "internalType": "address",
          "name": "provided",
          "type": "address"
        },
        {
          "internalType": "address",
          "name": "expected",
          "type": "address"
        },
        {
          "internalType": "uint256",
          "name": "serviceId",
          "type": "uint256"
        }
      ],
      "name": "OnlyOwnServiceMultisig",
      "type": "error"
    },
    {
      "inputs": [
        {
          "internalType": "address",
          "name": "operator",
          "type": "address"
        },
        {
          "internalType": "uint256",
          "name": "serviceId",
          "type": "uint256"
        }
      ],
      "name": "OperatorHasNoInstances",
      "type": "error"
    },
    {
      "inputs": [
        {
          "internalType": "uint256",
          "name": "provided",
          "type": "uint256"
        },
        {
          "internalType": "uint256",
          "name": "max",
          "type": "uint256"
        }
      ],
      "name": "Overflow",
      "type": "error"
    },
    {
      "inputs": [
        {
          "internalType": "address",
          "name": "sender",
          "type": "address"
        },
        {
          "internalType": "address",
          "name": "owner",
          "type": "address"
        }
      ],
      "name": "OwnerOnly",
      "type": "error"
    },
    {
      "inputs": [],
      "name": "Paused",
      "type": "error"
    },
    {
      "inputs": [],
      "name": "ReentrancyGuard",
      "type": "error"
    },
    {
      "inputs": [
        {
          "internalType": "uint256",
          "name": "serviceId",
          "type": "uint256"
        }
      ],
      "name": "ServiceMustBeInactive",
      "type": "error"
    },
    {
      "inputs": [
        {
          "internalType": "address",
          "name": "token",
          "type": "address"
        },
        {
          "internalType": "address",
          "name": "from",
          "type": "address"
        },
        {
          "internalType": "address",
          "name": "to",
          "type": "address"
        },
        {
          "internalType": "uint256",
          "name": "value",
          "type": "uint256"
        }
      ],
      "name": "TransferFailed",
      "type": "error"
    },
    {
      "inputs": [
        {
          "internalType": "address",
          "name": "multisig",
          "type": "address"
        }
      ],
      "name": "UnauthorizedMultisig",
      "type": "error"
    },
    {
      "inputs": [
        {
          "internalType": "uint256",
          "name": "agentId",
          "type": "uint256"
        }
      ],
      "name": "WrongAgentId",
      "type": "error"
    },
    {
      "inputs": [
        {
          "internalType": "uint256",
          "name": "numValues1",
          "type": "uint256"
        },
        {
          "internalType": "uint256",
          "name": "numValues2",
          "type": "uint256"
        }
      ],
      "name": "WrongArrayLength",
      "type": "error"
    },
    {
      "inputs": [
        {
          "internalType": "uint256",
          "name": "serviceId",
          "type": "uint256"
        }
      ],
      "name": "WrongOperator",
      "type": "error"
    },
    {
      "inputs": [
        {
          "internalType": "uint256",
          "name": "state",
          "type": "uint256"
        },
        {
          "internalType": "uint256",
          "name": "serviceId",
          "type": "uint256"
        }
      ],
      "name": "WrongServiceState",
      "type": "error"
    },
    {
      "inputs": [
        {
          "internalType": "uint256",
          "name": "currentThreshold",
          "type": "uint256"
        },
        {
          "internalType": "uint256",
          "name": "minThreshold",
          "type": "uint256"
        },
        {
          "internalType": "uint256",
          "name": "maxThreshold",
          "type": "uint256"
        }
      ],
      "name": "WrongThreshold",
      "type": "error"
    },
    {
      "inputs": [],
      "name": "ZeroAddress",
      "type": "error"
    },
    {
      "inputs": [],
      "name": "ZeroValue",
      "type": "error"
    },
    {
      "anonymous": false,
      "inputs": [
        {
          "indexed": true,
          "internalType": "uint256",
          "name": "serviceId",
          "type": "uint256"
        }
      ],
      "name": "ActivateRegistration",
      "type": "event"
    },
    {
      "anonymous": false,
      "inputs": [
        {
          "indexed": true,
          "internalType": "address",
          "name": "owner",
          "type": "address"
        },
        {
          "indexed": true,
          "internalType": "address",
          "name": "spender",
          "type": "address"
        },
        {
          "indexed": true,
          "internalType": "uint256",
          "name": "id",
          "type": "uint256"
        }
      ],
      "name": "Approval",
      "type": "event"
    },
    {
      "anonymous": false,
      "inputs": [
        {
          "indexed": true,
          "internalType": "address",
          "name": "owner",
          "type": "address"
        },
        {
          "indexed": true,
          "internalType": "address",
          "name": "operator",
          "type": "address"
        },
        {
          "indexed": false,
          "internalType": "bool",
          "name": "approved",
          "type": "bool"
        }
      ],
      "name": "ApprovalForAll",
      "type": "event"
    },
    {
      "anonymous": false,
      "inputs": [
        {
          "indexed": false,
          "internalType": "string",
          "name": "baseURI",
          "type": "string"
        }
      ],
      "name": "BaseURIChanged",
      "type": "event"
    },
    {
      "anonymous": false,
      "inputs": [
        {
          "indexed": true,
          "internalType": "uint256",
          "name": "serviceId",
          "type": "uint256"
        },
        {
          "indexed": true,
          "internalType": "address",
          "name": "multisig",
          "type": "address"
        }
      ],
      "name": "CreateMultisigWithAgents",
      "type": "event"
    },
    {
      "anonymous": false,
      "inputs": [
        {
          "indexed": true,
          "internalType": "uint256",
          "name": "serviceId",
          "type": "uint256"
        }
      ],
      "name": "CreateService",
      "type": "event"
    },
    {
      "anonymous": false,
      "inputs": [
        {
          "indexed": true,
          "internalType": "uint256",
          "name": "serviceId",
          "type": "uint256"
        }
      ],
      "name": "DeployService",
      "type": "event"
    },
    {
      "anonymous": false,
      "inputs": [
        {
          "indexed": true,
          "internalType": "address",
          "name": "sender",
          "type": "address"
        },
        {
          "indexed": false,
          "internalType": "uint256",
          "name": "amount",
          "type": "uint256"
        }
      ],
      "name": "Deposit",
      "type": "event"
    },
    {
      "anonymous": false,
      "inputs": [
        {
          "indexed": true,
          "internalType": "address",
          "name": "drainer",
          "type": "address"
        },
        {
          "indexed": false,
          "internalType": "uint256",
          "name": "amount",
          "type": "uint256"
        }
      ],
      "name": "Drain",
      "type": "event"
    },
    {
      "anonymous": false,
      "inputs": [
        {
          "indexed": true,
          "internalType": "address",
          "name": "drainer",
          "type": "address"
        }
      ],
      "name": "DrainerUpdated",
      "type": "event"
    },
    {
      "anonymous": false,
      "inputs": [
        {
          "indexed": true,
          "internalType": "address",
          "name": "manager",
          "type": "address"
        }
      ],
      "name": "ManagerUpdated",
      "type": "event"
    },
    {
      "anonymous": false,
      "inputs": [
        {
          "indexed": false,
          "internalType": "uint256",
          "name": "amount",
          "type": "uint256"
        },
        {
          "indexed": true,
          "internalType": "address",
          "name": "operator",
          "type": "address"
        },
        {
          "indexed": true,
          "internalType": "uint256",
          "name": "serviceId",
          "type": "uint256"
        }
      ],
      "name": "OperatorSlashed",
      "type": "event"
    },
    {
      "anonymous": false,
      "inputs": [
        {
          "indexed": true,
          "internalType": "address",
          "name": "operator",
          "type": "address"
        },
        {
          "indexed": true,
          "internalType": "uint256",
          "name": "serviceId",
          "type": "uint256"
        }
      ],
      "name": "OperatorUnbond",
      "type": "event"
    },
    {
      "anonymous": false,
      "inputs": [
        {
          "indexed": true,
          "internalType": "address",
          "name": "owner",
          "type": "address"
        }
      ],
      "name": "OwnerUpdated",
      "type": "event"
    },
    {
      "anonymous": false,
      "inputs": [
        {
          "indexed": true,
          "internalType": "address",
          "name": "receiver",
          "type": "address"
        },
        {
          "indexed": false,
          "internalType": "uint256",
          "name": "amount",
          "type": "uint256"
        }
      ],
      "name": "Refund",
      "type": "event"
    },
    {
      "anonymous": false,
      "inputs": [
        {
          "indexed": true,
          "internalType": "address",
          "name": "operator",
          "type": "address"
        },
        {
          "indexed": true,
          "internalType": "uint256",
          "name": "serviceId",
          "type": "uint256"
        },
        {
          "indexed": true,
          "internalType": "address",
          "name": "agentInstance",
          "type": "address"
        },
        {
          "indexed": false,
          "internalType": "uint256",
          "name": "agentId",
          "type": "uint256"
        }
      ],
      "name": "RegisterInstance",
      "type": "event"
    },
    {
      "anonymous": false,
      "inputs": [
        {
          "indexed": true,
          "internalType": "uint256",
          "name": "serviceId",
          "type": "uint256"
        }
      ],
      "name": "TerminateService",
      "type": "event"
    },
    {
      "anonymous": false,
      "inputs": [
        {
          "indexed": true,
          "internalType": "address",
          "name": "from",
          "type": "address"
        },
        {
          "indexed": true,
          "internalType": "address",
          "name": "to",
          "type": "address"
        },
        {
          "indexed": true,
          "internalType": "uint256",
          "name": "id",
          "type": "uint256"
        }
      ],
      "name": "Transfer",
      "type": "event"
    },
    {
      "anonymous": false,
      "inputs": [
        {
          "indexed": true,
          "internalType": "uint256",
          "name": "serviceId",
          "type": "uint256"
        },
        {
          "indexed": false,
          "internalType": "bytes32",
          "name": "configHash",
          "type": "bytes32"
        }
      ],
      "name": "UpdateService",
      "type": "event"
    },
    {
      "inputs": [],
      "name": "CID_PREFIX",
      "outputs": [
        {
          "internalType": "string",
          "name": "",
          "type": "string"
        }
      ],
      "stateMutability": "view",
      "type": "function"
    },
    {
      "inputs": [],
      "name": "VERSION",
      "outputs": [
        {
          "internalType": "string",
          "name": "",
          "type": "string"
        }
      ],
      "stateMutability": "view",
      "type": "function"
    },
    {
      "inputs": [
        {
          "internalType": "address",
          "name": "serviceOwner",
          "type": "address"
        },
        {
          "internalType": "uint256",
          "name": "serviceId",
          "type": "uint256"
        }
      ],
      "name": "activateRegistration",
      "outputs": [
        {
          "internalType": "bool",
          "name": "success",
          "type": "bool"
        }
      ],
      "stateMutability": "payable",
      "type": "function"
    },
    {
      "inputs": [],
      "name": "agentRegistry",
      "outputs": [
        {
          "internalType": "address",
          "name": "",
          "type": "address"
        }
      ],
      "stateMutability": "view",
      "type": "function"
    },
    {
      "inputs": [
        {
          "internalType": "address",
          "name": "spender",
          "type": "address"
        },
        {
          "internalType": "uint256",
          "name": "id",
          "type": "uint256"
        }
      ],
      "name": "approve",
      "outputs": [],
      "stateMutability": "nonpayable",
      "type": "function"
    },
    {
      "inputs": [
        {
          "internalType": "address",
          "name": "owner",
          "type": "address"
        }
      ],
      "name": "balanceOf",
      "outputs": [
        {
          "internalType": "uint256",
          "name": "",
          "type": "uint256"
        }
      ],
      "stateMutability": "view",
      "type": "function"
    },
    {
      "inputs": [],
      "name": "baseURI",
      "outputs": [
        {
          "internalType": "string",
          "name": "",
          "type": "string"
        }
      ],
      "stateMutability": "view",
      "type": "function"
    },
    {
      "inputs": [
        {
          "internalType": "address",
          "name": "newDrainer",
          "type": "address"
        }
      ],
      "name": "changeDrainer",
      "outputs": [],
      "stateMutability": "nonpayable",
      "type": "function"
    },
    {
      "inputs": [
        {
          "internalType": "address",
          "name": "newManager",
          "type": "address"
        }
      ],
      "name": "changeManager",
      "outputs": [],
      "stateMutability": "nonpayable",
      "type": "function"
    },
    {
      "inputs": [
        {
          "internalType": "address",
          "name": "multisig",
          "type": "address"
        },
        {
          "internalType": "bool",
          "name": "permission",
          "type": "bool"
        }
      ],
      "name": "changeMultisigPermission",
      "outputs": [
        {
          "internalType": "bool",
          "name": "success",
          "type": "bool"
        }
      ],
      "stateMutability": "nonpayable",
      "type": "function"
    },
    {
      "inputs": [
        {
          "internalType": "address",
          "name": "newOwner",
          "type": "address"
        }
      ],
      "name": "changeOwner",
      "outputs": [],
      "stateMutability": "nonpayable",
      "type": "function"
    },
    {
      "inputs": [
        {
          "internalType": "address",
          "name": "serviceOwner",
          "type": "address"
        },
        {
          "internalType": "bytes32",
          "name": "configHash",
          "type": "bytes32"
        },
        {
          "internalType": "uint32[]",
          "name": "agentIds",
          "type": "uint32[]"
        },
        {
          "components": [
            {
              "internalType": "uint32",
              "name": "slots",
              "type": "uint32"
            },
            {
              "internalType": "uint96",
              "name": "bond",
              "type": "uint96"
            }
          ],
          "internalType": "struct AgentParams[]",
          "name": "agentParams",
          "type": "tuple[]"
        },
        {
          "internalType": "uint32",
          "name": "threshold",
          "type": "uint32"
        }
      ],
      "name": "create",
      "outputs": [
        {
          "internalType": "uint256",
          "name": "serviceId",
          "type": "uint256"
        }
      ],
      "stateMutability": "nonpayable",
      "type": "function"
    },
    {
      "inputs": [
        {
          "internalType": "address",
          "name": "serviceOwner",
          "type": "address"
        },
        {
          "internalType": "uint256",
          "name": "serviceId",
          "type": "uint256"
        },
        {
          "internalType": "address",
          "name": "multisigImplementation",
          "type": "address"
        },
        {
          "internalType": "bytes",
          "name": "data",
          "type": "bytes"
        }
      ],
      "name": "deploy",
      "outputs": [
        {
          "internalType": "address",
          "name": "multisig",
          "type": "address"
        }
      ],
      "stateMutability": "nonpayable",
      "type": "function"
    },
    {
      "inputs": [],
      "name": "drain",
      "outputs": [
        {
          "internalType": "uint256",
          "name": "amount",
          "type": "uint256"
        }
      ],
      "stateMutability": "nonpayable",
      "type": "function"
    },
    {
      "inputs": [],
      "name": "drainer",
      "outputs": [
        {
          "internalType": "address",
          "name": "",
          "type": "address"
        }
      ],
      "stateMutability": "view",
      "type": "function"
    },
    {
      "inputs": [
        {
          "internalType": "uint256",
          "name": "unitId",
          "type": "uint256"
        }
      ],
      "name": "exists",
      "outputs": [
        {
          "internalType": "bool",
          "name": "",
          "type": "bool"
        }
      ],
      "stateMutability": "view",
      "type": "function"
    },
    {
      "inputs": [
        {
          "internalType": "uint256",
          "name": "serviceId",
          "type": "uint256"
        }
      ],
      "name": "getAgentInstances",
      "outputs": [
        {
          "internalType": "uint256",
          "name": "numAgentInstances",
          "type": "uint256"
        },
        {
          "internalType": "address[]",
          "name": "agentInstances",
          "type": "address[]"
        }
      ],
      "stateMutability": "view",
      "type": "function"
    },
    {
      "inputs": [
        {
          "internalType": "uint256",
          "name": "serviceId",
          "type": "uint256"
        }
      ],
      "name": "getAgentParams",
      "outputs": [
        {
          "internalType": "uint256",
          "name": "numAgentIds",
          "type": "uint256"
        },
        {
          "components": [
            {
              "internalType": "uint32",
              "name": "slots",
              "type": "uint32"
            },
            {
              "internalType": "uint96",
              "name": "bond",
              "type": "uint96"
            }
          ],
          "internalType": "struct AgentParams[]",
          "name": "agentParams",
          "type": "tuple[]"
        }
      ],
      "stateMutability": "view",
      "type": "function"
    },
    {
      "inputs": [
        {
          "internalType": "uint256",
          "name": "",
          "type": "uint256"
        }
      ],
      "name": "getApproved",
      "outputs": [
        {
          "internalType": "address",
          "name": "",
          "type": "address"
        }
      ],
      "stateMutability": "view",
      "type": "function"
    },
    {
      "inputs": [
        {
          "internalType": "uint256",
          "name": "serviceId",
          "type": "uint256"
        },
        {
          "internalType": "uint256",
          "name": "agentId",
          "type": "uint256"
        }
      ],
      "name": "getInstancesForAgentId",
      "outputs": [
        {
          "internalType": "uint256",
          "name": "numAgentInstances",
          "type": "uint256"
        },
        {
          "internalType": "address[]",
          "name": "agentInstances",
          "type": "address[]"
        }
      ],
      "stateMutability": "view",
      "type": "function"
    },
    {
      "inputs": [
        {
          "internalType": "address",
          "name": "operator",
          "type": "address"
        },
        {
          "internalType": "uint256",
          "name": "serviceId",
          "type": "uint256"
        }
      ],
      "name": "getOperatorBalance",
      "outputs": [
        {
          "internalType": "uint256",
          "name": "balance",
          "type": "uint256"
        }
      ],
      "stateMutability": "view",
      "type": "function"
    },
    {
      "inputs": [
        {
          "internalType": "uint256",
          "name": "serviceId",
          "type": "uint256"
        }
      ],
      "name": "getPreviousHashes",
      "outputs": [
        {
          "internalType": "uint256",
          "name": "numHashes",
          "type": "uint256"
        },
        {
          "internalType": "bytes32[]",
          "name": "configHashes",
          "type": "bytes32[]"
        }
      ],
      "stateMutability": "view",
      "type": "function"
    },
    {
      "inputs": [
        {
          "internalType": "uint256",
          "name": "serviceId",
          "type": "uint256"
        }
      ],
      "name": "getService",
      "outputs": [
        {
          "components": [
            {
              "internalType": "uint96",
              "name": "securityDeposit",
              "type": "uint96"
            },
            {
              "internalType": "address",
              "name": "multisig",
              "type": "address"
            },
            {
              "internalType": "bytes32",
              "name": "configHash",
              "type": "bytes32"
            },
            {
              "internalType": "uint32",
              "name": "threshold",
              "type": "uint32"
            },
            {
              "internalType": "uint32",
              "name": "maxNumAgentInstances",
              "type": "uint32"
            },
            {
              "internalType": "uint32",
              "name": "numAgentInstances",
              "type": "uint32"
            },
            {
              "internalType": "enum ServiceRegistry.ServiceState",
              "name": "state",
              "type": "uint8"
            },
            {
              "internalType": "uint32[]",
              "name": "agentIds",
              "type": "uint32[]"
            }
          ],
          "internalType": "struct ServiceRegistry.Service",
          "name": "service",
          "type": "tuple"
        }
      ],
      "stateMutability": "view",
      "type": "function"
    },
    {
      "inputs": [
        {
          "internalType": "enum IRegistry.UnitType",
          "name": "unitType",
          "type": "uint8"
        },
        {
          "internalType": "uint256",
          "name": "serviceId",
          "type": "uint256"
        }
      ],
      "name": "getUnitIdsOfService",
      "outputs": [
        {
          "internalType": "uint256",
          "name": "numUnitIds",
          "type": "uint256"
        },
        {
          "internalType": "uint32[]",
          "name": "unitIds",
          "type": "uint32[]"
        }
      ],
      "stateMutability": "view",
      "type": "function"
    },
    {
      "inputs": [
        {
          "internalType": "address",
          "name": "",
          "type": "address"
        },
        {
          "internalType": "address",
          "name": "",
          "type": "address"
        }
      ],
      "name": "isApprovedForAll",
      "outputs": [
        {
          "internalType": "bool",
          "name": "",
          "type": "bool"
        }
      ],
      "stateMutability": "view",
      "type": "function"
    },
    {
      "inputs": [],
      "name": "manager",
      "outputs": [
        {
          "internalType": "address",
          "name": "",
          "type": "address"
        }
      ],
      "stateMutability": "view",
      "type": "function"
    },
    {
      "inputs": [
        {
          "internalType": "address",
          "name": "",
          "type": "address"
        }
      ],
      "name": "mapAgentInstanceOperators",
      "outputs": [
        {
          "internalType": "address",
          "name": "",
          "type": "address"
        }
      ],
      "stateMutability": "view",
      "type": "function"
    },
    {
      "inputs": [
        {
          "internalType": "uint256",
          "name": "",
          "type": "uint256"
        },
        {
          "internalType": "uint256",
          "name": "",
          "type": "uint256"
        }
      ],
      "name": "mapConfigHashes",
      "outputs": [
        {
          "internalType": "bytes32",
          "name": "",
          "type": "bytes32"
        }
      ],
      "stateMutability": "view",
      "type": "function"
    },
    {
      "inputs": [
        {
          "internalType": "address",
          "name": "",
          "type": "address"
        }
      ],
      "name": "mapMultisigs",
      "outputs": [
        {
          "internalType": "bool",
          "name": "",
          "type": "bool"
        }
      ],
      "stateMutability": "view",
      "type": "function"
    },
    {
      "inputs": [
        {
          "internalType": "uint256",
          "name": "",
          "type": "uint256"
        },
        {
          "internalType": "uint256",
          "name": "",
          "type": "uint256"
        }
      ],
      "name": "mapOperatorAndServiceIdAgentInstances",
      "outputs": [
        {
          "internalType": "address",
          "name": "instance",
          "type": "address"
        },
        {
          "internalType": "uint32",
          "name": "agentId",
          "type": "uint32"
        }
      ],
      "stateMutability": "view",
      "type": "function"
    },
    {
      "inputs": [
        {
          "internalType": "uint256",
          "name": "",
          "type": "uint256"
        }
      ],
      "name": "mapOperatorAndServiceIdOperatorBalances",
      "outputs": [
        {
          "internalType": "uint96",
          "name": "",
          "type": "uint96"
        }
      ],
      "stateMutability": "view",
      "type": "function"
    },
    {
      "inputs": [
        {
          "internalType": "uint256",
          "name": "",
          "type": "uint256"
        },
        {
          "internalType": "uint256",
          "name": "",
          "type": "uint256"
        }
      ],
      "name": "mapServiceAndAgentIdAgentInstances",
      "outputs": [
        {
          "internalType": "address",
          "name": "",
          "type": "address"
        }
      ],
      "stateMutability": "view",
      "type": "function"
    },
    {
      "inputs": [
        {
          "internalType": "uint256",
          "name": "",
          "type": "uint256"
        }
      ],
      "name": "mapServiceAndAgentIdAgentParams",
      "outputs": [
        {
          "internalType": "uint32",
          "name": "slots",
          "type": "uint32"
        },
        {
          "internalType": "uint96",
          "name": "bond",
          "type": "uint96"
        }
      ],
      "stateMutability": "view",
      "type": "function"
    },
    {
      "inputs": [
        {
          "internalType": "uint256",
          "name": "",
          "type": "uint256"
        },
        {
          "internalType": "uint256",
          "name": "",
          "type": "uint256"
        }
      ],
      "name": "mapServiceIdSetAgentIds",
      "outputs": [
        {
          "internalType": "uint32",
          "name": "",
          "type": "uint32"
        }
      ],
      "stateMutability": "view",
      "type": "function"
    },
    {
      "inputs": [
        {
          "internalType": "uint256",
          "name": "",
          "type": "uint256"
        },
        {
          "internalType": "uint256",
          "name": "",
          "type": "uint256"
        }
      ],
      "name": "mapServiceIdSetComponentIds",
      "outputs": [
        {
          "internalType": "uint32",
          "name": "",
          "type": "uint32"
        }
      ],
      "stateMutability": "view",
      "type": "function"
    },
    {
      "inputs": [
        {
          "internalType": "uint256",
          "name": "",
          "type": "uint256"
        }
      ],
      "name": "mapServices",
      "outputs": [
        {
          "internalType": "uint96",
          "name": "securityDeposit",
          "type": "uint96"
        },
        {
          "internalType": "address",
          "name": "multisig",
          "type": "address"
        },
        {
          "internalType": "bytes32",
          "name": "configHash",
          "type": "bytes32"
        },
        {
          "internalType": "uint32",
          "name": "threshold",
          "type": "uint32"
        },
        {
          "internalType": "uint32",
          "name": "maxNumAgentInstances",
          "type": "uint32"
        },
        {
          "internalType": "uint32",
          "name": "numAgentInstances",
          "type": "uint32"
        },
        {
          "internalType": "enum ServiceRegistry.ServiceState",
          "name": "state",
          "type": "uint8"
        }
      ],
      "stateMutability": "view",
      "type": "function"
    },
    {
      "inputs": [],
      "name": "name",
      "outputs": [
        {
          "internalType": "string",
          "name": "",
          "type": "string"
        }
      ],
      "stateMutability": "view",
      "type": "function"
    },
    {
      "inputs": [],
      "name": "owner",
      "outputs": [
        {
          "internalType": "address",
          "name": "",
          "type": "address"
        }
      ],
      "stateMutability": "view",
      "type": "function"
    },
    {
      "inputs": [
        {
          "internalType": "uint256",
          "name": "id",
          "type": "uint256"
        }
      ],
      "name": "ownerOf",
      "outputs": [
        {
          "internalType": "address",
          "name": "owner",
          "type": "address"
        }
      ],
      "stateMutability": "view",
      "type": "function"
    },
    {
      "inputs": [
        {
          "internalType": "address",
          "name": "operator",
          "type": "address"
        },
        {
          "internalType": "uint256",
          "name": "serviceId",
          "type": "uint256"
        },
        {
          "internalType": "address[]",
          "name": "agentInstances",
          "type": "address[]"
        },
        {
          "internalType": "uint32[]",
          "name": "agentIds",
          "type": "uint32[]"
        }
      ],
      "name": "registerAgents",
      "outputs": [
        {
          "internalType": "bool",
          "name": "success",
          "type": "bool"
        }
      ],
      "stateMutability": "payable",
      "type": "function"
    },
    {
      "inputs": [
        {
          "internalType": "address",
          "name": "from",
          "type": "address"
        },
        {
          "internalType": "address",
          "name": "to",
          "type": "address"
        },
        {
          "internalType": "uint256",
          "name": "id",
          "type": "uint256"
        }
      ],
      "name": "safeTransferFrom",
      "outputs": [],
      "stateMutability": "nonpayable",
      "type": "function"
    },
    {
      "inputs": [
        {
          "internalType": "address",
          "name": "from",
          "type": "address"
        },
        {
          "internalType": "address",
          "name": "to",
          "type": "address"
        },
        {
          "internalType": "uint256",
          "name": "id",
          "type": "uint256"
        },
        {
          "internalType": "bytes",
          "name": "data",
          "type": "bytes"
        }
      ],
      "name": "safeTransferFrom",
      "outputs": [],
      "stateMutability": "nonpayable",
      "type": "function"
    },
    {
      "inputs": [
        {
          "internalType": "address",
          "name": "operator",
          "type": "address"
        },
        {
          "internalType": "bool",
          "name": "approved",
          "type": "bool"
        }
      ],
      "name": "setApprovalForAll",
      "outputs": [],
      "stateMutability": "nonpayable",
      "type": "function"
    },
    {
      "inputs": [
        {
          "internalType": "string",
          "name": "bURI",
          "type": "string"
        }
      ],
      "name": "setBaseURI",
      "outputs": [],
      "stateMutability": "nonpayable",
      "type": "function"
    },
    {
      "inputs": [
        {
          "internalType": "address[]",
          "name": "agentInstances",
          "type": "address[]"
        },
        {
          "internalType": "uint96[]",
          "name": "amounts",
          "type": "uint96[]"
        },
        {
          "internalType": "uint256",
          "name": "serviceId",
          "type": "uint256"
        }
      ],
      "name": "slash",
      "outputs": [
        {
          "internalType": "bool",
          "name": "success",
          "type": "bool"
        }
      ],
      "stateMutability": "nonpayable",
      "type": "function"
    },
    {
      "inputs": [],
      "name": "slashedFunds",
      "outputs": [
        {
          "internalType": "uint96",
          "name": "",
          "type": "uint96"
        }
      ],
      "stateMutability": "view",
      "type": "function"
    },
    {
      "inputs": [
        {
          "internalType": "bytes4",
          "name": "interfaceId",
          "type": "bytes4"
        }
      ],
      "name": "supportsInterface",
      "outputs": [
        {
          "internalType": "bool",
          "name": "",
          "type": "bool"
        }
      ],
      "stateMutability": "view",
      "type": "function"
    },
    {
      "inputs": [],
      "name": "symbol",
      "outputs": [
        {
          "internalType": "string",
          "name": "",
          "type": "string"
        }
      ],
      "stateMutability": "view",
      "type": "function"
    },
    {
      "inputs": [
        {
          "internalType": "address",
          "name": "serviceOwner",
          "type": "address"
        },
        {
          "internalType": "uint256",
          "name": "serviceId",
          "type": "uint256"
        }
      ],
      "name": "terminate",
      "outputs": [
        {
          "internalType": "bool",
          "name": "success",
          "type": "bool"
        },
        {
          "internalType": "uint256",
          "name": "refund",
          "type": "uint256"
        }
      ],
      "stateMutability": "nonpayable",
      "type": "function"
    },
    {
      "inputs": [
        {
          "internalType": "uint256",
          "name": "id",
          "type": "uint256"
        }
      ],
      "name": "tokenByIndex",
      "outputs": [
        {
          "internalType": "uint256",
          "name": "unitId",
          "type": "uint256"
        }
      ],
      "stateMutability": "view",
      "type": "function"
    },
    {
      "inputs": [
        {
          "internalType": "uint256",
          "name": "unitId",
          "type": "uint256"
        }
      ],
      "name": "tokenURI",
      "outputs": [
        {
          "internalType": "string",
          "name": "",
          "type": "string"
        }
      ],
      "stateMutability": "view",
      "type": "function"
    },
    {
      "inputs": [],
      "name": "totalSupply",
      "outputs": [
        {
          "internalType": "uint256",
          "name": "",
          "type": "uint256"
        }
      ],
      "stateMutability": "view",
      "type": "function"
    },
    {
      "inputs": [
        {
          "internalType": "address",
          "name": "from",
          "type": "address"
        },
        {
          "internalType": "address",
          "name": "to",
          "type": "address"
        },
        {
          "internalType": "uint256",
          "name": "id",
          "type": "uint256"
        }
      ],
      "name": "transferFrom",
      "outputs": [],
      "stateMutability": "nonpayable",
      "type": "function"
    },
    {
      "inputs": [
        {
          "internalType": "address",
          "name": "operator",
          "type": "address"
        },
        {
          "internalType": "uint256",
          "name": "serviceId",
          "type": "uint256"
        }
      ],
      "name": "unbond",
      "outputs": [
        {
          "internalType": "bool",
          "name": "success",
          "type": "bool"
        },
        {
          "internalType": "uint256",
          "name": "refund",
          "type": "uint256"
        }
      ],
      "stateMutability": "nonpayable",
      "type": "function"
    },
    {
      "inputs": [
        {
          "internalType": "address",
          "name": "serviceOwner",
          "type": "address"
        },
        {
          "internalType": "bytes32",
          "name": "configHash",
          "type": "bytes32"
        },
        {
          "internalType": "uint32[]",
          "name": "agentIds",
          "type": "uint32[]"
        },
        {
          "components": [
            {
              "internalType": "uint32",
              "name": "slots",
              "type": "uint32"
            },
            {
              "internalType": "uint96",
              "name": "bond",
              "type": "uint96"
            }
          ],
          "internalType": "struct AgentParams[]",
          "name": "agentParams",
          "type": "tuple[]"
        },
        {
          "internalType": "uint32",
          "name": "threshold",
          "type": "uint32"
        },
        {
          "internalType": "uint256",
          "name": "serviceId",
          "type": "uint256"
        }
      ],
      "name": "update",
      "outputs": [
        {
          "internalType": "bool",
          "name": "success",
          "type": "bool"
        }
      ],
      "stateMutability": "nonpayable",
      "type": "function"
    }
  ],
  "bytecode": "0x60a06040526001600a55348015610014575f5ffd5b506040516160a43803806160a483398101604081905261003391610122565b83835f6100408382610255565b50600161004d8282610255565b506008915061005e90508382610255565b506001600160a01b03166080525050600680546001600160a01b031916331790555061030f565b634e487b7160e01b5f52604160045260245ffd5b5f82601f8301126100a8575f5ffd5b81516001600160401b038111156100c1576100c1610085565b604051601f8201601f19908116603f011681016001600160401b03811182821017156100ef576100ef610085565b604052818152838201602001851015610106575f5ffd5b8160208501602083015e5f918101602001919091529392505050565b5f5f5f5f60808587031215610135575f5ffd5b84516001600160401b0381111561014a575f5ffd5b61015687828801610099565b602087015190955090506001600160401b03811115610173575f5ffd5b61017f87828801610099565b604087015190945090506001600160401b0381111561019c575f5ffd5b6101a887828801610099565b606087015190935090506001600160a01b03811681146101c6575f5ffd5b939692955090935050565b600181811c908216806101e557607f821691505b60208210810361020357634e487b7160e01b5f52602260045260245ffd5b50919050565b601f82111561025057805f5260205f20601f840160051c8101602085101561022e5750805b601f840160051c820191505b8181101561024d575f815560010161023a565b50505b505050565b81516001600160401b0381111561026e5761026e610085565b6102828161027c84546101d1565b84610209565b6020601f8211600181146102b4575f831561029d5750848201515b5f19600385901b1c1916600184901b17845561024d565b5f84815260208120601f198516915b828110156102e357878501518255602094850194600190920191016102c3565b508482101561030057868401515f19600387901b60f8161c191681555b50505050600190811b01905550565b608051615d6f6103355f395f818161042701528181613d5601526144df0152615d6f5ff3fe608060405260043610610350575f3560e01c80636f99f15c116101bd578063a5d059ca116100f2578063dff7672411610092578063ef0e239b1161006d578063ef0e239b14610b90578063f908bc7714610bbc578063fbdeb3d714610bdb578063ffa1ad7414610bfa575f5ffd5b8063dff7672414610b31578063e23f6fb414610b44578063e985e9c514610b57575f5ffd5b8063b88d4fde116100cd578063b88d4fde14610ab5578063c87b56dd14610ad4578063cbf994f814610af3578063ccc9305d14610b12575f5ffd5b8063a5d059ca14610a33578063a60e4c3c14610a69578063a6f9dae114610a96575f5ffd5b80638a2bd86f1161015d57806395d89b411161013857806395d89b41146109cd5780639890220b146109e1578063a22cb465146109f5578063a3fbbaae14610a14575f5ffd5b80638a2bd86f1461093e5780638da5cb5b1461098157806392080b23146109a0575f5ffd5b806373b8b6a21161019857806373b8b6a2146108ad5780637c5e63e0146108cc57806382694b1d1461090057806386a2bdd41461091f575f5ffd5b80636f99f15c1461082c57806370a082311461084b578063718934d81461086a575f5ffd5b806342144854116102935780634f6ccce7116102335780635e4507fa1161020e5780635e4507fa146107725780636352211e1461079157806363dd7615146107b05780636c0360eb14610818575f5ffd5b80634f6ccce71461070e57806355f804b31461072d57806357838e851461074c575f5ffd5b8063481c6a751161026e578063481c6a751461067d5780634d486f851461069c5780634eb780da146106bb5780634f558e79146106ef575f5ffd5b806342144854146105855780634236aff8146105d157806342842e0e1461065e575f5ffd5b806317351f7e116102fe57806321e4f7bb116102d957806321e4f7bb146104e657806323b872dd14610513578063323e010714610532578063406f14ad14610566575f5ffd5b806317351f7e1461046857806318160ddd146104965780631de286ba146104b9575f5ffd5b8063095ea7b31161032e578063095ea7b3146103f55780630d1cfcae1461041657806310c6aa1914610449575f5ffd5b806301ffc9a71461035457806306fdde0314610388578063081812fc146103a9575b5f5ffd5b34801561035f575f5ffd5b5061037361036e366004614c92565b610c2a565b60405190151581526020015b60405180910390f35b348015610393575f5ffd5b5061039c610c7b565b60405161037f9190614ce2565b3480156103b4575f5ffd5b506103dd6103c3366004614cf4565b60046020525f90815260409020546001600160a01b031681565b6040516001600160a01b03909116815260200161037f565b348015610400575f5ffd5b5061041461040f366004614d1f565b610d06565b005b348015610421575f5ffd5b506103dd7f000000000000000000000000000000000000000000000000000000000000000081565b348015610454575f5ffd5b50610414610463366004614d49565b610dea565b348015610473575f5ffd5b50610373610482366004614d49565b60146020525f908152604090205460ff1681565b3480156104a1575f5ffd5b506104ab60095481565b60405190815260200161037f565b3480156104c4575f5ffd5b506104d86104d3366004614cf4565b610ea2565b60405161037f929190614d64565b3480156104f1575f5ffd5b50610505610500366004614dcc565b6110e7565b60405161037f929190614e2f565b34801561051e575f5ffd5b5061041461052d366004614e4f565b6111c5565b34801561053d575f5ffd5b5061055161054c366004614dcc565b61139a565b60405163ffffffff909116815260200161037f565b348015610571575f5ffd5b50610551610580366004614dcc565b6113de565b348015610590575f5ffd5b506105b961059f366004614cf4565b60106020525f90815260409020546001600160601b031681565b6040516001600160601b03909116815260200161037f565b3480156105dc575f5ffd5b5061064b6105eb366004614cf4565b60156020525f90815260409020805460018201546002909201546001600160601b03821692600160601b928390046001600160a01b031692909163ffffffff808216926401000000008304821692600160401b8104909216910460ff1687565b60405161037f9796959493929190614ec1565b348015610669575f5ffd5b50610414610678366004614e4f565b6113f7565b348015610688575f5ffd5b506007546103dd906001600160a01b031681565b3480156106a7575f5ffd5b506105056106b6366004614cf4565b6114eb565b3480156106c6575f5ffd5b506103dd6106d5366004614d49565b60116020525f90815260409020546001600160a01b031681565b3480156106fa575f5ffd5b50610373610709366004614cf4565b611639565b348015610719575f5ffd5b506104ab610728366004614cf4565b61165a565b348015610738575f5ffd5b50610414610747366004614fe3565b61169e565b348015610757575f5ffd5b50600b546103dd90600160601b90046001600160a01b031681565b34801561077d575f5ffd5b506103dd61078c366004614dcc565b611746565b34801561079c575f5ffd5b506103dd6107ab366004614cf4565b61177a565b3480156107bb575f5ffd5b506107f46107ca366004614cf4565b600e6020525f908152604090205463ffffffff81169064010000000090046001600160601b031682565b6040805163ffffffff90931683526001600160601b0390911660208301520161037f565b348015610823575f5ffd5b5061039c6117de565b348015610837575f5ffd5b50600b546105b9906001600160601b031681565b348015610856575f5ffd5b506104ab610865366004614d49565b6117eb565b348015610875575f5ffd5b50610889610884366004614dcc565b61185d565b604080516001600160a01b03909316835263ffffffff90911660208301520161037f565b3480156108b8575f5ffd5b506103736108c73660046150d4565b61189f565b3480156108d7575f5ffd5b5061039c6040518060400160405280600981526020016806630313730313232360bc1b81525081565b34801561090b575f5ffd5b5061037361091a3660046151a0565b611ce2565b34801561092a575f5ffd5b506104ab610939366004614dcc565b611d79565b348015610949575f5ffd5b506104ab610958366004614d1f565b60a01b6001600160a01b03909116175f908152601060205260409020546001600160601b031690565b34801561098c575f5ffd5b506006546103dd906001600160a01b031681565b3480156109ab575f5ffd5b506109bf6109ba3660046151db565b611da4565b60405161037f929190615230565b3480156109d8575f5ffd5b5061039c611ed6565b3480156109ec575f5ffd5b506104ab611ee3565b348015610a00575f5ffd5b50610414610a0f3660046151a0565b61203c565b348015610a1f575f5ffd5b50610414610a2e366004614d49565b6120a7565b348015610a3e575f5ffd5b50610a52610a4d366004614d1f565b612157565b60408051921515835260208301919091520161037f565b348015610a74575f5ffd5b50610a88610a83366004614cf4565b6125d7565b60405161037f929190615248565b348015610aa1575f5ffd5b50610414610ab0366004614d49565b612638565b348015610ac0575f5ffd5b50610414610acf366004615289565b6126e8565b348015610adf575f5ffd5b5061039c610aee366004614cf4565b6127cd565b348015610afe575f5ffd5b50610373610b0d36600461542c565b612846565b348015610b1d575f5ffd5b50610a52610b2c366004614d1f565b612dba565b610373610b3f3660046154c8565b613131565b610373610b52366004614d1f565b61370e565b348015610b62575f5ffd5b50610373610b71366004615548565b600560209081525f928352604080842090915290825290205460ff1681565b348015610b9b575f5ffd5b50610baf610baa366004614cf4565b613889565b60405161037f9190615574565b348015610bc7575f5ffd5b506103dd610bd636600461560f565b613a04565b348015610be6575f5ffd5b506104ab610bf536600461567e565b613e97565b348015610c05575f5ffd5b5061039c604051806040016040528060058152602001640312e302e360dc1b81525081565b5f6301ffc9a760e01b6001600160e01b031983161480610c5a57506380ac58cd60e01b6001600160e01b03198316145b80610c755750635b5e139f60e01b6001600160e01b03198316145b92915050565b5f8054610c8790615712565b80601f0160208091040260200160405190810160405280929190818152602001828054610cb390615712565b8015610cfe5780601f10610cd557610100808354040283529160200191610cfe565b820191905f5260205f20905b815481529060010190602001808311610ce157829003601f168201915b505050505081565b5f818152600260205260409020546001600160a01b031633811480610d4d57506001600160a01b0381165f90815260056020908152604080832033845290915290205460ff165b610d8f5760405162461bcd60e51b815260206004820152600e60248201526d1393d517d055551213d49256915160921b60448201526064015b60405180910390fd5b5f8281526004602052604080822080546001600160a01b0319166001600160a01b0387811691821790925591518593918516917f8c5be1e5ebec7d5bd14f71427d1e84f3dd0314c0f7b2291e5b200ac8c7c3b92591a4505050565b6006546001600160a01b03163314610e2a5760065460405163521eb56d60e11b81523360048201526001600160a01b039091166024820152604401610d86565b6001600160a01b038116610e515760405163d92e233d60e01b815260040160405180910390fd5b600b80546001600160601b0316600160601b6001600160a01b038416908102919091179091556040517f8d1e8547016120917daad7f81c42b48f7fee379badc48f1889f0f43bb6194725905f90a250565b5f81815260156020908152604080832081516101008101835281546001600160601b03811682526001600160a01b03600160601b918290041694820194909452600182015492810192909252600281015463ffffffff808216606085810191909152640100000000830482166080860152600160401b830490911660a0850152938593929160c084019160ff9104166005811115610f4257610f42614e8d565b6005811115610f5357610f53614e8d565b815260200160038201805480602002602001604051908101604052809291908181526020018280548015610fcf57602002820191905f5260205f20905f905b82829054906101000a900463ffffffff1663ffffffff1681526020019060040190602082600301049283019260010382029150808411610f925790505b50505050508152505090508060e001515192508267ffffffffffffffff811115610ffb57610ffb614f1c565b60405190808252806020026020018201604052801561103f57816020015b604080518082019091525f80825260208201528152602001906001900390816110195790505b5091505f5b838110156110e0575f85905060208360e0015183815181106110685761106861574a565b60209081029190910181015163ffffffff90811690921b929092175f818152600e845260409081902081518083019092525492831681526401000000009092046001600160601b03169282019290925284518590849081106110cc576110cc61574a565b602090810291909101015250600101611044565b5050915091565b602081811b83175f818152600f909252604090912054906060908267ffffffffffffffff81111561111a5761111a614f1c565b604051908082528060200260200182016040528015611143578160200160208202803683370190505b5091505f5b838110156111bc575f828152600f6020526040902080548290811061116f5761116f61574a565b905f5260205f20015f9054906101000a90046001600160a01b031683828151811061119c5761119c61574a565b6001600160a01b0390921660209283029190910190910152600101611148565b50509250929050565b5f818152600260205260409020546001600160a01b0384811691161461122d5760405162461bcd60e51b815260206004820152600a60248201527f57524f4e475f46524f4d000000000000000000000000000000000000000000006044820152606401610d86565b6001600160a01b0382166112775760405162461bcd60e51b81526020600482015260116024820152701253959053125117d49150d25412515395607a1b6044820152606401610d86565b336001600160a01b03841614806112b057506001600160a01b0383165f90815260056020908152604080832033845290915290205460ff165b806112d057505f818152600460205260409020546001600160a01b031633145b61130d5760405162461bcd60e51b815260206004820152600e60248201526d1393d517d055551213d49256915160921b6044820152606401610d86565b6001600160a01b038084165f81815260036020908152604080832080545f19019055938616808352848320805460010190558583526002825284832080546001600160a01b03199081168317909155600490925284832080549092169091559251849392917fddf252ad1be2c89b69c2b068fc378daa952ba7f163c4a11628f55a4df523b3ef91a4505050565b6012602052815f5260405f2081815481106113b3575f80fd5b905f5260205f209060089182820401919006600402915091509054906101000a900463ffffffff1681565b6013602052815f5260405f2081815481106113b3575f80fd5b6114028383836111c5565b6001600160a01b0382163b15806114a75750604051630a85bd0160e11b8082523360048301526001600160a01b03858116602484015260448301849052608060648401525f608484015290919084169063150b7a029060a4016020604051808303815f875af1158015611477573d5f5f3e3d5ffd5b505050506040513d601f19601f8201168201806040525081019061149b919061575e565b6001600160e01b031916145b6114e65760405162461bcd60e51b815260206004820152601060248201526f155394d0519157d49150d2541251539560821b6044820152606401610d86565b505050565b5f81815260156020908152604080832081516101008101835281546001600160601b03811682526001600160a01b03600160601b918290041694820194909452600182015492810192909252600281015463ffffffff808216606085810191909152640100000000830482166080860152600160401b830490911660a0850152938593929160c084019160ff910416600581111561158b5761158b614e8d565b600581111561159c5761159c614e8d565b81526020016003820180548060200260200160405190810160405280929190818152602001828054801561161857602002820191905f5260205f20905f905b82829054906101000a900463ffffffff1663ffffffff16815260200190600401906020826003010492830192600103820291508084116115db5790505b505050505081525050905061162d818561417d565b91508151925050915091565b5f5f82118015610c75575060095461165290600161578d565b821092915050565b5f61166682600161578d565b905060095481111561169957600954604051637ae5968560e01b8152610d86918391600401918252602082015260400190565b919050565b6006546001600160a01b031633146116de5760065460405163521eb56d60e11b81523360048201526001600160a01b039091166024820152604401610d86565b80515f036116ff57604051637c946ed760e01b815260040160405180910390fd5b600861170b82826157e4565b507f5411e8ebf1636d9e83d5fc4900bf80cbac82e8790da2a4c94db4895e889eedf68160405161173b9190614ce2565b60405180910390a150565b600f602052815f5260405f20818154811061175f575f80fd5b5f918252602090912001546001600160a01b03169150829050565b5f818152600260205260409020546001600160a01b0316806116995760405162461bcd60e51b815260206004820152600a60248201527f4e4f545f4d494e544544000000000000000000000000000000000000000000006044820152606401610d86565b60088054610c8790615712565b5f6001600160a01b0382166118425760405162461bcd60e51b815260206004820152600c60248201527f5a45524f5f4144445245535300000000000000000000000000000000000000006044820152606401610d86565b506001600160a01b03165f9081526003602052604090205490565b600d602052815f5260405f208181548110611876575f80fd5b5f918252602090912001546001600160a01b0381169250600160a01b900463ffffffff16905082565b5f81815260156020908152604080832081516101008101835281546001600160601b0381168252600160601b908190046001600160a01b031694820194909452600182015492810192909252600281015463ffffffff8082166060850152640100000000820481166080850152600160401b82041660a0840152849360c08401910460ff16600581111561193557611935614e8d565b600581111561194657611946614e8d565b8152602001600382018054806020026020016040519081016040528092919081815260200182805480156119c257602002820191905f5260205f20905f905b82829054906101000a900463ffffffff1663ffffffff16815260200190600401906020826003010492830192600103820291508084116119855790505b5050505050815250509050600460058111156119e0576119e0614e8d565b8160c0015160058111156119f6576119f6614e8d565b14611a35578060c001516005811115611a1157611a11614e8d565b604051633c053f9d60e21b8152600481019190915260248101849052604401610d86565b8351855114611a6457845184516040516308151c1160e41b815260048101929092526024820152604401610d86565b80602001516001600160a01b0316336001600160a01b031614611ab85760208101516040516379f91cd360e01b81523360048201526001600160a01b03909116602482015260448101849052606401610d86565b84515f5b81811015611cd5575f60115f898481518110611ada57611ada61574a565b6020908102919091018101516001600160a01b0390811683528282019390935260409182015f9081205490931660a08a901b81178085526010909252919092205489519193506001600160601b03169081908a9086908110611b3e57611b3e61574a565b60200260200101516001611b52919061589f565b6001600160601b03161115611baa57600b80548291905f90611b7e9084906001600160601b031661589f565b92506101000a8154816001600160601b0302191690836001600160601b031602179055505f9050611c2d565b888481518110611bbc57611bbc61574a565b6020908102919091010151600b80545f90611be19084906001600160601b031661589f565b92506101000a8154816001600160601b0302191690836001600160601b03160217905550888481518110611c1757611c1761574a565b602002602001015181611c2a91906158be565b90505b5f82815260106020526040902080546bffffffffffffffffffffffff19166001600160601b038316179055885188906001600160a01b038516907fa2e524bd0f71903485fbb3d6d50cb305f61005ceea2047c3ac92aa7e0d104306908c9088908110611c9b57611c9b61574a565b6020026020010151604051611cbf91906001600160601b0391909116815260200190565b60405180910390a3505050806001019050611abc565b5060019695505050505050565b6006545f906001600160a01b03163314611d245760065460405163521eb56d60e11b81523360048201526001600160a01b039091166024820152604401610d86565b6001600160a01b038316611d4b5760405163d92e233d60e01b815260040160405180910390fd5b506001600160a01b03919091165f908152601460205260409020805460ff1916911515919091179055600190565b600c602052815f5260405f208181548110611d92575f80fd5b905f5260205f20015f91509150505481565b5f606081846001811115611dba57611dba614e8d565b03611e47575f8381526012602090815260409182902080548351818402810184019094528084529091830182828015611e3b57602002820191905f5260205f20905f905b82829054906101000a900463ffffffff1663ffffffff1681526020019060040190602082600301049283019260010382029150808411611dfe5790505b50505050509050611ecb565b5f8381526013602090815260409182902080548351818402810184019094528084529091830182828015611ec357602002820191905f5260205f20905f905b82829054906101000a900463ffffffff1663ffffffff1681526020019060040190602082600301049283019260010382029150808411611e865790505b505050505090505b805191509250929050565b60018054610c8790615712565b5f6001600a541115611f08576040516345f5ce8b60e11b815260040160405180910390fd5b6002600a55600b54600160601b90046001600160a01b03163314611f5a57600b5460405163312d21ff60e11b8152336004820152600160601b9091046001600160a01b03166024820152604401610d86565b50600b546001600160601b0316801561203457600b80546bffffffffffffffffffffffff191690556040515f90339083908381818185875af1925050503d805f8114611fc1576040519150601f19603f3d011682016040523d82523d5f602084013e611fc6565b606091505b5050905080611ffd5760405163cd3f165960e01b81525f600482015230602482015233604482015260648101839052608401610d86565b60405182815233907ff36f4d6622e16a536bbb049064af779cdd483a0b388d347d3752a65f1058bf5b9060200160405180910390a2505b6001600a5590565b335f8181526005602090815260408083206001600160a01b03871680855290835292819020805460ff191686151590811790915590519081529192917f17307eab39ab6107e8899845ad3d59bd9653f200f220920489ca2b5937696c31910160405180910390a35050565b6006546001600160a01b031633146120e75760065460405163521eb56d60e11b81523360048201526001600160a01b039091166024820152604401610d86565b6001600160a01b03811661210e5760405163d92e233d60e01b815260040160405180910390fd5b600780546001600160a01b0319166001600160a01b0383169081179091556040517f2c1c11af44aa5608f1dca38c00275c30ea091e02417d36e70e9a1538689c433d905f90a250565b5f5f6001600a54111561217d576040516345f5ce8b60e11b815260040160405180910390fd5b6002600a556007546001600160a01b031633146121c25760075460405163312d21ff60e11b81523360048201526001600160a01b039091166024820152604401610d86565b6001600160a01b0384166121e95760405163d92e233d60e01b815260040160405180910390fd5b5f83815260156020526040902060056002820154600160601b900460ff16600581111561221857612218614e8d565b14612261576002810154600160601b900460ff16600581111561223d5761223d614e8d565b604051633c053f9d60e21b8152600481019190915260248101859052604401610d86565b60a084901b6001600160a01b038616175f818152600d6020908152604080832080548251818502810185019093528083529192909190849084015b828210156122e7575f84815260209081902060408051808201909152908401546001600160a01b0381168252600160a01b900463ffffffff168183015282526001909201910161229c565b5050825192935050505f8190036123235760405163df2ddd7360e01b81526001600160a01b038916600482015260248101889052604401610d86565b808460020160088282829054906101000a900463ffffffff1661234691906158dd565b92506101000a81548163ffffffff021916908363ffffffff1602179055508360020160089054906101000a900463ffffffff1663ffffffff165f0361239b5760028401805460ff60601b1916600160601b1790555b5f5b81811015612454575f88905060208483815181106123bd576123bd61574a565b60209081029190910181015181015163ffffffff1690911b919091175f818152600e9092526040909120546124039064010000000090046001600160601b03168861578d565b965060115f85848151811061241a5761241a61574a565b602090810291909101810151516001600160a01b031682528101919091526040015f2080546001600160a01b03191690555060010161239d565b505f838152600d6020526040812061246b91614ae8565b5f838152601060205260409020546001600160601b03168086111561249757806001600160601b031695505b851561258c575f8481526010602052604080822080546bffffffffffffffffffffffff19169055516001600160a01b038b169088908381818185875af1925050503d805f8114612502576040519150601f19603f3d011682016040523d82523d5f602084013e612507565b606091505b50509050806125475760405163cd3f165960e01b81525f60048201523060248201526001600160a01b038b16604482015260648101889052608401610d86565b896001600160a01b03167fbb28353e4598c3b9199101a66e0989549b659a59a54d2c27fbb183f1932c8e6d8860405161258291815260200190565b60405180910390a2505b60405188906001600160a01b038b16907f5ebf7fe30be09f0f03b9195632508d95c8b67bf010c93abda67f70d5d9599d1e905f90a350506001600a8190559793965092945050505050565b5f818152600c60209081526040808320805482518185028101850190935280835260609383018282801561262857602002820191905f5260205f20905b815481526020019060010190808311612614575b5050505050905080519150915091565b6006546001600160a01b031633146126785760065460405163521eb56d60e11b81523360048201526001600160a01b039091166024820152604401610d86565b6001600160a01b03811661269f5760405163d92e233d60e01b815260040160405180910390fd5b600680546001600160a01b0319166001600160a01b0383169081179091556040517f4ffd725fc4a22075e9ec71c59edf9c38cdeb588a91b24fc5b61388c5be41282b905f90a250565b6126f38585856111c5565b6001600160a01b0384163b15806127875750604051630a85bd0160e11b808252906001600160a01b0386169063150b7a029061273b9033908a908990899089906004016158f9565b6020604051808303815f875af1158015612757573d5f5f3e3d5ffd5b505050506040513d601f19601f8201168201806040525081019061277b919061575e565b6001600160e01b031916145b6127c65760405162461bcd60e51b815260206004820152601060248201526f155394d0519157d49150d2541251539560821b6044820152606401610d86565b5050505050565b5f818152601560205260408120600101546060915060086040518060400160405280600981526020016806630313730313232360bc1b81525061280f836142b0565b61281c608085901b6142b0565b60405160200161282f949392919061594e565b604051602081830303815290604052915050919050565b6007545f906001600160a01b031633146128885760075460405163312d21ff60e11b81523360048201526001600160a01b039091166024820152604401610d86565b5f6128928361177a565b9050876001600160a01b0316816001600160a01b0316146128d95760405163521eb56d60e11b81526001600160a01b03808a16600483015282166024820152604401610d86565b5f83815260156020908152604080832081516101008101835281546001600160601b03811682526001600160a01b03600160601b918290041694820194909452600182015492810192909252600281015463ffffffff8082166060850152640100000000820481166080850152600160401b82041660a08401529192909160c084019160ff910416600581111561297257612972614e8d565b600581111561298357612983614e8d565b8152602001600382018054806020026020016040519081016040528092919081815260200182805480156129ff57602002820191905f5260205f20905f905b82829054906101000a900463ffffffff1663ffffffff16815260200190600401906020826003010492830192600103820291508084116129c25790505b505050505081525050905060016005811115612a1d57612a1d614e8d565b8160c001516005811115612a3357612a33614e8d565b14612a4e578060c00151600581111561223d5761223d614e8d565b612a59888888614480565b63ffffffff851660608201525f60808201819052875167ffffffffffffffff811115612a8757612a87614f1c565b604051908082528060200260200182016040528015612ab0578160200160208202803683370190505b5090505f885167ffffffffffffffff811115612ace57612ace614f1c565b604051908082528060200260200182016040528015612b1257816020015b604080518082019091525f8082526020820152815260200190600190039081612aec5790505b5090505f805b8a51811015612c3857898181518110612b3357612b3361574a565b60200260200101515f015163ffffffff165f03612ba4575f88905060208c8381518110612b6257612b6261574a565b60209081029190910181015163ffffffff1690911b919091175f908152600e9091526040902080546fffffffffffffffffffffffffffffffff19169055612c30565b8a8181518110612bb657612bb661574a565b6020026020010151848381518110612bd057612bd061574a565b602002602001019063ffffffff16908163ffffffff1681525050898181518110612bfc57612bfc61574a565b6020026020010151838381518110612c1657612c1661574a565b60200260200101819052508180612c2c906159d4565b9250505b600101612b18565b5060408401518b8114612c6e575f888152600c602090815260408083208054600181018255908452919092200182905585018c90525b612c7b858585858c61463a565b5f888152601560209081526040918290208751918801516001600160a01b0316600160601b9081026001600160601b03909316929092178155918701516001830155606087015160028301805460808a015160a08b015163ffffffff908116600160401b026bffffffff0000000000000000199282166401000000000267ffffffffffffffff199094169190951617919091179081168317825560c08a01518a9594909360ff60601b19166cffffffffff0000000000000000199092169190911790836005811115612d4f57612d4f614e8d565b021790555060e08201518051612d6f916003840191602090910190614b06565b50506040518d81528991507fff312ce131c4d73ac90ece91266be7090486c5e15f78b7ea2b108c36dfd475299060200160405180910390a25060019c9b505050505050505050505050565b5f5f6001600a541115612de0576040516345f5ce8b60e11b815260040160405180910390fd5b6002600a556007546001600160a01b03163314612e255760075460405163312d21ff60e11b81523360048201526001600160a01b039091166024820152604401610d86565b5f612e2f8461177a565b9050846001600160a01b0316816001600160a01b031614612e765760405163521eb56d60e11b81526001600160a01b03808716600483015282166024820152604401610d86565b5f84815260156020526040902060016002820154600160601b900460ff166005811115612ea557612ea5614e8d565b1480612ed0575060056002820154600160601b900460ff166005811115612ece57612ece614e8d565b145b15612f19576002810154600160601b900460ff166005811115612ef557612ef5614e8d565b604051633c053f9d60e21b8152600481019190915260248101869052604401610d86565b6002810154600160401b900463ffffffff1615612f535760028101805460ff60601b19166c05000000000000000000000000179055612f69565b60028101805460ff60601b1916600160601b1790555b5f858152601260205260408120612f7f91614bb2565b5f858152601360205260408120612f9591614bb2565b5f5b6003820154811015613013575f8690506020836003018381548110612fbe57612fbe61574a565b905f5260205f2090600891828204019190066004029054906101000a900463ffffffff1663ffffffff16901b81179050600f5f8281526020019081526020015f205f61300a9190614bd4565b50600101612f97565b5080546040516001600160601b0390911693505f906001600160a01b0388169085908381818185875af1925050503d805f811461306b576040519150601f19603f3d011682016040523d82523d5f602084013e613070565b606091505b50509050806130b05760405163cd3f165960e01b81525f60048201523060248201526001600160a01b038816604482015260648101859052608401610d86565b866001600160a01b03167fbb28353e4598c3b9199101a66e0989549b659a59a54d2c27fbb183f1932c8e6d856040516130eb91815260200190565b60405180910390a260405186907fe45f5b9540df4f71b7e044809fa318806328c1ea2388a70c7373d97ccf8a0faa905f90a250506001600a819055959194509092505050565b6007545f906001600160a01b031633146131735760075460405163312d21ff60e11b81523360048201526001600160a01b039091166024820152604401610d86565b81518351146131a257825182516040516308151c1160e41b815260048101929092526024820152604401610d86565b5f848152601560205260409020600280820154600160601b900460ff1660058111156131d0576131d0614e8d565b146131f5576002810154600160601b900460ff166005811115612ef557612ef5614e8d565b83515f805b828110156132e1575f889050602087838151811061321a5761321a61574a565b60209081029190910181015163ffffffff90811690921b929092175f818152600e845260408082208151808301909252549384168082526401000000009094046001600160601b03169481019490945290929190036132ba578783815181106132855761328561574a565b60200260200101518a6040516332832be560e21b8152600401610d8692919063ffffffff929092168252602082015260400190565b60208101516132d2906001600160601b03168561578d565b935050508060010190506131fa565b5080341461331257604051637ebbcab960e11b81523460048201526024810182905260448101889052606401610d86565b6001600160a01b038881165f90815260116020526040902054161561334d576040516322ddebd960e21b815260048101889052602401610d86565b60a087901b6001600160a01b038916175f5b83811015613630575f88828151811061337a5761337a61574a565b602002602001015190505f8883815181106133975761339761574a565b60200260200101519050816001600160a01b03168c6001600160a01b0316036133d6576040516322ddebd960e21b8152600481018c9052602401610d86565b6001600160a01b038281165f90815260116020526040902054161561342b576001600160a01b038281165f908152601160205260409081902054905163631695bd60e01b815291166004820152602401610d86565b5f8b905060208a85815181106134435761344361574a565b60209081029190910181015163ffffffff90811690921b929092175f818152600e8452604080822054600f9095529020549092909116900361349b576040516304ad100760e21b8152600481018d9052602401610d86565b5f818152600f602090815260408083208054600181810183559185528385200180546001600160a01b03808a166001600160a01b031990921682179092558a8652600d8552838620845180860190955290845263ffffffff8089168587019081528254948501835591875294909520925192909101805494518416600160a01b0277ffffffffffffffffffffffffffffffffffffffffffffffff19909516929091169190911792909217909155600289018054600160401b9004909116906008613564836159ec565b91906101000a81548163ffffffff021916908363ffffffff160217905550508c60115f856001600160a01b03166001600160a01b031681526020019081526020015f205f6101000a8154816001600160a01b0302191690836001600160a01b03160217905550826001600160a01b03168c8e6001600160a01b03167f6835389a6da5341647f18cbe0a89c56f473f4c17bfaee6e6d07d61f1928e0b7c8560405161361a919063ffffffff91909116815260200190565b60405180910390a450505080600101905061335f565b50600284015463ffffffff64010000000082048116600160401b90920416036136725760028401805460ff60601b19166c030000000000000000000000001790555b5f81815260106020526040812080543492906136989084906001600160601b031661589f565b92506101000a8154816001600160601b0302191690836001600160601b03160217905550886001600160a01b03167fe1fffcc4923d04b559f4d29a8bfc6cda04eb5b0d3c460751c2402c5c5cc9109c346040516136f791815260200190565b60405180910390a250600198975050505050505050565b6007545f906001600160a01b031633146137505760075460405163312d21ff60e11b81523360048201526001600160a01b039091166024820152604401610d86565b5f61375a8361177a565b9050836001600160a01b0316816001600160a01b0316146137a15760405163521eb56d60e11b81526001600160a01b03808616600483015282166024820152604401610d86565b5f83815260156020526040902060016002820154600160601b900460ff1660058111156137d0576137d0614e8d565b146137f157604051635960d22f60e11b815260048101859052602401610d86565b80546001600160601b03163414613836578054604051631c30abbb60e31b81523460048201526001600160601b03909116602482015260448101859052606401610d86565b60028101805460ff60601b19166c0200000000000000000000000017905560405184907fa48b531f972c0e4aca57afcc5c099c52a7bd21bc5e2a1b733eec3be9e88da97a905f90a2506001949350505050565b6138d060408051610100810182525f80825260208201819052918101829052606081018290526080810182905260a081018290529060c08201908152602001606081525090565b5f8281526015602090815260409182902082516101008101845281546001600160601b0381168252600160601b908190046001600160a01b031693820193909352600182015493810193909352600281015463ffffffff8082166060860152640100000000820481166080860152600160401b82041660a0850152909160c08401910460ff16600581111561396757613967614e8d565b600581111561397857613978614e8d565b8152602001600382018054806020026020016040519081016040528092919081815260200182805480156139f457602002820191905f5260205f20905f905b82829054906101000a900463ffffffff1663ffffffff16815260200190600401906020826003010492830192600103820291508084116139b75790505b5050505050815250509050919050565b5f6001600a541115613a29576040516345f5ce8b60e11b815260040160405180910390fd5b6002600a556007546001600160a01b03163314613a6e5760075460405163312d21ff60e11b81523360048201526001600160a01b039091166024820152604401610d86565b5f613a788561177a565b9050856001600160a01b0316816001600160a01b031614613abf5760405163521eb56d60e11b81526001600160a01b03808816600483015282166024820152604401610d86565b6001600160a01b0384165f9081526014602052604090205460ff16613b015760405162a2307960e51b81526001600160a01b0385166004820152602401610d86565b5f85815260156020526040902060036002820154600160601b900460ff166005811115613b3057613b30614e8d565b14613b79576002810154600160601b900460ff166005811115613b5557613b55614e8d565b604051633c053f9d60e21b8152600481019190915260248101879052604401610d86565b604080516101008101825282546001600160601b0381168252600160601b908190046001600160a01b03166020830152600184015492820192909252600283015463ffffffff8082166060840152640100000000820481166080840152600160401b82041660a08301525f92613ca29291859160c08401910460ff166005811115613c0657613c06614e8d565b6005811115613c1757613c17614e8d565b815260200160038201805480602002602001604051908101604052809291908181526020018280548015613c9357602002820191905f5260205f20905f905b82829054906101000a900463ffffffff1663ffffffff1681526020019060040190602082600301049283019260010382029150808411613c565790505b5050505050815250508861417d565b6002830154604051631e731b7560e31b81529192506001600160a01b0388169163f398dba891613cdf91859163ffffffff16908a90600401615a10565b6020604051808303815f875af1158015613cfb573d5f5f3e3d5ffd5b505050506040513d601f19601f82011682018060405250810190613d1f9190615a4a565b5f888152601360205260409020600384018054929650613d3e92614bef565b506040516304d9dc3f60e11b81526001600160a01b037f000000000000000000000000000000000000000000000000000000000000000016906309b3b87e90613d8e906003860190600401615a65565b5f60405180830381865afa158015613da8573d5f5f3e3d5ffd5b505050506040513d5f823e601f3d908101601f19168201604052613dcf9190810190615bff565b5f8881526012602090815260409091208251613df19391929190910190614b06565b5081546001600160601b0316600160601b6001600160a01b03861690810291909117835560028301805460ff60601b19166c0400000000000000000000000017905560405188907f2d53f895cd5faf3cddba94a25c2ced2105885b5b37450ff430ffa3cbdf332c74905f90a360405187907fa133ed72c03a7d008deaae618a61613c4fd41c67bba1cad1a6bc0a1c5a9c156e905f90a250506001600a5550949350505050565b5f6001600a541115613ebc576040516345f5ce8b60e11b815260040160405180910390fd5b6002600a556007546001600160a01b03163314613f015760075460405163312d21ff60e11b81523360048201526001600160a01b039091166024820152604401610d86565b6001600160a01b038616613f285760405163d92e233d60e01b815260040160405180910390fd5b613f33858585614480565b5f5b8451811015613fb957838181518110613f5057613f5061574a565b60200260200101515f015163ffffffff165f1480613f935750838181518110613f7b57613f7b61574a565b6020026020010151602001516001600160601b03165f145b15613fb157604051637c946ed760e01b815260040160405180910390fd5b600101613f35565b505060095480613fc8816159d4565b91505061401260408051610100810182525f80825260208201819052918101829052606081018290526080810182905260a081018290529060c08201908152602001606081525090565b63ffffffff8316606082015260408101869052600160c08201818152505061403e81868688518661463a565b5f828152601560209081526040918290208351918401516001600160a01b0316600160601b9081026001600160601b039093169290921781559183015160018301556060830151600283018054608086015160a087015163ffffffff908116600160401b026bffffffff0000000000000000199282166401000000000267ffffffffffffffff199094169190951617919091179081168317825560c0860151869594909360ff60601b19166cffffffffff000000000000000019909216919091179083600581111561411257614112614e8d565b021790555060e08201518051614132916003840191602090910190614b06565b505050600982905561414487836148e1565b60405182907f9169d45eacd63571e315a0504da919b7c89de505493e7b34051802dd0816a069905f90a2506001600a5595945050505050565b60608260a0015163ffffffff1667ffffffffffffffff8111156141a2576141a2614f1c565b6040519080825280602002602001820160405280156141cb578160200160208202803683370190505b5090505f805b8460e00151518110156142a8575f84905060208660e0015183815181106141fa576141fa61574a565b602090810291909101015163ffffffff16901b175f5b5f828152600f602052604090205481101561429e575f828152600f602052604090208054829081106142445761424461574a565b905f5260205f20015f9054906101000a90046001600160a01b03168585815181106142715761427161574a565b6001600160a01b039092166020928302919091019091015283614293816159d4565b945050600101614210565b50506001016141d1565b505092915050565b7aff00000000000000ff00000000000000ff00000000000000ff00006bffffffff0000000000000000604083901c9081167bffffffff00000000000000000000000000000000000000000000000084161760201c6fffffffff000000000000000000000000919091166001600160e01b031984161717601081901c9182167eff00000000000000ff00000000000000ff00000000000000ff000000000000821617600890811c7bff00000000000000ff00000000000000ff00000000000000ff000000939093167fff00000000000000ff00000000000000ff00000000000000ff000000000000009290921691909117919091179081901c7e0f000f000f000f000f000f000f000f000f000f000f000f000f000f000f000f167f0f000f000f000f000f000f000f000f000f000f000f000f000f000f000f000f00600492831c16179061441c827f060606060606060606060606060606060606060606060606060606060606060661578d565b901c7f0f0f0f0f0f0f0f0f0f0f0f0f0f0f0f0f0f0f0f0f0f0f0f0f0f0f0f0f0f0f0f0f16602761444c9190615c8f565b614476827f303030303030303030303030303030303030303030303030303030303030303061578d565b610c75919061578d565b5f8390036144a157604051637c946ed760e01b815260040160405180910390fd5b815115806144b157508051825114155b156144dc57815181516040516308151c1160e41b815260048101929092526024820152604401610d86565b5f7f00000000000000000000000000000000000000000000000000000000000000006001600160a01b03166318160ddd6040518163ffffffff1660e01b8152600401602060405180830381865afa158015614539573d5f5f3e3d5ffd5b505050506040513d601f19601f8201168201806040525081019061455d9190615ca6565b90505f805b84518110156146325761457682600161578d565b8582815181106145885761458861574a565b602002602001015163ffffffff1610806145c05750828582815181106145b0576145b061574a565b602002602001015163ffffffff16115b15614605578481815181106145d7576145d761574a565b6020026020010151604051632ab10b0b60e21b8152600401610d86919063ffffffff91909116815260200190565b8481815181106146175761461761574a565b602090810291909101015163ffffffff169150600101614562565b505050505050565b5f8267ffffffffffffffff81111561465457614654614f1c565b60405190808252806020026020018201604052801561467d578160200160208202803683370190505b5060e08701525f5b838110156148005785818151811061469f5761469f61574a565b60200260200101518760e0015182815181106146bd576146bd61574a565b63ffffffff90921660209283029190910182015286518491908890849081106146e8576146e861574a565b602002602001015163ffffffff16901b8117905085828151811061470e5761470e61574a565b6020908102919091018101515f838152600e8352604090208151815492909301516001600160601b0316640100000000026fffffffffffffffffffffffffffffffff1990921663ffffffff9093169290921717905585518690839081106147775761477761574a565b60200260200101515f0151886080018181516147939190615cbd565b63ffffffff1690525085516001600160601b038416908790849081106147bb576147bb61574a565b6020026020010151602001516001600160601b031611156147f7578582815181106147e8576147e861574a565b60200260200101516020015192505b50600101614685565b506001600160601b038116865260808601515f9061481f906002615cd9565b61482a906001615cbd565b63ffffffff16905061483d600382615d13565b5f036148555761484e600382615d26565b905061486e565b614860600382615d26565b61486b90600161578d565b90505b80876060015163ffffffff1610806148995750866080015163ffffffff16876060015163ffffffff16115b156148d8576060870151608088015160405163eb3a8ba360e01b815263ffffffff92831660048201526024810184905291166044820152606401610d86565b50505050505050565b6148eb82826149d0565b6001600160a01b0382163b158061498d5750604051630a85bd0160e11b8082523360048301525f6024830181905260448301849052608060648401526084830152906001600160a01b0384169063150b7a029060a4016020604051808303815f875af115801561495d573d5f5f3e3d5ffd5b505050506040513d601f19601f82011682018060405250810190614981919061575e565b6001600160e01b031916145b6149cc5760405162461bcd60e51b815260206004820152601060248201526f155394d0519157d49150d2541251539560821b6044820152606401610d86565b5050565b6001600160a01b038216614a1a5760405162461bcd60e51b81526020600482015260116024820152701253959053125117d49150d25412515395607a1b6044820152606401610d86565b5f818152600260205260409020546001600160a01b031615614a7e5760405162461bcd60e51b815260206004820152600e60248201527f414c52454144595f4d494e5445440000000000000000000000000000000000006044820152606401610d86565b6001600160a01b0382165f81815260036020908152604080832080546001019055848352600290915280822080546001600160a01b0319168417905551839291907fddf252ad1be2c89b69c2b068fc378daa952ba7f163c4a11628f55a4df523b3ef908290a45050565b5080545f8255905f5260205f2090810190614b039190614c39565b50565b828054828255905f5260205f2090600701600890048101928215614ba2579160200282015f5b83821115614b7057835183826101000a81548163ffffffff021916908363ffffffff1602179055509260200192600401602081600301049283019260010302614b2c565b8015614ba05782816101000a81549063ffffffff0219169055600401602081600301049283019260010302614b70565b505b50614bae929150614c69565b5090565b5080545f825560070160089004905f5260205f2090810190614b039190614c69565b5080545f8255905f5260205f2090810190614b039190614c69565b828054828255905f5260205f2090600701600890048101928215614ba2575f5260205f20916007016008900482015b82811115614ba2578254825591600101919060010190614c1e565b5b80821115614bae57805477ffffffffffffffffffffffffffffffffffffffffffffffff19168155600101614c3a565b5b80821115614bae575f8155600101614c6a565b6001600160e01b031981168114614b03575f5ffd5b5f60208284031215614ca2575f5ffd5b8135614cad81614c7d565b9392505050565b5f81518084528060208401602086015e5f602082860101526020601f19601f83011685010191505092915050565b602081525f614cad6020830184614cb4565b5f60208284031215614d04575f5ffd5b5035919050565b6001600160a01b0381168114614b03575f5ffd5b5f5f60408385031215614d30575f5ffd5b8235614d3b81614d0b565b946020939093013593505050565b5f60208284031215614d59575f5ffd5b8135614cad81614d0b565b5f60408201848352604060208401528084518083526060850191506020860192505f5b81811015614dc0578351805163ffffffff1684526020908101516001600160601b03168185015290930192604090920191600101614d87565b50909695505050505050565b5f5f60408385031215614ddd575f5ffd5b50508035926020909101359150565b5f8151808452602084019350602083015f5b82811015614e255781516001600160a01b0316865260209586019590910190600101614dfe565b5093949350505050565b828152604060208201525f614e476040830184614dec565b949350505050565b5f5f5f60608486031215614e61575f5ffd5b8335614e6c81614d0b565b92506020840135614e7c81614d0b565b929592945050506040919091013590565b634e487b7160e01b5f52602160045260245ffd5b60068110614ebd57634e487b7160e01b5f52602160045260245ffd5b9052565b6001600160601b03881681526001600160a01b03871660208201526040810186905263ffffffff85811660608301528481166080830152831660a082015260e08101614f1060c0830184614ea1565b98975050505050505050565b634e487b7160e01b5f52604160045260245ffd5b6040805190810167ffffffffffffffff81118282101715614f5357614f53614f1c565b60405290565b604051601f8201601f1916810167ffffffffffffffff81118282101715614f8257614f82614f1c565b604052919050565b5f5f67ffffffffffffffff841115614fa457614fa4614f1c565b50601f8301601f1916602001614fb981614f59565b915050828152838383011115614fcd575f5ffd5b828260208301375f602084830101529392505050565b5f60208284031215614ff3575f5ffd5b813567ffffffffffffffff811115615009575f5ffd5b8201601f81018413615019575f5ffd5b614e4784823560208401614f8a565b5f67ffffffffffffffff82111561504157615041614f1c565b5060051b60200190565b5f82601f83011261505a575f5ffd5b813561506d61506882615028565b614f59565b8082825260208201915060208360051b86010192508583111561508e575f5ffd5b602085015b838110156150b45780356150a681614d0b565b835260209283019201615093565b5095945050505050565b80356001600160601b0381168114611699575f5ffd5b5f5f5f606084860312156150e6575f5ffd5b833567ffffffffffffffff8111156150fc575f5ffd5b6151088682870161504b565b935050602084013567ffffffffffffffff811115615124575f5ffd5b8401601f81018613615134575f5ffd5b803561514261506882615028565b8082825260208201915060208360051b850101925088831115615163575f5ffd5b6020840193505b8284101561518c5761517b846150be565b82526020938401939091019061516a565b959895975050505060409390930135925050565b5f5f604083850312156151b1575f5ffd5b82356151bc81614d0b565b9150602083013580151581146151d0575f5ffd5b809150509250929050565b5f5f604083850312156151ec575f5ffd5b823560028110614d3b575f5ffd5b5f8151808452602084019350602083015f5b82811015614e2557815163ffffffff1686526020958601959091019060010161520c565b828152604060208201525f614e4760408301846151fa565b5f60408201848352604060208401528084518083526060850191506020860192505f5b81811015614dc057835183526020938401939092019160010161526b565b5f5f5f5f5f6080868803121561529d575f5ffd5b85356152a881614d0b565b945060208601356152b881614d0b565b935060408601359250606086013567ffffffffffffffff8111156152da575f5ffd5b8601601f810188136152ea575f5ffd5b803567ffffffffffffffff811115615300575f5ffd5b886020828401011115615311575f5ffd5b959894975092955050506020019190565b63ffffffff81168114614b03575f5ffd5b5f82601f830112615342575f5ffd5b813561535061506882615028565b8082825260208201915060208360051b860101925085831115615371575f5ffd5b602085015b838110156150b457803561538981615322565b835260209283019201615376565b5f82601f8301126153a6575f5ffd5b81356153b461506882615028565b8082825260208201915060208360061b8601019250858311156153d5575f5ffd5b602085015b838110156150b457604081880312156153f1575f5ffd5b6153f9614f30565b813561540481615322565b8152615412602083016150be565b6020820152808452506020830192506040810190506153da565b5f5f5f5f5f5f60c08789031215615441575f5ffd5b863561544c81614d0b565b955060208701359450604087013567ffffffffffffffff81111561546e575f5ffd5b61547a89828a01615333565b945050606087013567ffffffffffffffff811115615496575f5ffd5b6154a289828a01615397565b93505060808701356154b381615322565b9598949750929591949360a090920135925050565b5f5f5f5f608085870312156154db575f5ffd5b84356154e681614d0b565b935060208501359250604085013567ffffffffffffffff811115615508575f5ffd5b6155148782880161504b565b925050606085013567ffffffffffffffff811115615530575f5ffd5b61553c87828801615333565b91505092959194509250565b5f5f60408385031215615559575f5ffd5b823561556481614d0b565b915060208301356151d081614d0b565b602081526001600160601b0382511660208201526001600160a01b036020830151166040820152604082015160608201525f60608301516155bd608084018263ffffffff169052565b50608083015163ffffffff811660a08401525060a083015163ffffffff811660c08401525060c08301516155f460e0840182614ea1565b5060e083015161010080840152614e476101208401826151fa565b5f5f5f5f60808587031215615622575f5ffd5b843561562d81614d0b565b935060208501359250604085013561564481614d0b565b9150606085013567ffffffffffffffff81111561565f575f5ffd5b8501601f8101871361566f575f5ffd5b61553c87823560208401614f8a565b5f5f5f5f5f60a08688031215615692575f5ffd5b853561569d81614d0b565b945060208601359350604086013567ffffffffffffffff8111156156bf575f5ffd5b6156cb88828901615333565b935050606086013567ffffffffffffffff8111156156e7575f5ffd5b6156f388828901615397565b925050608086013561570481615322565b809150509295509295909350565b600181811c9082168061572657607f821691505b60208210810361574457634e487b7160e01b5f52602260045260245ffd5b50919050565b634e487b7160e01b5f52603260045260245ffd5b5f6020828403121561576e575f5ffd5b8151614cad81614c7d565b634e487b7160e01b5f52601160045260245ffd5b80820180821115610c7557610c75615779565b601f8211156114e657805f5260205f20601f840160051c810160208510156157c55750805b601f840160051c820191505b818110156127c6575f81556001016157d1565b815167ffffffffffffffff8111156157fe576157fe614f1c565b6158128161580c8454615712565b846157a0565b6020601f821160018114615844575f831561582d5750848201515b5f19600385901b1c1916600184901b1784556127c6565b5f84815260208120601f198516915b828110156158735787850151825560209485019460019092019101615853565b508482101561589057868401515f19600387901b60f8161c191681555b50505050600190811b01905550565b6001600160601b038181168382160190811115610c7557610c75615779565b6001600160601b038281168282160390811115610c7557610c75615779565b63ffffffff8281168282160390811115610c7557610c75615779565b6001600160a01b03861681526001600160a01b038516602082015283604082015260806060820152816080820152818360a08301375f81830160a090810191909152601f909201601f19160101949350505050565b5f5f865461595b81615712565b6001821680156159725760018114615987576159b4565b60ff19831686528115158202860193506159b4565b895f5260205f205f5b838110156159ac57815488820152600190910190602001615990565b505081860193505b50505085518060208801835e019384525050602082015260400192915050565b5f600182016159e5576159e5615779565b5060010190565b5f63ffffffff821663ffffffff8103615a0757615a07615779565b60010192915050565b606081525f615a226060830186614dec565b63ffffffff851660208401528281036040840152615a408185614cb4565b9695505050505050565b5f60208284031215615a5a575f5ffd5b8151614cad81614d0b565b5f6020820160208352808454615a7f818490815260200190565b5f8781526020812094509092505b81600782011015615b0557835463ffffffff8082168552602082811c821690860152604082811c821690860152606082811c821690860152608082811c82169086015260a082811c82169086015260c082811c9091169085015260e090811c9084015260019093019261010090920191600801615a8d565b92549281811015615b235763ffffffff841683526020909201916001015b81811015615b4357602084901c63ffffffff168352602092909201916001015b81811015615b625763ffffffff604085901c1683526020909201916001015b81811015615b815763ffffffff606085901c1683526020909201916001015b81811015615ba05763ffffffff608085901c1683526020909201916001015b81811015615bbf5763ffffffff60a085901c1683526020909201916001015b81811015615bde5763ffffffff60c085901c1683526020909201916001015b81811015615bf45760e084901c83526020830192505b509095945050505050565b5f60208284031215615c0f575f5ffd5b815167ffffffffffffffff811115615c25575f5ffd5b8201601f81018413615c35575f5ffd5b8051615c4361506882615028565b8082825260208201915060208360051b850101925086831115615c64575f5ffd5b6020840193505b82841015615a40578351615c7e81615322565b825260209384019390910190615c6b565b8082028115828204841417610c7557610c75615779565b5f60208284031215615cb6575f5ffd5b5051919050565b63ffffffff8181168382160190811115610c7557610c75615779565b63ffffffff8181168382160290811690818114615cf857615cf8615779565b5092915050565b634e487b7160e01b5f52601260045260245ffd5b5f82615d2157615d21615cff565b500690565b5f82615d3457615d34615cff565b50049056fea26469706673582212209dfd9b50efe4f136ef18029e3c1749c96df8a12821b1b1abe39962a4f6a30f4964736f6c634300081c0033",
  "linkReferences": {},
  "deployedLinkReferences": {}
}