{
  "_format": "hh-sol-artifact-1",
  "contractName": "ComponentRegistryTest",
  "sourceName": "contracts/test/ComponentRegistryTest.sol",
  "abi": [
    {
      "inputs": [
        {
          "internalType": "string",
          "name": "_name",
          "type": "string"
        },
        {
          "internalType": "string",
          "name": "_symbol",
          "type": "string"
        },
        {
          "internalType": "string",
          "name": "_baseURI",
          "type": "string"
        }
      ],
      "stateMutability": "nonpayable",
      "type": "constructor"
    },
    {
      "inputs": [
        {
          "internalType": "address",
          "name": "operator",
          "type": "address"
        }
      ],
      "name": "AgentInstanceRegistered",
      "type": "error"
    },
    {
      "inputs": [
        {
          "internalType": "uint256",
          "name": "serviceId",
          "type": "uint256"
        }
      ],
      "name": "AgentInstancesSlotsFilled",
      "type": "error"
    },
    {
      "inputs": [
        {
          "internalType": "uint256",
          "name": "agentId",
          "type": "uint256"
        }
      ],
      "name": "AgentNotFound",
      "type": "error"
    },
    {
      "inputs": [
        {
          "internalType": "uint256",
          "name": "agentId",
          "type": "uint256"
        },
        {
          "internalType": "uint256",
          "name": "serviceId",
          "type": "uint256"
        }
      ],
      "name": "AgentNotInService",
      "type": "error"
    },
    {
      "inputs": [
        {
          "internalType": "uint256",
          "name": "componentId",
          "type": "uint256"
        }
      ],
      "name": "ComponentNotFound",
      "type": "error"
    },
    {
      "inputs": [],
      "name": "DifferentTokenURIs",
      "type": "error"
    },
    {
      "inputs": [],
      "name": "HashExists",
      "type": "error"
    },
    {
      "inputs": [
        {
          "internalType": "uint256",
          "name": "sent",
          "type": "uint256"
        },
        {
          "internalType": "uint256",
          "name": "expected",
          "type": "uint256"
        },
        {
          "internalType": "uint256",
          "name": "serviceId",
          "type": "uint256"
        }
      ],
      "name": "IncorrectAgentBondingValue",
      "type": "error"
    },
    {
      "inputs": [
        {
          "internalType": "uint256",
          "name": "sent",
          "type": "uint256"
        },
        {
          "internalType": "uint256",
          "name": "expected",
          "type": "uint256"
        },
        {
          "internalType": "uint256",
          "name": "serviceId",
          "type": "uint256"
        }
      ],
      "name": "IncorrectRegistrationDepositValue",
      "type": "error"
    },
    {
      "inputs": [
        {
          "internalType": "address",
          "name": "sender",
          "type": "address"
        },
        {
          "internalType": "address",
          "name": "manager",
          "type": "address"
        }
      ],
      "name": "ManagerOnly",
      "type": "error"
    },
    {
      "inputs": [
        {
          "internalType": "address",
          "name": "provided",
          "type": "address"
        },
        {
          "internalType": "address",
          "name": "expected",
          "type": "address"
        },
        {
          "internalType": "uint256",
          "name": "serviceId",
          "type": "uint256"
        }
      ],
      "name": "OnlyOwnServiceMultisig",
      "type": "error"
    },
    {
      "inputs": [
        {
          "internalType": "address",
          "name": "operator",
          "type": "address"
        },
        {
          "internalType": "uint256",
          "name": "serviceId",
          "type": "uint256"
        }
      ],
      "name": "OperatorHasNoInstances",
      "type": "error"
    },
    {
      "inputs": [
        {
          "internalType": "uint256",
          "name": "provided",
          "type": "uint256"
        },
        {
          "internalType": "uint256",
          "name": "max",
          "type": "uint256"
        }
      ],
      "name": "Overflow",
      "type": "error"
    },
    {
      "inputs": [
        {
          "internalType": "address",
          "name": "sender",
          "type": "address"
        },
        {
          "internalType": "address",
          "name": "owner",
          "type": "address"
        }
      ],
      "name": "OwnerOnly",
      "type": "error"
    },
    {
      "inputs": [],
      "name": "Paused",
      "type": "error"
    },
    {
      "inputs": [],
      "name": "ReentrancyGuard",
      "type": "error"
    },
    {
      "inputs": [
        {
          "internalType": "uint256",
          "name": "serviceId",
          "type": "uint256"
        }
      ],
      "name": "ServiceMustBeInactive",
      "type": "error"
    },
    {
      "inputs": [
        {
          "internalType": "address",
          "name": "token",
          "type": "address"
        },
        {
          "internalType": "address",
          "name": "from",
          "type": "address"
        },
        {
          "internalType": "address",
          "name": "to",
          "type": "address"
        },
        {
          "internalType": "uint256",
          "name": "value",
          "type": "uint256"
        }
      ],
      "name": "TransferFailed",
      "type": "error"
    },
    {
      "inputs": [
        {
          "internalType": "address",
          "name": "multisig",
          "type": "address"
        }
      ],
      "name": "UnauthorizedMultisig",
      "type": "error"
    },
    {
      "inputs": [
        {
          "internalType": "uint256",
          "name": "agentId",
          "type": "uint256"
        }
      ],
      "name": "WrongAgentId",
      "type": "error"
    },
    {
      "inputs": [
        {
          "internalType": "uint256",
          "name": "numValues1",
          "type": "uint256"
        },
        {
          "internalType": "uint256",
          "name": "numValues2",
          "type": "uint256"
        }
      ],
      "name": "WrongArrayLength",
      "type": "error"
    },
    {
      "inputs": [
        {
          "internalType": "uint256",
          "name": "serviceId",
          "type": "uint256"
        }
      ],
      "name": "WrongOperator",
      "type": "error"
    },
    {
      "inputs": [
        {
          "internalType": "uint256",
          "name": "state",
          "type": "uint256"
        },
        {
          "internalType": "uint256",
          "name": "serviceId",
          "type": "uint256"
        }
      ],
      "name": "WrongServiceState",
      "type": "error"
    },
    {
      "inputs": [
        {
          "internalType": "uint256",
          "name": "currentThreshold",
          "type": "uint256"
        },
        {
          "internalType": "uint256",
          "name": "minThreshold",
          "type": "uint256"
        },
        {
          "internalType": "uint256",
          "name": "maxThreshold",
          "type": "uint256"
        }
      ],
      "name": "WrongThreshold",
      "type": "error"
    },
    {
      "inputs": [],
      "name": "ZeroAddress",
      "type": "error"
    },
    {
      "inputs": [],
      "name": "ZeroValue",
      "type": "error"
    },
    {
      "anonymous": false,
      "inputs": [
        {
          "indexed": true,
          "internalType": "address",
          "name": "owner",
          "type": "address"
        },
        {
          "indexed": true,
          "internalType": "address",
          "name": "spender",
          "type": "address"
        },
        {
          "indexed": true,
          "internalType": "uint256",
          "name": "id",
          "type": "uint256"
        }
      ],
      "name": "Approval",
      "type": "event"
    },
    {
      "anonymous": false,
      "inputs": [
        {
          "indexed": true,
          "internalType": "address",
          "name": "owner",
          "type": "address"
        },
        {
          "indexed": true,
          "internalType": "address",
          "name": "operator",
          "type": "address"
        },
        {
          "indexed": false,
          "internalType": "bool",
          "name": "approved",
          "type": "bool"
        }
      ],
      "name": "ApprovalForAll",
      "type": "event"
    },
    {
      "anonymous": false,
      "inputs": [
        {
          "indexed": false,
          "internalType": "string",
          "name": "baseURI",
          "type": "string"
        }
      ],
      "name": "BaseURIChanged",
      "type": "event"
    },
    {
      "anonymous": false,
      "inputs": [
        {
          "indexed": false,
          "internalType": "uint256",
          "name": "unitId",
          "type": "uint256"
        },
        {
          "indexed": false,
          "internalType": "enum UnitRegistry.UnitType",
          "name": "uType",
          "type": "uint8"
        },
        {
          "indexed": false,
          "internalType": "bytes32",
          "name": "unitHash",
          "type": "bytes32"
        }
      ],
      "name": "CreateUnit",
      "type": "event"
    },
    {
      "anonymous": false,
      "inputs": [
        {
          "indexed": true,
          "internalType": "address",
          "name": "manager",
          "type": "address"
        }
      ],
      "name": "ManagerUpdated",
      "type": "event"
    },
    {
      "anonymous": false,
      "inputs": [
        {
          "indexed": true,
          "internalType": "address",
          "name": "owner",
          "type": "address"
        }
      ],
      "name": "OwnerUpdated",
      "type": "event"
    },
    {
      "anonymous": false,
      "inputs": [
        {
          "indexed": true,
          "internalType": "address",
          "name": "from",
          "type": "address"
        },
        {
          "indexed": true,
          "internalType": "address",
          "name": "to",
          "type": "address"
        },
        {
          "indexed": true,
          "internalType": "uint256",
          "name": "id",
          "type": "uint256"
        }
      ],
      "name": "Transfer",
      "type": "event"
    },
    {
      "anonymous": false,
      "inputs": [
        {
          "indexed": false,
          "internalType": "uint256",
          "name": "unitId",
          "type": "uint256"
        },
        {
          "indexed": false,
          "internalType": "enum UnitRegistry.UnitType",
          "name": "uType",
          "type": "uint8"
        },
        {
          "indexed": false,
          "internalType": "bytes32",
          "name": "unitHash",
          "type": "bytes32"
        }
      ],
      "name": "UpdateUnitHash",
      "type": "event"
    },
    {
      "inputs": [],
      "name": "CID_PREFIX",
      "outputs": [
        {
          "internalType": "string",
          "name": "",
          "type": "string"
        }
      ],
      "stateMutability": "view",
      "type": "function"
    },
    {
      "inputs": [],
      "name": "VERSION",
      "outputs": [
        {
          "internalType": "string",
          "name": "",
          "type": "string"
        }
      ],
      "stateMutability": "view",
      "type": "function"
    },
    {
      "inputs": [],
      "name": "_HEX_SYMBOLS",
      "outputs": [
        {
          "internalType": "bytes16",
          "name": "",
          "type": "bytes16"
        }
      ],
      "stateMutability": "view",
      "type": "function"
    },
    {
      "inputs": [
        {
          "internalType": "address",
          "name": "spender",
          "type": "address"
        },
        {
          "internalType": "uint256",
          "name": "id",
          "type": "uint256"
        }
      ],
      "name": "approve",
      "outputs": [],
      "stateMutability": "nonpayable",
      "type": "function"
    },
    {
      "inputs": [
        {
          "internalType": "address",
          "name": "owner",
          "type": "address"
        }
      ],
      "name": "balanceOf",
      "outputs": [
        {
          "internalType": "uint256",
          "name": "",
          "type": "uint256"
        }
      ],
      "stateMutability": "view",
      "type": "function"
    },
    {
      "inputs": [],
      "name": "baseURI",
      "outputs": [
        {
          "internalType": "string",
          "name": "",
          "type": "string"
        }
      ],
      "stateMutability": "view",
      "type": "function"
    },
    {
      "inputs": [
        {
          "internalType": "address",
          "name": "newManager",
          "type": "address"
        }
      ],
      "name": "changeManager",
      "outputs": [],
      "stateMutability": "nonpayable",
      "type": "function"
    },
    {
      "inputs": [
        {
          "internalType": "address",
          "name": "newOwner",
          "type": "address"
        }
      ],
      "name": "changeOwner",
      "outputs": [],
      "stateMutability": "nonpayable",
      "type": "function"
    },
    {
      "inputs": [
        {
          "internalType": "uint256",
          "name": "unitId",
          "type": "uint256"
        }
      ],
      "name": "checkTokenURI",
      "outputs": [],
      "stateMutability": "view",
      "type": "function"
    },
    {
      "inputs": [
        {
          "internalType": "address",
          "name": "unitOwner",
          "type": "address"
        },
        {
          "internalType": "bytes32",
          "name": "unitHash",
          "type": "bytes32"
        },
        {
          "internalType": "uint32[]",
          "name": "dependencies",
          "type": "uint32[]"
        }
      ],
      "name": "create",
      "outputs": [
        {
          "internalType": "uint256",
          "name": "unitId",
          "type": "uint256"
        }
      ],
      "stateMutability": "payable",
      "type": "function"
    },
    {
      "inputs": [
        {
          "internalType": "uint256",
          "name": "unitId",
          "type": "uint256"
        }
      ],
      "name": "exists",
      "outputs": [
        {
          "internalType": "bool",
          "name": "",
          "type": "bool"
        }
      ],
      "stateMutability": "view",
      "type": "function"
    },
    {
      "inputs": [
        {
          "internalType": "uint256",
          "name": "",
          "type": "uint256"
        }
      ],
      "name": "getApproved",
      "outputs": [
        {
          "internalType": "address",
          "name": "",
          "type": "address"
        }
      ],
      "stateMutability": "view",
      "type": "function"
    },
    {
      "inputs": [
        {
          "internalType": "uint256",
          "name": "unitId",
          "type": "uint256"
        }
      ],
      "name": "getDependencies",
      "outputs": [
        {
          "internalType": "uint256",
          "name": "numDependencies",
          "type": "uint256"
        },
        {
          "internalType": "uint32[]",
          "name": "dependencies",
          "type": "uint32[]"
        }
      ],
      "stateMutability": "view",
      "type": "function"
    },
    {
      "inputs": [
        {
          "internalType": "uint256",
          "name": "unitId",
          "type": "uint256"
        }
      ],
      "name": "getLocalSubComponents",
      "outputs": [
        {
          "internalType": "uint32[]",
          "name": "subComponentIds",
          "type": "uint32[]"
        },
        {
          "internalType": "uint256",
          "name": "numSubComponents",
          "type": "uint256"
        }
      ],
      "stateMutability": "view",
      "type": "function"
    },
    {
      "inputs": [
        {
          "internalType": "uint256",
          "name": "unitId",
          "type": "uint256"
        }
      ],
      "name": "getUnit",
      "outputs": [
        {
          "components": [
            {
              "internalType": "bytes32",
              "name": "unitHash",
              "type": "bytes32"
            },
            {
              "internalType": "uint32[]",
              "name": "dependencies",
              "type": "uint32[]"
            }
          ],
          "internalType": "struct UnitRegistry.Unit",
          "name": "unit",
          "type": "tuple"
        }
      ],
      "stateMutability": "view",
      "type": "function"
    },
    {
      "inputs": [
        {
          "internalType": "uint256",
          "name": "unitId",
          "type": "uint256"
        }
      ],
      "name": "getUpdatedHashes",
      "outputs": [
        {
          "internalType": "uint256",
          "name": "numHashes",
          "type": "uint256"
        },
        {
          "internalType": "bytes32[]",
          "name": "unitHashes",
          "type": "bytes32[]"
        }
      ],
      "stateMutability": "view",
      "type": "function"
    },
    {
      "inputs": [
        {
          "internalType": "address",
          "name": "",
          "type": "address"
        },
        {
          "internalType": "address",
          "name": "",
          "type": "address"
        }
      ],
      "name": "isApprovedForAll",
      "outputs": [
        {
          "internalType": "bool",
          "name": "",
          "type": "bool"
        }
      ],
      "stateMutability": "view",
      "type": "function"
    },
    {
      "inputs": [],
      "name": "manager",
      "outputs": [
        {
          "internalType": "address",
          "name": "",
          "type": "address"
        }
      ],
      "stateMutability": "view",
      "type": "function"
    },
    {
      "inputs": [
        {
          "internalType": "uint256",
          "name": "",
          "type": "uint256"
        },
        {
          "internalType": "uint256",
          "name": "",
          "type": "uint256"
        }
      ],
      "name": "mapSubComponents",
      "outputs": [
        {
          "internalType": "uint32",
          "name": "",
          "type": "uint32"
        }
      ],
      "stateMutability": "view",
      "type": "function"
    },
    {
      "inputs": [
        {
          "internalType": "uint256",
          "name": "",
          "type": "uint256"
        },
        {
          "internalType": "uint256",
          "name": "",
          "type": "uint256"
        }
      ],
      "name": "mapUnitIdHashes",
      "outputs": [
        {
          "internalType": "bytes32",
          "name": "",
          "type": "bytes32"
        }
      ],
      "stateMutability": "view",
      "type": "function"
    },
    {
      "inputs": [
        {
          "internalType": "uint256",
          "name": "",
          "type": "uint256"
        }
      ],
      "name": "mapUnits",
      "outputs": [
        {
          "internalType": "bytes32",
          "name": "unitHash",
          "type": "bytes32"
        }
      ],
      "stateMutability": "view",
      "type": "function"
    },
    {
      "inputs": [],
      "name": "name",
      "outputs": [
        {
          "internalType": "string",
          "name": "",
          "type": "string"
        }
      ],
      "stateMutability": "view",
      "type": "function"
    },
    {
      "inputs": [],
      "name": "owner",
      "outputs": [
        {
          "internalType": "address",
          "name": "",
          "type": "address"
        }
      ],
      "stateMutability": "view",
      "type": "function"
    },
    {
      "inputs": [
        {
          "internalType": "uint256",
          "name": "id",
          "type": "uint256"
        }
      ],
      "name": "ownerOf",
      "outputs": [
        {
          "internalType": "address",
          "name": "owner",
          "type": "address"
        }
      ],
      "stateMutability": "view",
      "type": "function"
    },
    {
      "inputs": [
        {
          "internalType": "address",
          "name": "from",
          "type": "address"
        },
        {
          "internalType": "address",
          "name": "to",
          "type": "address"
        },
        {
          "internalType": "uint256",
          "name": "id",
          "type": "uint256"
        }
      ],
      "name": "safeTransferFrom",
      "outputs": [],
      "stateMutability": "nonpayable",
      "type": "function"
    },
    {
      "inputs": [
        {
          "internalType": "address",
          "name": "from",
          "type": "address"
        },
        {
          "internalType": "address",
          "name": "to",
          "type": "address"
        },
        {
          "internalType": "uint256",
          "name": "id",
          "type": "uint256"
        },
        {
          "internalType": "bytes",
          "name": "data",
          "type": "bytes"
        }
      ],
      "name": "safeTransferFrom",
      "outputs": [],
      "stateMutability": "nonpayable",
      "type": "function"
    },
    {
      "inputs": [
        {
          "internalType": "address",
          "name": "operator",
          "type": "address"
        },
        {
          "internalType": "bool",
          "name": "approved",
          "type": "bool"
        }
      ],
      "name": "setApprovalForAll",
      "outputs": [],
      "stateMutability": "nonpayable",
      "type": "function"
    },
    {
      "inputs": [
        {
          "internalType": "string",
          "name": "bURI",
          "type": "string"
        }
      ],
      "name": "setBaseURI",
      "outputs": [],
      "stateMutability": "nonpayable",
      "type": "function"
    },
    {
      "inputs": [
        {
          "internalType": "bytes4",
          "name": "interfaceId",
          "type": "bytes4"
        }
      ],
      "name": "supportsInterface",
      "outputs": [
        {
          "internalType": "bool",
          "name": "",
          "type": "bool"
        }
      ],
      "stateMutability": "view",
      "type": "function"
    },
    {
      "inputs": [],
      "name": "symbol",
      "outputs": [
        {
          "internalType": "string",
          "name": "",
          "type": "string"
        }
      ],
      "stateMutability": "view",
      "type": "function"
    },
    {
      "inputs": [
        {
          "internalType": "uint256",
          "name": "id",
          "type": "uint256"
        }
      ],
      "name": "tokenByIndex",
      "outputs": [
        {
          "internalType": "uint256",
          "name": "unitId",
          "type": "uint256"
        }
      ],
      "stateMutability": "view",
      "type": "function"
    },
    {
      "inputs": [
        {
          "internalType": "uint256",
          "name": "unitId",
          "type": "uint256"
        }
      ],
      "name": "tokenURI",
      "outputs": [
        {
          "internalType": "string",
          "name": "",
          "type": "string"
        }
      ],
      "stateMutability": "view",
      "type": "function"
    },
    {
      "inputs": [],
      "name": "totalSupply",
      "outputs": [
        {
          "internalType": "uint256",
          "name": "",
          "type": "uint256"
        }
      ],
      "stateMutability": "view",
      "type": "function"
    },
    {
      "inputs": [
        {
          "internalType": "address",
          "name": "from",
          "type": "address"
        },
        {
          "internalType": "address",
          "name": "to",
          "type": "address"
        },
        {
          "internalType": "uint256",
          "name": "id",
          "type": "uint256"
        }
      ],
      "name": "transferFrom",
      "outputs": [],
      "stateMutability": "nonpayable",
      "type": "function"
    },
    {
      "inputs": [],
      "name": "unitType",
      "outputs": [
        {
          "internalType": "enum UnitRegistry.UnitType",
          "name": "",
          "type": "uint8"
        }
      ],
      "stateMutability": "view",
      "type": "function"
    },
    {
      "inputs": [
        {
          "internalType": "address",
          "name": "unitOwner",
          "type": "address"
        },
        {
          "internalType": "uint256",
          "name": "unitId",
          "type": "uint256"
        },
        {
          "internalType": "bytes32",
          "name": "unitHash",
          "type": "bytes32"
        }
      ],
      "name": "updateHash",
      "outputs": [
        {
          "internalType": "bool",
          "name": "success",
          "type": "bool"
        }
      ],
      "stateMutability": "nonpayable",
      "type": "function"
    }
  ],
  "bytecode": "0x60a06040526001600a55348015610014575f5ffd5b506040516131d63803806131d683398101604081905261003391610147565b8282825f838382610044838261025a565b506001610051828261025a565b50505080600181111561006657610066610314565b608081600181111561007a5761007a610314565b9052506008905061008b828261025a565b5050600680546001600160a01b03191633179055506103289350505050565b634e487b7160e01b5f52604160045260245ffd5b5f82601f8301126100cd575f5ffd5b81516001600160401b038111156100e6576100e66100aa565b604051601f8201601f19908116603f011681016001600160401b0381118282101715610114576101146100aa565b60405281815283820160200185101561012b575f5ffd5b8160208501602083015e5f918101602001919091529392505050565b5f5f5f60608486031215610159575f5ffd5b83516001600160401b0381111561016e575f5ffd5b61017a868287016100be565b602086015190945090506001600160401b03811115610197575f5ffd5b6101a3868287016100be565b604086015190935090506001600160401b038111156101c0575f5ffd5b6101cc868287016100be565b9150509250925092565b600181811c908216806101ea57607f821691505b60208210810361020857634e487b7160e01b5f52602260045260245ffd5b50919050565b601f82111561025557805f5260205f20601f840160051c810160208510156102335750805b601f840160051c820191505b81811015610252575f815560010161023f565b50505b505050565b81516001600160401b03811115610273576102736100aa565b6102878161028184546101d6565b8461020e565b6020601f8211600181146102b9575f83156102a25750848201515b5f19600385901b1c1916600184901b178455610252565b5f84815260208120601f198516915b828110156102e857878501518255602094850194600190920191016102c8565b508482101561030557868401515f19600387901b60f8161c191681555b50505050600190811b01905550565b634e487b7160e01b5f52602160045260245ffd5b608051612e7a61035c5f395f81816105bb01528181610f1401528181610ff40152818161182b01526119840152612e7a5ff3fe608060405260043610610243575f3560e01c80636c0360eb11610131578063a3fbbaae116100ac578063c152bdfe1161007c578063e985e9c511610062578063e985e9c514610731578063fbfd24bf1461076a578063ffa1ad741461077d575f5ffd5b8063c152bdfe146106f3578063c87b56dd14610712575f5ffd5b8063a3fbbaae14610669578063a6f9dae114610688578063b88d4fde146106a7578063bf733f6b146106c6575f5ffd5b806385ad4f901161010157806395d89b41116100e757806395d89b4114610609578063a22cb4651461061d578063a25e29d31461063c575f5ffd5b806385ad4f90146105aa5780638da5cb5b146105ea575f5ffd5b80636c0360eb1461050f57806370a0823114610523578063716be0e0146105425780637c5e63e014610576575f5ffd5b806342842e0e116101c15780634f6ccce71161019157806355f804b31161017757806355f804b3146104a45780636352211e146104c3578063661a0d0b146104e2575f5ffd5b80634f6ccce71461045a5780634fa706d714610479575f5ffd5b806342842e0e146103de578063481c6a75146103fd578063482c5c3c1461041c5780634f558e791461043b575f5ffd5b8063095ea7b31161021657806318160ddd116101fc57806318160ddd1461037d57806323b872dd146103a05780632d15687c146103bf575f5ffd5b8063095ea7b3146103305780631655bfbe14610351575f5ffd5b806301ffc9a71461024757806306fdde031461027b57806307151c2f1461029c578063081812fc146102e4575b5f5ffd5b348015610252575f5ffd5b50610266610261366004612577565b6107ad565b60405190151581526020015b60405180910390f35b348015610286575f5ffd5b5061028f6107fe565b6040516102729190612599565b3480156102a7575f5ffd5b506102c26f181899199a1a9b1b9c1cb0b131b232b360811b81565b6040516fffffffffffffffffffffffffffffffff199091168152602001610272565b3480156102ef575f5ffd5b506103186102fe3660046125ce565b60046020525f90815260409020546001600160a01b031681565b6040516001600160a01b039091168152602001610272565b34801561033b575f5ffd5b5061034f61034a3660046125fb565b610889565b005b34801561035c575f5ffd5b5061037061036b3660046125ce565b61096d565b6040516102729190612623565b348015610388575f5ffd5b5061039260095481565b604051908152602001610272565b3480156103ab575f5ffd5b5061034f6103ba366004612683565b610a24565b3480156103ca575f5ffd5b5061034f6103d93660046125ce565b610bf9565b3480156103e9575f5ffd5b5061034f6103f8366004612683565b610dba565b348015610408575f5ffd5b50600754610318906001600160a01b031681565b348015610427575f5ffd5b506102666104363660046126bd565b610eae565b348015610446575f5ffd5b506102666104553660046125ce565b61102a565b348015610465575f5ffd5b506103926104743660046125ce565b61104b565b348015610484575f5ffd5b506103926104933660046125ce565b600d6020525f908152604090205481565b3480156104af575f5ffd5b5061034f6104be366004612732565b61108f565b3480156104ce575f5ffd5b506103186104dd3660046125ce565b611137565b3480156104ed575f5ffd5b506105016104fc3660046125ce565b61119b565b604051610272929190612806565b34801561051a575f5ffd5b5061028f611256565b34801561052e575f5ffd5b5061039261053d366004612826565b611263565b34801561054d575f5ffd5b5061056161055c36600461283f565b6112d5565b60405163ffffffff9091168152602001610272565b348015610581575f5ffd5b5061028f6040518060400160405280600981526020016806630313730313232360bc1b81525081565b3480156105b5575f5ffd5b506105dd7f000000000000000000000000000000000000000000000000000000000000000081565b6040516102729190612893565b3480156105f5575f5ffd5b50600654610318906001600160a01b031681565b348015610614575f5ffd5b5061028f611319565b348015610628575f5ffd5b5061034f6106373660046128a1565b611326565b348015610647575f5ffd5b5061065b6106563660046125ce565b611391565b6040516102729291906128da565b348015610674575f5ffd5b5061034f610683366004612826565b61141e565b348015610693575f5ffd5b5061034f6106a2366004612826565b6114ce565b3480156106b2575f5ffd5b5061034f6106c13660046128fb565b61157e565b3480156106d1575f5ffd5b506106e56106e03660046125ce565b611663565b604051610272929190612990565b3480156106fe575f5ffd5b5061039261070d36600461283f565b6116c4565b34801561071d575f5ffd5b5061028f61072c3660046125ce565b6116ef565b34801561073c575f5ffd5b5061026661074b3660046129dd565b600560209081525f928352604080842090915290825290205460ff1681565b610392610778366004612a0e565b611765565b348015610788575f5ffd5b5061028f604051806040016040528060058152602001640312e302e360dc1b81525081565b5f6301ffc9a760e01b6001600160e01b0319831614806107dd57506380ac58cd60e01b6001600160e01b03198316145b806107f85750635b5e139f60e01b6001600160e01b03198316145b92915050565b5f805461080a90612ae5565b80601f016020809104026020016040519081016040528092919081815260200182805461083690612ae5565b80156108815780601f1061085857610100808354040283529160200191610881565b820191905f5260205f20905b81548152906001019060200180831161086457829003601f168201915b505050505081565b5f818152600260205260409020546001600160a01b0316338114806108d057506001600160a01b0381165f90815260056020908152604080832033845290915290205460ff165b6109125760405162461bcd60e51b815260206004820152600e60248201526d1393d517d055551213d49256915160921b60448201526064015b60405180910390fd5b5f8281526004602052604080822080546001600160a01b0319166001600160a01b0387811691821790925591518593918516917f8c5be1e5ebec7d5bd14f71427d1e84f3dd0314c0f7b2291e5b200ac8c7c3b92591a4505050565b604080518082019091525f8152606060208201525f828152600d6020908152604091829020825180840184528154815260018201805485518186028101860190965280865291949293858101939290830182828015610a1457602002820191905f5260205f20905f905b82829054906101000a900463ffffffff1663ffffffff16815260200190600401906020826003010492830192600103820291508084116109d75790505b5050505050815250509050919050565b5f818152600260205260409020546001600160a01b03848116911614610a8c5760405162461bcd60e51b815260206004820152600a60248201527f57524f4e475f46524f4d000000000000000000000000000000000000000000006044820152606401610909565b6001600160a01b038216610ad65760405162461bcd60e51b81526020600482015260116024820152701253959053125117d49150d25412515395607a1b6044820152606401610909565b336001600160a01b0384161480610b0f57506001600160a01b0383165f90815260056020908152604080832033845290915290205460ff165b80610b2f57505f818152600460205260409020546001600160a01b031633145b610b6c5760405162461bcd60e51b815260206004820152600e60248201526d1393d517d055551213d49256915160921b6044820152606401610909565b6001600160a01b038084165f81815260036020908152604080832080545f19019055938616808352848320805460010190558583526002825284832080546001600160a01b03199081168317909155600490925284832080549092169091559251849392917fddf252ad1be2c89b69c2b068fc378daa952ba7f163c4a11628f55a4df523b3ef91a4505050565b5f818152600d602052604081205490610c11836116ef565b6040805181815260608101825291925083915f91602082018180368337019050509050603f5b8015610ca8576f181899199a1a9b1b9c1cb0b131b232b360811b83600f1660108110610c6557610c65612b1d565b1a60f81b828281518110610c7b57610c7b612b1d565b60200101906001600160f81b03191690815f1a90535060049290921c91610ca181612b45565b9050610c37565b506f181899199a1a9b1b9c1cb0b131b232b360811b82600f1660108110610cd157610cd1612b1d565b1a60f81b815f81518110610ce757610ce7612b1d565b60200101906001600160f81b03191690815f1a9053505f60086040518060400160405280600981526020016806630313730313232360bc1b81525083604051602001610d3593929190612bdf565b604051602081830303815290604052905080604051602001610d579190612c05565b6040516020818303038152906040528051906020012084604051602001610d7e9190612c05565b6040516020818303038152906040528051906020012014610db257604051638bcd796360e01b815260040160405180910390fd5b505050505050565b610dc5838383610a24565b6001600160a01b0382163b1580610e6a5750604051630a85bd0160e11b8082523360048301526001600160a01b03858116602484015260448301849052608060648401525f608484015290919084169063150b7a029060a4016020604051808303815f875af1158015610e3a573d5f5f3e3d5ffd5b505050506040513d601f19601f82011682018060405250810190610e5e9190612c10565b6001600160e01b031916145b610ea95760405162461bcd60e51b815260206004820152601060248201526f155394d0519157d49150d2541251539560821b6044820152606401610909565b505050565b6007545f906001600160a01b03163314610ef05760075460405163312d21ff60e11b81523360048201526001600160a01b039091166024820152604401610909565b836001600160a01b0316610f0384611137565b6001600160a01b031614610f81575f7f00000000000000000000000000000000000000000000000000000000000000006001811115610f4457610f4461285f565b03610f6557604051634915061960e11b815260048101849052602401610909565b604051630ede975960e01b815260048101849052602401610909565b5f829003610fa257604051637c946ed760e01b815260040160405180910390fd5b505f828152600b6020908152604080832080546001818101835591855292909320909101839055517fdef878acc6b6cc4320a973cf2022bf4ccad90375867c044d23b4e22e9c3b1bda9061101b9085907f0000000000000000000000000000000000000000000000000000000000000000908690612c2b565b60405180910390a19392505050565b5f5f821180156107f85750600954611043906001612c4d565b821092915050565b5f611057826001612c4d565b905060095481111561108a57600954604051637ae5968560e01b8152610909918391600401918252602082015260400190565b919050565b6006546001600160a01b031633146110cf5760065460405163521eb56d60e11b81523360048201526001600160a01b039091166024820152604401610909565b80515f036110f057604051637c946ed760e01b815260040160405180910390fd5b60086110fc8282612ca4565b507f5411e8ebf1636d9e83d5fc4900bf80cbac82e8790da2a4c94db4895e889eedf68160405161112c9190612599565b60405180910390a150565b5f818152600260205260409020546001600160a01b03168061108a5760405162461bcd60e51b815260206004820152600a60248201527f4e4f545f4d494e544544000000000000000000000000000000000000000000006044820152606401610909565b5f60605f600d5f8581526020019081526020015f206040518060400160405290815f82015481526020016001820180548060200260200160405190810160405280929190818152602001828054801561123c57602002820191905f5260205f20905f905b82829054906101000a900463ffffffff1663ffffffff16815260200190600401906020826003010492830192600103820291508084116111ff5790505b505050919092525050506020015180519590945092505050565b6008805461080a90612ae5565b5f6001600160a01b0382166112ba5760405162461bcd60e51b815260206004820152600c60248201527f5a45524f5f4144445245535300000000000000000000000000000000000000006044820152606401610909565b506001600160a01b03165f9081526003602052604090205490565b600c602052815f5260405f2081815481106112ee575f80fd5b905f5260205f209060089182820401919006600402915091509054906101000a900463ffffffff1681565b6001805461080a90612ae5565b335f8181526005602090815260408083206001600160a01b03871680855290835292819020805460ff191686151590811790915590519081529192917f17307eab39ab6107e8899845ad3d59bd9653f200f220920489ca2b5937696c31910160405180910390a35050565b5f818152600c6020908152604080832080548251818502810185019093528083526060949383018282801561140e57602002820191905f5260205f20905f905b82829054906101000a900463ffffffff1663ffffffff16815260200190600401906020826003010492830192600103820291508084116113d15790505b5050505050915081519050915091565b6006546001600160a01b0316331461145e5760065460405163521eb56d60e11b81523360048201526001600160a01b039091166024820152604401610909565b6001600160a01b0381166114855760405163d92e233d60e01b815260040160405180910390fd5b600780546001600160a01b0319166001600160a01b0383169081179091556040517f2c1c11af44aa5608f1dca38c00275c30ea091e02417d36e70e9a1538689c433d905f90a250565b6006546001600160a01b0316331461150e5760065460405163521eb56d60e11b81523360048201526001600160a01b039091166024820152604401610909565b6001600160a01b0381166115355760405163d92e233d60e01b815260040160405180910390fd5b600680546001600160a01b0319166001600160a01b0383169081179091556040517f4ffd725fc4a22075e9ec71c59edf9c38cdeb588a91b24fc5b61388c5be41282b905f90a250565b611589858585610a24565b6001600160a01b0384163b158061161d5750604051630a85bd0160e11b808252906001600160a01b0386169063150b7a02906115d19033908a90899089908990600401612d5f565b6020604051808303815f875af11580156115ed573d5f5f3e3d5ffd5b505050506040513d601f19601f820116820180604052508101906116119190612c10565b6001600160e01b031916145b61165c5760405162461bcd60e51b815260206004820152601060248201526f155394d0519157d49150d2541251539560821b6044820152606401610909565b5050505050565b5f818152600b6020908152604080832080548251818502810185019093528083526060938301828280156116b457602002820191905f5260205f20905b8154815260200190600101908083116116a0575b5050505050905080519150915091565b600b602052815f5260405f2081815481106116dd575f80fd5b905f5260205f20015f91509150505481565b5f818152600d60205260408120546060915060086040518060400160405280600981526020016806630313730313232360bc1b81525061172e836119c9565b61173b608085901b6119c9565b60405160200161174e9493929190612db4565b604051602081830303815290604052915050919050565b5f6001600a54111561178a576040516345f5ce8b60e11b815260040160405180910390fd5b6002600a556001600160a01b0384166117b65760405163d92e233d60e01b815260040160405180910390fd5b5f8390036117d757604051637c946ed760e01b815260040160405180910390fd5b506009546117e58282611b99565b806117ef81612dd5565b5f818152600d602090815260409091208681558551929450925061181a91600184019186019061249f565b505f6118265f85611c78565b90505f7f0000000000000000000000000000000000000000000000000000000000000000600181111561185b5761185b61285f565b036119325780515f61186e826001612c4d565b67ffffffffffffffff811115611886576118866126ed565b6040519080825280602002602001820160405280156118af578160200160208202803683370190505b5090505f5b82811015611905578381815181106118ce576118ce612b1d565b60200260200101518282815181106118e8576118e8612b1d565b63ffffffff909216602092830291909101909101526001016118b4565b508481838151811061191957611919612b1d565b63ffffffff909216602092830291909101909101529150505b5f838152600c6020908152604090912082516119509284019061249f565b5060098390556119608684612206565b7f97587a61bb0b1b9b24e5325039519ae27f44ca15ef278df10f4ab0195205c29c837f0000000000000000000000000000000000000000000000000000000000000000876040516119b393929190612c2b565b60405180910390a150506001600a559392505050565b7aff00000000000000ff00000000000000ff00000000000000ff00006bffffffff0000000000000000604083901c9081167bffffffff00000000000000000000000000000000000000000000000084161760201c6fffffffff000000000000000000000000919091166001600160e01b031984161717601081901c9182167eff00000000000000ff00000000000000ff00000000000000ff000000000000821617600890811c7bff00000000000000ff00000000000000ff00000000000000ff000000939093167fff00000000000000ff00000000000000ff00000000000000ff000000000000009290921691909117919091179081901c7e0f000f000f000f000f000f000f000f000f000f000f000f000f000f000f000f167f0f000f000f000f000f000f000f000f000f000f000f000f000f000f000f000f00600492831c161790611b35827f0606060606060606060606060606060606060606060606060606060606060606612c4d565b901c7f0f0f0f0f0f0f0f0f0f0f0f0f0f0f0f0f0f0f0f0f0f0f0f0f0f0f0f0f0f0f0f0f166027611b659190612ded565b611b8f827f3030303030303030303030303030303030303030303030303030303030303030612c4d565b6107f89190612c4d565b5f805b8351811015611c7257611bb0826001612e04565b63ffffffff16848281518110611bc857611bc8612b1d565b602002602001015163ffffffff161080611c0657508263ffffffff16848281518110611bf657611bf6612b1d565b602002602001015163ffffffff16115b15611c4b57838181518110611c1d57611c1d612b1d565b6020026020010151604051634915061960e11b8152600401610909919063ffffffff91909116815260200190565b838181518110611c5d57611c5d612b1d565b60200260200101519150806001019050611b9c565b50505050565b80516060905f63ffffffff821667ffffffffffffffff811115611c9d57611c9d6126ed565b604051908082528060200260200182016040528015611cc6578160200160208202803683370190505b5090505f8263ffffffff1667ffffffffffffffff811115611ce957611ce96126ed565b604051908082528060200260200182016040528015611d1c57816020015b6060815260200190600190039081611d075790505b5090505f805b8463ffffffff168163ffffffff161015611e0057611d5f88888363ffffffff1681518110611d5257611d52612b1d565b60200260200101516122f5565b838263ffffffff1681518110611d7757611d77612b1d565b6020026020010181905250828163ffffffff1681518110611d9a57611d9a612b1d565b602002602001015151848263ffffffff1681518110611dbb57611dbb612b1d565b63ffffffff9283166020918202929092010152845185918316908110611de357611de3612b1d565b602002602001015182611df69190612e04565b9150600101611d22565b505f8163ffffffff1667ffffffffffffffff811115611e2157611e216126ed565b604051908082528060200260200182016040528015611e4a578160200160208202803683370190505b5090505f8563ffffffff1667ffffffffffffffff811115611e6d57611e6d6126ed565b604051908082528060200260200182016040528015611e96578160200160208202803683370190505b5090505f805b8463ffffffff168163ffffffff161015612141575f8063ffffffff815b8b63ffffffff168163ffffffff1610156120b7575b8a8163ffffffff1681518110611ee657611ee6612b1d565b602002602001015163ffffffff16878263ffffffff1681518110611f0c57611f0c612b1d565b602002602001015163ffffffff1610156120af57898163ffffffff1681518110611f3857611f38612b1d565b6020026020010151878263ffffffff1681518110611f5857611f58612b1d565b602002602001015163ffffffff1681518110611f7657611f76612b1d565b602002602001015163ffffffff168663ffffffff161015612078578163ffffffff168a8263ffffffff1681518110611fb057611fb0612b1d565b6020026020010151888363ffffffff1681518110611fd057611fd0612b1d565b602002602001015163ffffffff1681518110611fee57611fee612b1d565b602002602001015163ffffffff16101561206657898163ffffffff168151811061201a5761201a612b1d565b6020026020010151878263ffffffff168151811061203a5761203a612b1d565b602002602001015163ffffffff168151811061205857612058612b1d565b602002602001015191508093505b8261207081612e20565b9350506120af565b868163ffffffff168151811061209057612090612b1d565b6020026020010180516120a290612e20565b63ffffffff169052611ece565b600101611eb9565b5093508363ffffffff82161561212b5784878563ffffffff16815181106120e0576120e0612b1d565b63ffffffff928316602091820292909201015286518791851690811061210857612108612b1d565b60200260200101805180919061211d90612e20565b63ffffffff16905250612133565b505050612141565b505050806001019050611e9c565b8063ffffffff1667ffffffffffffffff811115612160576121606126ed565b604051908082528060200260200182016040528015612189578160200160208202803683370190505b5098505f5b8163ffffffff168163ffffffff1610156121f757848163ffffffff16815181106121ba576121ba612b1d565b60200260200101518a8263ffffffff16815181106121da576121da612b1d565b63ffffffff9092166020928302919091019091015260010161218e565b50505050505050505092915050565b6122108282612387565b6001600160a01b0382163b15806122b25750604051630a85bd0160e11b8082523360048301525f6024830181905260448301849052608060648401526084830152906001600160a01b0384169063150b7a029060a4016020604051808303815f875af1158015612282573d5f5f3e3d5ffd5b505050506040513d601f19601f820116820180604052508101906122a69190612c10565b6001600160e01b031916145b6122f15760405162461bcd60e51b815260206004820152601060248201526f155394d0519157d49150d2541251539560821b6044820152606401610909565b5050565b63ffffffff81165f908152600c602090815260409182902080548351818402810184019094528084526060939283018282801561237a57602002820191905f5260205f20905f905b82829054906101000a900463ffffffff1663ffffffff168152602001906004019060208260030104928301926001038202915080841161233d5790505b5050505050905092915050565b6001600160a01b0382166123d15760405162461bcd60e51b81526020600482015260116024820152701253959053125117d49150d25412515395607a1b6044820152606401610909565b5f818152600260205260409020546001600160a01b0316156124355760405162461bcd60e51b815260206004820152600e60248201527f414c52454144595f4d494e5445440000000000000000000000000000000000006044820152606401610909565b6001600160a01b0382165f81815260036020908152604080832080546001019055848352600290915280822080546001600160a01b0319168417905551839291907fddf252ad1be2c89b69c2b068fc378daa952ba7f163c4a11628f55a4df523b3ef908290a45050565b828054828255905f5260205f209060070160089004810192821561253b579160200282015f5b8382111561250957835183826101000a81548163ffffffff021916908363ffffffff16021790555092602001926004016020816003010492830192600103026124c5565b80156125395782816101000a81549063ffffffff0219169055600401602081600301049283019260010302612509565b505b5061254792915061254b565b5090565b5b80821115612547575f815560010161254c565b6001600160e01b031981168114612574575f5ffd5b50565b5f60208284031215612587575f5ffd5b81356125928161255f565b9392505050565b602081525f82518060208401528060208501604085015e5f604082850101526040601f19601f83011684010191505092915050565b5f602082840312156125de575f5ffd5b5035919050565b80356001600160a01b038116811461108a575f5ffd5b5f5f6040838503121561260c575f5ffd5b612615836125e5565b946020939093013593505050565b6020808252825182820152828101516040808401528051606084018190525f929190910190829060808501905b808310156126795763ffffffff8451168252602082019150602084019350600183019250612650565b5095945050505050565b5f5f5f60608486031215612695575f5ffd5b61269e846125e5565b92506126ac602085016125e5565b929592945050506040919091013590565b5f5f5f606084860312156126cf575f5ffd5b6126d8846125e5565b95602085013595506040909401359392505050565b634e487b7160e01b5f52604160045260245ffd5b604051601f8201601f1916810167ffffffffffffffff8111828210171561272a5761272a6126ed565b604052919050565b5f60208284031215612742575f5ffd5b813567ffffffffffffffff811115612758575f5ffd5b8201601f81018413612768575f5ffd5b803567ffffffffffffffff811115612782576127826126ed565b612795601f8201601f1916602001612701565b8181528560208385010111156127a9575f5ffd5b816020840160208301375f91810160200191909152949350505050565b5f8151808452602084019350602083015f5b828110156127fc57815163ffffffff168652602095860195909101906001016127d8565b5093949350505050565b828152604060208201525f61281e60408301846127c6565b949350505050565b5f60208284031215612836575f5ffd5b612592826125e5565b5f5f60408385031215612850575f5ffd5b50508035926020909101359150565b634e487b7160e01b5f52602160045260245ffd5b6002811061288f57634e487b7160e01b5f52602160045260245ffd5b9052565b602081016107f88284612873565b5f5f604083850312156128b2575f5ffd5b6128bb836125e5565b9150602083013580151581146128cf575f5ffd5b809150509250929050565b604081525f6128ec60408301856127c6565b90508260208301529392505050565b5f5f5f5f5f6080868803121561290f575f5ffd5b612918866125e5565b9450612926602087016125e5565b935060408601359250606086013567ffffffffffffffff811115612948575f5ffd5b8601601f81018813612958575f5ffd5b803567ffffffffffffffff81111561296e575f5ffd5b88602082840101111561297f575f5ffd5b959894975092955050506020019190565b5f60408201848352604060208401528084518083526060850191506020860192505f5b818110156129d15783518352602093840193909201916001016129b3565b50909695505050505050565b5f5f604083850312156129ee575f5ffd5b6129f7836125e5565b9150612a05602084016125e5565b90509250929050565b5f5f5f60608486031215612a20575f5ffd5b612a29846125e5565b925060208401359150604084013567ffffffffffffffff811115612a4b575f5ffd5b8401601f81018613612a5b575f5ffd5b803567ffffffffffffffff811115612a7557612a756126ed565b8060051b612a8560208201612701565b91825260208184018101929081019089841115612aa0575f5ffd5b6020850194505b83851015612ad6578435925063ffffffff83168314612ac4575f5ffd5b82825260209485019490910190612aa7565b80955050505050509250925092565b600181811c90821680612af957607f821691505b602082108103612b1757634e487b7160e01b5f52602260045260245ffd5b50919050565b634e487b7160e01b5f52603260045260245ffd5b634e487b7160e01b5f52601160045260245ffd5b5f81612b5357612b53612b31565b505f190190565b5f8154612b6681612ae5565b600182168015612b7d5760018114612b9257612bbf565b60ff1983168652811515820286019350612bbf565b845f5260205f205f5b83811015612bb757815488820152600190910190602001612b9b565b505081860193505b50505092915050565b5f81518060208401855e5f93019283525090919050565b5f612bfc612bf6612bf08488612b5a565b86612bc8565b84612bc8565b95945050505050565b5f6125928284612bc8565b5f60208284031215612c20575f5ffd5b81516125928161255f565b83815260608101612c3f6020830185612873565b826040830152949350505050565b808201808211156107f8576107f8612b31565b601f821115610ea957805f5260205f20601f840160051c81016020851015612c855750805b601f840160051c820191505b8181101561165c575f8155600101612c91565b815167ffffffffffffffff811115612cbe57612cbe6126ed565b612cd281612ccc8454612ae5565b84612c60565b6020601f821160018114612d04575f8315612ced5750848201515b5f19600385901b1c1916600184901b17845561165c565b5f84815260208120601f198516915b82811015612d335787850151825560209485019460019092019101612d13565b5084821015612d5057868401515f19600387901b60f8161c191681555b50505050600190811b01905550565b6001600160a01b03861681526001600160a01b038516602082015283604082015260806060820152816080820152818360a08301375f81830160a090810191909152601f909201601f19160101949350505050565b5f612dc2612bf08388612b5a565b9384525050602082015260400192915050565b5f60018201612de657612de6612b31565b5060010190565b80820281158282048414176107f8576107f8612b31565b63ffffffff81811683821601908111156107f8576107f8612b31565b5f63ffffffff821663ffffffff8103612e3b57612e3b612b31565b6001019291505056fea264697066735822122049a3ac5a0d1dcff7aa74264572afa33a90cd99dd30dbba2894fe771628cf744564736f6c634300081c0033",
  "linkReferences": {},
  "deployedLinkReferences": {}
}