{
  "_format": "hh-sol-artifact-1",
  "contractName": "MockToken",
  "sourceName": "contracts/mocks/MockToken.sol",
  "abi": [
    {
      "inputs": [],
      "stateMutability": "nonpayable",
      "type": "constructor"
    },
    {
      "inputs": [
        {
          "internalType": "address",
          "name": "spender",
          "type": "address"
        },
        {
          "internalType": "uint256",
          "name": "allowance",
          "type": "uint256"
        },
        {
          "internalType": "uint256",
          "name": "needed",
          "type": "uint256"
        }
      ],
      "name": "ERC20InsufficientAllowance",
      "type": "error"
    },
    {
      "inputs": [
        {
          "internalType": "address",
          "name": "sender",
          "type": "address"
        },
        {
          "internalType": "uint256",
          "name": "balance",
          "type": "uint256"
        },
        {
          "internalType": "uint256",
          "name": "needed",
          "type": "uint256"
        }
      ],
      "name": "ERC20InsufficientBalance",
      "type": "error"
    },
    {
      "inputs": [
        {
          "internalType": "address",
          "name": "approver",
          "type": "address"
        }
      ],
      "name": "ERC20InvalidApprover",
      "type": "error"
    },
    {
      "inputs": [
        {
          "internalType": "address",
          "name": "receiver",
          "type": "address"
        }
      ],
      "name": "ERC20InvalidReceiver",
      "type": "error"
    },
    {
      "inputs": [
        {
          "internalType": "address",
          "name": "sender",
          "type": "address"
        }
      ],
      "name": "ERC20InvalidSender",
      "type": "error"
    },
    {
      "inputs": [
        {
          "internalType": "address",
          "name": "spender",
          "type": "address"
        }
      ],
      "name": "ERC20InvalidSpender",
      "type": "error"
    },
    {
      "anonymous": false,
      "inputs": [
        {
          "indexed": true,
          "internalType": "address",
          "name": "owner",
          "type": "address"
        },
        {
          "indexed": true,
          "internalType": "address",
          "name": "spender",
          "type": "address"
        },
        {
          "indexed": false,
          "internalType": "uint256",
          "name": "value",
          "type": "uint256"
        }
      ],
      "name": "Approval",
      "type": "event"
    },
    {
      "anonymous": false,
      "inputs": [
        {
          "indexed": true,
          "internalType": "address",
          "name": "from",
          "type": "address"
        },
        {
          "indexed": true,
          "internalType": "address",
          "name": "to",
          "type": "address"
        },
        {
          "indexed": false,
          "internalType": "uint256",
          "name": "value",
          "type": "uint256"
        }
      ],
      "name": "Transfer",
      "type": "event"
    },
    {
      "inputs": [
        {
          "internalType": "address",
          "name": "owner",
          "type": "address"
        },
        {
          "internalType": "address",
          "name": "spender",
          "type": "address"
        }
      ],
      "name": "allowance",
      "outputs": [
        {
          "internalType": "uint256",
          "name": "",
          "type": "uint256"
        }
      ],
      "stateMutability": "view",
      "type": "function"
    },
    {
      "inputs": [
        {
          "internalType": "address",
          "name": "spender",
          "type": "address"
        },
        {
          "internalType": "uint256",
          "name": "value",
          "type": "uint256"
        }
      ],
      "name": "approve",
      "outputs": [
        {
          "internalType": "bool",
          "name": "",
          "type": "bool"
        }
      ],
      "stateMutability": "nonpayable",
      "type": "function"
    },
    {
      "inputs": [
        {
          "internalType": "address",
          "name": "account",
          "type": "address"
        }
      ],
      "name": "balanceOf",
      "outputs": [
        {
          "internalType": "uint256",
          "name": "",
          "type": "uint256"
        }
      ],
      "stateMutability": "view",
      "type": "function"
    },
    {
      "inputs": [],
      "name": "decimals",
      "outputs": [
        {
          "internalType": "uint8",
          "name": "",
          "type": "uint8"
        }
      ],
      "stateMutability": "view",
      "type": "function"
    },
    {
      "inputs": [
        {
          "internalType": "bytes",
          "name": "",
          "type": "bytes"
        }
      ],
      "name": "initialize",
      "outputs": [
        {
          "internalType": "bool",
          "name": "",
          "type": "bool"
        }
      ],
      "stateMutability": "pure",
      "type": "function"
    },
    {
      "inputs": [
        {
          "internalType": "address",
          "name": "to",
          "type": "address"
        },
        {
          "internalType": "uint256",
          "name": "amount",
          "type": "uint256"
        }
      ],
      "name": "mint",
      "outputs": [],
      "stateMutability": "nonpayable",
      "type": "function"
    },
    {
      "inputs": [],
      "name": "name",
      "outputs": [
        {
          "internalType": "string",
          "name": "",
          "type": "string"
        }
      ],
      "stateMutability": "view",
      "type": "function"
    },
    {
      "inputs": [],
      "name": "symbol",
      "outputs": [
        {
          "internalType": "string",
          "name": "",
          "type": "string"
        }
      ],
      "stateMutability": "view",
      "type": "function"
    },
    {
      "inputs": [],
      "name": "totalSupply",
      "outputs": [
        {
          "internalType": "uint256",
          "name": "",
          "type": "uint256"
        }
      ],
      "stateMutability": "view",
      "type": "function"
    },
    {
      "inputs": [
        {
          "internalType": "address",
          "name": "to",
          "type": "address"
        },
        {
          "internalType": "uint256",
          "name": "value",
          "type": "uint256"
        }
      ],
      "name": "transfer",
      "outputs": [
        {
          "internalType": "bool",
          "name": "",
          "type": "bool"
        }
      ],
      "stateMutability": "nonpayable",
      "type": "function"
    },
    {
      "inputs": [
        {
          "internalType": "address",
          "name": "from",
          "type": "address"
        },
        {
          "internalType": "address",
          "name": "to",
          "type": "address"
        },
        {
          "internalType": "uint256",
          "name": "value",
          "type": "uint256"
        }
      ],
      "name": "transferFrom",
      "outputs": [
        {
          "internalType": "bool",
          "name": "",
          "type": "bool"
        }
      ],
      "stateMutability": "nonpayable",
      "type": "function"
    }
  ],
  "bytecode": "0x608060405234801561000f575f5ffd5b506040518060400160405280600a81526020016926b7b1b5902a37b5b2b760b11b815250604051806040016040528060048152602001634d4f434b60e01b815250816003908161005f919061010c565b50600461006c828261010c565b5050506101c6565b634e487b7160e01b5f52604160045260245ffd5b600181811c9082168061009c57607f821691505b6020821081036100ba57634e487b7160e01b5f52602260045260245ffd5b50919050565b601f82111561010757805f5260205f20601f840160051c810160208510156100e55750805b601f840160051c820191505b81811015610104575f81556001016100f1565b50505b505050565b81516001600160401b0381111561012557610125610074565b610139816101338454610088565b846100c0565b6020601f82116001811461016b575f83156101545750848201515b5f19600385901b1c1916600184901b178455610104565b5f84815260208120601f198516915b8281101561019a578785015182556020948501946001909201910161017a565b50848210156101b757868401515f19600387901b60f8161c191681555b50505050600190811b01905550565b6107f3806101d35f395ff3fe608060405234801561000f575f5ffd5b50600436106100c4575f3560e01c806340c10f191161007d57806395d89b411161005857806395d89b4114610190578063a9059cbb14610198578063dd62ed3e146101ab575f5ffd5b806340c10f191461013d578063439fab911461015257806370a0823114610168575f5ffd5b806318160ddd116100ad57806318160ddd1461010957806323b872dd1461011b578063313ce5671461012e575f5ffd5b806306fdde03146100c8578063095ea7b3146100e6575b5f5ffd5b6100d06101e3565b6040516100dd91906105f5565b60405180910390f35b6100f96100f4366004610645565b610273565b60405190151581526020016100dd565b6002545b6040519081526020016100dd565b6100f961012936600461066d565b61028c565b604051601281526020016100dd565b61015061014b366004610645565b6102af565b005b6100f96101603660046106a7565b600192915050565b61010d610176366004610715565b6001600160a01b03165f9081526020819052604090205490565b6100d06102bd565b6100f96101a6366004610645565b6102cc565b61010d6101b9366004610735565b6001600160a01b039182165f90815260016020908152604080832093909416825291909152205490565b6060600380546101f290610766565b80601f016020809104026020016040519081016040528092919081815260200182805461021e90610766565b80156102695780601f1061024057610100808354040283529160200191610269565b820191905f5260205f20905b81548152906001019060200180831161024c57829003601f168201915b5050505050905090565b5f336102808185856102d9565b60019150505b92915050565b5f336102998582856102eb565b6102a485858561036c565b506001949350505050565b6102b982826103c9565b5050565b6060600480546101f290610766565b5f3361028081858561036c565b6102e683838360016103fd565b505050565b6001600160a01b038381165f908152600160209081526040808320938616835292905220545f19811015610366578181101561035857604051637dc7a0d960e11b81526001600160a01b038416600482015260248101829052604481018390526064015b60405180910390fd5b61036684848484035f6103fd565b50505050565b6001600160a01b03831661039557604051634b637e8f60e11b81525f600482015260240161034f565b6001600160a01b0382166103be5760405163ec442f0560e01b81525f600482015260240161034f565b6102e68383836104cf565b6001600160a01b0382166103f25760405163ec442f0560e01b81525f600482015260240161034f565b6102b95f83836104cf565b6001600160a01b0384166104265760405163e602df0560e01b81525f600482015260240161034f565b6001600160a01b03831661044f57604051634a1406b160e11b81525f600482015260240161034f565b6001600160a01b038085165f908152600160209081526040808320938716835292905220829055801561036657826001600160a01b0316846001600160a01b03167f8c5be1e5ebec7d5bd14f71427d1e84f3dd0314c0f7b2291e5b200ac8c7c3b925846040516104c191815260200190565b60405180910390a350505050565b6001600160a01b0383166104f9578060025f8282546104ee919061079e565b909155506105699050565b6001600160a01b0383165f908152602081905260409020548181101561054b5760405163391434e360e21b81526001600160a01b0385166004820152602481018290526044810183905260640161034f565b6001600160a01b0384165f9081526020819052604090209082900390555b6001600160a01b038216610585576002805482900390556105a3565b6001600160a01b0382165f9081526020819052604090208054820190555b816001600160a01b0316836001600160a01b03167fddf252ad1be2c89b69c2b068fc378daa952ba7f163c4a11628f55a4df523b3ef836040516105e891815260200190565b60405180910390a3505050565b602081525f82518060208401528060208501604085015e5f604082850101526040601f19601f83011684010191505092915050565b80356001600160a01b0381168114610640575f5ffd5b919050565b5f5f60408385031215610656575f5ffd5b61065f8361062a565b946020939093013593505050565b5f5f5f6060848603121561067f575f5ffd5b6106888461062a565b92506106966020850161062a565b929592945050506040919091013590565b5f5f602083850312156106b8575f5ffd5b823567ffffffffffffffff8111156106ce575f5ffd5b8301601f810185136106de575f5ffd5b803567ffffffffffffffff8111156106f4575f5ffd5b856020828401011115610705575f5ffd5b6020919091019590945092505050565b5f60208284031215610725575f5ffd5b61072e8261062a565b9392505050565b5f5f60408385031215610746575f5ffd5b61074f8361062a565b915061075d6020840161062a565b90509250929050565b600181811c9082168061077a57607f821691505b60208210810361079857634e487b7160e01b5f52602260045260245ffd5b50919050565b8082018082111561028657634e487b7160e01b5f52601160045260245ffdfea26469706673582212207e0223a9c705d1ef788dabb272f775d033cc00c949a2c51b4628547732d1f5b664736f6c634300081c0033",
  "linkReferences": {},
  "deployedLinkReferences": {}
}