{
  "_format": "hh-sol-artifact-1",
  "contractName": "HashCheckpoint",
  "sourceName": "contracts/utils/HashCheckpoint.sol",
  "abi": [
    {
      "inputs": [
        {
          "internalType": "string",
          "name": "_baseURI",
          "type": "string"
        }
      ],
      "stateMutability": "nonpayable",
      "type": "constructor"
    },
    {
      "inputs": [
        {
          "internalType": "address",
          "name": "sender",
          "type": "address"
        },
        {
          "internalType": "address",
          "name": "owner",
          "type": "address"
        }
      ],
      "name": "OwnerOnly",
      "type": "error"
    },
    {
      "inputs": [],
      "name": "ZeroAddress",
      "type": "error"
    },
    {
      "inputs": [],
      "name": "ZeroValue",
      "type": "error"
    },
    {
      "anonymous": false,
      "inputs": [
        {
          "indexed": false,
          "internalType": "string",
          "name": "baseURI",
          "type": "string"
        }
      ],
      "name": "BaseURIChanged",
      "type": "event"
    },
    {
      "anonymous": false,
      "inputs": [
        {
          "indexed": true,
          "internalType": "address",
          "name": "emitter",
          "type": "address"
        },
        {
          "indexed": false,
          "internalType": "bytes32",
          "name": "hash",
          "type": "bytes32"
        }
      ],
      "name": "HashUpdated",
      "type": "event"
    },
    {
      "anonymous": false,
      "inputs": [
        {
          "indexed": true,
          "internalType": "address",
          "name": "manager",
          "type": "address"
        }
      ],
      "name": "ManagerUpdated",
      "type": "event"
    },
    {
      "anonymous": false,
      "inputs": [
        {
          "indexed": true,
          "internalType": "address",
          "name": "owner",
          "type": "address"
        }
      ],
      "name": "OwnerUpdated",
      "type": "event"
    },
    {
      "inputs": [],
      "name": "CID_PREFIX",
      "outputs": [
        {
          "internalType": "string",
          "name": "",
          "type": "string"
        }
      ],
      "stateMutability": "view",
      "type": "function"
    },
    {
      "inputs": [],
      "name": "baseURI",
      "outputs": [
        {
          "internalType": "string",
          "name": "",
          "type": "string"
        }
      ],
      "stateMutability": "view",
      "type": "function"
    },
    {
      "inputs": [
        {
          "internalType": "address",
          "name": "newOwner",
          "type": "address"
        }
      ],
      "name": "changeOwner",
      "outputs": [],
      "stateMutability": "nonpayable",
      "type": "function"
    },
    {
      "inputs": [
        {
          "internalType": "bytes32",
          "name": "hash",
          "type": "bytes32"
        }
      ],
      "name": "checkpoint",
      "outputs": [],
      "stateMutability": "nonpayable",
      "type": "function"
    },
    {
      "inputs": [
        {
          "internalType": "address",
          "name": "_address",
          "type": "address"
        }
      ],
      "name": "latestHash",
      "outputs": [
        {
          "internalType": "string",
          "name": "",
          "type": "string"
        }
      ],
      "stateMutability": "view",
      "type": "function"
    },
    {
      "inputs": [
        {
          "internalType": "address",
          "name": "_address",
          "type": "address"
        }
      ],
      "name": "latestHashURI",
      "outputs": [
        {
          "internalType": "string",
          "name": "",
          "type": "string"
        }
      ],
      "stateMutability": "view",
      "type": "function"
    },
    {
      "inputs": [
        {
          "internalType": "address",
          "name": "",
          "type": "address"
        }
      ],
      "name": "latestHashes",
      "outputs": [
        {
          "internalType": "bytes32",
          "name": "",
          "type": "bytes32"
        }
      ],
      "stateMutability": "view",
      "type": "function"
    },
    {
      "inputs": [],
      "name": "owner",
      "outputs": [
        {
          "internalType": "address",
          "name": "",
          "type": "address"
        }
      ],
      "stateMutability": "view",
      "type": "function"
    },
    {
      "inputs": [
        {
          "internalType": "string",
          "name": "bURI",
          "type": "string"
        }
      ],
      "name": "setBaseURI",
      "outputs": [],
      "stateMutability": "nonpayable",
      "type": "function"
    }
  ],
  "bytecode": "0x608060405234801561000f575f5ffd5b50604051610cd7380380610cd783398101604081905261002e91610066565b600161003a828261019a565b50505f80546001600160a01b03191633179055610254565b634e487b7160e01b5f52604160045260245ffd5b5f60208284031215610076575f5ffd5b81516001600160401b0381111561008b575f5ffd5b8201601f8101841361009b575f5ffd5b80516001600160401b038111156100b4576100b4610052565b604051601f8201601f19908116603f011681016001600160401b03811182821017156100e2576100e2610052565b6040528181528282016020018610156100f9575f5ffd5b8160208401602083015e5f91810160200191909152949350505050565b600181811c9082168061012a57607f821691505b60208210810361014857634e487b7160e01b5f52602260045260245ffd5b50919050565b601f82111561019557805f5260205f20601f840160051c810160208510156101735750805b601f840160051c820191505b81811015610192575f815560010161017f565b50505b505050565b81516001600160401b038111156101b3576101b3610052565b6101c7816101c18454610116565b8461014e565b6020601f8211600181146101f9575f83156101e25750848201515b5f19600385901b1c1916600184901b178455610192565b5f84815260208120601f198516915b828110156102285787850151825560209485019460019092019101610208565b508482101561024557868401515f19600387901b60f8161c191681555b50505050600190811b01905550565b610a76806102615f395ff3fe608060405234801561000f575f5ffd5b506004361061009f575f3560e01c80637c5e63e011610072578063a6f9dae111610058578063a6f9dae114610164578063a9eb795114610177578063ba20b5bd1461018a575f5ffd5b80637c5e63e0146101125780638da5cb5b1461013a575f5ffd5b806355f804b3146100a35780635b34eba0146100b8578063654ac6ca146100cb5780636c0360eb146100fd575b5f5ffd5b6100b66100b13660046106dc565b61019d565b005b6100b66100c636600461078f565b610248565b6100ea6100d93660046107a6565b60026020525f908152604090205481565b6040519081526020015b60405180910390f35b610105610296565b6040516100f491906107d3565b6101056040518060400160405280600981526020016806630313730313232360bc1b81525081565b5f5461014c906001600160a01b031681565b6040516001600160a01b0390911681526020016100f4565b6100b66101723660046107a6565b610322565b6101056101853660046107a6565b6103e6565b6101056101983660046107a6565b610473565b5f546001600160a01b031633146101e0575f5460405163521eb56d60e11b81523360048201526001600160a01b0390911660248201526044015b60405180910390fd5b80515f0361020157604051637c946ed760e01b815260040160405180910390fd5b600161020d828261088c565b507f5411e8ebf1636d9e83d5fc4900bf80cbac82e8790da2a4c94db4895e889eedf68160405161023d91906107d3565b60405180910390a150565b335f8181526002602052604090819020839055517fe0580e65e31c995b4cd3d5c8a911e89d31ef328be761a1ca2f35b795d00a152c9061028b9084815260200190565b60405180910390a250565b600180546102a390610808565b80601f01602080910402602001604051908101604052809291908181526020018280546102cf90610808565b801561031a5780601f106102f15761010080835404028352916020019161031a565b820191905f5260205f20905b8154815290600101906020018083116102fd57829003601f168201915b505050505081565b5f546001600160a01b03163314610360575f5460405163521eb56d60e11b81523360048201526001600160a01b0390911660248201526044016101d7565b6001600160a01b0381166103875760405163d92e233d60e01b815260040160405180910390fd5b5f80547fffffffffffffffffffffffff0000000000000000000000000000000000000000166001600160a01b038316908117825560405190917f4ffd725fc4a22075e9ec71c59edf9c38cdeb588a91b24fc5b61388c5be41282b91a250565b60605f60025f846001600160a01b03166001600160a01b031681526020019081526020015f2054905060016040518060400160405280600981526020016806630313730313232360bc1b81525061043c836104da565b610449608085901b6104da565b60405160200161045c949392919061095e565b604051602081830303815290604052915050919050565b6001600160a01b0381165f90815260026020908152604091829020548251808401909352600983526806630313730313232360bc1b918301919091526060916104bb826104da565b6104c8608084901b6104da565b60405160200161045c939291906109e5565b7aff00000000000000ff00000000000000ff00000000000000ff00006bffffffff0000000000000000604083901c9081167bffffffff00000000000000000000000000000000000000000000000084161760201c6fffffffff000000000000000000000000919091167fffffffff0000000000000000000000000000000000000000000000000000000084161717601081901c9182167eff00000000000000ff00000000000000ff00000000000000ff000000000000821617600890811c7bff00000000000000ff00000000000000ff00000000000000ff000000939093167fff00000000000000ff00000000000000ff00000000000000ff000000000000009290921691909117919091179081901c7e0f000f000f000f000f000f000f000f000f000f000f000f000f000f000f000f167f0f000f000f000f000f000f000f000f000f000f000f000f000f000f000f000f00600492831c16179061065e827f0606060606060606060606060606060606060606060606060606060606060606610a16565b901c7f0f0f0f0f0f0f0f0f0f0f0f0f0f0f0f0f0f0f0f0f0f0f0f0f0f0f0f0f0f0f0f0f16602761068e9190610a29565b6106b8827f3030303030303030303030303030303030303030303030303030303030303030610a16565b6106c29190610a16565b92915050565b634e487b7160e01b5f52604160045260245ffd5b5f602082840312156106ec575f5ffd5b813567ffffffffffffffff811115610702575f5ffd5b8201601f81018413610712575f5ffd5b803567ffffffffffffffff81111561072c5761072c6106c8565b604051601f8201601f19908116603f0116810167ffffffffffffffff8111828210171561075b5761075b6106c8565b604052818152828201602001861015610772575f5ffd5b816020840160208301375f91810160200191909152949350505050565b5f6020828403121561079f575f5ffd5b5035919050565b5f602082840312156107b6575f5ffd5b81356001600160a01b03811681146107cc575f5ffd5b9392505050565b602081525f82518060208401528060208501604085015e5f604082850101526040601f19601f83011684010191505092915050565b600181811c9082168061081c57607f821691505b60208210810361083a57634e487b7160e01b5f52602260045260245ffd5b50919050565b601f82111561088757805f5260205f20601f840160051c810160208510156108655750805b601f840160051c820191505b81811015610884575f8155600101610871565b50505b505050565b815167ffffffffffffffff8111156108a6576108a66106c8565b6108ba816108b48454610808565b84610840565b6020601f8211600181146108ec575f83156108d55750848201515b5f19600385901b1c1916600184901b178455610884565b5f84815260208120601f198516915b8281101561091b57878501518255602094850194600190920191016108fb565b508482101561093857868401515f19600387901b60f8161c191681555b50505050600190811b01905550565b5f81518060208401855e5f93019283525090919050565b5f5f865461096b81610808565b6001821680156109825760018114610997576109c4565b60ff19831686528115158202860193506109c4565b895f5260205f205f5b838110156109bc578154888201526001909101906020016109a0565b505081860193505b5050506109d18187610947565b948552505050602082015260400192915050565b5f6109f08286610947565b93845250506020820152604001919050565b634e487b7160e01b5f52601160045260245ffd5b808201808211156106c2576106c2610a02565b80820281158282048414176106c2576106c2610a0256fea26469706673582212202e35e17cd0a2e81949b996d7e4f6a46ca04386ce906cbd02c5b943ae16a56cfa64736f6c634300081c0033",
  "linkReferences": {},
  "deployedLinkReferences": {}
}