{
  "_format": "hh-sol-artifact-1",
  "contractName": "StorageAccessible",
  "sourceName": "@gnosis.pm/safe-contracts/contracts/common/StorageAccessible.sol",
  "abi": [
    {
      "inputs": [
        {
          "internalType": "uint256",
          "name": "offset",
          "type": "uint256"
        },
        {
          "internalType": "uint256",
          "name": "length",
          "type": "uint256"
        }
      ],
      "name": "getStorageAt",
      "outputs": [
        {
          "internalType": "bytes",
          "name": "",
          "type": "bytes"
        }
      ],
      "stateMutability": "view",
      "type": "function"
    },
    {
      "inputs": [
        {
          "internalType": "address",
          "name": "targetContract",
          "type": "address"
        },
        {
          "internalType": "bytes",
          "name": "calldataPayload",
          "type": "bytes"
        }
      ],
      "name": "simulateAndRevert",
      "outputs": [],
      "stateMutability": "nonpayable",
      "type": "function"
    }
  ],
  "bytecode": "0x6080604052348015600e575f5ffd5b506102b18061001c5f395ff3fe608060405234801561000f575f5ffd5b5060043610610034575f3560e01c80635624b25b14610038578063b4faba0914610061575b5f5ffd5b61004b610046366004610111565b610076565b6040516100589190610131565b60405180910390f35b61007461006f36600461017a565b6100f2565b005b60605f610084836020610258565b67ffffffffffffffff81111561009c5761009c610166565b6040519080825280601f01601f1916602001820160405280156100c6576020820181803683370190505b5090505f5b838110156100e857848101546020808302840101526001016100cb565b5090505b92915050565b5f5f825160208401855af4805f52503d6020523d5f60403e60403d015ffd5b5f5f60408385031215610122575f5ffd5b50508035926020909101359150565b602081525f82518060208401528060208501604085015e5f604082850101526040601f19601f83011684010191505092915050565b634e487b7160e01b5f52604160045260245ffd5b5f5f6040838503121561018b575f5ffd5b823573ffffffffffffffffffffffffffffffffffffffff811681146101ae575f5ffd5b9150602083013567ffffffffffffffff8111156101c9575f5ffd5b8301601f810185136101d9575f5ffd5b803567ffffffffffffffff8111156101f3576101f3610166565b604051601f8201601f19908116603f0116810167ffffffffffffffff8111828210171561022257610222610166565b604052818152828201602001871015610239575f5ffd5b816020840160208301375f602083830101528093505050509250929050565b80820281158282048414176100ec57634e487b7160e01b5f52601160045260245ffdfea2646970667358221220873b123a15f83ad80af6915b4e90e36c22046002be80ba82e0226375045a5e7464736f6c634300081c0033",
  "linkReferences": {},
  "deployedLinkReferences": {}
}