{
  "_format": "hh-sol-artifact-1",
  "contractName": "MockOperatorContract",
  "sourceName": "contracts/test/MockOperatorContract.sol",
  "abi": [
    {
      "inputs": [
        {
          "internalType": "bytes32",
          "name": "hash",
          "type": "bytes32"
        }
      ],
      "name": "approveHash",
      "outputs": [],
      "stateMutability": "nonpayable",
      "type": "function"
    },
    {
      "inputs": [
        {
          "internalType": "bytes32",
          "name": "",
          "type": "bytes32"
        }
      ],
      "name": "approvedHashes",
      "outputs": [
        {
          "internalType": "bool",
          "name": "",
          "type": "bool"
        }
      ],
      "stateMutability": "view",
      "type": "function"
    },
    {
      "inputs": [
        {
          "internalType": "bytes32",
          "name": "hash",
          "type": "bytes32"
        },
        {
          "internalType": "bytes",
          "name": "",
          "type": "bytes"
        }
      ],
      "name": "isValidSignature",
      "outputs": [
        {
          "internalType": "bytes4",
          "name": "magicValue",
          "type": "bytes4"
        }
      ],
      "stateMutability": "view",
      "type": "function"
    }
  ],
  "bytecode": "0x6080604052348015600e575f5ffd5b5061022c8061001c5f395ff3fe608060405234801561000f575f5ffd5b506004361061003f575f3560e01c80631626ba7e1461004357806387bd84cc1461008c578063d4d9bdcd146100be575b5f5ffd5b610056610051366004610122565b6100e8565b6040517fffffffff0000000000000000000000000000000000000000000000000000000090911681526020015b60405180910390f35b6100ae61009a3660046101df565b5f6020819052908152604090205460ff1681565b6040519015158152602001610083565b6100e66100cc3660046101df565b5f908152602081905260409020805460ff19166001179055565b005b5f8281526020819052604081205460ff16156101085750630b135d3f60e11b5b92915050565b634e487b7160e01b5f52604160045260245ffd5b5f5f60408385031215610133575f5ffd5b82359150602083013567ffffffffffffffff811115610150575f5ffd5b8301601f81018513610160575f5ffd5b803567ffffffffffffffff81111561017a5761017a61010e565b604051601f8201601f19908116603f0116810167ffffffffffffffff811182821017156101a9576101a961010e565b6040528181528282016020018710156101c0575f5ffd5b816020840160208301375f602083830101528093505050509250929050565b5f602082840312156101ef575f5ffd5b503591905056fea2646970667358221220ef662fddfb0966abecde8fae3d493cddc4f026c95c90cf8911a4a67f92863daa64736f6c634300081c0033",
  "linkReferences": {},
  "deployedLinkReferences": {}
}